{
  "_format": "hh-sol-artifact-1",
  "contractName": "CarMarketplace",
  "sourceName": "contracts/CarMarketplace.sol",
  "abi": [
    {
      "inputs": [],
      "stateMutability": "nonpayable",
      "type": "constructor"
    },
    {
      "inputs": [
        {
          "internalType": "address",
          "name": "sender",
          "type": "address"
        },
        {
          "internalType": "uint256",
          "name": "tokenId",
          "type": "uint256"
        },
        {
          "internalType": "address",
          "name": "owner",
          "type": "address"
        }
      ],
      "name": "ERC721IncorrectOwner",
      "type": "error"
    },
    {
      "inputs": [
        {
          "internalType": "address",
          "name": "operator",
          "type": "address"
        },
        {
          "internalType": "uint256",
          "name": "tokenId",
          "type": "uint256"
        }
      ],
      "name": "ERC721InsufficientApproval",
      "type": "error"
    },
    {
      "inputs": [
        {
          "internalType": "address",
          "name": "approver",
          "type": "address"
        }
      ],
      "name": "ERC721InvalidApprover",
      "type": "error"
    },
    {
      "inputs": [
        {
          "internalType": "address",
          "name": "operator",
          "type": "address"
        }
      ],
      "name": "ERC721InvalidOperator",
      "type": "error"
    },
    {
      "inputs": [
        {
          "internalType": "address",
          "name": "owner",
          "type": "address"
        }
      ],
      "name": "ERC721InvalidOwner",
      "type": "error"
    },
    {
      "inputs": [
        {
          "internalType": "address",
          "name": "receiver",
          "type": "address"
        }
      ],
      "name": "ERC721InvalidReceiver",
      "type": "error"
    },
    {
      "inputs": [
        {
          "internalType": "address",
          "name": "sender",
          "type": "address"
        }
      ],
      "name": "ERC721InvalidSender",
      "type": "error"
    },
    {
      "inputs": [
        {
          "internalType": "uint256",
          "name": "tokenId",
          "type": "uint256"
        }
      ],
      "name": "ERC721NonexistentToken",
      "type": "error"
    },
    {
      "inputs": [
        {
          "internalType": "address",
          "name": "owner",
          "type": "address"
        }
      ],
      "name": "OwnableInvalidOwner",
      "type": "error"
    },
    {
      "inputs": [
        {
          "internalType": "address",
          "name": "account",
          "type": "address"
        }
      ],
      "name": "OwnableUnauthorizedAccount",
      "type": "error"
    },
    {
      "anonymous": false,
      "inputs": [
        {
          "indexed": true,
          "internalType": "address",
          "name": "owner",
          "type": "address"
        },
        {
          "indexed": true,
          "internalType": "address",
          "name": "approved",
          "type": "address"
        },
        {
          "indexed": true,
          "internalType": "uint256",
          "name": "tokenId",
          "type": "uint256"
        }
      ],
      "name": "Approval",
      "type": "event"
    },
    {
      "anonymous": false,
      "inputs": [
        {
          "indexed": true,
          "internalType": "address",
          "name": "owner",
          "type": "address"
        },
        {
          "indexed": true,
          "internalType": "address",
          "name": "operator",
          "type": "address"
        },
        {
          "indexed": false,
          "internalType": "bool",
          "name": "approved",
          "type": "bool"
        }
      ],
      "name": "ApprovalForAll",
      "type": "event"
    },
    {
      "anonymous": false,
      "inputs": [
        {
          "indexed": false,
          "internalType": "uint256",
          "name": "_fromTokenId",
          "type": "uint256"
        },
        {
          "indexed": false,
          "internalType": "uint256",
          "name": "_toTokenId",
          "type": "uint256"
        }
      ],
      "name": "BatchMetadataUpdate",
      "type": "event"
    },
    {
      "anonymous": false,
      "inputs": [
        {
          "indexed": false,
          "internalType": "uint256",
          "name": "tokenId",
          "type": "uint256"
        },
        {
          "indexed": false,
          "internalType": "uint256",
          "name": "price",
          "type": "uint256"
        }
      ],
      "name": "CarListedForSale",
      "type": "event"
    },
    {
      "anonymous": false,
      "inputs": [
        {
          "indexed": false,
          "internalType": "uint256",
          "name": "tokenId",
          "type": "uint256"
        },
        {
          "indexed": false,
          "internalType": "address",
          "name": "owner",
          "type": "address"
        },
        {
          "indexed": false,
          "internalType": "string",
          "name": "vin",
          "type": "string"
        }
      ],
      "name": "CarMinted",
      "type": "event"
    },
    {
      "anonymous": false,
      "inputs": [
        {
          "indexed": false,
          "internalType": "uint256",
          "name": "tokenId",
          "type": "uint256"
        },
        {
          "indexed": false,
          "internalType": "address",
          "name": "newOwner",
          "type": "address"
        },
        {
          "indexed": false,
          "internalType": "uint256",
          "name": "price",
          "type": "uint256"
        }
      ],
      "name": "CarSold",
      "type": "event"
    },
    {
      "anonymous": false,
      "inputs": [
        {
          "indexed": false,
          "internalType": "uint256",
          "name": "_tokenId",
          "type": "uint256"
        }
      ],
      "name": "MetadataUpdate",
      "type": "event"
    },
    {
      "anonymous": false,
      "inputs": [
        {
          "indexed": true,
          "internalType": "address",
          "name": "previousOwner",
          "type": "address"
        },
        {
          "indexed": true,
          "internalType": "address",
          "name": "newOwner",
          "type": "address"
        }
      ],
      "name": "OwnershipTransferred",
      "type": "event"
    },
    {
      "anonymous": false,
      "inputs": [
        {
          "indexed": true,
          "internalType": "address",
          "name": "from",
          "type": "address"
        },
        {
          "indexed": true,
          "internalType": "address",
          "name": "to",
          "type": "address"
        },
        {
          "indexed": true,
          "internalType": "uint256",
          "name": "tokenId",
          "type": "uint256"
        }
      ],
      "name": "Transfer",
      "type": "event"
    },
    {
      "inputs": [
        {
          "internalType": "address",
          "name": "to",
          "type": "address"
        },
        {
          "internalType": "uint256",
          "name": "tokenId",
          "type": "uint256"
        }
      ],
      "name": "approve",
      "outputs": [],
      "stateMutability": "nonpayable",
      "type": "function"
    },
    {
      "inputs": [
        {
          "internalType": "address",
          "name": "owner",
          "type": "address"
        }
      ],
      "name": "balanceOf",
      "outputs": [
        {
          "internalType": "uint256",
          "name": "",
          "type": "uint256"
        }
      ],
      "stateMutability": "view",
      "type": "function"
    },
    {
      "inputs": [
        {
          "internalType": "uint256",
          "name": "tokenId",
          "type": "uint256"
        }
      ],
      "name": "buyCar",
      "outputs": [],
      "stateMutability": "payable",
      "type": "function"
    },
    {
      "inputs": [],
      "name": "getAllCars",
      "outputs": [
        {
          "components": [
            {
              "internalType": "string",
              "name": "make",
              "type": "string"
            },
            {
              "internalType": "string",
              "name": "model",
              "type": "string"
            },
            {
              "internalType": "uint256",
              "name": "year",
              "type": "uint256"
            },
            {
              "internalType": "string",
              "name": "vin",
              "type": "string"
            },
            {
              "internalType": "uint256",
              "name": "mileage",
              "type": "uint256"
            },
            {
              "internalType": "bool",
              "name": "forSale",
              "type": "bool"
            },
            {
              "internalType": "uint256",
              "name": "price",
              "type": "uint256"
            },
            {
              "internalType": "string",
              "name": "tokenURI",
              "type": "string"
            }
          ],
          "internalType": "struct CarMarketplace.Car[]",
          "name": "",
          "type": "tuple[]"
        }
      ],
      "stateMutability": "view",
      "type": "function"
    },
    {
      "inputs": [
        {
          "internalType": "uint256",
          "name": "tokenId",
          "type": "uint256"
        }
      ],
      "name": "getApproved",
      "outputs": [
        {
          "internalType": "address",
          "name": "",
          "type": "address"
        }
      ],
      "stateMutability": "view",
      "type": "function"
    },
    {
      "inputs": [
        {
          "internalType": "uint256",
          "name": "tokenId",
          "type": "uint256"
        }
      ],
      "name": "getCarDetails",
      "outputs": [
        {
          "components": [
            {
              "internalType": "string",
              "name": "make",
              "type": "string"
            },
            {
              "internalType": "string",
              "name": "model",
              "type": "string"
            },
            {
              "internalType": "uint256",
              "name": "year",
              "type": "uint256"
            },
            {
              "internalType": "string",
              "name": "vin",
              "type": "string"
            },
            {
              "internalType": "uint256",
              "name": "mileage",
              "type": "uint256"
            },
            {
              "internalType": "bool",
              "name": "forSale",
              "type": "bool"
            },
            {
              "internalType": "uint256",
              "name": "price",
              "type": "uint256"
            },
            {
              "internalType": "string",
              "name": "tokenURI",
              "type": "string"
            }
          ],
          "internalType": "struct CarMarketplace.Car",
          "name": "",
          "type": "tuple"
        }
      ],
      "stateMutability": "view",
      "type": "function"
    },
    {
      "inputs": [
        {
          "internalType": "string",
          "name": "vin",
          "type": "string"
        }
      ],
      "name": "getTokenIdByVIN",
      "outputs": [
        {
          "internalType": "uint256",
          "name": "",
          "type": "uint256"
        }
      ],
      "stateMutability": "view",
      "type": "function"
    },
    {
      "inputs": [
        {
          "internalType": "address",
          "name": "owner",
          "type": "address"
        },
        {
          "internalType": "address",
          "name": "operator",
          "type": "address"
        }
      ],
      "name": "isApprovedForAll",
      "outputs": [
        {
          "internalType": "bool",
          "name": "",
          "type": "bool"
        }
      ],
      "stateMutability": "view",
      "type": "function"
    },
    {
      "inputs": [
        {
          "internalType": "uint256",
          "name": "tokenId",
          "type": "uint256"
        },
        {
          "internalType": "uint256",
          "name": "price",
          "type": "uint256"
        }
      ],
      "name": "listCarForSale",
      "outputs": [],
      "stateMutability": "nonpayable",
      "type": "function"
    },
    {
      "inputs": [
        {
          "internalType": "address",
          "name": "to",
          "type": "address"
        },
        {
          "internalType": "string",
          "name": "make",
          "type": "string"
        },
        {
          "internalType": "string",
          "name": "model",
          "type": "string"
        },
        {
          "internalType": "uint256",
          "name": "year",
          "type": "uint256"
        },
        {
          "internalType": "string",
          "name": "vin",
          "type": "string"
        },
        {
          "internalType": "uint256",
          "name": "mileage",
          "type": "uint256"
        },
        {
          "internalType": "uint256",
          "name": "price",
          "type": "uint256"
        },
        {
          "internalType": "string",
          "name": "tokenURI",
          "type": "string"
        }
      ],
      "name": "mintCar",
      "outputs": [],
      "stateMutability": "nonpayable",
      "type": "function"
    },
    {
      "inputs": [],
      "name": "name",
      "outputs": [
        {
          "internalType": "string",
          "name": "",
          "type": "string"
        }
      ],
      "stateMutability": "view",
      "type": "function"
    },
    {
      "inputs": [],
      "name": "owner",
      "outputs": [
        {
          "internalType": "address",
          "name": "",
          "type": "address"
        }
      ],
      "stateMutability": "view",
      "type": "function"
    },
    {
      "inputs": [
        {
          "internalType": "uint256",
          "name": "tokenId",
          "type": "uint256"
        }
      ],
      "name": "ownerOf",
      "outputs": [
        {
          "internalType": "address",
          "name": "",
          "type": "address"
        }
      ],
      "stateMutability": "view",
      "type": "function"
    },
    {
      "inputs": [],
      "name": "renounceOwnership",
      "outputs": [],
      "stateMutability": "nonpayable",
      "type": "function"
    },
    {
      "inputs": [
        {
          "internalType": "address",
          "name": "from",
          "type": "address"
        },
        {
          "internalType": "address",
          "name": "to",
          "type": "address"
        },
        {
          "internalType": "uint256",
          "name": "tokenId",
          "type": "uint256"
        }
      ],
      "name": "safeTransferFrom",
      "outputs": [],
      "stateMutability": "nonpayable",
      "type": "function"
    },
    {
      "inputs": [
        {
          "internalType": "address",
          "name": "from",
          "type": "address"
        },
        {
          "internalType": "address",
          "name": "to",
          "type": "address"
        },
        {
          "internalType": "uint256",
          "name": "tokenId",
          "type": "uint256"
        },
        {
          "internalType": "bytes",
          "name": "data",
          "type": "bytes"
        }
      ],
      "name": "safeTransferFrom",
      "outputs": [],
      "stateMutability": "nonpayable",
      "type": "function"
    },
    {
      "inputs": [
        {
          "internalType": "address",
          "name": "operator",
          "type": "address"
        },
        {
          "internalType": "bool",
          "name": "approved",
          "type": "bool"
        }
      ],
      "name": "setApprovalForAll",
      "outputs": [],
      "stateMutability": "nonpayable",
      "type": "function"
    },
    {
      "inputs": [
        {
          "internalType": "bytes4",
          "name": "interfaceId",
          "type": "bytes4"
        }
      ],
      "name": "supportsInterface",
      "outputs": [
        {
          "internalType": "bool",
          "name": "",
          "type": "bool"
        }
      ],
      "stateMutability": "view",
      "type": "function"
    },
    {
      "inputs": [],
      "name": "symbol",
      "outputs": [
        {
          "internalType": "string",
          "name": "",
          "type": "string"
        }
      ],
      "stateMutability": "view",
      "type": "function"
    },
    {
      "inputs": [
        {
          "internalType": "uint256",
          "name": "tokenId",
          "type": "uint256"
        }
      ],
      "name": "tokenURI",
      "outputs": [
        {
          "internalType": "string",
          "name": "",
          "type": "string"
        }
      ],
      "stateMutability": "view",
      "type": "function"
    },
    {
      "inputs": [
        {
          "internalType": "address",
          "name": "from",
          "type": "address"
        },
        {
          "internalType": "address",
          "name": "to",
          "type": "address"
        },
        {
          "internalType": "uint256",
          "name": "tokenId",
          "type": "uint256"
        }
      ],
      "name": "transferFrom",
      "outputs": [],
      "stateMutability": "nonpayable",
      "type": "function"
    },
    {
      "inputs": [
        {
          "internalType": "address",
          "name": "newOwner",
          "type": "address"
        }
      ],
      "name": "transferOwnership",
      "outputs": [],
      "stateMutability": "nonpayable",
      "type": "function"
    }
  ],
  "bytecode": "0x608060405234801561001057600080fd5b50336040518060400160405280600781526020017f4175746f446578000000000000000000000000000000000000000000000000008152506040518060400160405280600381526020017f4144580000000000000000000000000000000000000000000000000000000000815250816000908161008d919061043d565b50806001908161009d919061043d565b505050600073ffffffffffffffffffffffffffffffffffffffff168173ffffffffffffffffffffffffffffffffffffffff16036101125760006040517f1e4fbdf70000000000000000000000000000000000000000000000000000000081526004016101099190610550565b60405180910390fd5b6101218161012760201b60201c565b5061056b565b6000600760009054906101000a900473ffffffffffffffffffffffffffffffffffffffff16905081600760006101000a81548173ffffffffffffffffffffffffffffffffffffffff021916908373ffffffffffffffffffffffffffffffffffffffff1602179055508173ffffffffffffffffffffffffffffffffffffffff168173ffffffffffffffffffffffffffffffffffffffff167f8be0079c531659141344cd1fd0a4f28419497f9722a3daafe3b4186f6b6457e060405160405180910390a35050565b600081519050919050565b7f4e487b7100000000000000000000000000000000000000000000000000000000600052604160045260246000fd5b7f4e487b7100000000000000000000000000000000000000000000000000000000600052602260045260246000fd5b6000600282049050600182168061026e57607f821691505b60208210810361028157610280610227565b5b50919050565b60008190508160005260206000209050919050565b60006020601f8301049050919050565b600082821b905092915050565b6000600883026102e97fffffffffffffffffffffffffffffffffffffffffffffffffffffffffffffffff826102ac565b6102f386836102ac565b95508019841693508086168417925050509392505050565b6000819050919050565b6000819050919050565b600061033a6103356103308461030b565b610315565b61030b565b9050919050565b6000819050919050565b6103548361031f565b61036861036082610341565b8484546102b9565b825550505050565b600090565b61037d610370565b61038881848461034b565b505050565b5b818110156103ac576103a1600082610375565b60018101905061038e565b5050565b601f8211156103f1576103c281610287565b6103cb8461029c565b810160208510156103da578190505b6103ee6103e68561029c565b83018261038d565b50505b505050565b600082821c905092915050565b6000610414600019846008026103f6565b1980831691505092915050565b600061042d8383610403565b9150826002028217905092915050565b610446826101ed565b67ffffffffffffffff81111561045f5761045e6101f8565b5b6104698254610256565b6104748282856103b0565b600060209050601f8311600181146104a75760008415610495578287015190505b61049f8582610421565b865550610507565b601f1984166104b586610287565b60005b828110156104dd578489015182556001820191506020850194506020810190506104b8565b868310156104fa57848901516104f6601f891682610403565b8355505b6001600288020188555050505b505050505050565b600073ffffffffffffffffffffffffffffffffffffffff82169050919050565b600061053a8261050f565b9050919050565b61054a8161052f565b82525050565b60006020820190506105656000830184610541565b92915050565b6140128061057a6000396000f3fe6080604052600436106101355760003560e01c806370a08231116100ab578063abfe5d571161006f578063abfe5d5714610429578063b88d4fde14610454578063c87b56dd1461047d578063e985e9c5146104ba578063f2fde38b146104f7578063f68883841461052057610135565b806370a0823114610356578063715018a6146103935780638da5cb5b146103aa57806395d89b41146103d5578063a22cb4651461040057610135565b80631cad40ce116100fd5780631cad40ce1461023157806323b872dd1461026e57806342842e0e14610297578063472ec454146102c05780636352211e146102fd5780636c2310601461033a57610135565b806301ffc9a71461013a57806306fdde0314610177578063081812fc146101a2578063095ea7b3146101df5780630993de2c14610208575b600080fd5b34801561014657600080fd5b50610161600480360381019061015c9190612b1b565b610549565b60405161016e9190612b63565b60405180910390f35b34801561018357600080fd5b5061018c6105aa565b6040516101999190612c0e565b60405180910390f35b3480156101ae57600080fd5b506101c960048036038101906101c49190612c66565b61063c565b6040516101d69190612cd4565b60405180910390f35b3480156101eb57600080fd5b5061020660048036038101906102019190612d1b565b610658565b005b34801561021457600080fd5b5061022f600480360381019061022a9190612e90565b61066e565b005b34801561023d57600080fd5b5061025860048036038101906102539190612fb6565b61094f565b604051610265919061300e565b60405180910390f35b34801561027a57600080fd5b5061029560048036038101906102909190613029565b6109e1565b005b3480156102a357600080fd5b506102be60048036038101906102b99190613029565b610ae3565b005b3480156102cc57600080fd5b506102e760048036038101906102e29190612c66565b610b03565b6040516102f491906131a9565b60405180910390f35b34801561030957600080fd5b50610324600480360381019061031f9190612c66565b610dbc565b6040516103319190612cd4565b60405180910390f35b610354600480360381019061034f9190612c66565b610dce565b005b34801561036257600080fd5b5061037d600480360381019061037891906131cb565b61105e565b60405161038a919061300e565b60405180910390f35b34801561039f57600080fd5b506103a8611118565b005b3480156103b657600080fd5b506103bf61112c565b6040516103cc9190612cd4565b60405180910390f35b3480156103e157600080fd5b506103ea611156565b6040516103f79190612c0e565b60405180910390f35b34801561040c57600080fd5b5061042760048036038101906104229190613224565b6111e8565b005b34801561043557600080fd5b5061043e6111fe565b60405161044b91906133eb565b60405180910390f35b34801561046057600080fd5b5061047b600480360381019061047691906134ae565b61153a565b005b34801561048957600080fd5b506104a4600480360381019061049f9190612c66565b61155f565b6040516104b19190612c0e565b60405180910390f35b3480156104c657600080fd5b506104e160048036038101906104dc9190613531565b611672565b6040516104ee9190612b63565b60405180910390f35b34801561050357600080fd5b5061051e600480360381019061051991906131cb565b611706565b005b34801561052c57600080fd5b5061054760048036038101906105429190613571565b61178c565b005b6000634906490660e01b7bffffffffffffffffffffffffffffffffffffffffffffffffffffffff1916827bffffffffffffffffffffffffffffffffffffffffffffffffffffffff191614806105a357506105a2826118cc565b5b9050919050565b6060600080546105b9906135e0565b80601f01602080910402602001604051908101604052809291908181526020018280546105e5906135e0565b80156106325780601f1061060757610100808354040283529160200191610632565b820191906000526020600020905b81548152906001019060200180831161061557829003601f168201915b5050505050905090565b6000610647826119ae565b5061065182611a36565b9050919050565b61066a8282610665611a73565b611a7b565b5050565b610676611a8d565b60008451116106ba576040517f08c379a00000000000000000000000000000000000000000000000000000000081526004016106b19061365d565b60405180910390fd5b60005b60085481101561077757846040516020016106d891906136b9565b60405160208183030381529060405280519060200120600960008381526020019081526020016000206003016040516020016107149190613768565b604051602081830303815290604052805190602001200361076a576040517f08c379a0000000000000000000000000000000000000000000000000000000008152600401610761906137cb565b60405180910390fd5b80806001019150506106bd565b5060006008549050604051806101000160405280898152602001888152602001878152602001868152602001858152602001600115158152602001848152602001838152506009600083815260200190815260200160002060008201518160000190816107e49190613982565b5060208201518160010190816107fa9190613982565b5060408201518160020155606082015181600301908161081a9190613982565b506080820151816004015560a08201518160050160006101000a81548160ff02191690831515021790555060c0820151816006015560e08201518160070190816108649190613982565b5090505088600a600083815260200190815260200160002060006101000a81548173ffffffffffffffffffffffffffffffffffffffff021916908373ffffffffffffffffffffffffffffffffffffffff16021790555080600b866040516108cb91906136b9565b9081526020016040518091039020819055506108e78982611b14565b6108f18183611c0d565b6008600081548092919061090490613a83565b91905055507fbd3303cf3cb581bf78ef3ac343c3e3d038afb8bc52183ae64109ebd7ee3a873d818a8760405161093c93929190613acb565b60405180910390a1505050505050505050565b600080600b8360405161096291906136b9565b90815260200160405180910390205490506000600960008381526020019081526020016000206003018054610996906135e0565b9050116109d8576040517f08c379a00000000000000000000000000000000000000000000000000000000081526004016109cf90613b55565b60405180910390fd5b80915050919050565b600073ffffffffffffffffffffffffffffffffffffffff168273ffffffffffffffffffffffffffffffffffffffff1603610a535760006040517f64a0ae92000000000000000000000000000000000000000000000000000000008152600401610a4a9190612cd4565b60405180910390fd5b6000610a678383610a62611a73565b611c69565b90508373ffffffffffffffffffffffffffffffffffffffff168173ffffffffffffffffffffffffffffffffffffffff1614610add578382826040517f64283d7b000000000000000000000000000000000000000000000000000000008152600401610ad493929190613b75565b60405180910390fd5b50505050565b610afe8383836040518060200160405280600081525061153a565b505050565b610b0b612a68565b610b14826119ae565b506009600083815260200190815260200160002060405180610100016040529081600082018054610b44906135e0565b80601f0160208091040260200160405190810160405280929190818152602001828054610b70906135e0565b8015610bbd5780601f10610b9257610100808354040283529160200191610bbd565b820191906000526020600020905b815481529060010190602001808311610ba057829003601f168201915b50505050508152602001600182018054610bd6906135e0565b80601f0160208091040260200160405190810160405280929190818152602001828054610c02906135e0565b8015610c4f5780601f10610c2457610100808354040283529160200191610c4f565b820191906000526020600020905b815481529060010190602001808311610c3257829003601f168201915b5050505050815260200160028201548152602001600382018054610c72906135e0565b80601f0160208091040260200160405190810160405280929190818152602001828054610c9e906135e0565b8015610ceb5780601f10610cc057610100808354040283529160200191610ceb565b820191906000526020600020905b815481529060010190602001808311610cce57829003601f168201915b50505050508152602001600482015481526020016005820160009054906101000a900460ff1615151515815260200160068201548152602001600782018054610d33906135e0565b80601f0160208091040260200160405190810160405280929190818152602001828054610d5f906135e0565b8015610dac5780601f10610d8157610100808354040283529160200191610dac565b820191906000526020600020905b815481529060010190602001808311610d8f57829003601f168201915b5050505050815250509050919050565b6000610dc7826119ae565b9050919050565b6009600082815260200190815260200160002060050160009054906101000a900460ff16610e31576040517f08c379a0000000000000000000000000000000000000000000000000000000008152600401610e2890613bf8565b60405180910390fd5b6009600082815260200190815260200160002060060154341015610e8a576040517f08c379a0000000000000000000000000000000000000000000000000000000008152600401610e8190613c64565b60405180910390fd5b6000600a600083815260200190815260200160002060009054906101000a900473ffffffffffffffffffffffffffffffffffffffff1690503373ffffffffffffffffffffffffffffffffffffffff168173ffffffffffffffffffffffffffffffffffffffff1603610f30576040517f08c379a0000000000000000000000000000000000000000000000000000000008152600401610f2790613cd0565b60405180910390fd5b610f3b813384611e83565b8073ffffffffffffffffffffffffffffffffffffffff166108fc349081150290604051600060405180830381858888f19350505050158015610f81573d6000803e3d6000fd5b5033600a600084815260200190815260200160002060006101000a81548173ffffffffffffffffffffffffffffffffffffffff021916908373ffffffffffffffffffffffffffffffffffffffff16021790555060006009600084815260200190815260200160002060050160006101000a81548160ff021916908315150217905550600060096000848152602001908152602001600020600601819055507f9d90e6b7483b210fb2eb1814d730195955d020389f316a5127d8f07d6fe61c8b82333460405161105293929190613cf0565b60405180910390a15050565b60008073ffffffffffffffffffffffffffffffffffffffff168273ffffffffffffffffffffffffffffffffffffffff16036110d15760006040517f89c62b640000000000000000000000000000000000000000000000000000000081526004016110c89190612cd4565b60405180910390fd5b600360008373ffffffffffffffffffffffffffffffffffffffff1673ffffffffffffffffffffffffffffffffffffffff168152602001908152602001600020549050919050565b611120611a8d565b61112a6000611ff0565b565b6000600760009054906101000a900473ffffffffffffffffffffffffffffffffffffffff16905090565b606060018054611165906135e0565b80601f0160208091040260200160405190810160405280929190818152602001828054611191906135e0565b80156111de5780601f106111b3576101008083540402835291602001916111de565b820191906000526020600020905b8154815290600101906020018083116111c157829003601f168201915b5050505050905090565b6111fa6111f3611a73565b83836120b6565b5050565b6060600060085467ffffffffffffffff81111561121e5761121d612d65565b5b60405190808252806020026020018201604052801561125757816020015b611244612a68565b81526020019060019003908161123c5790505b50905060005b600854811015611532576009600082815260200190815260200160002060405180610100016040529081600082018054611296906135e0565b80601f01602080910402602001604051908101604052809291908181526020018280546112c2906135e0565b801561130f5780601f106112e45761010080835404028352916020019161130f565b820191906000526020600020905b8154815290600101906020018083116112f257829003601f168201915b50505050508152602001600182018054611328906135e0565b80601f0160208091040260200160405190810160405280929190818152602001828054611354906135e0565b80156113a15780601f10611376576101008083540402835291602001916113a1565b820191906000526020600020905b81548152906001019060200180831161138457829003601f168201915b50505050508152602001600282015481526020016003820180546113c4906135e0565b80601f01602080910402602001604051908101604052809291908181526020018280546113f0906135e0565b801561143d5780601f106114125761010080835404028352916020019161143d565b820191906000526020600020905b81548152906001019060200180831161142057829003601f168201915b50505050508152602001600482015481526020016005820160009054906101000a900460ff1615151515815260200160068201548152602001600782018054611485906135e0565b80601f01602080910402602001604051908101604052809291908181526020018280546114b1906135e0565b80156114fe5780601f106114d3576101008083540402835291602001916114fe565b820191906000526020600020905b8154815290600101906020018083116114e157829003601f168201915b50505050508152505082828151811061151a57611519613d27565b5b6020026020010181905250808060010191505061125d565b508091505090565b6115458484846109e1565b611559611550611a73565b85858585612225565b50505050565b606061156a826119ae565b50600060066000848152602001908152602001600020805461158b906135e0565b80601f01602080910402602001604051908101604052809291908181526020018280546115b7906135e0565b80156116045780601f106115d957610100808354040283529160200191611604565b820191906000526020600020905b8154815290600101906020018083116115e757829003601f168201915b5050505050905060006116156123d6565b9050600081510361162a57819250505061166d565b60008251111561165f578082604051602001611647929190613d56565b6040516020818303038152906040529250505061166d565b611668846123ed565b925050505b919050565b6000600560008473ffffffffffffffffffffffffffffffffffffffff1673ffffffffffffffffffffffffffffffffffffffff16815260200190815260200160002060008373ffffffffffffffffffffffffffffffffffffffff1673ffffffffffffffffffffffffffffffffffffffff16815260200190815260200160002060009054906101000a900460ff16905092915050565b61170e611a8d565b600073ffffffffffffffffffffffffffffffffffffffff168173ffffffffffffffffffffffffffffffffffffffff16036117805760006040517f1e4fbdf70000000000000000000000000000000000000000000000000000000081526004016117779190612cd4565b60405180910390fd5b61178981611ff0565b50565b3373ffffffffffffffffffffffffffffffffffffffff166117ac83610dbc565b73ffffffffffffffffffffffffffffffffffffffff1614611802576040517f08c379a00000000000000000000000000000000000000000000000000000000081526004016117f990613dec565b60405180910390fd5b60008111611845576040517f08c379a000000000000000000000000000000000000000000000000000000000815260040161183c90613e58565b60405180910390fd5b60016009600084815260200190815260200160002060050160006101000a81548160ff0219169083151502179055508060096000848152602001908152602001600020600601819055507fd7eb5635a91daa6c8336a751c696002c8243f97bad99a81269931e463952470982826040516118c0929190613e78565b60405180910390a15050565b60007f80ac58cd000000000000000000000000000000000000000000000000000000007bffffffffffffffffffffffffffffffffffffffffffffffffffffffff1916827bffffffffffffffffffffffffffffffffffffffffffffffffffffffff1916148061199757507f5b5e139f000000000000000000000000000000000000000000000000000000007bffffffffffffffffffffffffffffffffffffffffffffffffffffffff1916827bffffffffffffffffffffffffffffffffffffffffffffffffffffffff1916145b806119a757506119a682612456565b5b9050919050565b6000806119ba836124c0565b9050600073ffffffffffffffffffffffffffffffffffffffff168173ffffffffffffffffffffffffffffffffffffffff1603611a2d57826040517f7e273289000000000000000000000000000000000000000000000000000000008152600401611a24919061300e565b60405180910390fd5b80915050919050565b60006004600083815260200190815260200160002060009054906101000a900473ffffffffffffffffffffffffffffffffffffffff169050919050565b600033905090565b611a8883838360016124fd565b505050565b611a95611a73565b73ffffffffffffffffffffffffffffffffffffffff16611ab361112c565b73ffffffffffffffffffffffffffffffffffffffff1614611b1257611ad6611a73565b6040517f118cdaa7000000000000000000000000000000000000000000000000000000008152600401611b099190612cd4565b60405180910390fd5b565b600073ffffffffffffffffffffffffffffffffffffffff168273ffffffffffffffffffffffffffffffffffffffff1603611b865760006040517f64a0ae92000000000000000000000000000000000000000000000000000000008152600401611b7d9190612cd4565b60405180910390fd5b6000611b9483836000611c69565b9050600073ffffffffffffffffffffffffffffffffffffffff168173ffffffffffffffffffffffffffffffffffffffff1614611c085760006040517f73c6ac6e000000000000000000000000000000000000000000000000000000008152600401611bff9190612cd4565b60405180910390fd5b505050565b80600660008481526020019081526020016000209081611c2d9190613982565b507ff8e1a15aba9398e019f0b49df1a4fde98ee17ae345cb5f6b5e2c27f5033e8ce782604051611c5d919061300e565b60405180910390a15050565b600080611c75846124c0565b9050600073ffffffffffffffffffffffffffffffffffffffff168373ffffffffffffffffffffffffffffffffffffffff1614611cb757611cb68184866126c2565b5b600073ffffffffffffffffffffffffffffffffffffffff168173ffffffffffffffffffffffffffffffffffffffff1614611d4857611cf96000856000806124fd565b6001600360008373ffffffffffffffffffffffffffffffffffffffff1673ffffffffffffffffffffffffffffffffffffffff168152602001908152602001600020600082825403925050819055505b600073ffffffffffffffffffffffffffffffffffffffff168573ffffffffffffffffffffffffffffffffffffffff1614611dcb576001600360008773ffffffffffffffffffffffffffffffffffffffff1673ffffffffffffffffffffffffffffffffffffffff168152602001908152602001600020600082825401925050819055505b846002600086815260200190815260200160002060006101000a81548173ffffffffffffffffffffffffffffffffffffffff021916908373ffffffffffffffffffffffffffffffffffffffff160217905550838573ffffffffffffffffffffffffffffffffffffffff168273ffffffffffffffffffffffffffffffffffffffff167fddf252ad1be2c89b69c2b068fc378daa952ba7f163c4a11628f55a4df523b3ef60405160405180910390a4809150509392505050565b600073ffffffffffffffffffffffffffffffffffffffff168273ffffffffffffffffffffffffffffffffffffffff1603611ef55760006040517f64a0ae92000000000000000000000000000000000000000000000000000000008152600401611eec9190612cd4565b60405180910390fd5b6000611f0383836000611c69565b9050600073ffffffffffffffffffffffffffffffffffffffff168173ffffffffffffffffffffffffffffffffffffffff1603611f7657816040517f7e273289000000000000000000000000000000000000000000000000000000008152600401611f6d919061300e565b60405180910390fd5b8373ffffffffffffffffffffffffffffffffffffffff168173ffffffffffffffffffffffffffffffffffffffff1614611fea578382826040517f64283d7b000000000000000000000000000000000000000000000000000000008152600401611fe193929190613b75565b60405180910390fd5b50505050565b6000600760009054906101000a900473ffffffffffffffffffffffffffffffffffffffff16905081600760006101000a81548173ffffffffffffffffffffffffffffffffffffffff021916908373ffffffffffffffffffffffffffffffffffffffff1602179055508173ffffffffffffffffffffffffffffffffffffffff168173ffffffffffffffffffffffffffffffffffffffff167f8be0079c531659141344cd1fd0a4f28419497f9722a3daafe3b4186f6b6457e060405160405180910390a35050565b600073ffffffffffffffffffffffffffffffffffffffff168273ffffffffffffffffffffffffffffffffffffffff160361212757816040517f5b08ba1800000000000000000000000000000000000000000000000000000000815260040161211e9190612cd4565b60405180910390fd5b80600560008573ffffffffffffffffffffffffffffffffffffffff1673ffffffffffffffffffffffffffffffffffffffff16815260200190815260200160002060008473ffffffffffffffffffffffffffffffffffffffff1673ffffffffffffffffffffffffffffffffffffffff16815260200190815260200160002060006101000a81548160ff0219169083151502179055508173ffffffffffffffffffffffffffffffffffffffff168373ffffffffffffffffffffffffffffffffffffffff167f17307eab39ab6107e8899845ad3d59bd9653f200f220920489ca2b5937696c31836040516122189190612b63565b60405180910390a3505050565b60008373ffffffffffffffffffffffffffffffffffffffff163b11156123cf578273ffffffffffffffffffffffffffffffffffffffff1663150b7a02868685856040518563ffffffff1660e01b81526004016122849493929190613ef6565b6020604051808303816000875af19250505080156122c057506040513d601f19601f820116820180604052508101906122bd9190613f57565b60015b612344573d80600081146122f0576040519150601f19603f3d011682016040523d82523d6000602084013e6122f5565b606091505b50600081510361233c57836040517f64a0ae920000000000000000000000000000000000000000000000000000000081526004016123339190612cd4565b60405180910390fd5b805181602001fd5b63150b7a0260e01b7bffffffffffffffffffffffffffffffffffffffffffffffffffffffff1916817bffffffffffffffffffffffffffffffffffffffffffffffffffffffff1916146123cd57836040517f64a0ae920000000000000000000000000000000000000000000000000000000081526004016123c49190612cd4565b60405180910390fd5b505b5050505050565b606060405180602001604052806000815250905090565b60606123f8826119ae565b5060006124036123d6565b90506000815111612423576040518060200160405280600081525061244e565b8061242d84612786565b60405160200161243e929190613d56565b6040516020818303038152906040525b915050919050565b60007f01ffc9a7000000000000000000000000000000000000000000000000000000007bffffffffffffffffffffffffffffffffffffffffffffffffffffffff1916827bffffffffffffffffffffffffffffffffffffffffffffffffffffffff1916149050919050565b60006002600083815260200190815260200160002060009054906101000a900473ffffffffffffffffffffffffffffffffffffffff169050919050565b80806125365750600073ffffffffffffffffffffffffffffffffffffffff168273ffffffffffffffffffffffffffffffffffffffff1614155b1561266a576000612546846119ae565b9050600073ffffffffffffffffffffffffffffffffffffffff168373ffffffffffffffffffffffffffffffffffffffff16141580156125b157508273ffffffffffffffffffffffffffffffffffffffff168173ffffffffffffffffffffffffffffffffffffffff1614155b80156125c457506125c28184611672565b155b1561260657826040517fa9fbf51f0000000000000000000000000000000000000000000000000000000081526004016125fd9190612cd4565b60405180910390fd5b811561266857838573ffffffffffffffffffffffffffffffffffffffff168273ffffffffffffffffffffffffffffffffffffffff167f8c5be1e5ebec7d5bd14f71427d1e84f3dd0314c0f7b2291e5b200ac8c7c3b92560405160405180910390a45b505b836004600085815260200190815260200160002060006101000a81548173ffffffffffffffffffffffffffffffffffffffff021916908373ffffffffffffffffffffffffffffffffffffffff16021790555050505050565b6126cd838383612854565b61278157600073ffffffffffffffffffffffffffffffffffffffff168373ffffffffffffffffffffffffffffffffffffffff160361274257806040517f7e273289000000000000000000000000000000000000000000000000000000008152600401612739919061300e565b60405180910390fd5b81816040517f177e802f000000000000000000000000000000000000000000000000000000008152600401612778929190613f84565b60405180910390fd5b505050565b60606000600161279584612915565b01905060008167ffffffffffffffff8111156127b4576127b3612d65565b5b6040519080825280601f01601f1916602001820160405280156127e65781602001600182028036833780820191505090505b509050600082602001820190505b600115612849578080600190039150507f3031323334353637383961626364656600000000000000000000000000000000600a86061a8153600a858161283d5761283c613fad565b5b049450600085036127f4575b819350505050919050565b60008073ffffffffffffffffffffffffffffffffffffffff168373ffffffffffffffffffffffffffffffffffffffff161415801561290c57508273ffffffffffffffffffffffffffffffffffffffff168473ffffffffffffffffffffffffffffffffffffffff1614806128cd57506128cc8484611672565b5b8061290b57508273ffffffffffffffffffffffffffffffffffffffff166128f383611a36565b73ffffffffffffffffffffffffffffffffffffffff16145b5b90509392505050565b600080600090507a184f03e93ff9f4daa797ed6e38ed64bf6a1f0100000000000000008310612973577a184f03e93ff9f4daa797ed6e38ed64bf6a1f010000000000000000838161296957612968613fad565b5b0492506040810190505b6d04ee2d6d415b85acef810000000083106129b0576d04ee2d6d415b85acef810000000083816129a6576129a5613fad565b5b0492506020810190505b662386f26fc1000083106129df57662386f26fc1000083816129d5576129d4613fad565b5b0492506010810190505b6305f5e1008310612a08576305f5e10083816129fe576129fd613fad565b5b0492506008810190505b6127108310612a2d576127108381612a2357612a22613fad565b5b0492506004810190505b60648310612a505760648381612a4657612a45613fad565b5b0492506002810190505b600a8310612a5f576001810190505b80915050919050565b604051806101000160405280606081526020016060815260200160008152602001606081526020016000815260200160001515815260200160008152602001606081525090565b6000604051905090565b600080fd5b600080fd5b60007fffffffff0000000000000000000000000000000000000000000000000000000082169050919050565b612af881612ac3565b8114612b0357600080fd5b50565b600081359050612b1581612aef565b92915050565b600060208284031215612b3157612b30612ab9565b5b6000612b3f84828501612b06565b91505092915050565b60008115159050919050565b612b5d81612b48565b82525050565b6000602082019050612b786000830184612b54565b92915050565b600081519050919050565b600082825260208201905092915050565b60005b83811015612bb8578082015181840152602081019050612b9d565b60008484015250505050565b6000601f19601f8301169050919050565b6000612be082612b7e565b612bea8185612b89565b9350612bfa818560208601612b9a565b612c0381612bc4565b840191505092915050565b60006020820190508181036000830152612c288184612bd5565b905092915050565b6000819050919050565b612c4381612c30565b8114612c4e57600080fd5b50565b600081359050612c6081612c3a565b92915050565b600060208284031215612c7c57612c7b612ab9565b5b6000612c8a84828501612c51565b91505092915050565b600073ffffffffffffffffffffffffffffffffffffffff82169050919050565b6000612cbe82612c93565b9050919050565b612cce81612cb3565b82525050565b6000602082019050612ce96000830184612cc5565b92915050565b612cf881612cb3565b8114612d0357600080fd5b50565b600081359050612d1581612cef565b92915050565b60008060408385031215612d3257612d31612ab9565b5b6000612d4085828601612d06565b9250506020612d5185828601612c51565b9150509250929050565b600080fd5b600080fd5b7f4e487b7100000000000000000000000000000000000000000000000000000000600052604160045260246000fd5b612d9d82612bc4565b810181811067ffffffffffffffff82111715612dbc57612dbb612d65565b5b80604052505050565b6000612dcf612aaf565b9050612ddb8282612d94565b919050565b600067ffffffffffffffff821115612dfb57612dfa612d65565b5b612e0482612bc4565b9050602081019050919050565b82818337600083830152505050565b6000612e33612e2e84612de0565b612dc5565b905082815260208101848484011115612e4f57612e4e612d60565b5b612e5a848285612e11565b509392505050565b600082601f830112612e7757612e76612d5b565b5b8135612e87848260208601612e20565b91505092915050565b600080600080600080600080610100898b031215612eb157612eb0612ab9565b5b6000612ebf8b828c01612d06565b985050602089013567ffffffffffffffff811115612ee057612edf612abe565b5b612eec8b828c01612e62565b975050604089013567ffffffffffffffff811115612f0d57612f0c612abe565b5b612f198b828c01612e62565b9650506060612f2a8b828c01612c51565b955050608089013567ffffffffffffffff811115612f4b57612f4a612abe565b5b612f578b828c01612e62565b94505060a0612f688b828c01612c51565b93505060c0612f798b828c01612c51565b92505060e089013567ffffffffffffffff811115612f9a57612f99612abe565b5b612fa68b828c01612e62565b9150509295985092959890939650565b600060208284031215612fcc57612fcb612ab9565b5b600082013567ffffffffffffffff811115612fea57612fe9612abe565b5b612ff684828501612e62565b91505092915050565b61300881612c30565b82525050565b60006020820190506130236000830184612fff565b92915050565b60008060006060848603121561304257613041612ab9565b5b600061305086828701612d06565b935050602061306186828701612d06565b925050604061307286828701612c51565b9150509250925092565b600082825260208201905092915050565b600061309882612b7e565b6130a2818561307c565b93506130b2818560208601612b9a565b6130bb81612bc4565b840191505092915050565b6130cf81612c30565b82525050565b6130de81612b48565b82525050565b6000610100830160008301518482036000860152613102828261308d565b9150506020830151848203602086015261311c828261308d565b915050604083015161313160408601826130c6565b5060608301518482036060860152613149828261308d565b915050608083015161315e60808601826130c6565b5060a083015161317160a08601826130d5565b5060c083015161318460c08601826130c6565b5060e083015184820360e086015261319c828261308d565b9150508091505092915050565b600060208201905081810360008301526131c381846130e4565b905092915050565b6000602082840312156131e1576131e0612ab9565b5b60006131ef84828501612d06565b91505092915050565b61320181612b48565b811461320c57600080fd5b50565b60008135905061321e816131f8565b92915050565b6000806040838503121561323b5761323a612ab9565b5b600061324985828601612d06565b925050602061325a8582860161320f565b9150509250929050565b600081519050919050565b600082825260208201905092915050565b6000819050602082019050919050565b60006101008301600083015184820360008601526132ae828261308d565b915050602083015184820360208601526132c8828261308d565b91505060408301516132dd60408601826130c6565b50606083015184820360608601526132f5828261308d565b915050608083015161330a60808601826130c6565b5060a083015161331d60a08601826130d5565b5060c083015161333060c08601826130c6565b5060e083015184820360e0860152613348828261308d565b9150508091505092915050565b60006133618383613290565b905092915050565b6000602082019050919050565b600061338182613264565b61338b818561326f565b93508360208202850161339d85613280565b8060005b858110156133d957848403895281516133ba8582613355565b94506133c583613369565b925060208a019950506001810190506133a1565b50829750879550505050505092915050565b600060208201905081810360008301526134058184613376565b905092915050565b600067ffffffffffffffff82111561342857613427612d65565b5b61343182612bc4565b9050602081019050919050565b600061345161344c8461340d565b612dc5565b90508281526020810184848401111561346d5761346c612d60565b5b613478848285612e11565b509392505050565b600082601f83011261349557613494612d5b565b5b81356134a584826020860161343e565b91505092915050565b600080600080608085870312156134c8576134c7612ab9565b5b60006134d687828801612d06565b94505060206134e787828801612d06565b93505060406134f887828801612c51565b925050606085013567ffffffffffffffff81111561351957613518612abe565b5b61352587828801613480565b91505092959194509250565b6000806040838503121561354857613547612ab9565b5b600061355685828601612d06565b925050602061356785828601612d06565b9150509250929050565b6000806040838503121561358857613587612ab9565b5b600061359685828601612c51565b92505060206135a785828601612c51565b9150509250929050565b7f4e487b7100000000000000000000000000000000000000000000000000000000600052602260045260246000fd5b600060028204905060018216806135f857607f821691505b60208210810361360b5761360a6135b1565b5b50919050565b7f56494e206d7573742062652070726f7669646564000000000000000000000000600082015250565b6000613647601483612b89565b915061365282613611565b602082019050919050565b600060208201905081810360008301526136768161363a565b9050919050565b600081905092915050565b600061369382612b7e565b61369d818561367d565b93506136ad818560208601612b9a565b80840191505092915050565b60006136c58284613688565b915081905092915050565b60008190508160005260206000209050919050565b600081546136f2816135e0565b6136fc818661367d565b94506001821660008114613717576001811461372c5761375f565b60ff198316865281151582028601935061375f565b613735856136d0565b60005b8381101561375757815481890152600182019150602081019050613738565b838801955050505b50505092915050565b600061377482846136e5565b915081905092915050565b7f56494e20616c7265616479206578697374730000000000000000000000000000600082015250565b60006137b5601283612b89565b91506137c08261377f565b602082019050919050565b600060208201905081810360008301526137e4816137a8565b9050919050565b60006020601f8301049050919050565b600082821b905092915050565b6000600883026138387fffffffffffffffffffffffffffffffffffffffffffffffffffffffffffffffff826137fb565b61384286836137fb565b95508019841693508086168417925050509392505050565b6000819050919050565b600061387f61387a61387584612c30565b61385a565b612c30565b9050919050565b6000819050919050565b61389983613864565b6138ad6138a582613886565b848454613808565b825550505050565b600090565b6138c26138b5565b6138cd818484613890565b505050565b5b818110156138f1576138e66000826138ba565b6001810190506138d3565b5050565b601f82111561393657613907816136d0565b613910846137eb565b8101602085101561391f578190505b61393361392b856137eb565b8301826138d2565b50505b505050565b600082821c905092915050565b60006139596000198460080261393b565b1980831691505092915050565b60006139728383613948565b9150826002028217905092915050565b61398b82612b7e565b67ffffffffffffffff8111156139a4576139a3612d65565b5b6139ae82546135e0565b6139b98282856138f5565b600060209050601f8311600181146139ec57600084156139da578287015190505b6139e48582613966565b865550613a4c565b601f1984166139fa866136d0565b60005b82811015613a22578489015182556001820191506020850194506020810190506139fd565b86831015613a3f5784890151613a3b601f891682613948565b8355505b6001600288020188555050505b505050505050565b7f4e487b7100000000000000000000000000000000000000000000000000000000600052601160045260246000fd5b6000613a8e82612c30565b91507fffffffffffffffffffffffffffffffffffffffffffffffffffffffffffffffff8203613ac057613abf613a54565b5b600182019050919050565b6000606082019050613ae06000830186612fff565b613aed6020830185612cc5565b8181036040830152613aff8184612bd5565b9050949350505050565b7f56494e206e6f7420666f756e6400000000000000000000000000000000000000600082015250565b6000613b3f600d83612b89565b9150613b4a82613b09565b602082019050919050565b60006020820190508181036000830152613b6e81613b32565b9050919050565b6000606082019050613b8a6000830186612cc5565b613b976020830185612fff565b613ba46040830184612cc5565b949350505050565b7f436172206973206e6f7420666f722073616c6500000000000000000000000000600082015250565b6000613be2601383612b89565b9150613bed82613bac565b602082019050919050565b60006020820190508181036000830152613c1181613bd5565b9050919050565b7f496e73756666696369656e74204554482073656e742e00000000000000000000600082015250565b6000613c4e601683612b89565b9150613c5982613c18565b602082019050919050565b60006020820190508181036000830152613c7d81613c41565b9050919050565b7f596f752063616e6e6f742062757920796f7572206f776e206361722e00000000600082015250565b6000613cba601c83612b89565b9150613cc582613c84565b602082019050919050565b60006020820190508181036000830152613ce981613cad565b9050919050565b6000606082019050613d056000830186612fff565b613d126020830185612cc5565b613d1f6040830184612fff565b949350505050565b7f4e487b7100000000000000000000000000000000000000000000000000000000600052603260045260246000fd5b6000613d628285613688565b9150613d6e8284613688565b91508190509392505050565b7f4f6e6c7920746865206f776e6572206f66207468652076656869636c6520636160008201527f6e206c69737420697420666f722073616c652e00000000000000000000000000602082015250565b6000613dd6603383612b89565b9150613de182613d7a565b604082019050919050565b60006020820190508181036000830152613e0581613dc9565b9050919050565b7f5072696365206d7573742062652067726561746572207468616e207a65726f2e600082015250565b6000613e42602083612b89565b9150613e4d82613e0c565b602082019050919050565b60006020820190508181036000830152613e7181613e35565b9050919050565b6000604082019050613e8d6000830185612fff565b613e9a6020830184612fff565b9392505050565b600081519050919050565b600082825260208201905092915050565b6000613ec882613ea1565b613ed28185613eac565b9350613ee2818560208601612b9a565b613eeb81612bc4565b840191505092915050565b6000608082019050613f0b6000830187612cc5565b613f186020830186612cc5565b613f256040830185612fff565b8181036060830152613f378184613ebd565b905095945050505050565b600081519050613f5181612aef565b92915050565b600060208284031215613f6d57613f6c612ab9565b5b6000613f7b84828501613f42565b91505092915050565b6000604082019050613f996000830185612cc5565b613fa66020830184612fff565b9392505050565b7f4e487b7100000000000000000000000000000000000000000000000000000000600052601260045260246000fdfea2646970667358221220b3afa2850576ae4dfb82299425e4b5576f7f8c4f17b4c09e32fa859c56f2b73964736f6c634300081c0033",
  "linkReferences": {},
  "deployedLinkReferences": {}
}