{
  "_format": "hh-sol-artifact-1",
  "contractName": "CarMarketplace",
  "sourceName": "contracts/CarMarketplace.sol",
  "abi": [
    {
      "inputs": [],
      "stateMutability": "nonpayable",
      "type": "constructor"
    },
    {
      "inputs": [
        {
          "internalType": "address",
          "name": "sender",
          "type": "address"
        },
        {
          "internalType": "uint256",
          "name": "tokenId",
          "type": "uint256"
        },
        {
          "internalType": "address",
          "name": "owner",
          "type": "address"
        }
      ],
      "name": "ERC721IncorrectOwner",
      "type": "error"
    },
    {
      "inputs": [
        {
          "internalType": "address",
          "name": "operator",
          "type": "address"
        },
        {
          "internalType": "uint256",
          "name": "tokenId",
          "type": "uint256"
        }
      ],
      "name": "ERC721InsufficientApproval",
      "type": "error"
    },
    {
      "inputs": [
        {
          "internalType": "address",
          "name": "approver",
          "type": "address"
        }
      ],
      "name": "ERC721InvalidApprover",
      "type": "error"
    },
    {
      "inputs": [
        {
          "internalType": "address",
          "name": "operator",
          "type": "address"
        }
      ],
      "name": "ERC721InvalidOperator",
      "type": "error"
    },
    {
      "inputs": [
        {
          "internalType": "address",
          "name": "owner",
          "type": "address"
        }
      ],
      "name": "ERC721InvalidOwner",
      "type": "error"
    },
    {
      "inputs": [
        {
          "internalType": "address",
          "name": "receiver",
          "type": "address"
        }
      ],
      "name": "ERC721InvalidReceiver",
      "type": "error"
    },
    {
      "inputs": [
        {
          "internalType": "address",
          "name": "sender",
          "type": "address"
        }
      ],
      "name": "ERC721InvalidSender",
      "type": "error"
    },
    {
      "inputs": [
        {
          "internalType": "uint256",
          "name": "tokenId",
          "type": "uint256"
        }
      ],
      "name": "ERC721NonexistentToken",
      "type": "error"
    },
    {
      "inputs": [
        {
          "internalType": "address",
          "name": "owner",
          "type": "address"
        }
      ],
      "name": "OwnableInvalidOwner",
      "type": "error"
    },
    {
      "inputs": [
        {
          "internalType": "address",
          "name": "account",
          "type": "address"
        }
      ],
      "name": "OwnableUnauthorizedAccount",
      "type": "error"
    },
    {
      "anonymous": false,
      "inputs": [
        {
          "indexed": true,
          "internalType": "address",
          "name": "owner",
          "type": "address"
        },
        {
          "indexed": true,
          "internalType": "address",
          "name": "approved",
          "type": "address"
        },
        {
          "indexed": true,
          "internalType": "uint256",
          "name": "tokenId",
          "type": "uint256"
        }
      ],
      "name": "Approval",
      "type": "event"
    },
    {
      "anonymous": false,
      "inputs": [
        {
          "indexed": true,
          "internalType": "address",
          "name": "owner",
          "type": "address"
        },
        {
          "indexed": true,
          "internalType": "address",
          "name": "operator",
          "type": "address"
        },
        {
          "indexed": false,
          "internalType": "bool",
          "name": "approved",
          "type": "bool"
        }
      ],
      "name": "ApprovalForAll",
      "type": "event"
    },
    {
      "anonymous": false,
      "inputs": [
        {
          "indexed": false,
          "internalType": "uint256",
          "name": "_fromTokenId",
          "type": "uint256"
        },
        {
          "indexed": false,
          "internalType": "uint256",
          "name": "_toTokenId",
          "type": "uint256"
        }
      ],
      "name": "BatchMetadataUpdate",
      "type": "event"
    },
    {
      "anonymous": false,
      "inputs": [
        {
          "indexed": false,
          "internalType": "uint256",
          "name": "tokenId",
          "type": "uint256"
        },
        {
          "indexed": false,
          "internalType": "uint256",
          "name": "price",
          "type": "uint256"
        }
      ],
      "name": "CarListedForSale",
      "type": "event"
    },
    {
      "anonymous": false,
      "inputs": [
        {
          "indexed": false,
          "internalType": "uint256",
          "name": "tokenId",
          "type": "uint256"
        },
        {
          "indexed": false,
          "internalType": "address",
          "name": "owner",
          "type": "address"
        },
        {
          "indexed": false,
          "internalType": "string",
          "name": "vin",
          "type": "string"
        }
      ],
      "name": "CarMinted",
      "type": "event"
    },
    {
      "anonymous": false,
      "inputs": [
        {
          "indexed": false,
          "internalType": "uint256",
          "name": "tokenId",
          "type": "uint256"
        },
        {
          "indexed": false,
          "internalType": "address",
          "name": "newOwner",
          "type": "address"
        },
        {
          "indexed": false,
          "internalType": "uint256",
          "name": "price",
          "type": "uint256"
        }
      ],
      "name": "CarSold",
      "type": "event"
    },
    {
      "anonymous": false,
      "inputs": [
        {
          "indexed": false,
          "internalType": "uint256",
          "name": "_tokenId",
          "type": "uint256"
        }
      ],
      "name": "MetadataUpdate",
      "type": "event"
    },
    {
      "anonymous": false,
      "inputs": [
        {
          "indexed": true,
          "internalType": "address",
          "name": "previousOwner",
          "type": "address"
        },
        {
          "indexed": true,
          "internalType": "address",
          "name": "newOwner",
          "type": "address"
        }
      ],
      "name": "OwnershipTransferred",
      "type": "event"
    },
    {
      "anonymous": false,
      "inputs": [
        {
          "indexed": true,
          "internalType": "address",
          "name": "from",
          "type": "address"
        },
        {
          "indexed": true,
          "internalType": "address",
          "name": "to",
          "type": "address"
        },
        {
          "indexed": true,
          "internalType": "uint256",
          "name": "tokenId",
          "type": "uint256"
        }
      ],
      "name": "Transfer",
      "type": "event"
    },
    {
      "inputs": [
        {
          "internalType": "address",
          "name": "to",
          "type": "address"
        },
        {
          "internalType": "uint256",
          "name": "tokenId",
          "type": "uint256"
        }
      ],
      "name": "approve",
      "outputs": [],
      "stateMutability": "nonpayable",
      "type": "function"
    },
    {
      "inputs": [
        {
          "internalType": "address",
          "name": "owner",
          "type": "address"
        }
      ],
      "name": "balanceOf",
      "outputs": [
        {
          "internalType": "uint256",
          "name": "",
          "type": "uint256"
        }
      ],
      "stateMutability": "view",
      "type": "function"
    },
    {
      "inputs": [
        {
          "internalType": "uint256",
          "name": "tokenId",
          "type": "uint256"
        }
      ],
      "name": "buyCar",
      "outputs": [],
      "stateMutability": "payable",
      "type": "function"
    },
    {
      "inputs": [],
      "name": "getAllCars",
      "outputs": [
        {
          "components": [
            {
              "internalType": "uint256",
              "name": "tokenId",
              "type": "uint256"
            },
            {
              "internalType": "string",
              "name": "tokenURI",
              "type": "string"
            },
            {
              "internalType": "uint256",
              "name": "price",
              "type": "uint256"
            },
            {
              "internalType": "address payable",
              "name": "owner",
              "type": "address"
            }
          ],
          "internalType": "struct CarMarketplace.Car[]",
          "name": "",
          "type": "tuple[]"
        }
      ],
      "stateMutability": "view",
      "type": "function"
    },
    {
      "inputs": [
        {
          "internalType": "uint256",
          "name": "tokenId",
          "type": "uint256"
        }
      ],
      "name": "getApproved",
      "outputs": [
        {
          "internalType": "address",
          "name": "",
          "type": "address"
        }
      ],
      "stateMutability": "view",
      "type": "function"
    },
    {
      "inputs": [
        {
          "internalType": "uint256",
          "name": "tokenId",
          "type": "uint256"
        }
      ],
      "name": "getCarDetails",
      "outputs": [
        {
          "components": [
            {
              "internalType": "uint256",
              "name": "tokenId",
              "type": "uint256"
            },
            {
              "internalType": "string",
              "name": "tokenURI",
              "type": "string"
            },
            {
              "internalType": "uint256",
              "name": "price",
              "type": "uint256"
            },
            {
              "internalType": "address payable",
              "name": "owner",
              "type": "address"
            }
          ],
          "internalType": "struct CarMarketplace.Car",
          "name": "",
          "type": "tuple"
        }
      ],
      "stateMutability": "view",
      "type": "function"
    },
    {
      "inputs": [
        {
          "internalType": "address",
          "name": "owner",
          "type": "address"
        },
        {
          "internalType": "address",
          "name": "operator",
          "type": "address"
        }
      ],
      "name": "isApprovedForAll",
      "outputs": [
        {
          "internalType": "bool",
          "name": "",
          "type": "bool"
        }
      ],
      "stateMutability": "view",
      "type": "function"
    },
    {
      "inputs": [
        {
          "internalType": "uint256",
          "name": "tokenId",
          "type": "uint256"
        },
        {
          "internalType": "uint256",
          "name": "price",
          "type": "uint256"
        }
      ],
      "name": "listCarForSale",
      "outputs": [],
      "stateMutability": "nonpayable",
      "type": "function"
    },
    {
      "inputs": [
        {
          "internalType": "address",
          "name": "to",
          "type": "address"
        },
        {
          "internalType": "string",
          "name": "vin",
          "type": "string"
        },
        {
          "internalType": "uint256",
          "name": "price",
          "type": "uint256"
        },
        {
          "internalType": "string",
          "name": "tokenURI",
          "type": "string"
        }
      ],
      "name": "mintCar",
      "outputs": [],
      "stateMutability": "nonpayable",
      "type": "function"
    },
    {
      "inputs": [],
      "name": "name",
      "outputs": [
        {
          "internalType": "string",
          "name": "",
          "type": "string"
        }
      ],
      "stateMutability": "view",
      "type": "function"
    },
    {
      "inputs": [],
      "name": "owner",
      "outputs": [
        {
          "internalType": "address",
          "name": "",
          "type": "address"
        }
      ],
      "stateMutability": "view",
      "type": "function"
    },
    {
      "inputs": [
        {
          "internalType": "uint256",
          "name": "tokenId",
          "type": "uint256"
        }
      ],
      "name": "ownerOf",
      "outputs": [
        {
          "internalType": "address",
          "name": "",
          "type": "address"
        }
      ],
      "stateMutability": "view",
      "type": "function"
    },
    {
      "inputs": [],
      "name": "renounceOwnership",
      "outputs": [],
      "stateMutability": "nonpayable",
      "type": "function"
    },
    {
      "inputs": [
        {
          "internalType": "address",
          "name": "from",
          "type": "address"
        },
        {
          "internalType": "address",
          "name": "to",
          "type": "address"
        },
        {
          "internalType": "uint256",
          "name": "tokenId",
          "type": "uint256"
        }
      ],
      "name": "safeTransferFrom",
      "outputs": [],
      "stateMutability": "nonpayable",
      "type": "function"
    },
    {
      "inputs": [
        {
          "internalType": "address",
          "name": "from",
          "type": "address"
        },
        {
          "internalType": "address",
          "name": "to",
          "type": "address"
        },
        {
          "internalType": "uint256",
          "name": "tokenId",
          "type": "uint256"
        },
        {
          "internalType": "bytes",
          "name": "data",
          "type": "bytes"
        }
      ],
      "name": "safeTransferFrom",
      "outputs": [],
      "stateMutability": "nonpayable",
      "type": "function"
    },
    {
      "inputs": [
        {
          "internalType": "address",
          "name": "operator",
          "type": "address"
        },
        {
          "internalType": "bool",
          "name": "approved",
          "type": "bool"
        }
      ],
      "name": "setApprovalForAll",
      "outputs": [],
      "stateMutability": "nonpayable",
      "type": "function"
    },
    {
      "inputs": [
        {
          "internalType": "bytes4",
          "name": "interfaceId",
          "type": "bytes4"
        }
      ],
      "name": "supportsInterface",
      "outputs": [
        {
          "internalType": "bool",
          "name": "",
          "type": "bool"
        }
      ],
      "stateMutability": "view",
      "type": "function"
    },
    {
      "inputs": [],
      "name": "symbol",
      "outputs": [
        {
          "internalType": "string",
          "name": "",
          "type": "string"
        }
      ],
      "stateMutability": "view",
      "type": "function"
    },
    {
      "inputs": [
        {
          "internalType": "uint256",
          "name": "tokenId",
          "type": "uint256"
        }
      ],
      "name": "tokenURI",
      "outputs": [
        {
          "internalType": "string",
          "name": "",
          "type": "string"
        }
      ],
      "stateMutability": "view",
      "type": "function"
    },
    {
      "inputs": [
        {
          "internalType": "address",
          "name": "from",
          "type": "address"
        },
        {
          "internalType": "address",
          "name": "to",
          "type": "address"
        },
        {
          "internalType": "uint256",
          "name": "tokenId",
          "type": "uint256"
        }
      ],
      "name": "transferFrom",
      "outputs": [],
      "stateMutability": "nonpayable",
      "type": "function"
    },
    {
      "inputs": [
        {
          "internalType": "address",
          "name": "newOwner",
          "type": "address"
        }
      ],
      "name": "transferOwnership",
      "outputs": [],
      "stateMutability": "nonpayable",
      "type": "function"
    }
  ],
  "bytecode": "0x608060405234801561001057600080fd5b50336040518060400160405280600781526020017f4175746f446578000000000000000000000000000000000000000000000000008152506040518060400160405280600381526020017f4144580000000000000000000000000000000000000000000000000000000000815250816000908161008d919061043d565b50806001908161009d919061043d565b505050600073ffffffffffffffffffffffffffffffffffffffff168173ffffffffffffffffffffffffffffffffffffffff16036101125760006040517f1e4fbdf70000000000000000000000000000000000000000000000000000000081526004016101099190610550565b60405180910390fd5b6101218161012760201b60201c565b5061056b565b6000600760009054906101000a900473ffffffffffffffffffffffffffffffffffffffff16905081600760006101000a81548173ffffffffffffffffffffffffffffffffffffffff021916908373ffffffffffffffffffffffffffffffffffffffff1602179055508173ffffffffffffffffffffffffffffffffffffffff168173ffffffffffffffffffffffffffffffffffffffff167f8be0079c531659141344cd1fd0a4f28419497f9722a3daafe3b4186f6b6457e060405160405180910390a35050565b600081519050919050565b7f4e487b7100000000000000000000000000000000000000000000000000000000600052604160045260246000fd5b7f4e487b7100000000000000000000000000000000000000000000000000000000600052602260045260246000fd5b6000600282049050600182168061026e57607f821691505b60208210810361028157610280610227565b5b50919050565b60008190508160005260206000209050919050565b60006020601f8301049050919050565b600082821b905092915050565b6000600883026102e97fffffffffffffffffffffffffffffffffffffffffffffffffffffffffffffffff826102ac565b6102f386836102ac565b95508019841693508086168417925050509392505050565b6000819050919050565b6000819050919050565b600061033a6103356103308461030b565b610315565b61030b565b9050919050565b6000819050919050565b6103548361031f565b61036861036082610341565b8484546102b9565b825550505050565b600090565b61037d610370565b61038881848461034b565b505050565b5b818110156103ac576103a1600082610375565b60018101905061038e565b5050565b601f8211156103f1576103c281610287565b6103cb8461029c565b810160208510156103da578190505b6103ee6103e68561029c565b83018261038d565b50505b505050565b600082821c905092915050565b6000610414600019846008026103f6565b1980831691505092915050565b600061042d8383610403565b9150826002028217905092915050565b610446826101ed565b67ffffffffffffffff81111561045f5761045e6101f8565b5b6104698254610256565b6104748282856103b0565b600060209050601f8311600181146104a75760008415610495578287015190505b61049f8582610421565b865550610507565b601f1984166104b586610287565b60005b828110156104dd578489015182556001820191506020850194506020810190506104b8565b868310156104fa57848901516104f6601f891682610403565b8355505b6001600288020188555050505b505050505050565b600073ffffffffffffffffffffffffffffffffffffffff82169050919050565b600061053a8261050f565b9050919050565b61054a8161052f565b82525050565b60006020820190506105656000830184610541565b92915050565b61384f8061057a6000396000f3fe60806040526004361061012a5760003560e01c8063715018a6116100ab578063b88d4fde1161006f578063b88d4fde146103e3578063bc93127a1461040c578063c87b56dd14610435578063e985e9c514610472578063f2fde38b146104af578063f6888384146104d85761012a565b8063715018a6146103225780638da5cb5b1461033957806395d89b4114610364578063a22cb4651461038f578063abfe5d57146103b85761012a565b806342842e0e116100f257806342842e0e14610226578063472ec4541461024f5780636352211e1461028c5780636c231060146102c957806370a08231146102e55761012a565b806301ffc9a71461012f57806306fdde031461016c578063081812fc14610197578063095ea7b3146101d457806323b872dd146101fd575b600080fd5b34801561013b57600080fd5b50610156600480360381019061015191906125e0565b610501565b6040516101639190612628565b60405180910390f35b34801561017857600080fd5b50610181610562565b60405161018e91906126d3565b60405180910390f35b3480156101a357600080fd5b506101be60048036038101906101b9919061272b565b6105f4565b6040516101cb9190612799565b60405180910390f35b3480156101e057600080fd5b506101fb60048036038101906101f691906127e0565b610610565b005b34801561020957600080fd5b50610224600480360381019061021f9190612820565b610626565b005b34801561023257600080fd5b5061024d60048036038101906102489190612820565b610728565b005b34801561025b57600080fd5b506102766004803603810190610271919061272b565b610748565b6040516102839190612950565b60405180910390f35b34801561029857600080fd5b506102b360048036038101906102ae919061272b565b61087b565b6040516102c09190612799565b60405180910390f35b6102e360048036038101906102de919061272b565b61088d565b005b3480156102f157600080fd5b5061030c60048036038101906103079190612972565b610ade565b60405161031991906129ae565b60405180910390f35b34801561032e57600080fd5b50610337610b98565b005b34801561034557600080fd5b5061034e610bac565b60405161035b9190612799565b60405180910390f35b34801561037057600080fd5b50610379610bd6565b60405161038691906126d3565b60405180910390f35b34801561039b57600080fd5b506103b660048036038101906103b191906129f5565b610c68565b005b3480156103c457600080fd5b506103cd610c7e565b6040516103da9190612b5a565b60405180910390f35b3480156103ef57600080fd5b5061040a60048036038101906104059190612cb1565b610e34565b005b34801561041857600080fd5b50610433600480360381019061042e9190612dd5565b610e59565b005b34801561044157600080fd5b5061045c6004803603810190610457919061272b565b61105c565b60405161046991906126d3565b60405180910390f35b34801561047e57600080fd5b5061049960048036038101906104949190612e74565b61116f565b6040516104a69190612628565b60405180910390f35b3480156104bb57600080fd5b506104d660048036038101906104d19190612972565b611203565b005b3480156104e457600080fd5b506104ff60048036038101906104fa9190612eb4565b611289565b005b6000634906490660e01b7bffffffffffffffffffffffffffffffffffffffffffffffffffffffff1916827bffffffffffffffffffffffffffffffffffffffffffffffffffffffff1916148061055b575061055a8261139a565b5b9050919050565b60606000805461057190612f23565b80601f016020809104026020016040519081016040528092919081815260200182805461059d90612f23565b80156105ea5780601f106105bf576101008083540402835291602001916105ea565b820191906000526020600020905b8154815290600101906020018083116105cd57829003601f168201915b5050505050905090565b60006105ff8261147c565b5061060982611504565b9050919050565b610622828261061d611541565b611549565b5050565b600073ffffffffffffffffffffffffffffffffffffffff168273ffffffffffffffffffffffffffffffffffffffff16036106985760006040517f64a0ae9200000000000000000000000000000000000000000000000000000000815260040161068f9190612799565b60405180910390fd5b60006106ac83836106a7611541565b61155b565b90508373ffffffffffffffffffffffffffffffffffffffff168173ffffffffffffffffffffffffffffffffffffffff1614610722578382826040517f64283d7b00000000000000000000000000000000000000000000000000000000815260040161071993929190612f54565b60405180910390fd5b50505050565b61074383838360405180602001604052806000815250610e34565b505050565b610750612536565b6107598261147c565b50600960008381526020019081526020016000206040518060800160405290816000820154815260200160018201805461079290612f23565b80601f01602080910402602001604051908101604052809291908181526020018280546107be90612f23565b801561080b5780601f106107e05761010080835404028352916020019161080b565b820191906000526020600020905b8154815290600101906020018083116107ee57829003601f168201915b50505050508152602001600282015481526020016003820160009054906101000a900473ffffffffffffffffffffffffffffffffffffffff1673ffffffffffffffffffffffffffffffffffffffff1673ffffffffffffffffffffffffffffffffffffffff16815250509050919050565b60006108868261147c565b9050919050565b600060096000838152602001908152602001600020905060008160030160009054906101000a900473ffffffffffffffffffffffffffffffffffffffff1690506000600960008581526020019081526020016000206002015411610926576040517f08c379a000000000000000000000000000000000000000000000000000000000815260040161091d90612fd7565b60405180910390fd5b600960008481526020019081526020016000206002015434101561097f576040517f08c379a000000000000000000000000000000000000000000000000000000000815260040161097690613043565b60405180910390fd5b3373ffffffffffffffffffffffffffffffffffffffff168173ffffffffffffffffffffffffffffffffffffffff16036109ed576040517f08c379a00000000000000000000000000000000000000000000000000000000081526004016109e4906130af565b60405180910390fd5b6109f8813385611775565b8073ffffffffffffffffffffffffffffffffffffffff166108fc349081150290604051600060405180830381858888f19350505050158015610a3e573d6000803e3d6000fd5b50338260030160006101000a81548173ffffffffffffffffffffffffffffffffffffffff021916908373ffffffffffffffffffffffffffffffffffffffff160217905550600060096000858152602001908152602001600020600201819055507f9d90e6b7483b210fb2eb1814d730195955d020389f316a5127d8f07d6fe61c8b833334604051610ad1939291906130cf565b60405180910390a1505050565b60008073ffffffffffffffffffffffffffffffffffffffff168273ffffffffffffffffffffffffffffffffffffffff1603610b515760006040517f89c62b64000000000000000000000000000000000000000000000000000000008152600401610b489190612799565b60405180910390fd5b600360008373ffffffffffffffffffffffffffffffffffffffff1673ffffffffffffffffffffffffffffffffffffffff168152602001908152602001600020549050919050565b610ba06118e2565b610baa6000611969565b565b6000600760009054906101000a900473ffffffffffffffffffffffffffffffffffffffff16905090565b606060018054610be590612f23565b80601f0160208091040260200160405190810160405280929190818152602001828054610c1190612f23565b8015610c5e5780601f10610c3357610100808354040283529160200191610c5e565b820191906000526020600020905b815481529060010190602001808311610c4157829003601f168201915b5050505050905090565b610c7a610c73611541565b8383611a2f565b5050565b6060600060085467ffffffffffffffff811115610c9e57610c9d612b86565b5b604051908082528060200260200182016040528015610cd757816020015b610cc4612536565b815260200190600190039081610cbc5790505b50905060005b600854811015610e2c576009600082815260200190815260200160002060405180608001604052908160008201548152602001600182018054610d1f90612f23565b80601f0160208091040260200160405190810160405280929190818152602001828054610d4b90612f23565b8015610d985780601f10610d6d57610100808354040283529160200191610d98565b820191906000526020600020905b815481529060010190602001808311610d7b57829003601f168201915b50505050508152602001600282015481526020016003820160009054906101000a900473ffffffffffffffffffffffffffffffffffffffff1673ffffffffffffffffffffffffffffffffffffffff1673ffffffffffffffffffffffffffffffffffffffff1681525050828281518110610e1457610e13613106565b5b60200260200101819052508080600101915050610cdd565b508091505090565b610e3f848484610626565b610e53610e4a611541565b85858585611b9e565b50505050565b610e616118e2565b6000835111610ea5576040517f08c379a0000000000000000000000000000000000000000000000000000000008152600401610e9c90613181565b60405180910390fd5b6000600a84604051610eb791906131dd565b90815260200160405180910390205414610f06576040517f08c379a0000000000000000000000000000000000000000000000000000000008152600401610efd90613240565b60405180910390fd5b60006008549050610f178582611d4f565b610f218183611e48565b60405180608001604052808281526020018381526020018481526020018673ffffffffffffffffffffffffffffffffffffffff1681525060096000838152602001908152602001600020600082015181600001556020820151816001019081610f8a919061340c565b506040820151816002015560608201518160030160006101000a81548173ffffffffffffffffffffffffffffffffffffffff021916908373ffffffffffffffffffffffffffffffffffffffff16021790555090505080600a85604051610ff091906131dd565b908152602001604051809103902081905550600860008154809291906110159061350d565b91905055507fbd3303cf3cb581bf78ef3ac343c3e3d038afb8bc52183ae64109ebd7ee3a873d81868660405161104d93929190613555565b60405180910390a15050505050565b60606110678261147c565b50600060066000848152602001908152602001600020805461108890612f23565b80601f01602080910402602001604051908101604052809291908181526020018280546110b490612f23565b80156111015780601f106110d657610100808354040283529160200191611101565b820191906000526020600020905b8154815290600101906020018083116110e457829003601f168201915b505050505090506000611112611ea4565b9050600081510361112757819250505061116a565b60008251111561115c578082604051602001611144929190613593565b6040516020818303038152906040529250505061116a565b61116584611ebb565b925050505b919050565b6000600560008473ffffffffffffffffffffffffffffffffffffffff1673ffffffffffffffffffffffffffffffffffffffff16815260200190815260200160002060008373ffffffffffffffffffffffffffffffffffffffff1673ffffffffffffffffffffffffffffffffffffffff16815260200190815260200160002060009054906101000a900460ff16905092915050565b61120b6118e2565b600073ffffffffffffffffffffffffffffffffffffffff168173ffffffffffffffffffffffffffffffffffffffff160361127d5760006040517f1e4fbdf70000000000000000000000000000000000000000000000000000000081526004016112749190612799565b60405180910390fd5b61128681611969565b50565b3373ffffffffffffffffffffffffffffffffffffffff166112a98361087b565b73ffffffffffffffffffffffffffffffffffffffff16146112ff576040517f08c379a00000000000000000000000000000000000000000000000000000000081526004016112f690613629565b60405180910390fd5b60008111611342576040517f08c379a000000000000000000000000000000000000000000000000000000000815260040161133990613695565b60405180910390fd5b8060096000848152602001908152602001600020600201819055507fd7eb5635a91daa6c8336a751c696002c8243f97bad99a81269931e4639524709828260405161138e9291906136b5565b60405180910390a15050565b60007f80ac58cd000000000000000000000000000000000000000000000000000000007bffffffffffffffffffffffffffffffffffffffffffffffffffffffff1916827bffffffffffffffffffffffffffffffffffffffffffffffffffffffff1916148061146557507f5b5e139f000000000000000000000000000000000000000000000000000000007bffffffffffffffffffffffffffffffffffffffffffffffffffffffff1916827bffffffffffffffffffffffffffffffffffffffffffffffffffffffff1916145b80611475575061147482611f24565b5b9050919050565b60008061148883611f8e565b9050600073ffffffffffffffffffffffffffffffffffffffff168173ffffffffffffffffffffffffffffffffffffffff16036114fb57826040517f7e2732890000000000000000000000000000000000000000000000000000000081526004016114f291906129ae565b60405180910390fd5b80915050919050565b60006004600083815260200190815260200160002060009054906101000a900473ffffffffffffffffffffffffffffffffffffffff169050919050565b600033905090565b6115568383836001611fcb565b505050565b60008061156784611f8e565b9050600073ffffffffffffffffffffffffffffffffffffffff168373ffffffffffffffffffffffffffffffffffffffff16146115a9576115a8818486612190565b5b600073ffffffffffffffffffffffffffffffffffffffff168173ffffffffffffffffffffffffffffffffffffffff161461163a576115eb600085600080611fcb565b6001600360008373ffffffffffffffffffffffffffffffffffffffff1673ffffffffffffffffffffffffffffffffffffffff168152602001908152602001600020600082825403925050819055505b600073ffffffffffffffffffffffffffffffffffffffff168573ffffffffffffffffffffffffffffffffffffffff16146116bd576001600360008773ffffffffffffffffffffffffffffffffffffffff1673ffffffffffffffffffffffffffffffffffffffff168152602001908152602001600020600082825401925050819055505b846002600086815260200190815260200160002060006101000a81548173ffffffffffffffffffffffffffffffffffffffff021916908373ffffffffffffffffffffffffffffffffffffffff160217905550838573ffffffffffffffffffffffffffffffffffffffff168273ffffffffffffffffffffffffffffffffffffffff167fddf252ad1be2c89b69c2b068fc378daa952ba7f163c4a11628f55a4df523b3ef60405160405180910390a4809150509392505050565b600073ffffffffffffffffffffffffffffffffffffffff168273ffffffffffffffffffffffffffffffffffffffff16036117e75760006040517f64a0ae920000000000000000000000000000000000000000000000000000000081526004016117de9190612799565b60405180910390fd5b60006117f58383600061155b565b9050600073ffffffffffffffffffffffffffffffffffffffff168173ffffffffffffffffffffffffffffffffffffffff160361186857816040517f7e27328900000000000000000000000000000000000000000000000000000000815260040161185f91906129ae565b60405180910390fd5b8373ffffffffffffffffffffffffffffffffffffffff168173ffffffffffffffffffffffffffffffffffffffff16146118dc578382826040517f64283d7b0000000000000000000000000000000000000000000000000000000081526004016118d393929190612f54565b60405180910390fd5b50505050565b6118ea611541565b73ffffffffffffffffffffffffffffffffffffffff16611908610bac565b73ffffffffffffffffffffffffffffffffffffffff16146119675761192b611541565b6040517f118cdaa700000000000000000000000000000000000000000000000000000000815260040161195e9190612799565b60405180910390fd5b565b6000600760009054906101000a900473ffffffffffffffffffffffffffffffffffffffff16905081600760006101000a81548173ffffffffffffffffffffffffffffffffffffffff021916908373ffffffffffffffffffffffffffffffffffffffff1602179055508173ffffffffffffffffffffffffffffffffffffffff168173ffffffffffffffffffffffffffffffffffffffff167f8be0079c531659141344cd1fd0a4f28419497f9722a3daafe3b4186f6b6457e060405160405180910390a35050565b600073ffffffffffffffffffffffffffffffffffffffff168273ffffffffffffffffffffffffffffffffffffffff1603611aa057816040517f5b08ba18000000000000000000000000000000000000000000000000000000008152600401611a979190612799565b60405180910390fd5b80600560008573ffffffffffffffffffffffffffffffffffffffff1673ffffffffffffffffffffffffffffffffffffffff16815260200190815260200160002060008473ffffffffffffffffffffffffffffffffffffffff1673ffffffffffffffffffffffffffffffffffffffff16815260200190815260200160002060006101000a81548160ff0219169083151502179055508173ffffffffffffffffffffffffffffffffffffffff168373ffffffffffffffffffffffffffffffffffffffff167f17307eab39ab6107e8899845ad3d59bd9653f200f220920489ca2b5937696c3183604051611b919190612628565b60405180910390a3505050565b60008373ffffffffffffffffffffffffffffffffffffffff163b1115611d48578273ffffffffffffffffffffffffffffffffffffffff1663150b7a02868685856040518563ffffffff1660e01b8152600401611bfd9493929190613733565b6020604051808303816000875af1925050508015611c3957506040513d601f19601f82011682018060405250810190611c369190613794565b60015b611cbd573d8060008114611c69576040519150601f19603f3d011682016040523d82523d6000602084013e611c6e565b606091505b506000815103611cb557836040517f64a0ae92000000000000000000000000000000000000000000000000000000008152600401611cac9190612799565b60405180910390fd5b805181602001fd5b63150b7a0260e01b7bffffffffffffffffffffffffffffffffffffffffffffffffffffffff1916817bffffffffffffffffffffffffffffffffffffffffffffffffffffffff191614611d4657836040517f64a0ae92000000000000000000000000000000000000000000000000000000008152600401611d3d9190612799565b60405180910390fd5b505b5050505050565b600073ffffffffffffffffffffffffffffffffffffffff168273ffffffffffffffffffffffffffffffffffffffff1603611dc15760006040517f64a0ae92000000000000000000000000000000000000000000000000000000008152600401611db89190612799565b60405180910390fd5b6000611dcf8383600061155b565b9050600073ffffffffffffffffffffffffffffffffffffffff168173ffffffffffffffffffffffffffffffffffffffff1614611e435760006040517f73c6ac6e000000000000000000000000000000000000000000000000000000008152600401611e3a9190612799565b60405180910390fd5b505050565b80600660008481526020019081526020016000209081611e68919061340c565b507ff8e1a15aba9398e019f0b49df1a4fde98ee17ae345cb5f6b5e2c27f5033e8ce782604051611e9891906129ae565b60405180910390a15050565b606060405180602001604052806000815250905090565b6060611ec68261147c565b506000611ed1611ea4565b90506000815111611ef15760405180602001604052806000815250611f1c565b80611efb84612254565b604051602001611f0c929190613593565b6040516020818303038152906040525b915050919050565b60007f01ffc9a7000000000000000000000000000000000000000000000000000000007bffffffffffffffffffffffffffffffffffffffffffffffffffffffff1916827bffffffffffffffffffffffffffffffffffffffffffffffffffffffff1916149050919050565b60006002600083815260200190815260200160002060009054906101000a900473ffffffffffffffffffffffffffffffffffffffff169050919050565b80806120045750600073ffffffffffffffffffffffffffffffffffffffff168273ffffffffffffffffffffffffffffffffffffffff1614155b156121385760006120148461147c565b9050600073ffffffffffffffffffffffffffffffffffffffff168373ffffffffffffffffffffffffffffffffffffffff161415801561207f57508273ffffffffffffffffffffffffffffffffffffffff168173ffffffffffffffffffffffffffffffffffffffff1614155b80156120925750612090818461116f565b155b156120d457826040517fa9fbf51f0000000000000000000000000000000000000000000000000000000081526004016120cb9190612799565b60405180910390fd5b811561213657838573ffffffffffffffffffffffffffffffffffffffff168273ffffffffffffffffffffffffffffffffffffffff167f8c5be1e5ebec7d5bd14f71427d1e84f3dd0314c0f7b2291e5b200ac8c7c3b92560405160405180910390a45b505b836004600085815260200190815260200160002060006101000a81548173ffffffffffffffffffffffffffffffffffffffff021916908373ffffffffffffffffffffffffffffffffffffffff16021790555050505050565b61219b838383612322565b61224f57600073ffffffffffffffffffffffffffffffffffffffff168373ffffffffffffffffffffffffffffffffffffffff160361221057806040517f7e27328900000000000000000000000000000000000000000000000000000000815260040161220791906129ae565b60405180910390fd5b81816040517f177e802f0000000000000000000000000000000000000000000000000000000081526004016122469291906137c1565b60405180910390fd5b505050565b606060006001612263846123e3565b01905060008167ffffffffffffffff81111561228257612281612b86565b5b6040519080825280601f01601f1916602001820160405280156122b45781602001600182028036833780820191505090505b509050600082602001820190505b600115612317578080600190039150507f3031323334353637383961626364656600000000000000000000000000000000600a86061a8153600a858161230b5761230a6137ea565b5b049450600085036122c2575b819350505050919050565b60008073ffffffffffffffffffffffffffffffffffffffff168373ffffffffffffffffffffffffffffffffffffffff16141580156123da57508273ffffffffffffffffffffffffffffffffffffffff168473ffffffffffffffffffffffffffffffffffffffff16148061239b575061239a848461116f565b5b806123d957508273ffffffffffffffffffffffffffffffffffffffff166123c183611504565b73ffffffffffffffffffffffffffffffffffffffff16145b5b90509392505050565b600080600090507a184f03e93ff9f4daa797ed6e38ed64bf6a1f0100000000000000008310612441577a184f03e93ff9f4daa797ed6e38ed64bf6a1f0100000000000000008381612437576124366137ea565b5b0492506040810190505b6d04ee2d6d415b85acef8100000000831061247e576d04ee2d6d415b85acef81000000008381612474576124736137ea565b5b0492506020810190505b662386f26fc1000083106124ad57662386f26fc1000083816124a3576124a26137ea565b5b0492506010810190505b6305f5e10083106124d6576305f5e10083816124cc576124cb6137ea565b5b0492506008810190505b61271083106124fb5761271083816124f1576124f06137ea565b5b0492506004810190505b6064831061251e5760648381612514576125136137ea565b5b0492506002810190505b600a831061252d576001810190505b80915050919050565b6040518060800160405280600081526020016060815260200160008152602001600073ffffffffffffffffffffffffffffffffffffffff1681525090565b6000604051905090565b600080fd5b600080fd5b60007fffffffff0000000000000000000000000000000000000000000000000000000082169050919050565b6125bd81612588565b81146125c857600080fd5b50565b6000813590506125da816125b4565b92915050565b6000602082840312156125f6576125f561257e565b5b6000612604848285016125cb565b91505092915050565b60008115159050919050565b6126228161260d565b82525050565b600060208201905061263d6000830184612619565b92915050565b600081519050919050565b600082825260208201905092915050565b60005b8381101561267d578082015181840152602081019050612662565b60008484015250505050565b6000601f19601f8301169050919050565b60006126a582612643565b6126af818561264e565b93506126bf81856020860161265f565b6126c881612689565b840191505092915050565b600060208201905081810360008301526126ed818461269a565b905092915050565b6000819050919050565b612708816126f5565b811461271357600080fd5b50565b600081359050612725816126ff565b92915050565b6000602082840312156127415761274061257e565b5b600061274f84828501612716565b91505092915050565b600073ffffffffffffffffffffffffffffffffffffffff82169050919050565b600061278382612758565b9050919050565b61279381612778565b82525050565b60006020820190506127ae600083018461278a565b92915050565b6127bd81612778565b81146127c857600080fd5b50565b6000813590506127da816127b4565b92915050565b600080604083850312156127f7576127f661257e565b5b6000612805858286016127cb565b925050602061281685828601612716565b9150509250929050565b6000806000606084860312156128395761283861257e565b5b6000612847868287016127cb565b9350506020612858868287016127cb565b925050604061286986828701612716565b9150509250925092565b61287c816126f5565b82525050565b600082825260208201905092915050565b600061289e82612643565b6128a88185612882565b93506128b881856020860161265f565b6128c181612689565b840191505092915050565b60006128d782612758565b9050919050565b6128e7816128cc565b82525050565b60006080830160008301516129056000860182612873565b506020830151848203602086015261291d8282612893565b91505060408301516129326040860182612873565b50606083015161294560608601826128de565b508091505092915050565b6000602082019050818103600083015261296a81846128ed565b905092915050565b6000602082840312156129885761298761257e565b5b6000612996848285016127cb565b91505092915050565b6129a8816126f5565b82525050565b60006020820190506129c3600083018461299f565b92915050565b6129d28161260d565b81146129dd57600080fd5b50565b6000813590506129ef816129c9565b92915050565b60008060408385031215612a0c57612a0b61257e565b5b6000612a1a858286016127cb565b9250506020612a2b858286016129e0565b9150509250929050565b600081519050919050565b600082825260208201905092915050565b6000819050602082019050919050565b6000608083016000830151612a796000860182612873565b5060208301518482036020860152612a918282612893565b9150506040830151612aa66040860182612873565b506060830151612ab960608601826128de565b508091505092915050565b6000612ad08383612a61565b905092915050565b6000602082019050919050565b6000612af082612a35565b612afa8185612a40565b935083602082028501612b0c85612a51565b8060005b85811015612b485784840389528151612b298582612ac4565b9450612b3483612ad8565b925060208a01995050600181019050612b10565b50829750879550505050505092915050565b60006020820190508181036000830152612b748184612ae5565b905092915050565b600080fd5b600080fd5b7f4e487b7100000000000000000000000000000000000000000000000000000000600052604160045260246000fd5b612bbe82612689565b810181811067ffffffffffffffff82111715612bdd57612bdc612b86565b5b80604052505050565b6000612bf0612574565b9050612bfc8282612bb5565b919050565b600067ffffffffffffffff821115612c1c57612c1b612b86565b5b612c2582612689565b9050602081019050919050565b82818337600083830152505050565b6000612c54612c4f84612c01565b612be6565b905082815260208101848484011115612c7057612c6f612b81565b5b612c7b848285612c32565b509392505050565b600082601f830112612c9857612c97612b7c565b5b8135612ca8848260208601612c41565b91505092915050565b60008060008060808587031215612ccb57612cca61257e565b5b6000612cd9878288016127cb565b9450506020612cea878288016127cb565b9350506040612cfb87828801612716565b925050606085013567ffffffffffffffff811115612d1c57612d1b612583565b5b612d2887828801612c83565b91505092959194509250565b600067ffffffffffffffff821115612d4f57612d4e612b86565b5b612d5882612689565b9050602081019050919050565b6000612d78612d7384612d34565b612be6565b905082815260208101848484011115612d9457612d93612b81565b5b612d9f848285612c32565b509392505050565b600082601f830112612dbc57612dbb612b7c565b5b8135612dcc848260208601612d65565b91505092915050565b60008060008060808587031215612def57612dee61257e565b5b6000612dfd878288016127cb565b945050602085013567ffffffffffffffff811115612e1e57612e1d612583565b5b612e2a87828801612da7565b9350506040612e3b87828801612716565b925050606085013567ffffffffffffffff811115612e5c57612e5b612583565b5b612e6887828801612da7565b91505092959194509250565b60008060408385031215612e8b57612e8a61257e565b5b6000612e99858286016127cb565b9250506020612eaa858286016127cb565b9150509250929050565b60008060408385031215612ecb57612eca61257e565b5b6000612ed985828601612716565b9250506020612eea85828601612716565b9150509250929050565b7f4e487b7100000000000000000000000000000000000000000000000000000000600052602260045260246000fd5b60006002820490506001821680612f3b57607f821691505b602082108103612f4e57612f4d612ef4565b5b50919050565b6000606082019050612f69600083018661278a565b612f76602083018561299f565b612f83604083018461278a565b949350505050565b7f436172206973206e6f7420666f722073616c6500000000000000000000000000600082015250565b6000612fc160138361264e565b9150612fcc82612f8b565b602082019050919050565b60006020820190508181036000830152612ff081612fb4565b9050919050565b7f496e73756666696369656e74204554482073656e742e00000000000000000000600082015250565b600061302d60168361264e565b915061303882612ff7565b602082019050919050565b6000602082019050818103600083015261305c81613020565b9050919050565b7f596f752063616e6e6f742062757920796f7572206f776e206361722e00000000600082015250565b6000613099601c8361264e565b91506130a482613063565b602082019050919050565b600060208201905081810360008301526130c88161308c565b9050919050565b60006060820190506130e4600083018661299f565b6130f1602083018561278a565b6130fe604083018461299f565b949350505050565b7f4e487b7100000000000000000000000000000000000000000000000000000000600052603260045260246000fd5b7f56494e206d7573742062652070726f7669646564000000000000000000000000600082015250565b600061316b60148361264e565b915061317682613135565b602082019050919050565b6000602082019050818103600083015261319a8161315e565b9050919050565b600081905092915050565b60006131b782612643565b6131c181856131a1565b93506131d181856020860161265f565b80840191505092915050565b60006131e982846131ac565b915081905092915050565b7f56494e20616c7265616479207573656400000000000000000000000000000000600082015250565b600061322a60108361264e565b9150613235826131f4565b602082019050919050565b600060208201905081810360008301526132598161321d565b9050919050565b60008190508160005260206000209050919050565b60006020601f8301049050919050565b600082821b905092915050565b6000600883026132c27fffffffffffffffffffffffffffffffffffffffffffffffffffffffffffffffff82613285565b6132cc8683613285565b95508019841693508086168417925050509392505050565b6000819050919050565b60006133096133046132ff846126f5565b6132e4565b6126f5565b9050919050565b6000819050919050565b613323836132ee565b61333761332f82613310565b848454613292565b825550505050565b600090565b61334c61333f565b61335781848461331a565b505050565b5b8181101561337b57613370600082613344565b60018101905061335d565b5050565b601f8211156133c05761339181613260565b61339a84613275565b810160208510156133a9578190505b6133bd6133b585613275565b83018261335c565b50505b505050565b600082821c905092915050565b60006133e3600019846008026133c5565b1980831691505092915050565b60006133fc83836133d2565b9150826002028217905092915050565b61341582612643565b67ffffffffffffffff81111561342e5761342d612b86565b5b6134388254612f23565b61344382828561337f565b600060209050601f8311600181146134765760008415613464578287015190505b61346e85826133f0565b8655506134d6565b601f19841661348486613260565b60005b828110156134ac57848901518255600182019150602085019450602081019050613487565b868310156134c957848901516134c5601f8916826133d2565b8355505b6001600288020188555050505b505050505050565b7f4e487b7100000000000000000000000000000000000000000000000000000000600052601160045260246000fd5b6000613518826126f5565b91507fffffffffffffffffffffffffffffffffffffffffffffffffffffffffffffffff820361354a576135496134de565b5b600182019050919050565b600060608201905061356a600083018661299f565b613577602083018561278a565b8181036040830152613589818461269a565b9050949350505050565b600061359f82856131ac565b91506135ab82846131ac565b91508190509392505050565b7f4f6e6c7920746865206f776e6572206f66207468652076656869636c6520636160008201527f6e206c69737420697420666f722073616c652e00000000000000000000000000602082015250565b600061361360338361264e565b915061361e826135b7565b604082019050919050565b6000602082019050818103600083015261364281613606565b9050919050565b7f5072696365206d7573742062652067726561746572207468616e207a65726f2e600082015250565b600061367f60208361264e565b915061368a82613649565b602082019050919050565b600060208201905081810360008301526136ae81613672565b9050919050565b60006040820190506136ca600083018561299f565b6136d7602083018461299f565b9392505050565b600081519050919050565b600082825260208201905092915050565b6000613705826136de565b61370f81856136e9565b935061371f81856020860161265f565b61372881612689565b840191505092915050565b6000608082019050613748600083018761278a565b613755602083018661278a565b613762604083018561299f565b818103606083015261377481846136fa565b905095945050505050565b60008151905061378e816125b4565b92915050565b6000602082840312156137aa576137a961257e565b5b60006137b88482850161377f565b91505092915050565b60006040820190506137d6600083018561278a565b6137e3602083018461299f565b9392505050565b7f4e487b7100000000000000000000000000000000000000000000000000000000600052601260045260246000fdfea2646970667358221220af43b048bc3f7139d317774ca83cf81a972853e80c7926d15eb5a3e80ab9914e64736f6c634300081c0033",
  "linkReferences": {},
  "deployedLinkReferences": {}
}