{
  "_format": "hh-sol-artifact-1",
  "contractName": "CarMarketplace",
  "sourceName": "contracts/CarMarketplace.sol",
  "abi": [
    {
      "inputs": [],
      "stateMutability": "nonpayable",
      "type": "constructor"
    },
    {
      "inputs": [
        {
          "internalType": "address",
          "name": "sender",
          "type": "address"
        },
        {
          "internalType": "uint256",
          "name": "tokenId",
          "type": "uint256"
        },
        {
          "internalType": "address",
          "name": "owner",
          "type": "address"
        }
      ],
      "name": "ERC721IncorrectOwner",
      "type": "error"
    },
    {
      "inputs": [
        {
          "internalType": "address",
          "name": "operator",
          "type": "address"
        },
        {
          "internalType": "uint256",
          "name": "tokenId",
          "type": "uint256"
        }
      ],
      "name": "ERC721InsufficientApproval",
      "type": "error"
    },
    {
      "inputs": [
        {
          "internalType": "address",
          "name": "approver",
          "type": "address"
        }
      ],
      "name": "ERC721InvalidApprover",
      "type": "error"
    },
    {
      "inputs": [
        {
          "internalType": "address",
          "name": "operator",
          "type": "address"
        }
      ],
      "name": "ERC721InvalidOperator",
      "type": "error"
    },
    {
      "inputs": [
        {
          "internalType": "address",
          "name": "owner",
          "type": "address"
        }
      ],
      "name": "ERC721InvalidOwner",
      "type": "error"
    },
    {
      "inputs": [
        {
          "internalType": "address",
          "name": "receiver",
          "type": "address"
        }
      ],
      "name": "ERC721InvalidReceiver",
      "type": "error"
    },
    {
      "inputs": [
        {
          "internalType": "address",
          "name": "sender",
          "type": "address"
        }
      ],
      "name": "ERC721InvalidSender",
      "type": "error"
    },
    {
      "inputs": [
        {
          "internalType": "uint256",
          "name": "tokenId",
          "type": "uint256"
        }
      ],
      "name": "ERC721NonexistentToken",
      "type": "error"
    },
    {
      "inputs": [
        {
          "internalType": "address",
          "name": "owner",
          "type": "address"
        }
      ],
      "name": "OwnableInvalidOwner",
      "type": "error"
    },
    {
      "inputs": [
        {
          "internalType": "address",
          "name": "account",
          "type": "address"
        }
      ],
      "name": "OwnableUnauthorizedAccount",
      "type": "error"
    },
    {
      "anonymous": false,
      "inputs": [
        {
          "indexed": true,
          "internalType": "address",
          "name": "owner",
          "type": "address"
        },
        {
          "indexed": true,
          "internalType": "address",
          "name": "approved",
          "type": "address"
        },
        {
          "indexed": true,
          "internalType": "uint256",
          "name": "tokenId",
          "type": "uint256"
        }
      ],
      "name": "Approval",
      "type": "event"
    },
    {
      "anonymous": false,
      "inputs": [
        {
          "indexed": true,
          "internalType": "address",
          "name": "owner",
          "type": "address"
        },
        {
          "indexed": true,
          "internalType": "address",
          "name": "operator",
          "type": "address"
        },
        {
          "indexed": false,
          "internalType": "bool",
          "name": "approved",
          "type": "bool"
        }
      ],
      "name": "ApprovalForAll",
      "type": "event"
    },
    {
      "anonymous": false,
      "inputs": [
        {
          "indexed": false,
          "internalType": "uint256",
          "name": "_fromTokenId",
          "type": "uint256"
        },
        {
          "indexed": false,
          "internalType": "uint256",
          "name": "_toTokenId",
          "type": "uint256"
        }
      ],
      "name": "BatchMetadataUpdate",
      "type": "event"
    },
    {
      "anonymous": false,
      "inputs": [
        {
          "indexed": false,
          "internalType": "uint256",
          "name": "tokenId",
          "type": "uint256"
        },
        {
          "indexed": false,
          "internalType": "uint256",
          "name": "price",
          "type": "uint256"
        }
      ],
      "name": "CarListedForSale",
      "type": "event"
    },
    {
      "anonymous": false,
      "inputs": [
        {
          "indexed": false,
          "internalType": "uint256",
          "name": "tokenId",
          "type": "uint256"
        },
        {
          "indexed": false,
          "internalType": "address",
          "name": "owner",
          "type": "address"
        },
        {
          "indexed": false,
          "internalType": "string",
          "name": "vin",
          "type": "string"
        }
      ],
      "name": "CarMinted",
      "type": "event"
    },
    {
      "anonymous": false,
      "inputs": [
        {
          "indexed": false,
          "internalType": "uint256",
          "name": "tokenId",
          "type": "uint256"
        },
        {
          "indexed": false,
          "internalType": "address",
          "name": "newOwner",
          "type": "address"
        },
        {
          "indexed": false,
          "internalType": "uint256",
          "name": "price",
          "type": "uint256"
        }
      ],
      "name": "CarSold",
      "type": "event"
    },
    {
      "anonymous": false,
      "inputs": [
        {
          "indexed": false,
          "internalType": "uint256",
          "name": "_tokenId",
          "type": "uint256"
        }
      ],
      "name": "MetadataUpdate",
      "type": "event"
    },
    {
      "anonymous": false,
      "inputs": [
        {
          "indexed": true,
          "internalType": "address",
          "name": "previousOwner",
          "type": "address"
        },
        {
          "indexed": true,
          "internalType": "address",
          "name": "newOwner",
          "type": "address"
        }
      ],
      "name": "OwnershipTransferred",
      "type": "event"
    },
    {
      "anonymous": false,
      "inputs": [
        {
          "indexed": false,
          "internalType": "uint256",
          "name": "tokenId",
          "type": "uint256"
        },
        {
          "indexed": false,
          "internalType": "address",
          "name": "from",
          "type": "address"
        },
        {
          "indexed": false,
          "internalType": "address",
          "name": "to",
          "type": "address"
        }
      ],
      "name": "OwnershipTransferred",
      "type": "event"
    },
    {
      "anonymous": false,
      "inputs": [
        {
          "indexed": true,
          "internalType": "address",
          "name": "provider",
          "type": "address"
        }
      ],
      "name": "ServiceProviderAdded",
      "type": "event"
    },
    {
      "anonymous": false,
      "inputs": [
        {
          "indexed": true,
          "internalType": "address",
          "name": "provider",
          "type": "address"
        }
      ],
      "name": "ServiceProviderRemoved",
      "type": "event"
    },
    {
      "anonymous": false,
      "inputs": [
        {
          "indexed": true,
          "internalType": "uint256",
          "name": "tokenId",
          "type": "uint256"
        },
        {
          "indexed": false,
          "internalType": "string",
          "name": "description",
          "type": "string"
        }
      ],
      "name": "ServiceRecordAdded",
      "type": "event"
    },
    {
      "anonymous": false,
      "inputs": [
        {
          "indexed": true,
          "internalType": "address",
          "name": "from",
          "type": "address"
        },
        {
          "indexed": true,
          "internalType": "address",
          "name": "to",
          "type": "address"
        },
        {
          "indexed": true,
          "internalType": "uint256",
          "name": "tokenId",
          "type": "uint256"
        }
      ],
      "name": "Transfer",
      "type": "event"
    },
    {
      "inputs": [
        {
          "internalType": "address",
          "name": "provider",
          "type": "address"
        }
      ],
      "name": "addServiceProvider",
      "outputs": [],
      "stateMutability": "nonpayable",
      "type": "function"
    },
    {
      "inputs": [
        {
          "internalType": "uint256",
          "name": "tokenId",
          "type": "uint256"
        },
        {
          "internalType": "string",
          "name": "description",
          "type": "string"
        },
        {
          "internalType": "string",
          "name": "garageName",
          "type": "string"
        },
        {
          "internalType": "uint256",
          "name": "mileage",
          "type": "uint256"
        }
      ],
      "name": "addServiceRecord",
      "outputs": [],
      "stateMutability": "nonpayable",
      "type": "function"
    },
    {
      "inputs": [
        {
          "internalType": "address",
          "name": "to",
          "type": "address"
        },
        {
          "internalType": "uint256",
          "name": "tokenId",
          "type": "uint256"
        }
      ],
      "name": "approve",
      "outputs": [],
      "stateMutability": "nonpayable",
      "type": "function"
    },
    {
      "inputs": [
        {
          "internalType": "address",
          "name": "owner",
          "type": "address"
        }
      ],
      "name": "balanceOf",
      "outputs": [
        {
          "internalType": "uint256",
          "name": "",
          "type": "uint256"
        }
      ],
      "stateMutability": "view",
      "type": "function"
    },
    {
      "inputs": [
        {
          "internalType": "uint256",
          "name": "tokenId",
          "type": "uint256"
        }
      ],
      "name": "buyCar",
      "outputs": [],
      "stateMutability": "payable",
      "type": "function"
    },
    {
      "inputs": [],
      "name": "getAllCars",
      "outputs": [
        {
          "components": [
            {
              "internalType": "uint256",
              "name": "tokenId",
              "type": "uint256"
            },
            {
              "internalType": "string",
              "name": "tokenURI",
              "type": "string"
            },
            {
              "internalType": "uint256",
              "name": "price",
              "type": "uint256"
            }
          ],
          "internalType": "struct CarMarketplace.Car[]",
          "name": "",
          "type": "tuple[]"
        }
      ],
      "stateMutability": "view",
      "type": "function"
    },
    {
      "inputs": [
        {
          "internalType": "uint256",
          "name": "tokenId",
          "type": "uint256"
        }
      ],
      "name": "getApproved",
      "outputs": [
        {
          "internalType": "address",
          "name": "",
          "type": "address"
        }
      ],
      "stateMutability": "view",
      "type": "function"
    },
    {
      "inputs": [
        {
          "internalType": "uint256",
          "name": "tokenId",
          "type": "uint256"
        }
      ],
      "name": "getCarDetails",
      "outputs": [
        {
          "components": [
            {
              "internalType": "uint256",
              "name": "tokenId",
              "type": "uint256"
            },
            {
              "internalType": "string",
              "name": "tokenURI",
              "type": "string"
            },
            {
              "internalType": "uint256",
              "name": "price",
              "type": "uint256"
            }
          ],
          "internalType": "struct CarMarketplace.Car",
          "name": "",
          "type": "tuple"
        }
      ],
      "stateMutability": "view",
      "type": "function"
    },
    {
      "inputs": [
        {
          "internalType": "address",
          "name": "provider",
          "type": "address"
        }
      ],
      "name": "getIsServiceProvider",
      "outputs": [
        {
          "internalType": "bool",
          "name": "",
          "type": "bool"
        }
      ],
      "stateMutability": "view",
      "type": "function"
    },
    {
      "inputs": [
        {
          "internalType": "uint256",
          "name": "tokenId",
          "type": "uint256"
        }
      ],
      "name": "getOwnershipHistory",
      "outputs": [
        {
          "components": [
            {
              "internalType": "address",
              "name": "owner",
              "type": "address"
            },
            {
              "internalType": "uint256",
              "name": "timestamp",
              "type": "uint256"
            }
          ],
          "internalType": "struct CarMarketplace.OwnershipRecord[]",
          "name": "",
          "type": "tuple[]"
        }
      ],
      "stateMutability": "view",
      "type": "function"
    },
    {
      "inputs": [
        {
          "internalType": "uint256",
          "name": "tokenId",
          "type": "uint256"
        }
      ],
      "name": "getPrice",
      "outputs": [
        {
          "internalType": "uint256",
          "name": "",
          "type": "uint256"
        }
      ],
      "stateMutability": "view",
      "type": "function"
    },
    {
      "inputs": [
        {
          "internalType": "uint256",
          "name": "tokenId",
          "type": "uint256"
        }
      ],
      "name": "getServiceHistory",
      "outputs": [
        {
          "components": [
            {
              "internalType": "uint256",
              "name": "date",
              "type": "uint256"
            },
            {
              "internalType": "string",
              "name": "description",
              "type": "string"
            },
            {
              "internalType": "string",
              "name": "garageName",
              "type": "string"
            },
            {
              "internalType": "uint256",
              "name": "mileage",
              "type": "uint256"
            }
          ],
          "internalType": "struct CarMarketplace.ServiceRecord[]",
          "name": "",
          "type": "tuple[]"
        }
      ],
      "stateMutability": "view",
      "type": "function"
    },
    {
      "inputs": [
        {
          "internalType": "string",
          "name": "vin",
          "type": "string"
        }
      ],
      "name": "getTokenIdByVIN",
      "outputs": [
        {
          "internalType": "uint256",
          "name": "",
          "type": "uint256"
        }
      ],
      "stateMutability": "view",
      "type": "function"
    },
    {
      "inputs": [
        {
          "internalType": "address",
          "name": "owner",
          "type": "address"
        },
        {
          "internalType": "address",
          "name": "operator",
          "type": "address"
        }
      ],
      "name": "isApprovedForAll",
      "outputs": [
        {
          "internalType": "bool",
          "name": "",
          "type": "bool"
        }
      ],
      "stateMutability": "view",
      "type": "function"
    },
    {
      "inputs": [
        {
          "internalType": "address",
          "name": "",
          "type": "address"
        }
      ],
      "name": "isServiceProvider",
      "outputs": [
        {
          "internalType": "bool",
          "name": "",
          "type": "bool"
        }
      ],
      "stateMutability": "view",
      "type": "function"
    },
    {
      "inputs": [
        {
          "internalType": "uint256",
          "name": "tokenId",
          "type": "uint256"
        },
        {
          "internalType": "uint256",
          "name": "price",
          "type": "uint256"
        }
      ],
      "name": "listCarForSale",
      "outputs": [],
      "stateMutability": "nonpayable",
      "type": "function"
    },
    {
      "inputs": [
        {
          "internalType": "string",
          "name": "vin",
          "type": "string"
        },
        {
          "internalType": "uint256",
          "name": "price",
          "type": "uint256"
        },
        {
          "internalType": "string",
          "name": "tokenURI",
          "type": "string"
        }
      ],
      "name": "mintCar",
      "outputs": [],
      "stateMutability": "nonpayable",
      "type": "function"
    },
    {
      "inputs": [],
      "name": "name",
      "outputs": [
        {
          "internalType": "string",
          "name": "",
          "type": "string"
        }
      ],
      "stateMutability": "view",
      "type": "function"
    },
    {
      "inputs": [],
      "name": "owner",
      "outputs": [
        {
          "internalType": "address",
          "name": "",
          "type": "address"
        }
      ],
      "stateMutability": "view",
      "type": "function"
    },
    {
      "inputs": [
        {
          "internalType": "uint256",
          "name": "tokenId",
          "type": "uint256"
        }
      ],
      "name": "ownerOf",
      "outputs": [
        {
          "internalType": "address",
          "name": "",
          "type": "address"
        }
      ],
      "stateMutability": "view",
      "type": "function"
    },
    {
      "inputs": [
        {
          "internalType": "address",
          "name": "provider",
          "type": "address"
        }
      ],
      "name": "removeServiceProvider",
      "outputs": [],
      "stateMutability": "nonpayable",
      "type": "function"
    },
    {
      "inputs": [],
      "name": "renounceOwnership",
      "outputs": [],
      "stateMutability": "nonpayable",
      "type": "function"
    },
    {
      "inputs": [
        {
          "internalType": "address",
          "name": "from",
          "type": "address"
        },
        {
          "internalType": "address",
          "name": "to",
          "type": "address"
        },
        {
          "internalType": "uint256",
          "name": "tokenId",
          "type": "uint256"
        }
      ],
      "name": "safeTransferFrom",
      "outputs": [],
      "stateMutability": "nonpayable",
      "type": "function"
    },
    {
      "inputs": [
        {
          "internalType": "address",
          "name": "from",
          "type": "address"
        },
        {
          "internalType": "address",
          "name": "to",
          "type": "address"
        },
        {
          "internalType": "uint256",
          "name": "tokenId",
          "type": "uint256"
        },
        {
          "internalType": "bytes",
          "name": "data",
          "type": "bytes"
        }
      ],
      "name": "safeTransferFrom",
      "outputs": [],
      "stateMutability": "nonpayable",
      "type": "function"
    },
    {
      "inputs": [
        {
          "internalType": "address",
          "name": "operator",
          "type": "address"
        },
        {
          "internalType": "bool",
          "name": "approved",
          "type": "bool"
        }
      ],
      "name": "setApprovalForAll",
      "outputs": [],
      "stateMutability": "nonpayable",
      "type": "function"
    },
    {
      "inputs": [
        {
          "internalType": "bytes4",
          "name": "interfaceId",
          "type": "bytes4"
        }
      ],
      "name": "supportsInterface",
      "outputs": [
        {
          "internalType": "bool",
          "name": "",
          "type": "bool"
        }
      ],
      "stateMutability": "view",
      "type": "function"
    },
    {
      "inputs": [],
      "name": "symbol",
      "outputs": [
        {
          "internalType": "string",
          "name": "",
          "type": "string"
        }
      ],
      "stateMutability": "view",
      "type": "function"
    },
    {
      "inputs": [
        {
          "internalType": "uint256",
          "name": "tokenId",
          "type": "uint256"
        }
      ],
      "name": "tokenURI",
      "outputs": [
        {
          "internalType": "string",
          "name": "",
          "type": "string"
        }
      ],
      "stateMutability": "view",
      "type": "function"
    },
    {
      "inputs": [
        {
          "internalType": "address",
          "name": "from",
          "type": "address"
        },
        {
          "internalType": "address",
          "name": "to",
          "type": "address"
        },
        {
          "internalType": "uint256",
          "name": "tokenId",
          "type": "uint256"
        }
      ],
      "name": "transferFrom",
      "outputs": [],
      "stateMutability": "nonpayable",
      "type": "function"
    },
    {
      "inputs": [
        {
          "internalType": "address",
          "name": "newOwner",
          "type": "address"
        }
      ],
      "name": "transferOwnership",
      "outputs": [],
      "stateMutability": "nonpayable",
      "type": "function"
    }
  ],
  "bytecode": "0x608060405234801561001057600080fd5b50336040518060400160405280600781526020017f4175746f446578000000000000000000000000000000000000000000000000008152506040518060400160405280600381526020017f4144580000000000000000000000000000000000000000000000000000000000815250816000908161008d9190610445565b50806001908161009d9190610445565b505050600073ffffffffffffffffffffffffffffffffffffffff168173ffffffffffffffffffffffffffffffffffffffff16036101125760006040517f1e4fbdf70000000000000000000000000000000000000000000000000000000081526004016101099190610558565b60405180910390fd5b6101218161012f60201b60201c565b506001600881905550610573565b6000600760009054906101000a900473ffffffffffffffffffffffffffffffffffffffff16905081600760006101000a81548173ffffffffffffffffffffffffffffffffffffffff021916908373ffffffffffffffffffffffffffffffffffffffff1602179055508173ffffffffffffffffffffffffffffffffffffffff168173ffffffffffffffffffffffffffffffffffffffff167f8be0079c531659141344cd1fd0a4f28419497f9722a3daafe3b4186f6b6457e060405160405180910390a35050565b600081519050919050565b7f4e487b7100000000000000000000000000000000000000000000000000000000600052604160045260246000fd5b7f4e487b7100000000000000000000000000000000000000000000000000000000600052602260045260246000fd5b6000600282049050600182168061027657607f821691505b6020821081036102895761028861022f565b5b50919050565b60008190508160005260206000209050919050565b60006020601f8301049050919050565b600082821b905092915050565b6000600883026102f17fffffffffffffffffffffffffffffffffffffffffffffffffffffffffffffffff826102b4565b6102fb86836102b4565b95508019841693508086168417925050509392505050565b6000819050919050565b6000819050919050565b600061034261033d61033884610313565b61031d565b610313565b9050919050565b6000819050919050565b61035c83610327565b61037061036882610349565b8484546102c1565b825550505050565b600090565b610385610378565b610390818484610353565b505050565b5b818110156103b4576103a960008261037d565b600181019050610396565b5050565b601f8211156103f9576103ca8161028f565b6103d3846102a4565b810160208510156103e2578190505b6103f66103ee856102a4565b830182610395565b50505b505050565b600082821c905092915050565b600061041c600019846008026103fe565b1980831691505092915050565b6000610435838361040b565b9150826002028217905092915050565b61044e826101f5565b67ffffffffffffffff81111561046757610466610200565b5b610471825461025e565b61047c8282856103b8565b600060209050601f8311600181146104af576000841561049d578287015190505b6104a78582610429565b86555061050f565b601f1984166104bd8661028f565b60005b828110156104e5578489015182556001820191506020850194506020810190506104c0565b8683101561050257848901516104fe601f89168261040b565b8355505b6001600288020188555050505b505050505050565b600073ffffffffffffffffffffffffffffffffffffffff82169050919050565b600061054282610517565b9050919050565b61055281610537565b82525050565b600060208201905061056d6000830184610549565b92915050565b614a9c806105826000396000f3fe6080604052600436106101cd5760003560e01c8063715018a6116100f7578063c87b56dd11610095578063e985e9c511610064578063e985e9c5146106c1578063f1dbaccb146106fe578063f2fde38b1461073b578063f688838414610764576101cd565b8063c87b56dd146105f5578063cb63f01f14610632578063d2ec271e1461065b578063e757223014610684576101cd565b8063a22cb465116100d1578063a22cb4651461053b578063abfe5d5714610564578063ae1e3ff41461058f578063b88d4fde146105cc576101cd565b8063715018a6146104ce5780638da5cb5b146104e557806395d89b4114610510576101cd565b80631e7046b51161016f578063472ec4541161013e578063472ec454146103fb5780636352211e146104385780636c2310601461047557806370a0823114610491576101cd565b80631e7046b51461034357806323b872dd1461038057806342842e0e146103a9578063444d0df1146103d2576101cd565b8063081812fc116101ab578063081812fc14610263578063095ea7b3146102a05780631cad40ce146102c95780631dee28f714610306576101cd565b806301ffc9a7146101d257806306fdde031461020f578063075d7a6f1461023a575b600080fd5b3480156101de57600080fd5b506101f960048036038101906101f49190613171565b61078d565b60405161020691906131b9565b60405180910390f35b34801561021b57600080fd5b506102246107ee565b6040516102319190613264565b60405180910390f35b34801561024657600080fd5b50610261600480360381019061025c91906132e4565b610880565b005b34801561026f57600080fd5b5061028a60048036038101906102859190613347565b6109b3565b6040516102979190613383565b60405180910390f35b3480156102ac57600080fd5b506102c760048036038101906102c2919061339e565b6109cf565b005b3480156102d557600080fd5b506102f060048036038101906102eb9190613513565b6109e5565b6040516102fd919061356b565b60405180910390f35b34801561031257600080fd5b5061032d600480360381019061032891906132e4565b610a89565b60405161033a91906131b9565b60405180910390f35b34801561034f57600080fd5b5061036a60048036038101906103659190613347565b610aa9565b604051610377919061370b565b60405180910390f35b34801561038c57600080fd5b506103a760048036038101906103a2919061372d565b610cca565b005b3480156103b557600080fd5b506103d060048036038101906103cb919061372d565b610dcc565b005b3480156103de57600080fd5b506103f960048036038101906103f491906132e4565b610dec565b005b34801561040757600080fd5b50610422600480360381019061041d9190613347565b610f1e565b60405161042f91906137d0565b60405180910390f35b34801561044457600080fd5b5061045f600480360381019061045a9190613347565b610ffb565b60405161046c9190613383565b60405180910390f35b61048f600480360381019061048a9190613347565b61100d565b005b34801561049d57600080fd5b506104b860048036038101906104b391906132e4565b611328565b6040516104c5919061356b565b60405180910390f35b3480156104da57600080fd5b506104e36113e2565b005b3480156104f157600080fd5b506104fa6113f6565b6040516105079190613383565b60405180910390f35b34801561051c57600080fd5b50610525611420565b6040516105329190613264565b60405180910390f35b34801561054757600080fd5b50610562600480360381019061055d919061381e565b6114b2565b005b34801561057057600080fd5b506105796114c8565b6040516105869190613970565b60405180910390f35b34801561059b57600080fd5b506105b660048036038101906105b191906132e4565b611628565b6040516105c391906131b9565b60405180910390f35b3480156105d857600080fd5b506105f360048036038101906105ee9190613a33565b61167e565b005b34801561060157600080fd5b5061061c60048036038101906106179190613347565b6116a3565b6040516106299190613264565b60405180910390f35b34801561063e57600080fd5b5061065960048036038101906106549190613ab6565b6117b6565b005b34801561066757600080fd5b50610682600480360381019061067d9190613b41565b611a4b565b005b34801561069057600080fd5b506106ab60048036038101906106a69190613347565b611c2b565b6040516106b8919061356b565b60405180910390f35b3480156106cd57600080fd5b506106e860048036038101906106e39190613be0565b611c4b565b6040516106f591906131b9565b60405180910390f35b34801561070a57600080fd5b5061072560048036038101906107209190613347565b611cdf565b6040516107329190613d0d565b60405180910390f35b34801561074757600080fd5b50610762600480360381019061075d91906132e4565b611db1565b005b34801561077057600080fd5b5061078b60048036038101906107869190613d2f565b611e37565b005b6000634906490660e01b7bffffffffffffffffffffffffffffffffffffffffffffffffffffffff1916827bffffffffffffffffffffffffffffffffffffffffffffffffffffffff191614806107e757506107e682611f48565b5b9050919050565b6060600080546107fd90613d9e565b80601f016020809104026020016040519081016040528092919081815260200182805461082990613d9e565b80156108765780601f1061084b57610100808354040283529160200191610876565b820191906000526020600020905b81548152906001019060200180831161085957829003601f168201915b5050505050905090565b61088861202a565b600c60008273ffffffffffffffffffffffffffffffffffffffff1673ffffffffffffffffffffffffffffffffffffffff16815260200190815260200160002060009054906101000a900460ff1615610915576040517f08c379a000000000000000000000000000000000000000000000000000000000815260040161090c90613e1b565b60405180910390fd5b6001600c60008373ffffffffffffffffffffffffffffffffffffffff1673ffffffffffffffffffffffffffffffffffffffff16815260200190815260200160002060006101000a81548160ff0219169083151502179055508073ffffffffffffffffffffffffffffffffffffffff167fcd01559a6bb952358fd75732d1b0722f0b5a507abe65c390bc972be0150211c860405160405180910390a250565b60006109be826120b1565b506109c882612139565b9050919050565b6109e182826109dc612176565b61217e565b5050565b600080600a836040516109f89190613e77565b9081526020016040518091039020549050600073ffffffffffffffffffffffffffffffffffffffff16610a2a82612190565b73ffffffffffffffffffffffffffffffffffffffff1603610a80576040517f08c379a0000000000000000000000000000000000000000000000000000000008152600401610a7790613eda565b60405180910390fd5b80915050919050565b600c6020528060005260406000206000915054906101000a900460ff1681565b6060600073ffffffffffffffffffffffffffffffffffffffff16610acc83612190565b73ffffffffffffffffffffffffffffffffffffffff1603610b22576040517f08c379a0000000000000000000000000000000000000000000000000000000008152600401610b1990613f46565b60405180910390fd5b600b6000838152602001908152602001600020805480602002602001604051908101604052809291908181526020016000905b82821015610cbf578382906000526020600020906004020160405180608001604052908160008201548152602001600182018054610b9290613d9e565b80601f0160208091040260200160405190810160405280929190818152602001828054610bbe90613d9e565b8015610c0b5780601f10610be057610100808354040283529160200191610c0b565b820191906000526020600020905b815481529060010190602001808311610bee57829003601f168201915b50505050508152602001600282018054610c2490613d9e565b80601f0160208091040260200160405190810160405280929190818152602001828054610c5090613d9e565b8015610c9d5780601f10610c7257610100808354040283529160200191610c9d565b820191906000526020600020905b815481529060010190602001808311610c8057829003601f168201915b5050505050815260200160038201548152505081526020019060010190610b55565b505050509050919050565b600073ffffffffffffffffffffffffffffffffffffffff168273ffffffffffffffffffffffffffffffffffffffff1603610d3c5760006040517f64a0ae92000000000000000000000000000000000000000000000000000000008152600401610d339190613383565b60405180910390fd5b6000610d508383610d4b612176565b6121cd565b90508373ffffffffffffffffffffffffffffffffffffffff168173ffffffffffffffffffffffffffffffffffffffff1614610dc6578382826040517f64283d7b000000000000000000000000000000000000000000000000000000008152600401610dbd93929190613f66565b60405180910390fd5b50505050565b610de78383836040518060200160405280600081525061167e565b505050565b610df461202a565b600c60008273ffffffffffffffffffffffffffffffffffffffff1673ffffffffffffffffffffffffffffffffffffffff16815260200190815260200160002060009054906101000a900460ff16610e80576040517f08c379a0000000000000000000000000000000000000000000000000000000008152600401610e7790613fe9565b60405180910390fd5b6000600c60008373ffffffffffffffffffffffffffffffffffffffff1673ffffffffffffffffffffffffffffffffffffffff16815260200190815260200160002060006101000a81548160ff0219169083151502179055508073ffffffffffffffffffffffffffffffffffffffff167f8c8907774e957df66385c0630b7abbfc436cd160107e11d6944214489d5f865d60405160405180910390a250565b610f266130e4565b610f2f826120b1565b506009600083815260200190815260200160002060405180606001604052908160008201548152602001600182018054610f6890613d9e565b80601f0160208091040260200160405190810160405280929190818152602001828054610f9490613d9e565b8015610fe15780601f10610fb657610100808354040283529160200191610fe1565b820191906000526020600020905b815481529060010190602001808311610fc457829003601f168201915b505050505081526020016002820154815250509050919050565b6000611006826120b1565b9050919050565b600061101882610ffb565b90506000600960008481526020019081526020016000206002015411611073576040517f08c379a000000000000000000000000000000000000000000000000000000000815260040161106a90614055565b60405180910390fd5b60096000838152602001908152602001600020600201543410156110cc576040517f08c379a00000000000000000000000000000000000000000000000000000000081526004016110c3906140c1565b60405180910390fd5b3373ffffffffffffffffffffffffffffffffffffffff168173ffffffffffffffffffffffffffffffffffffffff160361113a576040517f08c379a00000000000000000000000000000000000000000000000000000000081526004016111319061412d565b60405180910390fd5b3073ffffffffffffffffffffffffffffffffffffffff1661115a836109b3565b73ffffffffffffffffffffffffffffffffffffffff16148061118257506111818130611c4b565b5b6111c1576040517f08c379a00000000000000000000000000000000000000000000000000000000081526004016111b8906141bf565b60405180910390fd5b6111cc8133846123e7565b600d600083815260200190815260200160002060405180604001604052803373ffffffffffffffffffffffffffffffffffffffff16815260200142815250908060018154018082558091505060019003906000526020600020906002020160009091909190915060008201518160000160006101000a81548173ffffffffffffffffffffffffffffffffffffffff021916908373ffffffffffffffffffffffffffffffffffffffff1602179055506020820151816001015550508073ffffffffffffffffffffffffffffffffffffffff166108fc349081150290604051600060405180830381858888f193505050501580156112cc573d6000803e3d6000fd5b50600060096000848152602001908152602001600020600201819055507f9d90e6b7483b210fb2eb1814d730195955d020389f316a5127d8f07d6fe61c8b82333460405161131c939291906141df565b60405180910390a15050565b60008073ffffffffffffffffffffffffffffffffffffffff168273ffffffffffffffffffffffffffffffffffffffff160361139b5760006040517f89c62b640000000000000000000000000000000000000000000000000000000081526004016113929190613383565b60405180910390fd5b600360008373ffffffffffffffffffffffffffffffffffffffff1673ffffffffffffffffffffffffffffffffffffffff168152602001908152602001600020549050919050565b6113ea61202a565b6113f46000612554565b565b6000600760009054906101000a900473ffffffffffffffffffffffffffffffffffffffff16905090565b60606001805461142f90613d9e565b80601f016020809104026020016040519081016040528092919081815260200182805461145b90613d9e565b80156114a85780601f1061147d576101008083540402835291602001916114a8565b820191906000526020600020905b81548152906001019060200180831161148b57829003601f168201915b5050505050905090565b6114c46114bd612176565b838361261a565b5050565b6060600060085467ffffffffffffffff8111156114e8576114e76133e8565b5b60405190808252806020026020018201604052801561152157816020015b61150e6130e4565b8152602001906001900390816115065790505b50905060005b60085481101561162057600960008281526020019081526020016000206040518060600160405290816000820154815260200160018201805461156990613d9e565b80601f016020809104026020016040519081016040528092919081815260200182805461159590613d9e565b80156115e25780601f106115b7576101008083540402835291602001916115e2565b820191906000526020600020905b8154815290600101906020018083116115c557829003601f168201915b5050505050815260200160028201548152505082828151811061160857611607614216565b5b60200260200101819052508080600101915050611527565b508091505090565b6000600c60008373ffffffffffffffffffffffffffffffffffffffff1673ffffffffffffffffffffffffffffffffffffffff16815260200190815260200160002060009054906101000a900460ff169050919050565b611689848484610cca565b61169d611694612176565b85858585612789565b50505050565b60606116ae826120b1565b5060006006600084815260200190815260200160002080546116cf90613d9e565b80601f01602080910402602001604051908101604052809291908181526020018280546116fb90613d9e565b80156117485780601f1061171d57610100808354040283529160200191611748565b820191906000526020600020905b81548152906001019060200180831161172b57829003601f168201915b50505050509050600061175961293a565b9050600081510361176e5781925050506117b1565b6000825111156117a357808260405160200161178b929190614245565b604051602081830303815290604052925050506117b1565b6117ac84612951565b925050505b919050565b60008351116117fa576040517f08c379a00000000000000000000000000000000000000000000000000000000081526004016117f1906142b5565b60405180910390fd5b601183511461183e576040517f08c379a000000000000000000000000000000000000000000000000000000000815260040161183590614347565b60405180910390fd5b6000600a846040516118509190613e77565b9081526020016040518091039020541461189f576040517f08c379a0000000000000000000000000000000000000000000000000000000008152600401611896906143b3565b60405180910390fd5b600060085490506118b033826129ba565b6118ba8183612ab3565b60405180606001604052808281526020018381526020018481525060096000838152602001908152602001600020600082015181600001556020820151816001019081611907919061457f565b506040820151816002015590505080600a856040516119269190613e77565b908152602001604051809103902081905550600d600082815260200190815260200160002060405180604001604052803373ffffffffffffffffffffffffffffffffffffffff16815260200142815250908060018154018082558091505060019003906000526020600020906002020160009091909190915060008201518160000160006101000a81548173ffffffffffffffffffffffffffffffffffffffff021916908373ffffffffffffffffffffffffffffffffffffffff16021790555060208201518160010155505060086000815480929190611a0590614680565b91905055507fbd3303cf3cb581bf78ef3ac343c3e3d038afb8bc52183ae64109ebd7ee3a873d813386604051611a3d939291906146c8565b60405180910390a150505050565b600073ffffffffffffffffffffffffffffffffffffffff16611a6c85610ffb565b73ffffffffffffffffffffffffffffffffffffffff1603611ac2576040517f08c379a0000000000000000000000000000000000000000000000000000000008152600401611ab990614752565b60405180910390fd5b600c60003373ffffffffffffffffffffffffffffffffffffffff1673ffffffffffffffffffffffffffffffffffffffff16815260200190815260200160002060009054906101000a900460ff16611b4e576040517f08c379a0000000000000000000000000000000000000000000000000000000008152600401611b45906147e4565b60405180910390fd5b600b60008581526020019081526020016000206040518060800160405280428152602001858152602001848152602001838152509080600181540180825580915050600190039060005260206000209060040201600090919091909150600082015181600001556020820151816001019081611bca919061457f565b506040820151816002019081611be0919061457f565b50606082015181600301555050837fe04dd2501fa1ca1a2bf1b8b0f34ecc0fbe8ad77f3680583182c26f44a0f5f24484604051611c1d9190613264565b60405180910390a250505050565b600060096000838152602001908152602001600020600201549050919050565b6000600560008473ffffffffffffffffffffffffffffffffffffffff1673ffffffffffffffffffffffffffffffffffffffff16815260200190815260200160002060008373ffffffffffffffffffffffffffffffffffffffff1673ffffffffffffffffffffffffffffffffffffffff16815260200190815260200160002060009054906101000a900460ff16905092915050565b6060600d6000838152602001908152602001600020805480602002602001604051908101604052809291908181526020016000905b82821015611da657838290600052602060002090600202016040518060400160405290816000820160009054906101000a900473ffffffffffffffffffffffffffffffffffffffff1673ffffffffffffffffffffffffffffffffffffffff1673ffffffffffffffffffffffffffffffffffffffff16815260200160018201548152505081526020019060010190611d14565b505050509050919050565b611db961202a565b600073ffffffffffffffffffffffffffffffffffffffff168173ffffffffffffffffffffffffffffffffffffffff1603611e2b5760006040517f1e4fbdf7000000000000000000000000000000000000000000000000000000008152600401611e229190613383565b60405180910390fd5b611e3481612554565b50565b3373ffffffffffffffffffffffffffffffffffffffff16611e5783610ffb565b73ffffffffffffffffffffffffffffffffffffffff1614611ead576040517f08c379a0000000000000000000000000000000000000000000000000000000008152600401611ea490614876565b60405180910390fd5b60008111611ef0576040517f08c379a0000000000000000000000000000000000000000000000000000000008152600401611ee7906148e2565b60405180910390fd5b8060096000848152602001908152602001600020600201819055507fd7eb5635a91daa6c8336a751c696002c8243f97bad99a81269931e46395247098282604051611f3c929190614902565b60405180910390a15050565b60007f80ac58cd000000000000000000000000000000000000000000000000000000007bffffffffffffffffffffffffffffffffffffffffffffffffffffffff1916827bffffffffffffffffffffffffffffffffffffffffffffffffffffffff1916148061201357507f5b5e139f000000000000000000000000000000000000000000000000000000007bffffffffffffffffffffffffffffffffffffffffffffffffffffffff1916827bffffffffffffffffffffffffffffffffffffffffffffffffffffffff1916145b80612023575061202282612b0f565b5b9050919050565b612032612176565b73ffffffffffffffffffffffffffffffffffffffff166120506113f6565b73ffffffffffffffffffffffffffffffffffffffff16146120af57612073612176565b6040517f118cdaa70000000000000000000000000000000000000000000000000000000081526004016120a69190613383565b60405180910390fd5b565b6000806120bd83612190565b9050600073ffffffffffffffffffffffffffffffffffffffff168173ffffffffffffffffffffffffffffffffffffffff160361213057826040517f7e273289000000000000000000000000000000000000000000000000000000008152600401612127919061356b565b60405180910390fd5b80915050919050565b60006004600083815260200190815260200160002060009054906101000a900473ffffffffffffffffffffffffffffffffffffffff169050919050565b600033905090565b61218b8383836001612b79565b505050565b60006002600083815260200190815260200160002060009054906101000a900473ffffffffffffffffffffffffffffffffffffffff169050919050565b6000806121d984612190565b9050600073ffffffffffffffffffffffffffffffffffffffff168373ffffffffffffffffffffffffffffffffffffffff161461221b5761221a818486612d3e565b5b600073ffffffffffffffffffffffffffffffffffffffff168173ffffffffffffffffffffffffffffffffffffffff16146122ac5761225d600085600080612b79565b6001600360008373ffffffffffffffffffffffffffffffffffffffff1673ffffffffffffffffffffffffffffffffffffffff168152602001908152602001600020600082825403925050819055505b600073ffffffffffffffffffffffffffffffffffffffff168573ffffffffffffffffffffffffffffffffffffffff161461232f576001600360008773ffffffffffffffffffffffffffffffffffffffff1673ffffffffffffffffffffffffffffffffffffffff168152602001908152602001600020600082825401925050819055505b846002600086815260200190815260200160002060006101000a81548173ffffffffffffffffffffffffffffffffffffffff021916908373ffffffffffffffffffffffffffffffffffffffff160217905550838573ffffffffffffffffffffffffffffffffffffffff168273ffffffffffffffffffffffffffffffffffffffff167fddf252ad1be2c89b69c2b068fc378daa952ba7f163c4a11628f55a4df523b3ef60405160405180910390a4809150509392505050565b600073ffffffffffffffffffffffffffffffffffffffff168273ffffffffffffffffffffffffffffffffffffffff16036124595760006040517f64a0ae920000000000000000000000000000000000000000000000000000000081526004016124509190613383565b60405180910390fd5b6000612467838360006121cd565b9050600073ffffffffffffffffffffffffffffffffffffffff168173ffffffffffffffffffffffffffffffffffffffff16036124da57816040517f7e2732890000000000000000000000000000000000000000000000000000000081526004016124d1919061356b565b60405180910390fd5b8373ffffffffffffffffffffffffffffffffffffffff168173ffffffffffffffffffffffffffffffffffffffff161461254e578382826040517f64283d7b00000000000000000000000000000000000000000000000000000000815260040161254593929190613f66565b60405180910390fd5b50505050565b6000600760009054906101000a900473ffffffffffffffffffffffffffffffffffffffff16905081600760006101000a81548173ffffffffffffffffffffffffffffffffffffffff021916908373ffffffffffffffffffffffffffffffffffffffff1602179055508173ffffffffffffffffffffffffffffffffffffffff168173ffffffffffffffffffffffffffffffffffffffff167f8be0079c531659141344cd1fd0a4f28419497f9722a3daafe3b4186f6b6457e060405160405180910390a35050565b600073ffffffffffffffffffffffffffffffffffffffff168273ffffffffffffffffffffffffffffffffffffffff160361268b57816040517f5b08ba180000000000000000000000000000000000000000000000000000000081526004016126829190613383565b60405180910390fd5b80600560008573ffffffffffffffffffffffffffffffffffffffff1673ffffffffffffffffffffffffffffffffffffffff16815260200190815260200160002060008473ffffffffffffffffffffffffffffffffffffffff1673ffffffffffffffffffffffffffffffffffffffff16815260200190815260200160002060006101000a81548160ff0219169083151502179055508173ffffffffffffffffffffffffffffffffffffffff168373ffffffffffffffffffffffffffffffffffffffff167f17307eab39ab6107e8899845ad3d59bd9653f200f220920489ca2b5937696c318360405161277c91906131b9565b60405180910390a3505050565b60008373ffffffffffffffffffffffffffffffffffffffff163b1115612933578273ffffffffffffffffffffffffffffffffffffffff1663150b7a02868685856040518563ffffffff1660e01b81526004016127e89493929190614980565b6020604051808303816000875af192505050801561282457506040513d601f19601f8201168201806040525081019061282191906149e1565b60015b6128a8573d8060008114612854576040519150601f19603f3d011682016040523d82523d6000602084013e612859565b606091505b5060008151036128a057836040517f64a0ae920000000000000000000000000000000000000000000000000000000081526004016128979190613383565b60405180910390fd5b805181602001fd5b63150b7a0260e01b7bffffffffffffffffffffffffffffffffffffffffffffffffffffffff1916817bffffffffffffffffffffffffffffffffffffffffffffffffffffffff19161461293157836040517f64a0ae920000000000000000000000000000000000000000000000000000000081526004016129289190613383565b60405180910390fd5b505b5050505050565b606060405180602001604052806000815250905090565b606061295c826120b1565b50600061296761293a565b9050600081511161298757604051806020016040528060008152506129b2565b8061299184612e02565b6040516020016129a2929190614245565b6040516020818303038152906040525b915050919050565b600073ffffffffffffffffffffffffffffffffffffffff168273ffffffffffffffffffffffffffffffffffffffff1603612a2c5760006040517f64a0ae92000000000000000000000000000000000000000000000000000000008152600401612a239190613383565b60405180910390fd5b6000612a3a838360006121cd565b9050600073ffffffffffffffffffffffffffffffffffffffff168173ffffffffffffffffffffffffffffffffffffffff1614612aae5760006040517f73c6ac6e000000000000000000000000000000000000000000000000000000008152600401612aa59190613383565b60405180910390fd5b505050565b80600660008481526020019081526020016000209081612ad3919061457f565b507ff8e1a15aba9398e019f0b49df1a4fde98ee17ae345cb5f6b5e2c27f5033e8ce782604051612b03919061356b565b60405180910390a15050565b60007f01ffc9a7000000000000000000000000000000000000000000000000000000007bffffffffffffffffffffffffffffffffffffffffffffffffffffffff1916827bffffffffffffffffffffffffffffffffffffffffffffffffffffffff1916149050919050565b8080612bb25750600073ffffffffffffffffffffffffffffffffffffffff168273ffffffffffffffffffffffffffffffffffffffff1614155b15612ce6576000612bc2846120b1565b9050600073ffffffffffffffffffffffffffffffffffffffff168373ffffffffffffffffffffffffffffffffffffffff1614158015612c2d57508273ffffffffffffffffffffffffffffffffffffffff168173ffffffffffffffffffffffffffffffffffffffff1614155b8015612c405750612c3e8184611c4b565b155b15612c8257826040517fa9fbf51f000000000000000000000000000000000000000000000000000000008152600401612c799190613383565b60405180910390fd5b8115612ce457838573ffffffffffffffffffffffffffffffffffffffff168273ffffffffffffffffffffffffffffffffffffffff167f8c5be1e5ebec7d5bd14f71427d1e84f3dd0314c0f7b2291e5b200ac8c7c3b92560405160405180910390a45b505b836004600085815260200190815260200160002060006101000a81548173ffffffffffffffffffffffffffffffffffffffff021916908373ffffffffffffffffffffffffffffffffffffffff16021790555050505050565b612d49838383612ed0565b612dfd57600073ffffffffffffffffffffffffffffffffffffffff168373ffffffffffffffffffffffffffffffffffffffff1603612dbe57806040517f7e273289000000000000000000000000000000000000000000000000000000008152600401612db5919061356b565b60405180910390fd5b81816040517f177e802f000000000000000000000000000000000000000000000000000000008152600401612df4929190614a0e565b60405180910390fd5b505050565b606060006001612e1184612f91565b01905060008167ffffffffffffffff811115612e3057612e2f6133e8565b5b6040519080825280601f01601f191660200182016040528015612e625781602001600182028036833780820191505090505b509050600082602001820190505b600115612ec5578080600190039150507f3031323334353637383961626364656600000000000000000000000000000000600a86061a8153600a8581612eb957612eb8614a37565b5b04945060008503612e70575b819350505050919050565b60008073ffffffffffffffffffffffffffffffffffffffff168373ffffffffffffffffffffffffffffffffffffffff1614158015612f8857508273ffffffffffffffffffffffffffffffffffffffff168473ffffffffffffffffffffffffffffffffffffffff161480612f495750612f488484611c4b565b5b80612f8757508273ffffffffffffffffffffffffffffffffffffffff16612f6f83612139565b73ffffffffffffffffffffffffffffffffffffffff16145b5b90509392505050565b600080600090507a184f03e93ff9f4daa797ed6e38ed64bf6a1f0100000000000000008310612fef577a184f03e93ff9f4daa797ed6e38ed64bf6a1f0100000000000000008381612fe557612fe4614a37565b5b0492506040810190505b6d04ee2d6d415b85acef8100000000831061302c576d04ee2d6d415b85acef8100000000838161302257613021614a37565b5b0492506020810190505b662386f26fc10000831061305b57662386f26fc10000838161305157613050614a37565b5b0492506010810190505b6305f5e1008310613084576305f5e100838161307a57613079614a37565b5b0492506008810190505b61271083106130a957612710838161309f5761309e614a37565b5b0492506004810190505b606483106130cc57606483816130c2576130c1614a37565b5b0492506002810190505b600a83106130db576001810190505b80915050919050565b60405180606001604052806000815260200160608152602001600081525090565b6000604051905090565b600080fd5b600080fd5b60007fffffffff0000000000000000000000000000000000000000000000000000000082169050919050565b61314e81613119565b811461315957600080fd5b50565b60008135905061316b81613145565b92915050565b6000602082840312156131875761318661310f565b5b60006131958482850161315c565b91505092915050565b60008115159050919050565b6131b38161319e565b82525050565b60006020820190506131ce60008301846131aa565b92915050565b600081519050919050565b600082825260208201905092915050565b60005b8381101561320e5780820151818401526020810190506131f3565b60008484015250505050565b6000601f19601f8301169050919050565b6000613236826131d4565b61324081856131df565b93506132508185602086016131f0565b6132598161321a565b840191505092915050565b6000602082019050818103600083015261327e818461322b565b905092915050565b600073ffffffffffffffffffffffffffffffffffffffff82169050919050565b60006132b182613286565b9050919050565b6132c1816132a6565b81146132cc57600080fd5b50565b6000813590506132de816132b8565b92915050565b6000602082840312156132fa576132f961310f565b5b6000613308848285016132cf565b91505092915050565b6000819050919050565b61332481613311565b811461332f57600080fd5b50565b6000813590506133418161331b565b92915050565b60006020828403121561335d5761335c61310f565b5b600061336b84828501613332565b91505092915050565b61337d816132a6565b82525050565b60006020820190506133986000830184613374565b92915050565b600080604083850312156133b5576133b461310f565b5b60006133c3858286016132cf565b92505060206133d485828601613332565b9150509250929050565b600080fd5b600080fd5b7f4e487b7100000000000000000000000000000000000000000000000000000000600052604160045260246000fd5b6134208261321a565b810181811067ffffffffffffffff8211171561343f5761343e6133e8565b5b80604052505050565b6000613452613105565b905061345e8282613417565b919050565b600067ffffffffffffffff82111561347e5761347d6133e8565b5b6134878261321a565b9050602081019050919050565b82818337600083830152505050565b60006134b66134b184613463565b613448565b9050828152602081018484840111156134d2576134d16133e3565b5b6134dd848285613494565b509392505050565b600082601f8301126134fa576134f96133de565b5b813561350a8482602086016134a3565b91505092915050565b6000602082840312156135295761352861310f565b5b600082013567ffffffffffffffff81111561354757613546613114565b5b613553848285016134e5565b91505092915050565b61356581613311565b82525050565b6000602082019050613580600083018461355c565b92915050565b600081519050919050565b600082825260208201905092915050565b6000819050602082019050919050565b6135bb81613311565b82525050565b600082825260208201905092915050565b60006135dd826131d4565b6135e781856135c1565b93506135f78185602086016131f0565b6136008161321a565b840191505092915050565b600060808301600083015161362360008601826135b2565b506020830151848203602086015261363b82826135d2565b9150506040830151848203604086015261365582826135d2565b915050606083015161366a60608601826135b2565b508091505092915050565b6000613681838361360b565b905092915050565b6000602082019050919050565b60006136a182613586565b6136ab8185613591565b9350836020820285016136bd856135a2565b8060005b858110156136f957848403895281516136da8582613675565b94506136e583613689565b925060208a019950506001810190506136c1565b50829750879550505050505092915050565b600060208201905081810360008301526137258184613696565b905092915050565b6000806000606084860312156137465761374561310f565b5b6000613754868287016132cf565b9350506020613765868287016132cf565b925050604061377686828701613332565b9150509250925092565b600060608301600083015161379860008601826135b2565b50602083015184820360208601526137b082826135d2565b91505060408301516137c560408601826135b2565b508091505092915050565b600060208201905081810360008301526137ea8184613780565b905092915050565b6137fb8161319e565b811461380657600080fd5b50565b600081359050613818816137f2565b92915050565b600080604083850312156138355761383461310f565b5b6000613843858286016132cf565b925050602061385485828601613809565b9150509250929050565b600081519050919050565b600082825260208201905092915050565b6000819050602082019050919050565b60006060830160008301516138a260008601826135b2565b50602083015184820360208601526138ba82826135d2565b91505060408301516138cf60408601826135b2565b508091505092915050565b60006138e6838361388a565b905092915050565b6000602082019050919050565b60006139068261385e565b6139108185613869565b9350836020820285016139228561387a565b8060005b8581101561395e578484038952815161393f85826138da565b945061394a836138ee565b925060208a01995050600181019050613926565b50829750879550505050505092915050565b6000602082019050818103600083015261398a81846138fb565b905092915050565b600067ffffffffffffffff8211156139ad576139ac6133e8565b5b6139b68261321a565b9050602081019050919050565b60006139d66139d184613992565b613448565b9050828152602081018484840111156139f2576139f16133e3565b5b6139fd848285613494565b509392505050565b600082601f830112613a1a57613a196133de565b5b8135613a2a8482602086016139c3565b91505092915050565b60008060008060808587031215613a4d57613a4c61310f565b5b6000613a5b878288016132cf565b9450506020613a6c878288016132cf565b9350506040613a7d87828801613332565b925050606085013567ffffffffffffffff811115613a9e57613a9d613114565b5b613aaa87828801613a05565b91505092959194509250565b600080600060608486031215613acf57613ace61310f565b5b600084013567ffffffffffffffff811115613aed57613aec613114565b5b613af9868287016134e5565b9350506020613b0a86828701613332565b925050604084013567ffffffffffffffff811115613b2b57613b2a613114565b5b613b37868287016134e5565b9150509250925092565b60008060008060808587031215613b5b57613b5a61310f565b5b6000613b6987828801613332565b945050602085013567ffffffffffffffff811115613b8a57613b89613114565b5b613b96878288016134e5565b935050604085013567ffffffffffffffff811115613bb757613bb6613114565b5b613bc3878288016134e5565b9250506060613bd487828801613332565b91505092959194509250565b60008060408385031215613bf757613bf661310f565b5b6000613c05858286016132cf565b9250506020613c16858286016132cf565b9150509250929050565b600081519050919050565b600082825260208201905092915050565b6000819050602082019050919050565b613c55816132a6565b82525050565b604082016000820151613c716000850182613c4c565b506020820151613c8460208501826135b2565b50505050565b6000613c968383613c5b565b60408301905092915050565b6000602082019050919050565b6000613cba82613c20565b613cc48185613c2b565b9350613ccf83613c3c565b8060005b83811015613d00578151613ce78882613c8a565b9750613cf283613ca2565b925050600181019050613cd3565b5085935050505092915050565b60006020820190508181036000830152613d278184613caf565b905092915050565b60008060408385031215613d4657613d4561310f565b5b6000613d5485828601613332565b9250506020613d6585828601613332565b9150509250929050565b7f4e487b7100000000000000000000000000000000000000000000000000000000600052602260045260246000fd5b60006002820490506001821680613db657607f821691505b602082108103613dc957613dc8613d6f565b5b50919050565b7f416c726561647920617574686f72697365640000000000000000000000000000600082015250565b6000613e056012836131df565b9150613e1082613dcf565b602082019050919050565b60006020820190508181036000830152613e3481613df8565b9050919050565b600081905092915050565b6000613e51826131d4565b613e5b8185613e3b565b9350613e6b8185602086016131f0565b80840191505092915050565b6000613e838284613e46565b915081905092915050565b7f56494e206e6f7420666f756e6400000000000000000000000000000000000000600082015250565b6000613ec4600d836131df565b9150613ecf82613e8e565b602082019050919050565b60006020820190508181036000830152613ef381613eb7565b9050919050565b7f43617220646f6573206e6f742065786973740000000000000000000000000000600082015250565b6000613f306012836131df565b9150613f3b82613efa565b602082019050919050565b60006020820190508181036000830152613f5f81613f23565b9050919050565b6000606082019050613f7b6000830186613374565b613f88602083018561355c565b613f956040830184613374565b949350505050565b7f4e6f7420617574686f7269736564000000000000000000000000000000000000600082015250565b6000613fd3600e836131df565b9150613fde82613f9d565b602082019050919050565b6000602082019050818103600083015261400281613fc6565b9050919050565b7f436172206973206e6f7420666f722073616c6500000000000000000000000000600082015250565b600061403f6013836131df565b915061404a82614009565b602082019050919050565b6000602082019050818103600083015261406e81614032565b9050919050565b7f496e73756666696369656e74204554482073656e742e00000000000000000000600082015250565b60006140ab6016836131df565b91506140b682614075565b602082019050919050565b600060208201905081810360008301526140da8161409e565b9050919050565b7f596f752063616e6e6f742062757920796f7572206f776e206361722e00000000600082015250565b6000614117601c836131df565b9150614122826140e1565b602082019050919050565b600060208201905081810360008301526141468161410a565b9050919050565b7f436f6e7472616374206e6f7420617070726f76656420746f207472616e73666560008201527f72207468697320746f6b656e0000000000000000000000000000000000000000602082015250565b60006141a9602c836131df565b91506141b48261414d565b604082019050919050565b600060208201905081810360008301526141d88161419c565b9050919050565b60006060820190506141f4600083018661355c565b6142016020830185613374565b61420e604083018461355c565b949350505050565b7f4e487b7100000000000000000000000000000000000000000000000000000000600052603260045260246000fd5b60006142518285613e46565b915061425d8284613e46565b91508190509392505050565b7f56494e206d7573742062652070726f7669646564000000000000000000000000600082015250565b600061429f6014836131df565b91506142aa82614269565b602082019050919050565b600060208201905081810360008301526142ce81614292565b9050919050565b7f496e636f7272656374206e756d626572206f662063686172616374657273207060008201527f726f766964656420666f722056494e0000000000000000000000000000000000602082015250565b6000614331602f836131df565b915061433c826142d5565b604082019050919050565b6000602082019050818103600083015261436081614324565b9050919050565b7f56494e20616c7265616479207573656400000000000000000000000000000000600082015250565b600061439d6010836131df565b91506143a882614367565b602082019050919050565b600060208201905081810360008301526143cc81614390565b9050919050565b60008190508160005260206000209050919050565b60006020601f8301049050919050565b600082821b905092915050565b6000600883026144357fffffffffffffffffffffffffffffffffffffffffffffffffffffffffffffffff826143f8565b61443f86836143f8565b95508019841693508086168417925050509392505050565b6000819050919050565b600061447c61447761447284613311565b614457565b613311565b9050919050565b6000819050919050565b61449683614461565b6144aa6144a282614483565b848454614405565b825550505050565b600090565b6144bf6144b2565b6144ca81848461448d565b505050565b5b818110156144ee576144e36000826144b7565b6001810190506144d0565b5050565b601f82111561453357614504816143d3565b61450d846143e8565b8101602085101561451c578190505b614530614528856143e8565b8301826144cf565b50505b505050565b600082821c905092915050565b600061455660001984600802614538565b1980831691505092915050565b600061456f8383614545565b9150826002028217905092915050565b614588826131d4565b67ffffffffffffffff8111156145a1576145a06133e8565b5b6145ab8254613d9e565b6145b68282856144f2565b600060209050601f8311600181146145e957600084156145d7578287015190505b6145e18582614563565b865550614649565b601f1984166145f7866143d3565b60005b8281101561461f578489015182556001820191506020850194506020810190506145fa565b8683101561463c5784890151614638601f891682614545565b8355505b6001600288020188555050505b505050505050565b7f4e487b7100000000000000000000000000000000000000000000000000000000600052601160045260246000fd5b600061468b82613311565b91507fffffffffffffffffffffffffffffffffffffffffffffffffffffffffffffffff82036146bd576146bc614651565b5b600182019050919050565b60006060820190506146dd600083018661355c565b6146ea6020830185613374565b81810360408301526146fc818461322b565b9050949350505050565b7f546f6b656e20646f6573206e6f74206578697374000000000000000000000000600082015250565b600061473c6014836131df565b915061474782614706565b602082019050919050565b6000602082019050818103600083015261476b8161472f565b9050919050565b7f4e6f7420617574686f726973656420746f20616464207365727669636520726560008201527f636f726400000000000000000000000000000000000000000000000000000000602082015250565b60006147ce6024836131df565b91506147d982614772565b604082019050919050565b600060208201905081810360008301526147fd816147c1565b9050919050565b7f4f6e6c7920746865206f776e6572206f66207468652076656869636c6520636160008201527f6e206c69737420697420666f722073616c652e00000000000000000000000000602082015250565b60006148606033836131df565b915061486b82614804565b604082019050919050565b6000602082019050818103600083015261488f81614853565b9050919050565b7f5072696365206d7573742062652067726561746572207468616e207a65726f2e600082015250565b60006148cc6020836131df565b91506148d782614896565b602082019050919050565b600060208201905081810360008301526148fb816148bf565b9050919050565b6000604082019050614917600083018561355c565b614924602083018461355c565b9392505050565b600081519050919050565b600082825260208201905092915050565b60006149528261492b565b61495c8185614936565b935061496c8185602086016131f0565b6149758161321a565b840191505092915050565b60006080820190506149956000830187613374565b6149a26020830186613374565b6149af604083018561355c565b81810360608301526149c18184614947565b905095945050505050565b6000815190506149db81613145565b92915050565b6000602082840312156149f7576149f661310f565b5b6000614a05848285016149cc565b91505092915050565b6000604082019050614a236000830185613374565b614a30602083018461355c565b9392505050565b7f4e487b7100000000000000000000000000000000000000000000000000000000600052601260045260246000fdfea2646970667358221220fb60b64b1756025f2398edc17bde194cf9ad5bf93e788a3258e865fa6a217b0964736f6c634300081c0033",
  "linkReferences": {},
  "deployedLinkReferences": {}
}