{
  "_format": "hh-sol-artifact-1",
  "contractName": "CarMarketplace",
  "sourceName": "contracts/CarMarketplace.sol",
  "abi": [
    {
      "inputs": [],
      "stateMutability": "nonpayable",
      "type": "constructor"
    },
    {
      "inputs": [
        {
          "internalType": "address",
          "name": "sender",
          "type": "address"
        },
        {
          "internalType": "uint256",
          "name": "tokenId",
          "type": "uint256"
        },
        {
          "internalType": "address",
          "name": "owner",
          "type": "address"
        }
      ],
      "name": "ERC721IncorrectOwner",
      "type": "error"
    },
    {
      "inputs": [
        {
          "internalType": "address",
          "name": "operator",
          "type": "address"
        },
        {
          "internalType": "uint256",
          "name": "tokenId",
          "type": "uint256"
        }
      ],
      "name": "ERC721InsufficientApproval",
      "type": "error"
    },
    {
      "inputs": [
        {
          "internalType": "address",
          "name": "approver",
          "type": "address"
        }
      ],
      "name": "ERC721InvalidApprover",
      "type": "error"
    },
    {
      "inputs": [
        {
          "internalType": "address",
          "name": "operator",
          "type": "address"
        }
      ],
      "name": "ERC721InvalidOperator",
      "type": "error"
    },
    {
      "inputs": [
        {
          "internalType": "address",
          "name": "owner",
          "type": "address"
        }
      ],
      "name": "ERC721InvalidOwner",
      "type": "error"
    },
    {
      "inputs": [
        {
          "internalType": "address",
          "name": "receiver",
          "type": "address"
        }
      ],
      "name": "ERC721InvalidReceiver",
      "type": "error"
    },
    {
      "inputs": [
        {
          "internalType": "address",
          "name": "sender",
          "type": "address"
        }
      ],
      "name": "ERC721InvalidSender",
      "type": "error"
    },
    {
      "inputs": [
        {
          "internalType": "uint256",
          "name": "tokenId",
          "type": "uint256"
        }
      ],
      "name": "ERC721NonexistentToken",
      "type": "error"
    },
    {
      "inputs": [
        {
          "internalType": "address",
          "name": "owner",
          "type": "address"
        }
      ],
      "name": "OwnableInvalidOwner",
      "type": "error"
    },
    {
      "inputs": [
        {
          "internalType": "address",
          "name": "account",
          "type": "address"
        }
      ],
      "name": "OwnableUnauthorizedAccount",
      "type": "error"
    },
    {
      "anonymous": false,
      "inputs": [
        {
          "indexed": true,
          "internalType": "address",
          "name": "owner",
          "type": "address"
        },
        {
          "indexed": true,
          "internalType": "address",
          "name": "approved",
          "type": "address"
        },
        {
          "indexed": true,
          "internalType": "uint256",
          "name": "tokenId",
          "type": "uint256"
        }
      ],
      "name": "Approval",
      "type": "event"
    },
    {
      "anonymous": false,
      "inputs": [
        {
          "indexed": true,
          "internalType": "address",
          "name": "owner",
          "type": "address"
        },
        {
          "indexed": true,
          "internalType": "address",
          "name": "operator",
          "type": "address"
        },
        {
          "indexed": false,
          "internalType": "bool",
          "name": "approved",
          "type": "bool"
        }
      ],
      "name": "ApprovalForAll",
      "type": "event"
    },
    {
      "anonymous": false,
      "inputs": [
        {
          "indexed": false,
          "internalType": "uint256",
          "name": "_fromTokenId",
          "type": "uint256"
        },
        {
          "indexed": false,
          "internalType": "uint256",
          "name": "_toTokenId",
          "type": "uint256"
        }
      ],
      "name": "BatchMetadataUpdate",
      "type": "event"
    },
    {
      "anonymous": false,
      "inputs": [
        {
          "indexed": false,
          "internalType": "uint256",
          "name": "tokenId",
          "type": "uint256"
        },
        {
          "indexed": false,
          "internalType": "uint256",
          "name": "price",
          "type": "uint256"
        }
      ],
      "name": "CarListedForSale",
      "type": "event"
    },
    {
      "anonymous": false,
      "inputs": [
        {
          "indexed": false,
          "internalType": "uint256",
          "name": "tokenId",
          "type": "uint256"
        },
        {
          "indexed": false,
          "internalType": "address",
          "name": "owner",
          "type": "address"
        },
        {
          "indexed": false,
          "internalType": "string",
          "name": "vin",
          "type": "string"
        }
      ],
      "name": "CarMinted",
      "type": "event"
    },
    {
      "anonymous": false,
      "inputs": [
        {
          "indexed": false,
          "internalType": "uint256",
          "name": "tokenId",
          "type": "uint256"
        },
        {
          "indexed": false,
          "internalType": "address",
          "name": "newOwner",
          "type": "address"
        },
        {
          "indexed": false,
          "internalType": "uint256",
          "name": "price",
          "type": "uint256"
        }
      ],
      "name": "CarSold",
      "type": "event"
    },
    {
      "anonymous": false,
      "inputs": [
        {
          "indexed": false,
          "internalType": "uint256",
          "name": "_tokenId",
          "type": "uint256"
        }
      ],
      "name": "MetadataUpdate",
      "type": "event"
    },
    {
      "anonymous": false,
      "inputs": [
        {
          "indexed": true,
          "internalType": "address",
          "name": "previousOwner",
          "type": "address"
        },
        {
          "indexed": true,
          "internalType": "address",
          "name": "newOwner",
          "type": "address"
        }
      ],
      "name": "OwnershipTransferred",
      "type": "event"
    },
    {
      "anonymous": false,
      "inputs": [
        {
          "indexed": true,
          "internalType": "address",
          "name": "from",
          "type": "address"
        },
        {
          "indexed": true,
          "internalType": "address",
          "name": "to",
          "type": "address"
        },
        {
          "indexed": true,
          "internalType": "uint256",
          "name": "tokenId",
          "type": "uint256"
        }
      ],
      "name": "Transfer",
      "type": "event"
    },
    {
      "inputs": [
        {
          "internalType": "address",
          "name": "to",
          "type": "address"
        },
        {
          "internalType": "uint256",
          "name": "tokenId",
          "type": "uint256"
        }
      ],
      "name": "approve",
      "outputs": [],
      "stateMutability": "nonpayable",
      "type": "function"
    },
    {
      "inputs": [
        {
          "internalType": "address",
          "name": "owner",
          "type": "address"
        }
      ],
      "name": "balanceOf",
      "outputs": [
        {
          "internalType": "uint256",
          "name": "",
          "type": "uint256"
        }
      ],
      "stateMutability": "view",
      "type": "function"
    },
    {
      "inputs": [
        {
          "internalType": "uint256",
          "name": "tokenId",
          "type": "uint256"
        }
      ],
      "name": "buyCar",
      "outputs": [],
      "stateMutability": "payable",
      "type": "function"
    },
    {
      "inputs": [],
      "name": "getAllCars",
      "outputs": [
        {
          "components": [
            {
              "internalType": "string",
              "name": "make",
              "type": "string"
            },
            {
              "internalType": "string",
              "name": "model",
              "type": "string"
            },
            {
              "internalType": "uint256",
              "name": "year",
              "type": "uint256"
            },
            {
              "internalType": "string",
              "name": "vin",
              "type": "string"
            },
            {
              "internalType": "uint256",
              "name": "mileage",
              "type": "uint256"
            },
            {
              "internalType": "bool",
              "name": "forSale",
              "type": "bool"
            },
            {
              "internalType": "uint256",
              "name": "price",
              "type": "uint256"
            },
            {
              "internalType": "string",
              "name": "tokenURI",
              "type": "string"
            }
          ],
          "internalType": "struct CarMarketplace.Car[]",
          "name": "",
          "type": "tuple[]"
        }
      ],
      "stateMutability": "view",
      "type": "function"
    },
    {
      "inputs": [
        {
          "internalType": "uint256",
          "name": "tokenId",
          "type": "uint256"
        }
      ],
      "name": "getApproved",
      "outputs": [
        {
          "internalType": "address",
          "name": "",
          "type": "address"
        }
      ],
      "stateMutability": "view",
      "type": "function"
    },
    {
      "inputs": [
        {
          "internalType": "uint256",
          "name": "tokenId",
          "type": "uint256"
        }
      ],
      "name": "getCarDetails",
      "outputs": [
        {
          "components": [
            {
              "internalType": "string",
              "name": "make",
              "type": "string"
            },
            {
              "internalType": "string",
              "name": "model",
              "type": "string"
            },
            {
              "internalType": "uint256",
              "name": "year",
              "type": "uint256"
            },
            {
              "internalType": "string",
              "name": "vin",
              "type": "string"
            },
            {
              "internalType": "uint256",
              "name": "mileage",
              "type": "uint256"
            },
            {
              "internalType": "bool",
              "name": "forSale",
              "type": "bool"
            },
            {
              "internalType": "uint256",
              "name": "price",
              "type": "uint256"
            },
            {
              "internalType": "string",
              "name": "tokenURI",
              "type": "string"
            }
          ],
          "internalType": "struct CarMarketplace.Car",
          "name": "",
          "type": "tuple"
        }
      ],
      "stateMutability": "view",
      "type": "function"
    },
    {
      "inputs": [
        {
          "internalType": "address",
          "name": "owner",
          "type": "address"
        },
        {
          "internalType": "address",
          "name": "operator",
          "type": "address"
        }
      ],
      "name": "isApprovedForAll",
      "outputs": [
        {
          "internalType": "bool",
          "name": "",
          "type": "bool"
        }
      ],
      "stateMutability": "view",
      "type": "function"
    },
    {
      "inputs": [
        {
          "internalType": "uint256",
          "name": "tokenId",
          "type": "uint256"
        },
        {
          "internalType": "uint256",
          "name": "price",
          "type": "uint256"
        }
      ],
      "name": "listCarForSale",
      "outputs": [],
      "stateMutability": "nonpayable",
      "type": "function"
    },
    {
      "inputs": [
        {
          "internalType": "address",
          "name": "to",
          "type": "address"
        },
        {
          "internalType": "string",
          "name": "make",
          "type": "string"
        },
        {
          "internalType": "string",
          "name": "model",
          "type": "string"
        },
        {
          "internalType": "uint256",
          "name": "year",
          "type": "uint256"
        },
        {
          "internalType": "string",
          "name": "vin",
          "type": "string"
        },
        {
          "internalType": "uint256",
          "name": "mileage",
          "type": "uint256"
        },
        {
          "internalType": "uint256",
          "name": "price",
          "type": "uint256"
        },
        {
          "internalType": "string",
          "name": "tokenURI",
          "type": "string"
        }
      ],
      "name": "mintCar",
      "outputs": [],
      "stateMutability": "nonpayable",
      "type": "function"
    },
    {
      "inputs": [],
      "name": "name",
      "outputs": [
        {
          "internalType": "string",
          "name": "",
          "type": "string"
        }
      ],
      "stateMutability": "view",
      "type": "function"
    },
    {
      "inputs": [],
      "name": "owner",
      "outputs": [
        {
          "internalType": "address",
          "name": "",
          "type": "address"
        }
      ],
      "stateMutability": "view",
      "type": "function"
    },
    {
      "inputs": [
        {
          "internalType": "uint256",
          "name": "tokenId",
          "type": "uint256"
        }
      ],
      "name": "ownerOf",
      "outputs": [
        {
          "internalType": "address",
          "name": "",
          "type": "address"
        }
      ],
      "stateMutability": "view",
      "type": "function"
    },
    {
      "inputs": [],
      "name": "renounceOwnership",
      "outputs": [],
      "stateMutability": "nonpayable",
      "type": "function"
    },
    {
      "inputs": [
        {
          "internalType": "address",
          "name": "from",
          "type": "address"
        },
        {
          "internalType": "address",
          "name": "to",
          "type": "address"
        },
        {
          "internalType": "uint256",
          "name": "tokenId",
          "type": "uint256"
        }
      ],
      "name": "safeTransferFrom",
      "outputs": [],
      "stateMutability": "nonpayable",
      "type": "function"
    },
    {
      "inputs": [
        {
          "internalType": "address",
          "name": "from",
          "type": "address"
        },
        {
          "internalType": "address",
          "name": "to",
          "type": "address"
        },
        {
          "internalType": "uint256",
          "name": "tokenId",
          "type": "uint256"
        },
        {
          "internalType": "bytes",
          "name": "data",
          "type": "bytes"
        }
      ],
      "name": "safeTransferFrom",
      "outputs": [],
      "stateMutability": "nonpayable",
      "type": "function"
    },
    {
      "inputs": [
        {
          "internalType": "address",
          "name": "operator",
          "type": "address"
        },
        {
          "internalType": "bool",
          "name": "approved",
          "type": "bool"
        }
      ],
      "name": "setApprovalForAll",
      "outputs": [],
      "stateMutability": "nonpayable",
      "type": "function"
    },
    {
      "inputs": [
        {
          "internalType": "bytes4",
          "name": "interfaceId",
          "type": "bytes4"
        }
      ],
      "name": "supportsInterface",
      "outputs": [
        {
          "internalType": "bool",
          "name": "",
          "type": "bool"
        }
      ],
      "stateMutability": "view",
      "type": "function"
    },
    {
      "inputs": [],
      "name": "symbol",
      "outputs": [
        {
          "internalType": "string",
          "name": "",
          "type": "string"
        }
      ],
      "stateMutability": "view",
      "type": "function"
    },
    {
      "inputs": [
        {
          "internalType": "uint256",
          "name": "tokenId",
          "type": "uint256"
        }
      ],
      "name": "tokenURI",
      "outputs": [
        {
          "internalType": "string",
          "name": "",
          "type": "string"
        }
      ],
      "stateMutability": "view",
      "type": "function"
    },
    {
      "inputs": [
        {
          "internalType": "address",
          "name": "from",
          "type": "address"
        },
        {
          "internalType": "address",
          "name": "to",
          "type": "address"
        },
        {
          "internalType": "uint256",
          "name": "tokenId",
          "type": "uint256"
        }
      ],
      "name": "transferFrom",
      "outputs": [],
      "stateMutability": "nonpayable",
      "type": "function"
    },
    {
      "inputs": [
        {
          "internalType": "address",
          "name": "newOwner",
          "type": "address"
        }
      ],
      "name": "transferOwnership",
      "outputs": [],
      "stateMutability": "nonpayable",
      "type": "function"
    }
  ],
  "bytecode": "0x608060405234801561001057600080fd5b50336040518060400160405280600781526020017f4175746f446578000000000000000000000000000000000000000000000000008152506040518060400160405280600381526020017f4144580000000000000000000000000000000000000000000000000000000000815250816000908161008d919061043d565b50806001908161009d919061043d565b505050600073ffffffffffffffffffffffffffffffffffffffff168173ffffffffffffffffffffffffffffffffffffffff16036101125760006040517f1e4fbdf70000000000000000000000000000000000000000000000000000000081526004016101099190610550565b60405180910390fd5b6101218161012760201b60201c565b5061056b565b6000600760009054906101000a900473ffffffffffffffffffffffffffffffffffffffff16905081600760006101000a81548173ffffffffffffffffffffffffffffffffffffffff021916908373ffffffffffffffffffffffffffffffffffffffff1602179055508173ffffffffffffffffffffffffffffffffffffffff168173ffffffffffffffffffffffffffffffffffffffff167f8be0079c531659141344cd1fd0a4f28419497f9722a3daafe3b4186f6b6457e060405160405180910390a35050565b600081519050919050565b7f4e487b7100000000000000000000000000000000000000000000000000000000600052604160045260246000fd5b7f4e487b7100000000000000000000000000000000000000000000000000000000600052602260045260246000fd5b6000600282049050600182168061026e57607f821691505b60208210810361028157610280610227565b5b50919050565b60008190508160005260206000209050919050565b60006020601f8301049050919050565b600082821b905092915050565b6000600883026102e97fffffffffffffffffffffffffffffffffffffffffffffffffffffffffffffffff826102ac565b6102f386836102ac565b95508019841693508086168417925050509392505050565b6000819050919050565b6000819050919050565b600061033a6103356103308461030b565b610315565b61030b565b9050919050565b6000819050919050565b6103548361031f565b61036861036082610341565b8484546102b9565b825550505050565b600090565b61037d610370565b61038881848461034b565b505050565b5b818110156103ac576103a1600082610375565b60018101905061038e565b5050565b601f8211156103f1576103c281610287565b6103cb8461029c565b810160208510156103da578190505b6103ee6103e68561029c565b83018261038d565b50505b505050565b600082821c905092915050565b6000610414600019846008026103f6565b1980831691505092915050565b600061042d8383610403565b9150826002028217905092915050565b610446826101ed565b67ffffffffffffffff81111561045f5761045e6101f8565b5b6104698254610256565b6104748282856103b0565b600060209050601f8311600181146104a75760008415610495578287015190505b61049f8582610421565b865550610507565b601f1984166104b586610287565b60005b828110156104dd578489015182556001820191506020850194506020810190506104b8565b868310156104fa57848901516104f6601f891682610403565b8355505b6001600288020188555050505b505050505050565b600073ffffffffffffffffffffffffffffffffffffffff82169050919050565b600061053a8261050f565b9050919050565b61054a8161052f565b82525050565b60006020820190506105656000830184610541565b92915050565b613e838061057a6000396000f3fe60806040526004361061012a5760003560e01c806370a08231116100ab578063abfe5d571161006f578063abfe5d57146103e1578063b88d4fde1461040c578063c87b56dd14610435578063e985e9c514610472578063f2fde38b146104af578063f6888384146104d85761012a565b806370a082311461030e578063715018a61461034b5780638da5cb5b1461036257806395d89b411461038d578063a22cb465146103b85761012a565b806323b872dd116100f257806323b872dd1461022657806342842e0e1461024f578063472ec454146102785780636352211e146102b55780636c231060146102f25761012a565b806301ffc9a71461012f57806306fdde031461016c578063081812fc14610197578063095ea7b3146101d45780630993de2c146101fd575b600080fd5b34801561013b57600080fd5b5061015660048036038101906101519190612a41565b610501565b6040516101639190612a89565b60405180910390f35b34801561017857600080fd5b50610181610562565b60405161018e9190612b34565b60405180910390f35b3480156101a357600080fd5b506101be60048036038101906101b99190612b8c565b6105f4565b6040516101cb9190612bfa565b60405180910390f35b3480156101e057600080fd5b506101fb60048036038101906101f69190612c41565b610610565b005b34801561020957600080fd5b50610224600480360381019061021f9190612db6565b610626565b005b34801561023257600080fd5b5061024d60048036038101906102489190612edc565b610907565b005b34801561025b57600080fd5b5061027660048036038101906102719190612edc565b610a09565b005b34801561028457600080fd5b5061029f600480360381019061029a9190612b8c565b610a29565b6040516102ac919061305c565b60405180910390f35b3480156102c157600080fd5b506102dc60048036038101906102d79190612b8c565b610ce2565b6040516102e99190612bfa565b60405180910390f35b61030c60048036038101906103079190612b8c565b610cf4565b005b34801561031a57600080fd5b506103356004803603810190610330919061307e565b610f84565b60405161034291906130ba565b60405180910390f35b34801561035757600080fd5b5061036061103e565b005b34801561036e57600080fd5b50610377611052565b6040516103849190612bfa565b60405180910390f35b34801561039957600080fd5b506103a261107c565b6040516103af9190612b34565b60405180910390f35b3480156103c457600080fd5b506103df60048036038101906103da9190613101565b61110e565b005b3480156103ed57600080fd5b506103f6611124565b60405161040391906132c8565b60405180910390f35b34801561041857600080fd5b50610433600480360381019061042e919061338b565b611460565b005b34801561044157600080fd5b5061045c60048036038101906104579190612b8c565b611485565b6040516104699190612b34565b60405180910390f35b34801561047e57600080fd5b506104996004803603810190610494919061340e565b611598565b6040516104a69190612a89565b60405180910390f35b3480156104bb57600080fd5b506104d660048036038101906104d1919061307e565b61162c565b005b3480156104e457600080fd5b506104ff60048036038101906104fa919061344e565b6116b2565b005b6000634906490660e01b7bffffffffffffffffffffffffffffffffffffffffffffffffffffffff1916827bffffffffffffffffffffffffffffffffffffffffffffffffffffffff1916148061055b575061055a826117f2565b5b9050919050565b606060008054610571906134bd565b80601f016020809104026020016040519081016040528092919081815260200182805461059d906134bd565b80156105ea5780601f106105bf576101008083540402835291602001916105ea565b820191906000526020600020905b8154815290600101906020018083116105cd57829003601f168201915b5050505050905090565b60006105ff826118d4565b506106098261195c565b9050919050565b610622828261061d611999565b6119a1565b5050565b61062e6119b3565b6000845111610672576040517f08c379a00000000000000000000000000000000000000000000000000000000081526004016106699061353a565b60405180910390fd5b60005b60085481101561072f57846040516020016106909190613596565b60405160208183030381529060405280519060200120600960008381526020019081526020016000206003016040516020016106cc9190613645565b6040516020818303038152906040528051906020012003610722576040517f08c379a0000000000000000000000000000000000000000000000000000000008152600401610719906136a8565b60405180910390fd5b8080600101915050610675565b50600060085490506040518061010001604052808981526020018881526020018781526020018681526020018581526020016001151581526020018481526020018381525060096000838152602001908152602001600020600082015181600001908161079c919061385f565b5060208201518160010190816107b2919061385f565b506040820151816002015560608201518160030190816107d2919061385f565b506080820151816004015560a08201518160050160006101000a81548160ff02191690831515021790555060c0820151816006015560e082015181600701908161081c919061385f565b5090505088600a600083815260200190815260200160002060006101000a81548173ffffffffffffffffffffffffffffffffffffffff021916908373ffffffffffffffffffffffffffffffffffffffff16021790555080600b866040516108839190613596565b90815260200160405180910390208190555061089f8982611a3a565b6108a98183611b33565b600860008154809291906108bc90613960565b91905055507fbd3303cf3cb581bf78ef3ac343c3e3d038afb8bc52183ae64109ebd7ee3a873d818a876040516108f4939291906139a8565b60405180910390a1505050505050505050565b600073ffffffffffffffffffffffffffffffffffffffff168273ffffffffffffffffffffffffffffffffffffffff16036109795760006040517f64a0ae920000000000000000000000000000000000000000000000000000000081526004016109709190612bfa565b60405180910390fd5b600061098d8383610988611999565b611b8f565b90508373ffffffffffffffffffffffffffffffffffffffff168173ffffffffffffffffffffffffffffffffffffffff1614610a03578382826040517f64283d7b0000000000000000000000000000000000000000000000000000000081526004016109fa939291906139e6565b60405180910390fd5b50505050565b610a2483838360405180602001604052806000815250611460565b505050565b610a3161298e565b610a3a826118d4565b506009600083815260200190815260200160002060405180610100016040529081600082018054610a6a906134bd565b80601f0160208091040260200160405190810160405280929190818152602001828054610a96906134bd565b8015610ae35780601f10610ab857610100808354040283529160200191610ae3565b820191906000526020600020905b815481529060010190602001808311610ac657829003601f168201915b50505050508152602001600182018054610afc906134bd565b80601f0160208091040260200160405190810160405280929190818152602001828054610b28906134bd565b8015610b755780601f10610b4a57610100808354040283529160200191610b75565b820191906000526020600020905b815481529060010190602001808311610b5857829003601f168201915b5050505050815260200160028201548152602001600382018054610b98906134bd565b80601f0160208091040260200160405190810160405280929190818152602001828054610bc4906134bd565b8015610c115780601f10610be657610100808354040283529160200191610c11565b820191906000526020600020905b815481529060010190602001808311610bf457829003601f168201915b50505050508152602001600482015481526020016005820160009054906101000a900460ff1615151515815260200160068201548152602001600782018054610c59906134bd565b80601f0160208091040260200160405190810160405280929190818152602001828054610c85906134bd565b8015610cd25780601f10610ca757610100808354040283529160200191610cd2565b820191906000526020600020905b815481529060010190602001808311610cb557829003601f168201915b5050505050815250509050919050565b6000610ced826118d4565b9050919050565b6009600082815260200190815260200160002060050160009054906101000a900460ff16610d57576040517f08c379a0000000000000000000000000000000000000000000000000000000008152600401610d4e90613a69565b60405180910390fd5b6009600082815260200190815260200160002060060154341015610db0576040517f08c379a0000000000000000000000000000000000000000000000000000000008152600401610da790613ad5565b60405180910390fd5b6000600a600083815260200190815260200160002060009054906101000a900473ffffffffffffffffffffffffffffffffffffffff1690503373ffffffffffffffffffffffffffffffffffffffff168173ffffffffffffffffffffffffffffffffffffffff1603610e56576040517f08c379a0000000000000000000000000000000000000000000000000000000008152600401610e4d90613b41565b60405180910390fd5b610e61813384611da9565b8073ffffffffffffffffffffffffffffffffffffffff166108fc349081150290604051600060405180830381858888f19350505050158015610ea7573d6000803e3d6000fd5b5033600a600084815260200190815260200160002060006101000a81548173ffffffffffffffffffffffffffffffffffffffff021916908373ffffffffffffffffffffffffffffffffffffffff16021790555060006009600084815260200190815260200160002060050160006101000a81548160ff021916908315150217905550600060096000848152602001908152602001600020600601819055507f9d90e6b7483b210fb2eb1814d730195955d020389f316a5127d8f07d6fe61c8b823334604051610f7893929190613b61565b60405180910390a15050565b60008073ffffffffffffffffffffffffffffffffffffffff168273ffffffffffffffffffffffffffffffffffffffff1603610ff75760006040517f89c62b64000000000000000000000000000000000000000000000000000000008152600401610fee9190612bfa565b60405180910390fd5b600360008373ffffffffffffffffffffffffffffffffffffffff1673ffffffffffffffffffffffffffffffffffffffff168152602001908152602001600020549050919050565b6110466119b3565b6110506000611f16565b565b6000600760009054906101000a900473ffffffffffffffffffffffffffffffffffffffff16905090565b60606001805461108b906134bd565b80601f01602080910402602001604051908101604052809291908181526020018280546110b7906134bd565b80156111045780601f106110d957610100808354040283529160200191611104565b820191906000526020600020905b8154815290600101906020018083116110e757829003601f168201915b5050505050905090565b611120611119611999565b8383611fdc565b5050565b6060600060085467ffffffffffffffff81111561114457611143612c8b565b5b60405190808252806020026020018201604052801561117d57816020015b61116a61298e565b8152602001906001900390816111625790505b50905060005b6008548110156114585760096000828152602001908152602001600020604051806101000160405290816000820180546111bc906134bd565b80601f01602080910402602001604051908101604052809291908181526020018280546111e8906134bd565b80156112355780601f1061120a57610100808354040283529160200191611235565b820191906000526020600020905b81548152906001019060200180831161121857829003601f168201915b5050505050815260200160018201805461124e906134bd565b80601f016020809104026020016040519081016040528092919081815260200182805461127a906134bd565b80156112c75780601f1061129c576101008083540402835291602001916112c7565b820191906000526020600020905b8154815290600101906020018083116112aa57829003601f168201915b50505050508152602001600282015481526020016003820180546112ea906134bd565b80601f0160208091040260200160405190810160405280929190818152602001828054611316906134bd565b80156113635780601f1061133857610100808354040283529160200191611363565b820191906000526020600020905b81548152906001019060200180831161134657829003601f168201915b50505050508152602001600482015481526020016005820160009054906101000a900460ff16151515158152602001600682015481526020016007820180546113ab906134bd565b80601f01602080910402602001604051908101604052809291908181526020018280546113d7906134bd565b80156114245780601f106113f957610100808354040283529160200191611424565b820191906000526020600020905b81548152906001019060200180831161140757829003601f168201915b5050505050815250508282815181106114405761143f613b98565b5b60200260200101819052508080600101915050611183565b508091505090565b61146b848484610907565b61147f611476611999565b8585858561214b565b50505050565b6060611490826118d4565b5060006006600084815260200190815260200160002080546114b1906134bd565b80601f01602080910402602001604051908101604052809291908181526020018280546114dd906134bd565b801561152a5780601f106114ff5761010080835404028352916020019161152a565b820191906000526020600020905b81548152906001019060200180831161150d57829003601f168201915b50505050509050600061153b6122fc565b90506000815103611550578192505050611593565b60008251111561158557808260405160200161156d929190613bc7565b60405160208183030381529060405292505050611593565b61158e84612313565b925050505b919050565b6000600560008473ffffffffffffffffffffffffffffffffffffffff1673ffffffffffffffffffffffffffffffffffffffff16815260200190815260200160002060008373ffffffffffffffffffffffffffffffffffffffff1673ffffffffffffffffffffffffffffffffffffffff16815260200190815260200160002060009054906101000a900460ff16905092915050565b6116346119b3565b600073ffffffffffffffffffffffffffffffffffffffff168173ffffffffffffffffffffffffffffffffffffffff16036116a65760006040517f1e4fbdf700000000000000000000000000000000000000000000000000000000815260040161169d9190612bfa565b60405180910390fd5b6116af81611f16565b50565b3373ffffffffffffffffffffffffffffffffffffffff166116d283610ce2565b73ffffffffffffffffffffffffffffffffffffffff1614611728576040517f08c379a000000000000000000000000000000000000000000000000000000000815260040161171f90613c5d565b60405180910390fd5b6000811161176b576040517f08c379a000000000000000000000000000000000000000000000000000000000815260040161176290613cc9565b60405180910390fd5b60016009600084815260200190815260200160002060050160006101000a81548160ff0219169083151502179055508060096000848152602001908152602001600020600601819055507fd7eb5635a91daa6c8336a751c696002c8243f97bad99a81269931e463952470982826040516117e6929190613ce9565b60405180910390a15050565b60007f80ac58cd000000000000000000000000000000000000000000000000000000007bffffffffffffffffffffffffffffffffffffffffffffffffffffffff1916827bffffffffffffffffffffffffffffffffffffffffffffffffffffffff191614806118bd57507f5b5e139f000000000000000000000000000000000000000000000000000000007bffffffffffffffffffffffffffffffffffffffffffffffffffffffff1916827bffffffffffffffffffffffffffffffffffffffffffffffffffffffff1916145b806118cd57506118cc8261237c565b5b9050919050565b6000806118e0836123e6565b9050600073ffffffffffffffffffffffffffffffffffffffff168173ffffffffffffffffffffffffffffffffffffffff160361195357826040517f7e27328900000000000000000000000000000000000000000000000000000000815260040161194a91906130ba565b60405180910390fd5b80915050919050565b60006004600083815260200190815260200160002060009054906101000a900473ffffffffffffffffffffffffffffffffffffffff169050919050565b600033905090565b6119ae8383836001612423565b505050565b6119bb611999565b73ffffffffffffffffffffffffffffffffffffffff166119d9611052565b73ffffffffffffffffffffffffffffffffffffffff1614611a38576119fc611999565b6040517f118cdaa7000000000000000000000000000000000000000000000000000000008152600401611a2f9190612bfa565b60405180910390fd5b565b600073ffffffffffffffffffffffffffffffffffffffff168273ffffffffffffffffffffffffffffffffffffffff1603611aac5760006040517f64a0ae92000000000000000000000000000000000000000000000000000000008152600401611aa39190612bfa565b60405180910390fd5b6000611aba83836000611b8f565b9050600073ffffffffffffffffffffffffffffffffffffffff168173ffffffffffffffffffffffffffffffffffffffff1614611b2e5760006040517f73c6ac6e000000000000000000000000000000000000000000000000000000008152600401611b259190612bfa565b60405180910390fd5b505050565b80600660008481526020019081526020016000209081611b53919061385f565b507ff8e1a15aba9398e019f0b49df1a4fde98ee17ae345cb5f6b5e2c27f5033e8ce782604051611b8391906130ba565b60405180910390a15050565b600080611b9b846123e6565b9050600073ffffffffffffffffffffffffffffffffffffffff168373ffffffffffffffffffffffffffffffffffffffff1614611bdd57611bdc8184866125e8565b5b600073ffffffffffffffffffffffffffffffffffffffff168173ffffffffffffffffffffffffffffffffffffffff1614611c6e57611c1f600085600080612423565b6001600360008373ffffffffffffffffffffffffffffffffffffffff1673ffffffffffffffffffffffffffffffffffffffff168152602001908152602001600020600082825403925050819055505b600073ffffffffffffffffffffffffffffffffffffffff168573ffffffffffffffffffffffffffffffffffffffff1614611cf1576001600360008773ffffffffffffffffffffffffffffffffffffffff1673ffffffffffffffffffffffffffffffffffffffff168152602001908152602001600020600082825401925050819055505b846002600086815260200190815260200160002060006101000a81548173ffffffffffffffffffffffffffffffffffffffff021916908373ffffffffffffffffffffffffffffffffffffffff160217905550838573ffffffffffffffffffffffffffffffffffffffff168273ffffffffffffffffffffffffffffffffffffffff167fddf252ad1be2c89b69c2b068fc378daa952ba7f163c4a11628f55a4df523b3ef60405160405180910390a4809150509392505050565b600073ffffffffffffffffffffffffffffffffffffffff168273ffffffffffffffffffffffffffffffffffffffff1603611e1b5760006040517f64a0ae92000000000000000000000000000000000000000000000000000000008152600401611e129190612bfa565b60405180910390fd5b6000611e2983836000611b8f565b9050600073ffffffffffffffffffffffffffffffffffffffff168173ffffffffffffffffffffffffffffffffffffffff1603611e9c57816040517f7e273289000000000000000000000000000000000000000000000000000000008152600401611e9391906130ba565b60405180910390fd5b8373ffffffffffffffffffffffffffffffffffffffff168173ffffffffffffffffffffffffffffffffffffffff1614611f10578382826040517f64283d7b000000000000000000000000000000000000000000000000000000008152600401611f07939291906139e6565b60405180910390fd5b50505050565b6000600760009054906101000a900473ffffffffffffffffffffffffffffffffffffffff16905081600760006101000a81548173ffffffffffffffffffffffffffffffffffffffff021916908373ffffffffffffffffffffffffffffffffffffffff1602179055508173ffffffffffffffffffffffffffffffffffffffff168173ffffffffffffffffffffffffffffffffffffffff167f8be0079c531659141344cd1fd0a4f28419497f9722a3daafe3b4186f6b6457e060405160405180910390a35050565b600073ffffffffffffffffffffffffffffffffffffffff168273ffffffffffffffffffffffffffffffffffffffff160361204d57816040517f5b08ba180000000000000000000000000000000000000000000000000000000081526004016120449190612bfa565b60405180910390fd5b80600560008573ffffffffffffffffffffffffffffffffffffffff1673ffffffffffffffffffffffffffffffffffffffff16815260200190815260200160002060008473ffffffffffffffffffffffffffffffffffffffff1673ffffffffffffffffffffffffffffffffffffffff16815260200190815260200160002060006101000a81548160ff0219169083151502179055508173ffffffffffffffffffffffffffffffffffffffff168373ffffffffffffffffffffffffffffffffffffffff167f17307eab39ab6107e8899845ad3d59bd9653f200f220920489ca2b5937696c318360405161213e9190612a89565b60405180910390a3505050565b60008373ffffffffffffffffffffffffffffffffffffffff163b11156122f5578273ffffffffffffffffffffffffffffffffffffffff1663150b7a02868685856040518563ffffffff1660e01b81526004016121aa9493929190613d67565b6020604051808303816000875af19250505080156121e657506040513d601f19601f820116820180604052508101906121e39190613dc8565b60015b61226a573d8060008114612216576040519150601f19603f3d011682016040523d82523d6000602084013e61221b565b606091505b50600081510361226257836040517f64a0ae920000000000000000000000000000000000000000000000000000000081526004016122599190612bfa565b60405180910390fd5b805181602001fd5b63150b7a0260e01b7bffffffffffffffffffffffffffffffffffffffffffffffffffffffff1916817bffffffffffffffffffffffffffffffffffffffffffffffffffffffff1916146122f357836040517f64a0ae920000000000000000000000000000000000000000000000000000000081526004016122ea9190612bfa565b60405180910390fd5b505b5050505050565b606060405180602001604052806000815250905090565b606061231e826118d4565b5060006123296122fc565b905060008151116123495760405180602001604052806000815250612374565b80612353846126ac565b604051602001612364929190613bc7565b6040516020818303038152906040525b915050919050565b60007f01ffc9a7000000000000000000000000000000000000000000000000000000007bffffffffffffffffffffffffffffffffffffffffffffffffffffffff1916827bffffffffffffffffffffffffffffffffffffffffffffffffffffffff1916149050919050565b60006002600083815260200190815260200160002060009054906101000a900473ffffffffffffffffffffffffffffffffffffffff169050919050565b808061245c5750600073ffffffffffffffffffffffffffffffffffffffff168273ffffffffffffffffffffffffffffffffffffffff1614155b1561259057600061246c846118d4565b9050600073ffffffffffffffffffffffffffffffffffffffff168373ffffffffffffffffffffffffffffffffffffffff16141580156124d757508273ffffffffffffffffffffffffffffffffffffffff168173ffffffffffffffffffffffffffffffffffffffff1614155b80156124ea57506124e88184611598565b155b1561252c57826040517fa9fbf51f0000000000000000000000000000000000000000000000000000000081526004016125239190612bfa565b60405180910390fd5b811561258e57838573ffffffffffffffffffffffffffffffffffffffff168273ffffffffffffffffffffffffffffffffffffffff167f8c5be1e5ebec7d5bd14f71427d1e84f3dd0314c0f7b2291e5b200ac8c7c3b92560405160405180910390a45b505b836004600085815260200190815260200160002060006101000a81548173ffffffffffffffffffffffffffffffffffffffff021916908373ffffffffffffffffffffffffffffffffffffffff16021790555050505050565b6125f383838361277a565b6126a757600073ffffffffffffffffffffffffffffffffffffffff168373ffffffffffffffffffffffffffffffffffffffff160361266857806040517f7e27328900000000000000000000000000000000000000000000000000000000815260040161265f91906130ba565b60405180910390fd5b81816040517f177e802f00000000000000000000000000000000000000000000000000000000815260040161269e929190613df5565b60405180910390fd5b505050565b6060600060016126bb8461283b565b01905060008167ffffffffffffffff8111156126da576126d9612c8b565b5b6040519080825280601f01601f19166020018201604052801561270c5781602001600182028036833780820191505090505b509050600082602001820190505b60011561276f578080600190039150507f3031323334353637383961626364656600000000000000000000000000000000600a86061a8153600a858161276357612762613e1e565b5b0494506000850361271a575b819350505050919050565b60008073ffffffffffffffffffffffffffffffffffffffff168373ffffffffffffffffffffffffffffffffffffffff161415801561283257508273ffffffffffffffffffffffffffffffffffffffff168473ffffffffffffffffffffffffffffffffffffffff1614806127f357506127f28484611598565b5b8061283157508273ffffffffffffffffffffffffffffffffffffffff166128198361195c565b73ffffffffffffffffffffffffffffffffffffffff16145b5b90509392505050565b600080600090507a184f03e93ff9f4daa797ed6e38ed64bf6a1f0100000000000000008310612899577a184f03e93ff9f4daa797ed6e38ed64bf6a1f010000000000000000838161288f5761288e613e1e565b5b0492506040810190505b6d04ee2d6d415b85acef810000000083106128d6576d04ee2d6d415b85acef810000000083816128cc576128cb613e1e565b5b0492506020810190505b662386f26fc10000831061290557662386f26fc1000083816128fb576128fa613e1e565b5b0492506010810190505b6305f5e100831061292e576305f5e100838161292457612923613e1e565b5b0492506008810190505b612710831061295357612710838161294957612948613e1e565b5b0492506004810190505b60648310612976576064838161296c5761296b613e1e565b5b0492506002810190505b600a8310612985576001810190505b80915050919050565b604051806101000160405280606081526020016060815260200160008152602001606081526020016000815260200160001515815260200160008152602001606081525090565b6000604051905090565b600080fd5b600080fd5b60007fffffffff0000000000000000000000000000000000000000000000000000000082169050919050565b612a1e816129e9565b8114612a2957600080fd5b50565b600081359050612a3b81612a15565b92915050565b600060208284031215612a5757612a566129df565b5b6000612a6584828501612a2c565b91505092915050565b60008115159050919050565b612a8381612a6e565b82525050565b6000602082019050612a9e6000830184612a7a565b92915050565b600081519050919050565b600082825260208201905092915050565b60005b83811015612ade578082015181840152602081019050612ac3565b60008484015250505050565b6000601f19601f8301169050919050565b6000612b0682612aa4565b612b108185612aaf565b9350612b20818560208601612ac0565b612b2981612aea565b840191505092915050565b60006020820190508181036000830152612b4e8184612afb565b905092915050565b6000819050919050565b612b6981612b56565b8114612b7457600080fd5b50565b600081359050612b8681612b60565b92915050565b600060208284031215612ba257612ba16129df565b5b6000612bb084828501612b77565b91505092915050565b600073ffffffffffffffffffffffffffffffffffffffff82169050919050565b6000612be482612bb9565b9050919050565b612bf481612bd9565b82525050565b6000602082019050612c0f6000830184612beb565b92915050565b612c1e81612bd9565b8114612c2957600080fd5b50565b600081359050612c3b81612c15565b92915050565b60008060408385031215612c5857612c576129df565b5b6000612c6685828601612c2c565b9250506020612c7785828601612b77565b9150509250929050565b600080fd5b600080fd5b7f4e487b7100000000000000000000000000000000000000000000000000000000600052604160045260246000fd5b612cc382612aea565b810181811067ffffffffffffffff82111715612ce257612ce1612c8b565b5b80604052505050565b6000612cf56129d5565b9050612d018282612cba565b919050565b600067ffffffffffffffff821115612d2157612d20612c8b565b5b612d2a82612aea565b9050602081019050919050565b82818337600083830152505050565b6000612d59612d5484612d06565b612ceb565b905082815260208101848484011115612d7557612d74612c86565b5b612d80848285612d37565b509392505050565b600082601f830112612d9d57612d9c612c81565b5b8135612dad848260208601612d46565b91505092915050565b600080600080600080600080610100898b031215612dd757612dd66129df565b5b6000612de58b828c01612c2c565b985050602089013567ffffffffffffffff811115612e0657612e056129e4565b5b612e128b828c01612d88565b975050604089013567ffffffffffffffff811115612e3357612e326129e4565b5b612e3f8b828c01612d88565b9650506060612e508b828c01612b77565b955050608089013567ffffffffffffffff811115612e7157612e706129e4565b5b612e7d8b828c01612d88565b94505060a0612e8e8b828c01612b77565b93505060c0612e9f8b828c01612b77565b92505060e089013567ffffffffffffffff811115612ec057612ebf6129e4565b5b612ecc8b828c01612d88565b9150509295985092959890939650565b600080600060608486031215612ef557612ef46129df565b5b6000612f0386828701612c2c565b9350506020612f1486828701612c2c565b9250506040612f2586828701612b77565b9150509250925092565b600082825260208201905092915050565b6000612f4b82612aa4565b612f558185612f2f565b9350612f65818560208601612ac0565b612f6e81612aea565b840191505092915050565b612f8281612b56565b82525050565b612f9181612a6e565b82525050565b6000610100830160008301518482036000860152612fb58282612f40565b91505060208301518482036020860152612fcf8282612f40565b9150506040830151612fe46040860182612f79565b5060608301518482036060860152612ffc8282612f40565b91505060808301516130116080860182612f79565b5060a083015161302460a0860182612f88565b5060c083015161303760c0860182612f79565b5060e083015184820360e086015261304f8282612f40565b9150508091505092915050565b600060208201905081810360008301526130768184612f97565b905092915050565b600060208284031215613094576130936129df565b5b60006130a284828501612c2c565b91505092915050565b6130b481612b56565b82525050565b60006020820190506130cf60008301846130ab565b92915050565b6130de81612a6e565b81146130e957600080fd5b50565b6000813590506130fb816130d5565b92915050565b60008060408385031215613118576131176129df565b5b600061312685828601612c2c565b9250506020613137858286016130ec565b9150509250929050565b600081519050919050565b600082825260208201905092915050565b6000819050602082019050919050565b600061010083016000830151848203600086015261318b8282612f40565b915050602083015184820360208601526131a58282612f40565b91505060408301516131ba6040860182612f79565b50606083015184820360608601526131d28282612f40565b91505060808301516131e76080860182612f79565b5060a08301516131fa60a0860182612f88565b5060c083015161320d60c0860182612f79565b5060e083015184820360e08601526132258282612f40565b9150508091505092915050565b600061323e838361316d565b905092915050565b6000602082019050919050565b600061325e82613141565b613268818561314c565b93508360208202850161327a8561315d565b8060005b858110156132b657848403895281516132978582613232565b94506132a283613246565b925060208a0199505060018101905061327e565b50829750879550505050505092915050565b600060208201905081810360008301526132e28184613253565b905092915050565b600067ffffffffffffffff82111561330557613304612c8b565b5b61330e82612aea565b9050602081019050919050565b600061332e613329846132ea565b612ceb565b90508281526020810184848401111561334a57613349612c86565b5b613355848285612d37565b509392505050565b600082601f83011261337257613371612c81565b5b813561338284826020860161331b565b91505092915050565b600080600080608085870312156133a5576133a46129df565b5b60006133b387828801612c2c565b94505060206133c487828801612c2c565b93505060406133d587828801612b77565b925050606085013567ffffffffffffffff8111156133f6576133f56129e4565b5b6134028782880161335d565b91505092959194509250565b60008060408385031215613425576134246129df565b5b600061343385828601612c2c565b925050602061344485828601612c2c565b9150509250929050565b60008060408385031215613465576134646129df565b5b600061347385828601612b77565b925050602061348485828601612b77565b9150509250929050565b7f4e487b7100000000000000000000000000000000000000000000000000000000600052602260045260246000fd5b600060028204905060018216806134d557607f821691505b6020821081036134e8576134e761348e565b5b50919050565b7f56494e206d7573742062652070726f7669646564000000000000000000000000600082015250565b6000613524601483612aaf565b915061352f826134ee565b602082019050919050565b6000602082019050818103600083015261355381613517565b9050919050565b600081905092915050565b600061357082612aa4565b61357a818561355a565b935061358a818560208601612ac0565b80840191505092915050565b60006135a28284613565565b915081905092915050565b60008190508160005260206000209050919050565b600081546135cf816134bd565b6135d9818661355a565b945060018216600081146135f457600181146136095761363c565b60ff198316865281151582028601935061363c565b613612856135ad565b60005b8381101561363457815481890152600182019150602081019050613615565b838801955050505b50505092915050565b600061365182846135c2565b915081905092915050565b7f56494e20616c7265616479206578697374730000000000000000000000000000600082015250565b6000613692601283612aaf565b915061369d8261365c565b602082019050919050565b600060208201905081810360008301526136c181613685565b9050919050565b60006020601f8301049050919050565b600082821b905092915050565b6000600883026137157fffffffffffffffffffffffffffffffffffffffffffffffffffffffffffffffff826136d8565b61371f86836136d8565b95508019841693508086168417925050509392505050565b6000819050919050565b600061375c61375761375284612b56565b613737565b612b56565b9050919050565b6000819050919050565b61377683613741565b61378a61378282613763565b8484546136e5565b825550505050565b600090565b61379f613792565b6137aa81848461376d565b505050565b5b818110156137ce576137c3600082613797565b6001810190506137b0565b5050565b601f821115613813576137e4816135ad565b6137ed846136c8565b810160208510156137fc578190505b613810613808856136c8565b8301826137af565b50505b505050565b600082821c905092915050565b600061383660001984600802613818565b1980831691505092915050565b600061384f8383613825565b9150826002028217905092915050565b61386882612aa4565b67ffffffffffffffff81111561388157613880612c8b565b5b61388b82546134bd565b6138968282856137d2565b600060209050601f8311600181146138c957600084156138b7578287015190505b6138c18582613843565b865550613929565b601f1984166138d7866135ad565b60005b828110156138ff578489015182556001820191506020850194506020810190506138da565b8683101561391c5784890151613918601f891682613825565b8355505b6001600288020188555050505b505050505050565b7f4e487b7100000000000000000000000000000000000000000000000000000000600052601160045260246000fd5b600061396b82612b56565b91507fffffffffffffffffffffffffffffffffffffffffffffffffffffffffffffffff820361399d5761399c613931565b5b600182019050919050565b60006060820190506139bd60008301866130ab565b6139ca6020830185612beb565b81810360408301526139dc8184612afb565b9050949350505050565b60006060820190506139fb6000830186612beb565b613a0860208301856130ab565b613a156040830184612beb565b949350505050565b7f436172206973206e6f7420666f722073616c6500000000000000000000000000600082015250565b6000613a53601383612aaf565b9150613a5e82613a1d565b602082019050919050565b60006020820190508181036000830152613a8281613a46565b9050919050565b7f496e73756666696369656e74204554482073656e742e00000000000000000000600082015250565b6000613abf601683612aaf565b9150613aca82613a89565b602082019050919050565b60006020820190508181036000830152613aee81613ab2565b9050919050565b7f596f752063616e6e6f742062757920796f7572206f776e206361722e00000000600082015250565b6000613b2b601c83612aaf565b9150613b3682613af5565b602082019050919050565b60006020820190508181036000830152613b5a81613b1e565b9050919050565b6000606082019050613b7660008301866130ab565b613b836020830185612beb565b613b9060408301846130ab565b949350505050565b7f4e487b7100000000000000000000000000000000000000000000000000000000600052603260045260246000fd5b6000613bd38285613565565b9150613bdf8284613565565b91508190509392505050565b7f4f6e6c7920746865206f776e6572206f66207468652076656869636c6520636160008201527f6e206c69737420697420666f722073616c652e00000000000000000000000000602082015250565b6000613c47603383612aaf565b9150613c5282613beb565b604082019050919050565b60006020820190508181036000830152613c7681613c3a565b9050919050565b7f5072696365206d7573742062652067726561746572207468616e207a65726f2e600082015250565b6000613cb3602083612aaf565b9150613cbe82613c7d565b602082019050919050565b60006020820190508181036000830152613ce281613ca6565b9050919050565b6000604082019050613cfe60008301856130ab565b613d0b60208301846130ab565b9392505050565b600081519050919050565b600082825260208201905092915050565b6000613d3982613d12565b613d438185613d1d565b9350613d53818560208601612ac0565b613d5c81612aea565b840191505092915050565b6000608082019050613d7c6000830187612beb565b613d896020830186612beb565b613d9660408301856130ab565b8181036060830152613da88184613d2e565b905095945050505050565b600081519050613dc281612a15565b92915050565b600060208284031215613dde57613ddd6129df565b5b6000613dec84828501613db3565b91505092915050565b6000604082019050613e0a6000830185612beb565b613e1760208301846130ab565b9392505050565b7f4e487b7100000000000000000000000000000000000000000000000000000000600052601260045260246000fdfea264697066735822122097f2108e82c0861c76b5ad9f681c1bb60ea2cf202b83e87ba0eac7162881a9cf64736f6c634300081c0033",
  "linkReferences": {},
  "deployedLinkReferences": {}
}