{
  "_format": "hh-sol-artifact-1",
  "contractName": "CarMarketplace",
  "sourceName": "contracts/CarMarketplace.sol",
  "abi": [
    {
      "inputs": [],
      "stateMutability": "nonpayable",
      "type": "constructor"
    },
    {
      "inputs": [
        {
          "internalType": "address",
          "name": "sender",
          "type": "address"
        },
        {
          "internalType": "uint256",
          "name": "tokenId",
          "type": "uint256"
        },
        {
          "internalType": "address",
          "name": "owner",
          "type": "address"
        }
      ],
      "name": "ERC721IncorrectOwner",
      "type": "error"
    },
    {
      "inputs": [
        {
          "internalType": "address",
          "name": "operator",
          "type": "address"
        },
        {
          "internalType": "uint256",
          "name": "tokenId",
          "type": "uint256"
        }
      ],
      "name": "ERC721InsufficientApproval",
      "type": "error"
    },
    {
      "inputs": [
        {
          "internalType": "address",
          "name": "approver",
          "type": "address"
        }
      ],
      "name": "ERC721InvalidApprover",
      "type": "error"
    },
    {
      "inputs": [
        {
          "internalType": "address",
          "name": "operator",
          "type": "address"
        }
      ],
      "name": "ERC721InvalidOperator",
      "type": "error"
    },
    {
      "inputs": [
        {
          "internalType": "address",
          "name": "owner",
          "type": "address"
        }
      ],
      "name": "ERC721InvalidOwner",
      "type": "error"
    },
    {
      "inputs": [
        {
          "internalType": "address",
          "name": "receiver",
          "type": "address"
        }
      ],
      "name": "ERC721InvalidReceiver",
      "type": "error"
    },
    {
      "inputs": [
        {
          "internalType": "address",
          "name": "sender",
          "type": "address"
        }
      ],
      "name": "ERC721InvalidSender",
      "type": "error"
    },
    {
      "inputs": [
        {
          "internalType": "uint256",
          "name": "tokenId",
          "type": "uint256"
        }
      ],
      "name": "ERC721NonexistentToken",
      "type": "error"
    },
    {
      "inputs": [
        {
          "internalType": "address",
          "name": "owner",
          "type": "address"
        }
      ],
      "name": "OwnableInvalidOwner",
      "type": "error"
    },
    {
      "inputs": [
        {
          "internalType": "address",
          "name": "account",
          "type": "address"
        }
      ],
      "name": "OwnableUnauthorizedAccount",
      "type": "error"
    },
    {
      "anonymous": false,
      "inputs": [
        {
          "indexed": true,
          "internalType": "address",
          "name": "owner",
          "type": "address"
        },
        {
          "indexed": true,
          "internalType": "address",
          "name": "approved",
          "type": "address"
        },
        {
          "indexed": true,
          "internalType": "uint256",
          "name": "tokenId",
          "type": "uint256"
        }
      ],
      "name": "Approval",
      "type": "event"
    },
    {
      "anonymous": false,
      "inputs": [
        {
          "indexed": true,
          "internalType": "address",
          "name": "owner",
          "type": "address"
        },
        {
          "indexed": true,
          "internalType": "address",
          "name": "operator",
          "type": "address"
        },
        {
          "indexed": false,
          "internalType": "bool",
          "name": "approved",
          "type": "bool"
        }
      ],
      "name": "ApprovalForAll",
      "type": "event"
    },
    {
      "anonymous": false,
      "inputs": [
        {
          "indexed": false,
          "internalType": "uint256",
          "name": "_fromTokenId",
          "type": "uint256"
        },
        {
          "indexed": false,
          "internalType": "uint256",
          "name": "_toTokenId",
          "type": "uint256"
        }
      ],
      "name": "BatchMetadataUpdate",
      "type": "event"
    },
    {
      "anonymous": false,
      "inputs": [
        {
          "indexed": false,
          "internalType": "uint256",
          "name": "tokenId",
          "type": "uint256"
        },
        {
          "indexed": false,
          "internalType": "uint256",
          "name": "price",
          "type": "uint256"
        }
      ],
      "name": "CarListedForSale",
      "type": "event"
    },
    {
      "anonymous": false,
      "inputs": [
        {
          "indexed": false,
          "internalType": "uint256",
          "name": "tokenId",
          "type": "uint256"
        },
        {
          "indexed": false,
          "internalType": "address",
          "name": "owner",
          "type": "address"
        },
        {
          "indexed": false,
          "internalType": "string",
          "name": "vin",
          "type": "string"
        }
      ],
      "name": "CarMinted",
      "type": "event"
    },
    {
      "anonymous": false,
      "inputs": [
        {
          "indexed": false,
          "internalType": "uint256",
          "name": "tokenId",
          "type": "uint256"
        },
        {
          "indexed": false,
          "internalType": "address",
          "name": "newOwner",
          "type": "address"
        },
        {
          "indexed": false,
          "internalType": "uint256",
          "name": "price",
          "type": "uint256"
        }
      ],
      "name": "CarSold",
      "type": "event"
    },
    {
      "anonymous": false,
      "inputs": [
        {
          "indexed": false,
          "internalType": "uint256",
          "name": "_tokenId",
          "type": "uint256"
        }
      ],
      "name": "MetadataUpdate",
      "type": "event"
    },
    {
      "anonymous": false,
      "inputs": [
        {
          "indexed": true,
          "internalType": "address",
          "name": "previousOwner",
          "type": "address"
        },
        {
          "indexed": true,
          "internalType": "address",
          "name": "newOwner",
          "type": "address"
        }
      ],
      "name": "OwnershipTransferred",
      "type": "event"
    },
    {
      "anonymous": false,
      "inputs": [
        {
          "indexed": false,
          "internalType": "uint256",
          "name": "tokenId",
          "type": "uint256"
        },
        {
          "indexed": false,
          "internalType": "address",
          "name": "from",
          "type": "address"
        },
        {
          "indexed": false,
          "internalType": "address",
          "name": "to",
          "type": "address"
        }
      ],
      "name": "OwnershipTransferred",
      "type": "event"
    },
    {
      "anonymous": false,
      "inputs": [
        {
          "indexed": true,
          "internalType": "address",
          "name": "provider",
          "type": "address"
        }
      ],
      "name": "ServiceProviderAdded",
      "type": "event"
    },
    {
      "anonymous": false,
      "inputs": [
        {
          "indexed": true,
          "internalType": "address",
          "name": "provider",
          "type": "address"
        }
      ],
      "name": "ServiceProviderRemoved",
      "type": "event"
    },
    {
      "anonymous": false,
      "inputs": [
        {
          "indexed": true,
          "internalType": "uint256",
          "name": "tokenId",
          "type": "uint256"
        },
        {
          "indexed": false,
          "internalType": "string",
          "name": "description",
          "type": "string"
        }
      ],
      "name": "ServiceRecordAdded",
      "type": "event"
    },
    {
      "anonymous": false,
      "inputs": [
        {
          "indexed": true,
          "internalType": "address",
          "name": "from",
          "type": "address"
        },
        {
          "indexed": true,
          "internalType": "address",
          "name": "to",
          "type": "address"
        },
        {
          "indexed": true,
          "internalType": "uint256",
          "name": "tokenId",
          "type": "uint256"
        }
      ],
      "name": "Transfer",
      "type": "event"
    },
    {
      "inputs": [
        {
          "internalType": "address",
          "name": "provider",
          "type": "address"
        }
      ],
      "name": "addServiceProvider",
      "outputs": [],
      "stateMutability": "nonpayable",
      "type": "function"
    },
    {
      "inputs": [
        {
          "internalType": "uint256",
          "name": "tokenId",
          "type": "uint256"
        },
        {
          "internalType": "string",
          "name": "description",
          "type": "string"
        },
        {
          "internalType": "string",
          "name": "garageName",
          "type": "string"
        },
        {
          "internalType": "uint256",
          "name": "mileage",
          "type": "uint256"
        }
      ],
      "name": "addServiceRecord",
      "outputs": [],
      "stateMutability": "nonpayable",
      "type": "function"
    },
    {
      "inputs": [
        {
          "internalType": "address",
          "name": "to",
          "type": "address"
        },
        {
          "internalType": "uint256",
          "name": "tokenId",
          "type": "uint256"
        }
      ],
      "name": "approve",
      "outputs": [],
      "stateMutability": "nonpayable",
      "type": "function"
    },
    {
      "inputs": [
        {
          "internalType": "address",
          "name": "owner",
          "type": "address"
        }
      ],
      "name": "balanceOf",
      "outputs": [
        {
          "internalType": "uint256",
          "name": "",
          "type": "uint256"
        }
      ],
      "stateMutability": "view",
      "type": "function"
    },
    {
      "inputs": [
        {
          "internalType": "uint256",
          "name": "tokenId",
          "type": "uint256"
        }
      ],
      "name": "buyCar",
      "outputs": [],
      "stateMutability": "payable",
      "type": "function"
    },
    {
      "inputs": [],
      "name": "getAllCars",
      "outputs": [
        {
          "components": [
            {
              "internalType": "uint256",
              "name": "tokenId",
              "type": "uint256"
            },
            {
              "internalType": "string",
              "name": "tokenURI",
              "type": "string"
            },
            {
              "internalType": "uint256",
              "name": "price",
              "type": "uint256"
            }
          ],
          "internalType": "struct CarMarketplace.Car[]",
          "name": "",
          "type": "tuple[]"
        }
      ],
      "stateMutability": "view",
      "type": "function"
    },
    {
      "inputs": [
        {
          "internalType": "uint256",
          "name": "tokenId",
          "type": "uint256"
        }
      ],
      "name": "getApproved",
      "outputs": [
        {
          "internalType": "address",
          "name": "",
          "type": "address"
        }
      ],
      "stateMutability": "view",
      "type": "function"
    },
    {
      "inputs": [
        {
          "internalType": "uint256",
          "name": "tokenId",
          "type": "uint256"
        }
      ],
      "name": "getCarDetails",
      "outputs": [
        {
          "components": [
            {
              "internalType": "uint256",
              "name": "tokenId",
              "type": "uint256"
            },
            {
              "internalType": "string",
              "name": "tokenURI",
              "type": "string"
            },
            {
              "internalType": "uint256",
              "name": "price",
              "type": "uint256"
            }
          ],
          "internalType": "struct CarMarketplace.Car",
          "name": "",
          "type": "tuple"
        }
      ],
      "stateMutability": "view",
      "type": "function"
    },
    {
      "inputs": [
        {
          "internalType": "address",
          "name": "provider",
          "type": "address"
        }
      ],
      "name": "getIsServiceProvider",
      "outputs": [
        {
          "internalType": "bool",
          "name": "",
          "type": "bool"
        }
      ],
      "stateMutability": "view",
      "type": "function"
    },
    {
      "inputs": [
        {
          "internalType": "uint256",
          "name": "tokenId",
          "type": "uint256"
        }
      ],
      "name": "getOwnershipHistory",
      "outputs": [
        {
          "components": [
            {
              "internalType": "address",
              "name": "owner",
              "type": "address"
            },
            {
              "internalType": "uint256",
              "name": "timestamp",
              "type": "uint256"
            }
          ],
          "internalType": "struct CarMarketplace.OwnershipRecord[]",
          "name": "",
          "type": "tuple[]"
        }
      ],
      "stateMutability": "view",
      "type": "function"
    },
    {
      "inputs": [
        {
          "internalType": "uint256",
          "name": "tokenId",
          "type": "uint256"
        }
      ],
      "name": "getPrice",
      "outputs": [
        {
          "internalType": "uint256",
          "name": "",
          "type": "uint256"
        }
      ],
      "stateMutability": "view",
      "type": "function"
    },
    {
      "inputs": [
        {
          "internalType": "uint256",
          "name": "tokenId",
          "type": "uint256"
        }
      ],
      "name": "getServiceHistory",
      "outputs": [
        {
          "components": [
            {
              "internalType": "uint256",
              "name": "date",
              "type": "uint256"
            },
            {
              "internalType": "string",
              "name": "description",
              "type": "string"
            },
            {
              "internalType": "string",
              "name": "garageName",
              "type": "string"
            },
            {
              "internalType": "uint256",
              "name": "mileage",
              "type": "uint256"
            }
          ],
          "internalType": "struct CarMarketplace.ServiceRecord[]",
          "name": "",
          "type": "tuple[]"
        }
      ],
      "stateMutability": "view",
      "type": "function"
    },
    {
      "inputs": [
        {
          "internalType": "string",
          "name": "vin",
          "type": "string"
        }
      ],
      "name": "getTokenIdByVIN",
      "outputs": [
        {
          "internalType": "uint256",
          "name": "",
          "type": "uint256"
        }
      ],
      "stateMutability": "view",
      "type": "function"
    },
    {
      "inputs": [
        {
          "internalType": "address",
          "name": "owner",
          "type": "address"
        },
        {
          "internalType": "address",
          "name": "operator",
          "type": "address"
        }
      ],
      "name": "isApprovedForAll",
      "outputs": [
        {
          "internalType": "bool",
          "name": "",
          "type": "bool"
        }
      ],
      "stateMutability": "view",
      "type": "function"
    },
    {
      "inputs": [
        {
          "internalType": "address",
          "name": "",
          "type": "address"
        }
      ],
      "name": "isServiceProvider",
      "outputs": [
        {
          "internalType": "bool",
          "name": "",
          "type": "bool"
        }
      ],
      "stateMutability": "view",
      "type": "function"
    },
    {
      "inputs": [
        {
          "internalType": "uint256",
          "name": "tokenId",
          "type": "uint256"
        },
        {
          "internalType": "uint256",
          "name": "price",
          "type": "uint256"
        }
      ],
      "name": "listCarForSale",
      "outputs": [],
      "stateMutability": "nonpayable",
      "type": "function"
    },
    {
      "inputs": [
        {
          "internalType": "address",
          "name": "to",
          "type": "address"
        },
        {
          "internalType": "string",
          "name": "vin",
          "type": "string"
        },
        {
          "internalType": "uint256",
          "name": "price",
          "type": "uint256"
        },
        {
          "internalType": "string",
          "name": "tokenURI",
          "type": "string"
        }
      ],
      "name": "mintCar",
      "outputs": [],
      "stateMutability": "nonpayable",
      "type": "function"
    },
    {
      "inputs": [],
      "name": "name",
      "outputs": [
        {
          "internalType": "string",
          "name": "",
          "type": "string"
        }
      ],
      "stateMutability": "view",
      "type": "function"
    },
    {
      "inputs": [],
      "name": "owner",
      "outputs": [
        {
          "internalType": "address",
          "name": "",
          "type": "address"
        }
      ],
      "stateMutability": "view",
      "type": "function"
    },
    {
      "inputs": [
        {
          "internalType": "uint256",
          "name": "tokenId",
          "type": "uint256"
        }
      ],
      "name": "ownerOf",
      "outputs": [
        {
          "internalType": "address",
          "name": "",
          "type": "address"
        }
      ],
      "stateMutability": "view",
      "type": "function"
    },
    {
      "inputs": [
        {
          "internalType": "address",
          "name": "provider",
          "type": "address"
        }
      ],
      "name": "removeServiceProvider",
      "outputs": [],
      "stateMutability": "nonpayable",
      "type": "function"
    },
    {
      "inputs": [],
      "name": "renounceOwnership",
      "outputs": [],
      "stateMutability": "nonpayable",
      "type": "function"
    },
    {
      "inputs": [
        {
          "internalType": "address",
          "name": "from",
          "type": "address"
        },
        {
          "internalType": "address",
          "name": "to",
          "type": "address"
        },
        {
          "internalType": "uint256",
          "name": "tokenId",
          "type": "uint256"
        }
      ],
      "name": "safeTransferFrom",
      "outputs": [],
      "stateMutability": "nonpayable",
      "type": "function"
    },
    {
      "inputs": [
        {
          "internalType": "address",
          "name": "from",
          "type": "address"
        },
        {
          "internalType": "address",
          "name": "to",
          "type": "address"
        },
        {
          "internalType": "uint256",
          "name": "tokenId",
          "type": "uint256"
        },
        {
          "internalType": "bytes",
          "name": "data",
          "type": "bytes"
        }
      ],
      "name": "safeTransferFrom",
      "outputs": [],
      "stateMutability": "nonpayable",
      "type": "function"
    },
    {
      "inputs": [
        {
          "internalType": "address",
          "name": "operator",
          "type": "address"
        },
        {
          "internalType": "bool",
          "name": "approved",
          "type": "bool"
        }
      ],
      "name": "setApprovalForAll",
      "outputs": [],
      "stateMutability": "nonpayable",
      "type": "function"
    },
    {
      "inputs": [
        {
          "internalType": "bytes4",
          "name": "interfaceId",
          "type": "bytes4"
        }
      ],
      "name": "supportsInterface",
      "outputs": [
        {
          "internalType": "bool",
          "name": "",
          "type": "bool"
        }
      ],
      "stateMutability": "view",
      "type": "function"
    },
    {
      "inputs": [],
      "name": "symbol",
      "outputs": [
        {
          "internalType": "string",
          "name": "",
          "type": "string"
        }
      ],
      "stateMutability": "view",
      "type": "function"
    },
    {
      "inputs": [
        {
          "internalType": "uint256",
          "name": "tokenId",
          "type": "uint256"
        }
      ],
      "name": "tokenURI",
      "outputs": [
        {
          "internalType": "string",
          "name": "",
          "type": "string"
        }
      ],
      "stateMutability": "view",
      "type": "function"
    },
    {
      "inputs": [
        {
          "internalType": "address",
          "name": "from",
          "type": "address"
        },
        {
          "internalType": "address",
          "name": "to",
          "type": "address"
        },
        {
          "internalType": "uint256",
          "name": "tokenId",
          "type": "uint256"
        }
      ],
      "name": "transferFrom",
      "outputs": [],
      "stateMutability": "nonpayable",
      "type": "function"
    },
    {
      "inputs": [
        {
          "internalType": "address",
          "name": "newOwner",
          "type": "address"
        }
      ],
      "name": "transferOwnership",
      "outputs": [],
      "stateMutability": "nonpayable",
      "type": "function"
    }
  ],
  "bytecode": "0x608060405234801561001057600080fd5b50336040518060400160405280600781526020017f4175746f446578000000000000000000000000000000000000000000000000008152506040518060400160405280600381526020017f4144580000000000000000000000000000000000000000000000000000000000815250816000908161008d919061047c565b50806001908161009d919061047c565b505050600073ffffffffffffffffffffffffffffffffffffffff168173ffffffffffffffffffffffffffffffffffffffff16036101125760006040517f1e4fbdf7000000000000000000000000000000000000000000000000000000008152600401610109919061058f565b60405180910390fd5b6101218161016360201b60201c565b5061013c679481b9023398af3560c01b61022960201b60201c565b61015667fb8300588489c07e60c01b61022960201b60201c565b60016008819055506105aa565b6000600760009054906101000a900473ffffffffffffffffffffffffffffffffffffffff16905081600760006101000a81548173ffffffffffffffffffffffffffffffffffffffff021916908373ffffffffffffffffffffffffffffffffffffffff1602179055508173ffffffffffffffffffffffffffffffffffffffff168173ffffffffffffffffffffffffffffffffffffffff167f8be0079c531659141344cd1fd0a4f28419497f9722a3daafe3b4186f6b6457e060405160405180910390a35050565b50565b600081519050919050565b7f4e487b7100000000000000000000000000000000000000000000000000000000600052604160045260246000fd5b7f4e487b7100000000000000000000000000000000000000000000000000000000600052602260045260246000fd5b600060028204905060018216806102ad57607f821691505b6020821081036102c0576102bf610266565b5b50919050565b60008190508160005260206000209050919050565b60006020601f8301049050919050565b600082821b905092915050565b6000600883026103287fffffffffffffffffffffffffffffffffffffffffffffffffffffffffffffffff826102eb565b61033286836102eb565b95508019841693508086168417925050509392505050565b6000819050919050565b6000819050919050565b600061037961037461036f8461034a565b610354565b61034a565b9050919050565b6000819050919050565b6103938361035e565b6103a761039f82610380565b8484546102f8565b825550505050565b600090565b6103bc6103af565b6103c781848461038a565b505050565b5b818110156103eb576103e06000826103b4565b6001810190506103cd565b5050565b601f82111561043057610401816102c6565b61040a846102db565b81016020851015610419578190505b61042d610425856102db565b8301826103cc565b50505b505050565b600082821c905092915050565b600061045360001984600802610435565b1980831691505092915050565b600061046c8383610442565b9150826002028217905092915050565b6104858261022c565b67ffffffffffffffff81111561049e5761049d610237565b5b6104a88254610295565b6104b38282856103ef565b600060209050601f8311600181146104e657600084156104d4578287015190505b6104de8582610460565b865550610546565b601f1984166104f4866102c6565b60005b8281101561051c578489015182556001820191506020850194506020810190506104f7565b868310156105395784890151610535601f891682610442565b8355505b6001600288020188555050505b505050505050565b600073ffffffffffffffffffffffffffffffffffffffff82169050919050565b60006105798261054e565b9050919050565b6105898161056e565b82525050565b60006020820190506105a46000830184610580565b92915050565b615379806105b96000396000f3fe6080604052600436106101cd5760003560e01c8063715018a6116100f7578063bc93127a11610095578063e985e9c511610064578063e985e9c5146106c1578063f1dbaccb146106fe578063f2fde38b1461073b578063f688838414610764576101cd565b8063bc93127a146105f5578063c87b56dd1461061e578063d2ec271e1461065b578063e757223014610684576101cd565b8063a22cb465116100d1578063a22cb4651461053b578063abfe5d5714610564578063ae1e3ff41461058f578063b88d4fde146105cc576101cd565b8063715018a6146104ce5780638da5cb5b146104e557806395d89b4114610510576101cd565b80631e7046b51161016f578063472ec4541161013e578063472ec454146103fb5780636352211e146104385780636c2310601461047557806370a0823114610491576101cd565b80631e7046b51461034357806323b872dd1461038057806342842e0e146103a9578063444d0df1146103d2576101cd565b8063081812fc116101ab578063081812fc14610263578063095ea7b3146102a05780631cad40ce146102c95780631dee28f714610306576101cd565b806301ffc9a7146101d257806306fdde031461020f578063075d7a6f1461023a575b600080fd5b3480156101de57600080fd5b506101f960048036038101906101f49190613a95565b61078d565b6040516102069190613add565b60405180910390f35b34801561021b57600080fd5b506102246107ee565b6040516102319190613b88565b60405180910390f35b34801561024657600080fd5b50610261600480360381019061025c9190613c08565b610880565b005b34801561026f57600080fd5b5061028a60048036038101906102859190613c6b565b610a7b565b6040516102979190613ca7565b60405180910390f35b3480156102ac57600080fd5b506102c760048036038101906102c29190613cc2565b610a97565b005b3480156102d557600080fd5b506102f060048036038101906102eb9190613e37565b610aad565b6040516102fd9190613e8f565b60405180910390f35b34801561031257600080fd5b5061032d60048036038101906103289190613c08565b610c06565b60405161033a9190613add565b60405180910390f35b34801561034f57600080fd5b5061036a60048036038101906103659190613c6b565b610c26565b604051610377919061402f565b60405180910390f35b34801561038c57600080fd5b506103a760048036038101906103a29190614051565b610ed3565b005b3480156103b557600080fd5b506103d060048036038101906103cb9190614051565b611064565b005b3480156103de57600080fd5b506103f960048036038101906103f49190613c08565b611084565b005b34801561040757600080fd5b50610422600480360381019061041d9190613c6b565b61127e565b60405161042f91906140f4565b60405180910390f35b34801561044457600080fd5b5061045f600480360381019061045a9190613c6b565b6113bf565b60405161046c9190613ca7565b60405180910390f35b61048f600480360381019061048a9190613c6b565b6113d1565b005b34801561049d57600080fd5b506104b860048036038101906104b39190613c08565b611763565b6040516104c59190613e8f565b60405180910390f35b3480156104da57600080fd5b506104e361181d565b005b3480156104f157600080fd5b506104fa611831565b6040516105079190613ca7565b60405180910390f35b34801561051c57600080fd5b5061052561185b565b6040516105329190613b88565b60405180910390f35b34801561054757600080fd5b50610562600480360381019061055d9190614142565b6118ed565b005b34801561057057600080fd5b50610579611903565b6040516105869190614294565b60405180910390f35b34801561059b57600080fd5b506105b660048036038101906105b19190613c08565b611b03565b6040516105c39190613add565b60405180910390f35b3480156105d857600080fd5b506105f360048036038101906105ee9190614357565b611b95565b005b34801561060157600080fd5b5061061c600480360381019061061791906143da565b611bba565b005b34801561062a57600080fd5b5061064560048036038101906106409190613c6b565b612058565b6040516106529190613b88565b60405180910390f35b34801561066757600080fd5b50610682600480360381019061067d9190614479565b61216b565b005b34801561069057600080fd5b506106ab60048036038101906106a69190613c6b565b61244f565b6040516106b89190613e8f565b60405180910390f35b3480156106cd57600080fd5b506106e860048036038101906106e39190614518565b6124ab565b6040516106f59190613add565b60405180910390f35b34801561070a57600080fd5b5061072560048036038101906107209190613c6b565b61253f565b6040516107329190614645565b60405180910390f35b34801561074757600080fd5b50610762600480360381019061075d9190613c08565b61264d565b005b34801561077057600080fd5b5061078b60048036038101906107869190614667565b6126d3565b005b6000634906490660e01b7bffffffffffffffffffffffffffffffffffffffffffffffffffffffff1916827bffffffffffffffffffffffffffffffffffffffffffffffffffffffff191614806107e757506107e6826128d4565b5b9050919050565b6060600080546107fd906146d6565b80601f0160208091040260200160405190810160405280929190818152602001828054610829906146d6565b80156108765780601f1061084b57610100808354040283529160200191610876565b820191906000526020600020905b81548152906001019060200180831161085957829003601f168201915b5050505050905090565b6108946744259ba4ff7e129360c01b6129b6565b61089c6129b9565b6108b0679fbeffbc1ac1eaef60c01b6129b6565b6108c4674213ad6dfaba57c160c01b6129b6565b6108d867f2c0328ffa36981a60c01b6129b6565b6108ec671307fabd39953d7860c01b6129b6565b61090067ee40df46ca99fad160c01b6129b6565b600c60008273ffffffffffffffffffffffffffffffffffffffff1673ffffffffffffffffffffffffffffffffffffffff16815260200190815260200160002060009054906101000a900460ff161561098d576040517f08c379a000000000000000000000000000000000000000000000000000000000815260040161098490614753565b60405180910390fd5b6109a167ecab9b96253e468b60c01b6129b6565b6109b5679a6c4b4ee38fca6260c01b6129b6565b6001600c60008373ffffffffffffffffffffffffffffffffffffffff1673ffffffffffffffffffffffffffffffffffffffff16815260200190815260200160002060006101000a81548160ff021916908315150217905550610a216717434157ae1c458460c01b6129b6565b610a3567e601ff8070a6f47f60c01b6129b6565b8073ffffffffffffffffffffffffffffffffffffffff167fcd01559a6bb952358fd75732d1b0722f0b5a507abe65c390bc972be0150211c860405160405180910390a250565b6000610a8682612a40565b50610a9082612ac8565b9050919050565b610aa98282610aa4612b05565b612b0d565b5050565b6000610ac3679520c3e88729011c60c01b6129b6565b610ad7677bd263da169797d560c01b6129b6565b610aeb6798ae3a03620151c960c01b6129b6565b6000600a83604051610afd91906147af565b9081526020016040518091039020549050610b22673696cfa5330b62f260c01b6129b6565b610b36672c90402100416fa360c01b6129b6565b610b4a67e3819ecd2aa617a160c01b6129b6565b600073ffffffffffffffffffffffffffffffffffffffff16610b6b82612b1f565b73ffffffffffffffffffffffffffffffffffffffff1603610bc1576040517f08c379a0000000000000000000000000000000000000000000000000000000008152600401610bb890614812565b60405180910390fd5b610bd5677f4786210c6a36a360c01b6129b6565b610be96775310ed3492adf5f60c01b6129b6565b610bfd6736200f01e36655f360c01b6129b6565b80915050919050565b600c6020528060005260406000206000915054906101000a900460ff1681565b6060610c3c67d6ec0c032bc4824960c01b6129b6565b610c506791b34ea27ca417e060c01b6129b6565b610c64673abffc9b6291675760c01b6129b6565b610c786774198c10da68dfe860c01b6129b6565b600073ffffffffffffffffffffffffffffffffffffffff16610c9983612b1f565b73ffffffffffffffffffffffffffffffffffffffff1603610cef576040517f08c379a0000000000000000000000000000000000000000000000000000000008152600401610ce69061487e565b60405180910390fd5b610d0367baddeef3b14ae4fc60c01b6129b6565b610d1767b1d21f86e240213060c01b6129b6565b610d2b67f89d4c2450637e0f60c01b6129b6565b600b6000838152602001908152602001600020805480602002602001604051908101604052809291908181526020016000905b82821015610ec8578382906000526020600020906004020160405180608001604052908160008201548152602001600182018054610d9b906146d6565b80601f0160208091040260200160405190810160405280929190818152602001828054610dc7906146d6565b8015610e145780601f10610de957610100808354040283529160200191610e14565b820191906000526020600020905b815481529060010190602001808311610df757829003601f168201915b50505050508152602001600282018054610e2d906146d6565b80601f0160208091040260200160405190810160405280929190818152602001828054610e59906146d6565b8015610ea65780601f10610e7b57610100808354040283529160200191610ea6565b820191906000526020600020905b815481529060010190602001808311610e8957829003601f168201915b5050505050815260200160038201548152505081526020019060010190610d5e565b505050509050919050565b610ee76750c0ecf8d08cb3bc60c01b6129b6565b610efb673f56094de0f716c260c01b6129b6565b610f0f678258a57047fc724360c01b6129b6565b610f1a838383612b5c565b610f2e676513c4f4b57e71b760c01b6129b6565b610f4267730b4dad4df9e0a660c01b6129b6565b600d600082815260200190815260200160002060405180604001604052808473ffffffffffffffffffffffffffffffffffffffff16815260200142815250908060018154018082558091505060019003906000526020600020906002020160009091909190915060008201518160000160006101000a81548173ffffffffffffffffffffffffffffffffffffffff021916908373ffffffffffffffffffffffffffffffffffffffff1602179055506020820151816001015550506110106797067f4bd3f360c760c01b6129b6565b61102467041a2d4210aca42460c01b6129b6565b7f16b85f49bf01212961345d3016c9a531894accf62eb7680f2045d79185cc0ec08184846040516110579392919061489e565b60405180910390a1505050565b61107f83838360405180602001604052806000815250611b95565b505050565b61109867454413c20dfe24f560c01b6129b6565b6110a06129b9565b6110b46723794fdf0e24fe5a60c01b6129b6565b6110c86727d6a3d5e399135560c01b6129b6565b6110dc67db712a3009eaa0ed60c01b6129b6565b6110f0679aaf6e5e68d4b5b760c01b6129b6565b6111046717d5237b0490c69160c01b6129b6565b600c60008273ffffffffffffffffffffffffffffffffffffffff1673ffffffffffffffffffffffffffffffffffffffff16815260200190815260200160002060009054906101000a900460ff16611190576040517f08c379a000000000000000000000000000000000000000000000000000000000815260040161118790614921565b60405180910390fd5b6111a4673ba5e2b1e84955cd60c01b6129b6565b6111b867def35d8b5986e84760c01b6129b6565b6000600c60008373ffffffffffffffffffffffffffffffffffffffff1673ffffffffffffffffffffffffffffffffffffffff16815260200190815260200160002060006101000a81548160ff0219169083151502179055506112246730c29b7fe051ee0860c01b6129b6565b611238670a7adff197616e1260c01b6129b6565b8073ffffffffffffffffffffffffffffffffffffffff167f8c8907774e957df66385c0630b7abbfc436cd160107e11d6944214489d5f865d60405160405180910390a250565b611286613a08565b61129a67bc84f6a74a86c62260c01b6129b6565b6112ae6730d9c75a1b0a369e60c01b6129b6565b6112c267c58855a9df9b198360c01b6129b6565b6112cb82612a40565b506112e0674e17b43b2b210eec60c01b6129b6565b6112f4671372069dd690f52160c01b6129b6565b600960008381526020019081526020016000206040518060600160405290816000820154815260200160018201805461132c906146d6565b80601f0160208091040260200160405190810160405280929190818152602001828054611358906146d6565b80156113a55780601f1061137a576101008083540402835291602001916113a5565b820191906000526020600020905b81548152906001019060200180831161138857829003601f168201915b505050505081526020016002820154815250509050919050565b60006113ca82612a40565b9050919050565b6113e567e8d7d9a106f5596e60c01b6129b6565b6113f967f1f35df6001dd31560c01b6129b6565b61140d67c9fd5b157dbcfd4460c01b6129b6565b6000611418826113bf565b905061142e670b4be2f3a528ad2460c01b6129b6565b61144267a326fbe6c20fdd1960c01b6129b6565b6114566799eecf2a96ac51a860c01b6129b6565b60006009600084815260200190815260200160002060020154116114af576040517f08c379a00000000000000000000000000000000000000000000000000000000081526004016114a69061498d565b60405180910390fd5b6114c367bcc3dc0b7fd6e7e560c01b6129b6565b6114d767359a6cc2850b623660c01b6129b6565b6114eb67167be592aba65db460c01b6129b6565b6114ff67c3bc645a438fd08260c01b6129b6565b6009600083815260200190815260200160002060020154341015611558576040517f08c379a000000000000000000000000000000000000000000000000000000000815260040161154f906149f9565b60405180910390fd5b61156c67be570d1623febb5460c01b6129b6565b61158067d6720d4aebc16d1860c01b6129b6565b61159467da43c8a0f387979c60c01b6129b6565b6115a867e9cc04ce0afee83c60c01b6129b6565b3373ffffffffffffffffffffffffffffffffffffffff168173ffffffffffffffffffffffffffffffffffffffff1603611616576040517f08c379a000000000000000000000000000000000000000000000000000000000815260040161160d90614a65565b60405180910390fd5b61162a67595ae076aa2a300e60c01b6129b6565b61163e670b37e0c41ebf7b9460c01b6129b6565b611652670df2979c4f256e7760c01b6129b6565b61165d813384610ed3565b611671676cfbb6febd69a50d60c01b6129b6565b6116856706ef821c3a6551ed60c01b6129b6565b8073ffffffffffffffffffffffffffffffffffffffff166108fc349081150290604051600060405180830381858888f193505050501580156116cb573d6000803e3d6000fd5b506116e067c8abb6dd329e941360c01b6129b6565b600060096000848152602001908152602001600020600201819055506117106707e7529c147e720660c01b6129b6565b61172467b1b06bb256237d2060c01b6129b6565b7f9d90e6b7483b210fb2eb1814d730195955d020389f316a5127d8f07d6fe61c8b82333460405161175793929190614a85565b60405180910390a15050565b60008073ffffffffffffffffffffffffffffffffffffffff168273ffffffffffffffffffffffffffffffffffffffff16036117d65760006040517f89c62b640000000000000000000000000000000000000000000000000000000081526004016117cd9190613ca7565b60405180910390fd5b600360008373ffffffffffffffffffffffffffffffffffffffff1673ffffffffffffffffffffffffffffffffffffffff168152602001908152602001600020549050919050565b6118256129b9565b61182f6000612c5e565b565b6000600760009054906101000a900473ffffffffffffffffffffffffffffffffffffffff16905090565b60606001805461186a906146d6565b80601f0160208091040260200160405190810160405280929190818152602001828054611896906146d6565b80156118e35780601f106118b8576101008083540402835291602001916118e3565b820191906000526020600020905b8154815290600101906020018083116118c657829003601f168201915b5050505050905090565b6118ff6118f8612b05565b8383612d24565b5050565b606061191967b4e2c279449bad7860c01b6129b6565b61192d674a59c2da062ebe4260c01b6129b6565b61194167892c24adc09dd0d160c01b6129b6565b600060085467ffffffffffffffff81111561195f5761195e613d0c565b5b60405190808252806020026020018201604052801561199857816020015b611985613a08565b81526020019060019003908161197d5790505b5090506119af674c8cabb56073d9f860c01b6129b6565b6119c367b0177318e2143c2a60c01b6129b6565b60005b600854811015611ad3576119e467904d8cffba9c5b7060c01b6129b6565b6009600082815260200190815260200160002060405180606001604052908160008201548152602001600182018054611a1c906146d6565b80601f0160208091040260200160405190810160405280929190818152602001828054611a48906146d6565b8015611a955780601f10611a6a57610100808354040283529160200191611a95565b820191906000526020600020905b815481529060010190602001808311611a7857829003601f168201915b50505050508152602001600282015481525050828281518110611abb57611aba614abc565b5b602002602001018190525080806001019150506119c6565b50611ae867e833254e7c3df19f60c01b6129b6565b611afc6753c34d39804fe26c60c01b6129b6565b8091505090565b6000611b196743e93400578afd6c60c01b6129b6565b611b2d67032f4b797714149860c01b6129b6565b611b41679d7778e94390b2c560c01b6129b6565b600c60008373ffffffffffffffffffffffffffffffffffffffff1673ffffffffffffffffffffffffffffffffffffffff16815260200190815260200160002060009054906101000a900460ff169050919050565b611ba0848484610ed3565b611bb4611bab612b05565b85858585612e93565b50505050565b611bce674f8e6963378d415360c01b6129b6565b611be2677aee88540cabf2ec60c01b6129b6565b611bf66722de730a93105bfe60c01b6129b6565b611c0a67e7c7d9f3755bfc8360c01b6129b6565b6000835111611c4e576040517f08c379a0000000000000000000000000000000000000000000000000000000008152600401611c4590614b37565b60405180910390fd5b611c6267dd39e0b9ce8f72b460c01b6129b6565b611c7667428c8e8a697ffa7560c01b6129b6565b611c8a675c42600ee2e1194960c01b6129b6565b611c9e67f48b4dd1fa2ea82c60c01b6129b6565b6011835114611ce2576040517f08c379a0000000000000000000000000000000000000000000000000000000008152600401611cd990614bc9565b60405180910390fd5b611cf66741005f36dfddf49860c01b6129b6565b611d0a674aabed08f7dea2b660c01b6129b6565b611d1e67ae0e93afa765aa0960c01b6129b6565b611d3267a18e70fda77d04fb60c01b6129b6565b6000600a84604051611d4491906147af565b90815260200160405180910390205414611d93576040517f08c379a0000000000000000000000000000000000000000000000000000000008152600401611d8a90614c35565b60405180910390fd5b611da76750b6ed90b0a3466e60c01b6129b6565b611dbb6718818b3dc4f4572860c01b6129b6565b611dcf67b4686e0911fe401160c01b6129b6565b60006008549050611dea67d2f5b250f7075ddf60c01b6129b6565b611dfe67e560b5308300827760c01b6129b6565b611e088582613044565b611e1c6738648a6e139c02c660c01b6129b6565b611e30678e99e1865953866660c01b6129b6565b611e3a818361313d565b611e4e6748a066768af33d8e60c01b6129b6565b60405180606001604052808281526020018381526020018481525060096000838152602001908152602001600020600082015181600001556020820151816001019081611e9b9190614e01565b5060408201518160020155905050611ebd675969c994fa0cdf9760c01b6129b6565b80600a85604051611ece91906147af565b908152602001604051809103902081905550611ef467536437dbdfc9fef660c01b6129b6565b611f0867d0a187317c910cfa60c01b6129b6565b600d600082815260200190815260200160002060405180604001604052808773ffffffffffffffffffffffffffffffffffffffff16815260200142815250908060018154018082558091505060019003906000526020600020906002020160009091909190915060008201518160000160006101000a81548173ffffffffffffffffffffffffffffffffffffffff021916908373ffffffffffffffffffffffffffffffffffffffff160217905550602082015181600101555050611fd66759c771f1d92e9a3760c01b6129b6565b60086000815480929190611fe990614f02565b91905055506120026715be3d05102d2b1e60c01b6129b6565b612016673203af543be54dcf60c01b6129b6565b7fbd3303cf3cb581bf78ef3ac343c3e3d038afb8bc52183ae64109ebd7ee3a873d81868660405161204993929190614f4a565b60405180910390a15050505050565b606061206382612a40565b506000600660008481526020019081526020016000208054612084906146d6565b80601f01602080910402602001604051908101604052809291908181526020018280546120b0906146d6565b80156120fd5780601f106120d2576101008083540402835291602001916120fd565b820191906000526020600020905b8154815290600101906020018083116120e057829003601f168201915b50505050509050600061210e613199565b90506000815103612123578192505050612166565b600082511115612158578082604051602001612140929190614f88565b60405160208183030381529060405292505050612166565b612161846131b0565b925050505b919050565b61217f67616d0d35759b9c7a60c01b6129b6565b612193676ec2fee39d69057460c01b6129b6565b6121a76775c80cd671b071f060c01b6129b6565b6121bb67887001988ac6ad5860c01b6129b6565b600073ffffffffffffffffffffffffffffffffffffffff166121dc856113bf565b73ffffffffffffffffffffffffffffffffffffffff1603612232576040517f08c379a000000000000000000000000000000000000000000000000000000000815260040161222990614ff8565b60405180910390fd5b61224667d228b4e45a47a5c660c01b6129b6565b61225a67caad1104174330de60c01b6129b6565b61226e6740a2ccecbf2ddbbf60c01b6129b6565b61228267152c3a1decea8bc160c01b6129b6565b600c60003373ffffffffffffffffffffffffffffffffffffffff1673ffffffffffffffffffffffffffffffffffffffff16815260200190815260200160002060009054906101000a900460ff1661230e576040517f08c379a00000000000000000000000000000000000000000000000000000000081526004016123059061508a565b60405180910390fd5b612322673d4ae6869b227cec60c01b6129b6565b61233667191519059dfbd4ee60c01b6129b6565b61234a67a44527547894782e60c01b6129b6565b600b600085815260200190815260200160002060405180608001604052804281526020018581526020018481526020018381525090806001815401808255809150506001900390600052602060002090600402016000909190919091506000820151816000015560208201518160010190816123c69190614e01565b5060408201518160020190816123dc9190614e01565b506060820151816003015550506123fd6795c6e8cf2ee3fe8f60c01b6129b6565b6124116739b7879b2a5d378660c01b6129b6565b837fe04dd2501fa1ca1a2bf1b8b0f34ecc0fbe8ad77f3680583182c26f44a0f5f244846040516124419190613b88565b60405180910390a250505050565b600061246567bc0b21dd920d5a3460c01b6129b6565b61247967d31bf75d9ebb80c560c01b6129b6565b61248d67f9ee8a2f0ef9455760c01b6129b6565b60096000838152602001908152602001600020600201549050919050565b6000600560008473ffffffffffffffffffffffffffffffffffffffff1673ffffffffffffffffffffffffffffffffffffffff16815260200190815260200160002060008373ffffffffffffffffffffffffffffffffffffffff1673ffffffffffffffffffffffffffffffffffffffff16815260200190815260200160002060009054906101000a900460ff16905092915050565b606061255567520f5ec105c646bf60c01b6129b6565b612569676ab00cc59d0207d260c01b6129b6565b61257d6754e9bffd929c381060c01b6129b6565b600d6000838152602001908152602001600020805480602002602001604051908101604052809291908181526020016000905b8282101561264257838290600052602060002090600202016040518060400160405290816000820160009054906101000a900473ffffffffffffffffffffffffffffffffffffffff1673ffffffffffffffffffffffffffffffffffffffff1673ffffffffffffffffffffffffffffffffffffffff168152602001600182015481525050815260200190600101906125b0565b505050509050919050565b6126556129b9565b600073ffffffffffffffffffffffffffffffffffffffff168173ffffffffffffffffffffffffffffffffffffffff16036126c75760006040517f1e4fbdf70000000000000000000000000000000000000000000000000000000081526004016126be9190613ca7565b60405180910390fd5b6126d081612c5e565b50565b6126e767d8d36f89a8eb1b9d60c01b6129b6565b6126fb678e604513dbdd9b6a60c01b6129b6565b61270f6704d26354b70d35c760c01b6129b6565b612723673cb97bfba240ba8660c01b6129b6565b3373ffffffffffffffffffffffffffffffffffffffff16612743836113bf565b73ffffffffffffffffffffffffffffffffffffffff1614612799576040517f08c379a00000000000000000000000000000000000000000000000000000000081526004016127909061511c565b60405180910390fd5b6127ad67d52e280b414c42e760c01b6129b6565b6127c167e079402df8d798c860c01b6129b6565b6127d567fb704bda73e0759760c01b6129b6565b6127e967b663bc687bc2483260c01b6129b6565b6000811161282c576040517f08c379a000000000000000000000000000000000000000000000000000000000815260040161282390615188565b60405180910390fd5b61284067c0cdd48491fe323b60c01b6129b6565b612854673e4c42e0d46b5feb60c01b6129b6565b8060096000848152602001908152602001600020600201819055506128836712e215f2308b4aac60c01b6129b6565b61289767aa623287ce161d7e60c01b6129b6565b7fd7eb5635a91daa6c8336a751c696002c8243f97bad99a81269931e463952470982826040516128c89291906151a8565b60405180910390a15050565b60007f80ac58cd000000000000000000000000000000000000000000000000000000007bffffffffffffffffffffffffffffffffffffffffffffffffffffffff1916827bffffffffffffffffffffffffffffffffffffffffffffffffffffffff1916148061299f57507f5b5e139f000000000000000000000000000000000000000000000000000000007bffffffffffffffffffffffffffffffffffffffffffffffffffffffff1916827bffffffffffffffffffffffffffffffffffffffffffffffffffffffff1916145b806129af57506129ae82613219565b5b9050919050565b50565b6129c1612b05565b73ffffffffffffffffffffffffffffffffffffffff166129df611831565b73ffffffffffffffffffffffffffffffffffffffff1614612a3e57612a02612b05565b6040517f118cdaa7000000000000000000000000000000000000000000000000000000008152600401612a359190613ca7565b60405180910390fd5b565b600080612a4c83612b1f565b9050600073ffffffffffffffffffffffffffffffffffffffff168173ffffffffffffffffffffffffffffffffffffffff1603612abf57826040517f7e273289000000000000000000000000000000000000000000000000000000008152600401612ab69190613e8f565b60405180910390fd5b80915050919050565b60006004600083815260200190815260200160002060009054906101000a900473ffffffffffffffffffffffffffffffffffffffff169050919050565b600033905090565b612b1a8383836001613283565b505050565b60006002600083815260200190815260200160002060009054906101000a900473ffffffffffffffffffffffffffffffffffffffff169050919050565b600073ffffffffffffffffffffffffffffffffffffffff168273ffffffffffffffffffffffffffffffffffffffff1603612bce5760006040517f64a0ae92000000000000000000000000000000000000000000000000000000008152600401612bc59190613ca7565b60405180910390fd5b6000612be28383612bdd612b05565b613448565b90508373ffffffffffffffffffffffffffffffffffffffff168173ffffffffffffffffffffffffffffffffffffffff1614612c58578382826040517f64283d7b000000000000000000000000000000000000000000000000000000008152600401612c4f939291906151d1565b60405180910390fd5b50505050565b6000600760009054906101000a900473ffffffffffffffffffffffffffffffffffffffff16905081600760006101000a81548173ffffffffffffffffffffffffffffffffffffffff021916908373ffffffffffffffffffffffffffffffffffffffff1602179055508173ffffffffffffffffffffffffffffffffffffffff168173ffffffffffffffffffffffffffffffffffffffff167f8be0079c531659141344cd1fd0a4f28419497f9722a3daafe3b4186f6b6457e060405160405180910390a35050565b600073ffffffffffffffffffffffffffffffffffffffff168273ffffffffffffffffffffffffffffffffffffffff1603612d9557816040517f5b08ba18000000000000000000000000000000000000000000000000000000008152600401612d8c9190613ca7565b60405180910390fd5b80600560008573ffffffffffffffffffffffffffffffffffffffff1673ffffffffffffffffffffffffffffffffffffffff16815260200190815260200160002060008473ffffffffffffffffffffffffffffffffffffffff1673ffffffffffffffffffffffffffffffffffffffff16815260200190815260200160002060006101000a81548160ff0219169083151502179055508173ffffffffffffffffffffffffffffffffffffffff168373ffffffffffffffffffffffffffffffffffffffff167f17307eab39ab6107e8899845ad3d59bd9653f200f220920489ca2b5937696c3183604051612e869190613add565b60405180910390a3505050565b60008373ffffffffffffffffffffffffffffffffffffffff163b111561303d578273ffffffffffffffffffffffffffffffffffffffff1663150b7a02868685856040518563ffffffff1660e01b8152600401612ef2949392919061525d565b6020604051808303816000875af1925050508015612f2e57506040513d601f19601f82011682018060405250810190612f2b91906152be565b60015b612fb2573d8060008114612f5e576040519150601f19603f3d011682016040523d82523d6000602084013e612f63565b606091505b506000815103612faa57836040517f64a0ae92000000000000000000000000000000000000000000000000000000008152600401612fa19190613ca7565b60405180910390fd5b805181602001fd5b63150b7a0260e01b7bffffffffffffffffffffffffffffffffffffffffffffffffffffffff1916817bffffffffffffffffffffffffffffffffffffffffffffffffffffffff19161461303b57836040517f64a0ae920000000000000000000000000000000000000000000000000000000081526004016130329190613ca7565b60405180910390fd5b505b5050505050565b600073ffffffffffffffffffffffffffffffffffffffff168273ffffffffffffffffffffffffffffffffffffffff16036130b65760006040517f64a0ae920000000000000000000000000000000000000000000000000000000081526004016130ad9190613ca7565b60405180910390fd5b60006130c483836000613448565b9050600073ffffffffffffffffffffffffffffffffffffffff168173ffffffffffffffffffffffffffffffffffffffff16146131385760006040517f73c6ac6e00000000000000000000000000000000000000000000000000000000815260040161312f9190613ca7565b60405180910390fd5b505050565b8060066000848152602001908152602001600020908161315d9190614e01565b507ff8e1a15aba9398e019f0b49df1a4fde98ee17ae345cb5f6b5e2c27f5033e8ce78260405161318d9190613e8f565b60405180910390a15050565b606060405180602001604052806000815250905090565b60606131bb82612a40565b5060006131c6613199565b905060008151116131e65760405180602001604052806000815250613211565b806131f084613662565b604051602001613201929190614f88565b6040516020818303038152906040525b915050919050565b60007f01ffc9a7000000000000000000000000000000000000000000000000000000007bffffffffffffffffffffffffffffffffffffffffffffffffffffffff1916827bffffffffffffffffffffffffffffffffffffffffffffffffffffffff1916149050919050565b80806132bc5750600073ffffffffffffffffffffffffffffffffffffffff168273ffffffffffffffffffffffffffffffffffffffff1614155b156133f05760006132cc84612a40565b9050600073ffffffffffffffffffffffffffffffffffffffff168373ffffffffffffffffffffffffffffffffffffffff161415801561333757508273ffffffffffffffffffffffffffffffffffffffff168173ffffffffffffffffffffffffffffffffffffffff1614155b801561334a575061334881846124ab565b155b1561338c57826040517fa9fbf51f0000000000000000000000000000000000000000000000000000000081526004016133839190613ca7565b60405180910390fd5b81156133ee57838573ffffffffffffffffffffffffffffffffffffffff168273ffffffffffffffffffffffffffffffffffffffff167f8c5be1e5ebec7d5bd14f71427d1e84f3dd0314c0f7b2291e5b200ac8c7c3b92560405160405180910390a45b505b836004600085815260200190815260200160002060006101000a81548173ffffffffffffffffffffffffffffffffffffffff021916908373ffffffffffffffffffffffffffffffffffffffff16021790555050505050565b60008061345484612b1f565b9050600073ffffffffffffffffffffffffffffffffffffffff168373ffffffffffffffffffffffffffffffffffffffff161461349657613495818486613730565b5b600073ffffffffffffffffffffffffffffffffffffffff168173ffffffffffffffffffffffffffffffffffffffff1614613527576134d8600085600080613283565b6001600360008373ffffffffffffffffffffffffffffffffffffffff1673ffffffffffffffffffffffffffffffffffffffff168152602001908152602001600020600082825403925050819055505b600073ffffffffffffffffffffffffffffffffffffffff168573ffffffffffffffffffffffffffffffffffffffff16146135aa576001600360008773ffffffffffffffffffffffffffffffffffffffff1673ffffffffffffffffffffffffffffffffffffffff168152602001908152602001600020600082825401925050819055505b846002600086815260200190815260200160002060006101000a81548173ffffffffffffffffffffffffffffffffffffffff021916908373ffffffffffffffffffffffffffffffffffffffff160217905550838573ffffffffffffffffffffffffffffffffffffffff168273ffffffffffffffffffffffffffffffffffffffff167fddf252ad1be2c89b69c2b068fc378daa952ba7f163c4a11628f55a4df523b3ef60405160405180910390a4809150509392505050565b606060006001613671846137f4565b01905060008167ffffffffffffffff8111156136905761368f613d0c565b5b6040519080825280601f01601f1916602001820160405280156136c25781602001600182028036833780820191505090505b509050600082602001820190505b600115613725578080600190039150507f3031323334353637383961626364656600000000000000000000000000000000600a86061a8153600a8581613719576137186152eb565b5b049450600085036136d0575b819350505050919050565b61373b838383613947565b6137ef57600073ffffffffffffffffffffffffffffffffffffffff168373ffffffffffffffffffffffffffffffffffffffff16036137b057806040517f7e2732890000000000000000000000000000000000000000000000000000000081526004016137a79190613e8f565b60405180910390fd5b81816040517f177e802f0000000000000000000000000000000000000000000000000000000081526004016137e692919061531a565b60405180910390fd5b505050565b600080600090507a184f03e93ff9f4daa797ed6e38ed64bf6a1f0100000000000000008310613852577a184f03e93ff9f4daa797ed6e38ed64bf6a1f0100000000000000008381613848576138476152eb565b5b0492506040810190505b6d04ee2d6d415b85acef8100000000831061388f576d04ee2d6d415b85acef81000000008381613885576138846152eb565b5b0492506020810190505b662386f26fc1000083106138be57662386f26fc1000083816138b4576138b36152eb565b5b0492506010810190505b6305f5e10083106138e7576305f5e10083816138dd576138dc6152eb565b5b0492506008810190505b612710831061390c576127108381613902576139016152eb565b5b0492506004810190505b6064831061392f5760648381613925576139246152eb565b5b0492506002810190505b600a831061393e576001810190505b80915050919050565b60008073ffffffffffffffffffffffffffffffffffffffff168373ffffffffffffffffffffffffffffffffffffffff16141580156139ff57508273ffffffffffffffffffffffffffffffffffffffff168473ffffffffffffffffffffffffffffffffffffffff1614806139c057506139bf84846124ab565b5b806139fe57508273ffffffffffffffffffffffffffffffffffffffff166139e683612ac8565b73ffffffffffffffffffffffffffffffffffffffff16145b5b90509392505050565b60405180606001604052806000815260200160608152602001600081525090565b6000604051905090565b600080fd5b600080fd5b60007fffffffff0000000000000000000000000000000000000000000000000000000082169050919050565b613a7281613a3d565b8114613a7d57600080fd5b50565b600081359050613a8f81613a69565b92915050565b600060208284031215613aab57613aaa613a33565b5b6000613ab984828501613a80565b91505092915050565b60008115159050919050565b613ad781613ac2565b82525050565b6000602082019050613af26000830184613ace565b92915050565b600081519050919050565b600082825260208201905092915050565b60005b83811015613b32578082015181840152602081019050613b17565b60008484015250505050565b6000601f19601f8301169050919050565b6000613b5a82613af8565b613b648185613b03565b9350613b74818560208601613b14565b613b7d81613b3e565b840191505092915050565b60006020820190508181036000830152613ba28184613b4f565b905092915050565b600073ffffffffffffffffffffffffffffffffffffffff82169050919050565b6000613bd582613baa565b9050919050565b613be581613bca565b8114613bf057600080fd5b50565b600081359050613c0281613bdc565b92915050565b600060208284031215613c1e57613c1d613a33565b5b6000613c2c84828501613bf3565b91505092915050565b6000819050919050565b613c4881613c35565b8114613c5357600080fd5b50565b600081359050613c6581613c3f565b92915050565b600060208284031215613c8157613c80613a33565b5b6000613c8f84828501613c56565b91505092915050565b613ca181613bca565b82525050565b6000602082019050613cbc6000830184613c98565b92915050565b60008060408385031215613cd957613cd8613a33565b5b6000613ce785828601613bf3565b9250506020613cf885828601613c56565b9150509250929050565b600080fd5b600080fd5b7f4e487b7100000000000000000000000000000000000000000000000000000000600052604160045260246000fd5b613d4482613b3e565b810181811067ffffffffffffffff82111715613d6357613d62613d0c565b5b80604052505050565b6000613d76613a29565b9050613d828282613d3b565b919050565b600067ffffffffffffffff821115613da257613da1613d0c565b5b613dab82613b3e565b9050602081019050919050565b82818337600083830152505050565b6000613dda613dd584613d87565b613d6c565b905082815260208101848484011115613df657613df5613d07565b5b613e01848285613db8565b509392505050565b600082601f830112613e1e57613e1d613d02565b5b8135613e2e848260208601613dc7565b91505092915050565b600060208284031215613e4d57613e4c613a33565b5b600082013567ffffffffffffffff811115613e6b57613e6a613a38565b5b613e7784828501613e09565b91505092915050565b613e8981613c35565b82525050565b6000602082019050613ea46000830184613e80565b92915050565b600081519050919050565b600082825260208201905092915050565b6000819050602082019050919050565b613edf81613c35565b82525050565b600082825260208201905092915050565b6000613f0182613af8565b613f0b8185613ee5565b9350613f1b818560208601613b14565b613f2481613b3e565b840191505092915050565b6000608083016000830151613f476000860182613ed6565b5060208301518482036020860152613f5f8282613ef6565b91505060408301518482036040860152613f798282613ef6565b9150506060830151613f8e6060860182613ed6565b508091505092915050565b6000613fa58383613f2f565b905092915050565b6000602082019050919050565b6000613fc582613eaa565b613fcf8185613eb5565b935083602082028501613fe185613ec6565b8060005b8581101561401d5784840389528151613ffe8582613f99565b945061400983613fad565b925060208a01995050600181019050613fe5565b50829750879550505050505092915050565b600060208201905081810360008301526140498184613fba565b905092915050565b60008060006060848603121561406a57614069613a33565b5b600061407886828701613bf3565b935050602061408986828701613bf3565b925050604061409a86828701613c56565b9150509250925092565b60006060830160008301516140bc6000860182613ed6565b50602083015184820360208601526140d48282613ef6565b91505060408301516140e96040860182613ed6565b508091505092915050565b6000602082019050818103600083015261410e81846140a4565b905092915050565b61411f81613ac2565b811461412a57600080fd5b50565b60008135905061413c81614116565b92915050565b6000806040838503121561415957614158613a33565b5b600061416785828601613bf3565b92505060206141788582860161412d565b9150509250929050565b600081519050919050565b600082825260208201905092915050565b6000819050602082019050919050565b60006060830160008301516141c66000860182613ed6565b50602083015184820360208601526141de8282613ef6565b91505060408301516141f36040860182613ed6565b508091505092915050565b600061420a83836141ae565b905092915050565b6000602082019050919050565b600061422a82614182565b614234818561418d565b9350836020820285016142468561419e565b8060005b85811015614282578484038952815161426385826141fe565b945061426e83614212565b925060208a0199505060018101905061424a565b50829750879550505050505092915050565b600060208201905081810360008301526142ae818461421f565b905092915050565b600067ffffffffffffffff8211156142d1576142d0613d0c565b5b6142da82613b3e565b9050602081019050919050565b60006142fa6142f5846142b6565b613d6c565b90508281526020810184848401111561431657614315613d07565b5b614321848285613db8565b509392505050565b600082601f83011261433e5761433d613d02565b5b813561434e8482602086016142e7565b91505092915050565b6000806000806080858703121561437157614370613a33565b5b600061437f87828801613bf3565b945050602061439087828801613bf3565b93505060406143a187828801613c56565b925050606085013567ffffffffffffffff8111156143c2576143c1613a38565b5b6143ce87828801614329565b91505092959194509250565b600080600080608085870312156143f4576143f3613a33565b5b600061440287828801613bf3565b945050602085013567ffffffffffffffff81111561442357614422613a38565b5b61442f87828801613e09565b935050604061444087828801613c56565b925050606085013567ffffffffffffffff81111561446157614460613a38565b5b61446d87828801613e09565b91505092959194509250565b6000806000806080858703121561449357614492613a33565b5b60006144a187828801613c56565b945050602085013567ffffffffffffffff8111156144c2576144c1613a38565b5b6144ce87828801613e09565b935050604085013567ffffffffffffffff8111156144ef576144ee613a38565b5b6144fb87828801613e09565b925050606061450c87828801613c56565b91505092959194509250565b6000806040838503121561452f5761452e613a33565b5b600061453d85828601613bf3565b925050602061454e85828601613bf3565b9150509250929050565b600081519050919050565b600082825260208201905092915050565b6000819050602082019050919050565b61458d81613bca565b82525050565b6040820160008201516145a96000850182614584565b5060208201516145bc6020850182613ed6565b50505050565b60006145ce8383614593565b60408301905092915050565b6000602082019050919050565b60006145f282614558565b6145fc8185614563565b935061460783614574565b8060005b8381101561463857815161461f88826145c2565b975061462a836145da565b92505060018101905061460b565b5085935050505092915050565b6000602082019050818103600083015261465f81846145e7565b905092915050565b6000806040838503121561467e5761467d613a33565b5b600061468c85828601613c56565b925050602061469d85828601613c56565b9150509250929050565b7f4e487b7100000000000000000000000000000000000000000000000000000000600052602260045260246000fd5b600060028204905060018216806146ee57607f821691505b602082108103614701576147006146a7565b5b50919050565b7f416c726561647920617574686f72697a65640000000000000000000000000000600082015250565b600061473d601283613b03565b915061474882614707565b602082019050919050565b6000602082019050818103600083015261476c81614730565b9050919050565b600081905092915050565b600061478982613af8565b6147938185614773565b93506147a3818560208601613b14565b80840191505092915050565b60006147bb828461477e565b915081905092915050565b7f56494e206e6f7420666f756e6400000000000000000000000000000000000000600082015250565b60006147fc600d83613b03565b9150614807826147c6565b602082019050919050565b6000602082019050818103600083015261482b816147ef565b9050919050565b7f43617220646f6573206e6f742065786973740000000000000000000000000000600082015250565b6000614868601283613b03565b915061487382614832565b602082019050919050565b600060208201905081810360008301526148978161485b565b9050919050565b60006060820190506148b36000830186613e80565b6148c06020830185613c98565b6148cd6040830184613c98565b949350505050565b7f4e6f7420617574686f72697a6564000000000000000000000000000000000000600082015250565b600061490b600e83613b03565b9150614916826148d5565b602082019050919050565b6000602082019050818103600083015261493a816148fe565b9050919050565b7f436172206973206e6f7420666f722073616c6500000000000000000000000000600082015250565b6000614977601383613b03565b915061498282614941565b602082019050919050565b600060208201905081810360008301526149a68161496a565b9050919050565b7f496e73756666696369656e74204554482073656e742e00000000000000000000600082015250565b60006149e3601683613b03565b91506149ee826149ad565b602082019050919050565b60006020820190508181036000830152614a12816149d6565b9050919050565b7f596f752063616e6e6f742062757920796f7572206f776e206361722e00000000600082015250565b6000614a4f601c83613b03565b9150614a5a82614a19565b602082019050919050565b60006020820190508181036000830152614a7e81614a42565b9050919050565b6000606082019050614a9a6000830186613e80565b614aa76020830185613c98565b614ab46040830184613e80565b949350505050565b7f4e487b7100000000000000000000000000000000000000000000000000000000600052603260045260246000fd5b7f56494e206d7573742062652070726f7669646564000000000000000000000000600082015250565b6000614b21601483613b03565b9150614b2c82614aeb565b602082019050919050565b60006020820190508181036000830152614b5081614b14565b9050919050565b7f496e636f7272656374206e756d626572206f662063686172616374657273207060008201527f726f766964656420666f722056494e0000000000000000000000000000000000602082015250565b6000614bb3602f83613b03565b9150614bbe82614b57565b604082019050919050565b60006020820190508181036000830152614be281614ba6565b9050919050565b7f56494e20616c7265616479207573656400000000000000000000000000000000600082015250565b6000614c1f601083613b03565b9150614c2a82614be9565b602082019050919050565b60006020820190508181036000830152614c4e81614c12565b9050919050565b60008190508160005260206000209050919050565b60006020601f8301049050919050565b600082821b905092915050565b600060088302614cb77fffffffffffffffffffffffffffffffffffffffffffffffffffffffffffffffff82614c7a565b614cc18683614c7a565b95508019841693508086168417925050509392505050565b6000819050919050565b6000614cfe614cf9614cf484613c35565b614cd9565b613c35565b9050919050565b6000819050919050565b614d1883614ce3565b614d2c614d2482614d05565b848454614c87565b825550505050565b600090565b614d41614d34565b614d4c818484614d0f565b505050565b5b81811015614d7057614d65600082614d39565b600181019050614d52565b5050565b601f821115614db557614d8681614c55565b614d8f84614c6a565b81016020851015614d9e578190505b614db2614daa85614c6a565b830182614d51565b50505b505050565b600082821c905092915050565b6000614dd860001984600802614dba565b1980831691505092915050565b6000614df18383614dc7565b9150826002028217905092915050565b614e0a82613af8565b67ffffffffffffffff811115614e2357614e22613d0c565b5b614e2d82546146d6565b614e38828285614d74565b600060209050601f831160018114614e6b5760008415614e59578287015190505b614e638582614de5565b865550614ecb565b601f198416614e7986614c55565b60005b82811015614ea157848901518255600182019150602085019450602081019050614e7c565b86831015614ebe5784890151614eba601f891682614dc7565b8355505b6001600288020188555050505b505050505050565b7f4e487b7100000000000000000000000000000000000000000000000000000000600052601160045260246000fd5b6000614f0d82613c35565b91507fffffffffffffffffffffffffffffffffffffffffffffffffffffffffffffffff8203614f3f57614f3e614ed3565b5b600182019050919050565b6000606082019050614f5f6000830186613e80565b614f6c6020830185613c98565b8181036040830152614f7e8184613b4f565b9050949350505050565b6000614f94828561477e565b9150614fa0828461477e565b91508190509392505050565b7f546f6b656e20646f6573206e6f74206578697374000000000000000000000000600082015250565b6000614fe2601483613b03565b9150614fed82614fac565b602082019050919050565b6000602082019050818103600083015261501181614fd5565b9050919050565b7f4e6f7420617574686f72697a656420746f20616464207365727669636520726560008201527f636f726400000000000000000000000000000000000000000000000000000000602082015250565b6000615074602483613b03565b915061507f82615018565b604082019050919050565b600060208201905081810360008301526150a381615067565b9050919050565b7f4f6e6c7920746865206f776e6572206f66207468652076656869636c6520636160008201527f6e206c69737420697420666f722073616c652e00000000000000000000000000602082015250565b6000615106603383613b03565b9150615111826150aa565b604082019050919050565b60006020820190508181036000830152615135816150f9565b9050919050565b7f5072696365206d7573742062652067726561746572207468616e207a65726f2e600082015250565b6000615172602083613b03565b915061517d8261513c565b602082019050919050565b600060208201905081810360008301526151a181615165565b9050919050565b60006040820190506151bd6000830185613e80565b6151ca6020830184613e80565b9392505050565b60006060820190506151e66000830186613c98565b6151f36020830185613e80565b6152006040830184613c98565b949350505050565b600081519050919050565b600082825260208201905092915050565b600061522f82615208565b6152398185615213565b9350615249818560208601613b14565b61525281613b3e565b840191505092915050565b60006080820190506152726000830187613c98565b61527f6020830186613c98565b61528c6040830185613e80565b818103606083015261529e8184615224565b905095945050505050565b6000815190506152b881613a69565b92915050565b6000602082840312156152d4576152d3613a33565b5b60006152e2848285016152a9565b91505092915050565b7f4e487b7100000000000000000000000000000000000000000000000000000000600052601260045260246000fd5b600060408201905061532f6000830185613c98565b61533c6020830184613e80565b939250505056fea2646970667358221220bb71b5337da816e88a3928a68b063b12d69cb3c3d45e20116f6c8d4f6f91bbdc64736f6c634300081c0033",
  "linkReferences": {},
  "deployedLinkReferences": {}
}