{
  "_format": "hh-sol-artifact-1",
  "contractName": "CarMarketplace",
  "sourceName": "contracts/CarMarketplace.sol",
  "abi": [
    {
      "inputs": [],
      "stateMutability": "nonpayable",
      "type": "constructor"
    },
    {
      "inputs": [
        {
          "internalType": "address",
          "name": "sender",
          "type": "address"
        },
        {
          "internalType": "uint256",
          "name": "tokenId",
          "type": "uint256"
        },
        {
          "internalType": "address",
          "name": "owner",
          "type": "address"
        }
      ],
      "name": "ERC721IncorrectOwner",
      "type": "error"
    },
    {
      "inputs": [
        {
          "internalType": "address",
          "name": "operator",
          "type": "address"
        },
        {
          "internalType": "uint256",
          "name": "tokenId",
          "type": "uint256"
        }
      ],
      "name": "ERC721InsufficientApproval",
      "type": "error"
    },
    {
      "inputs": [
        {
          "internalType": "address",
          "name": "approver",
          "type": "address"
        }
      ],
      "name": "ERC721InvalidApprover",
      "type": "error"
    },
    {
      "inputs": [
        {
          "internalType": "address",
          "name": "operator",
          "type": "address"
        }
      ],
      "name": "ERC721InvalidOperator",
      "type": "error"
    },
    {
      "inputs": [
        {
          "internalType": "address",
          "name": "owner",
          "type": "address"
        }
      ],
      "name": "ERC721InvalidOwner",
      "type": "error"
    },
    {
      "inputs": [
        {
          "internalType": "address",
          "name": "receiver",
          "type": "address"
        }
      ],
      "name": "ERC721InvalidReceiver",
      "type": "error"
    },
    {
      "inputs": [
        {
          "internalType": "address",
          "name": "sender",
          "type": "address"
        }
      ],
      "name": "ERC721InvalidSender",
      "type": "error"
    },
    {
      "inputs": [
        {
          "internalType": "uint256",
          "name": "tokenId",
          "type": "uint256"
        }
      ],
      "name": "ERC721NonexistentToken",
      "type": "error"
    },
    {
      "inputs": [
        {
          "internalType": "address",
          "name": "owner",
          "type": "address"
        }
      ],
      "name": "OwnableInvalidOwner",
      "type": "error"
    },
    {
      "inputs": [
        {
          "internalType": "address",
          "name": "account",
          "type": "address"
        }
      ],
      "name": "OwnableUnauthorizedAccount",
      "type": "error"
    },
    {
      "anonymous": false,
      "inputs": [
        {
          "indexed": true,
          "internalType": "address",
          "name": "owner",
          "type": "address"
        },
        {
          "indexed": true,
          "internalType": "address",
          "name": "approved",
          "type": "address"
        },
        {
          "indexed": true,
          "internalType": "uint256",
          "name": "tokenId",
          "type": "uint256"
        }
      ],
      "name": "Approval",
      "type": "event"
    },
    {
      "anonymous": false,
      "inputs": [
        {
          "indexed": true,
          "internalType": "address",
          "name": "owner",
          "type": "address"
        },
        {
          "indexed": true,
          "internalType": "address",
          "name": "operator",
          "type": "address"
        },
        {
          "indexed": false,
          "internalType": "bool",
          "name": "approved",
          "type": "bool"
        }
      ],
      "name": "ApprovalForAll",
      "type": "event"
    },
    {
      "anonymous": false,
      "inputs": [
        {
          "indexed": false,
          "internalType": "uint256",
          "name": "_fromTokenId",
          "type": "uint256"
        },
        {
          "indexed": false,
          "internalType": "uint256",
          "name": "_toTokenId",
          "type": "uint256"
        }
      ],
      "name": "BatchMetadataUpdate",
      "type": "event"
    },
    {
      "anonymous": false,
      "inputs": [
        {
          "indexed": false,
          "internalType": "uint256",
          "name": "tokenId",
          "type": "uint256"
        },
        {
          "indexed": false,
          "internalType": "uint256",
          "name": "price",
          "type": "uint256"
        }
      ],
      "name": "CarListedForSale",
      "type": "event"
    },
    {
      "anonymous": false,
      "inputs": [
        {
          "indexed": false,
          "internalType": "uint256",
          "name": "tokenId",
          "type": "uint256"
        },
        {
          "indexed": false,
          "internalType": "address",
          "name": "owner",
          "type": "address"
        },
        {
          "indexed": false,
          "internalType": "string",
          "name": "vin",
          "type": "string"
        }
      ],
      "name": "CarMinted",
      "type": "event"
    },
    {
      "anonymous": false,
      "inputs": [
        {
          "indexed": false,
          "internalType": "uint256",
          "name": "tokenId",
          "type": "uint256"
        },
        {
          "indexed": false,
          "internalType": "address",
          "name": "newOwner",
          "type": "address"
        },
        {
          "indexed": false,
          "internalType": "uint256",
          "name": "price",
          "type": "uint256"
        }
      ],
      "name": "CarSold",
      "type": "event"
    },
    {
      "anonymous": false,
      "inputs": [
        {
          "indexed": false,
          "internalType": "uint256",
          "name": "_tokenId",
          "type": "uint256"
        }
      ],
      "name": "MetadataUpdate",
      "type": "event"
    },
    {
      "anonymous": false,
      "inputs": [
        {
          "indexed": true,
          "internalType": "address",
          "name": "previousOwner",
          "type": "address"
        },
        {
          "indexed": true,
          "internalType": "address",
          "name": "newOwner",
          "type": "address"
        }
      ],
      "name": "OwnershipTransferred",
      "type": "event"
    },
    {
      "anonymous": false,
      "inputs": [
        {
          "indexed": true,
          "internalType": "uint256",
          "name": "tokenId",
          "type": "uint256"
        },
        {
          "indexed": false,
          "internalType": "string",
          "name": "description",
          "type": "string"
        }
      ],
      "name": "ServiceRecordAdded",
      "type": "event"
    },
    {
      "anonymous": false,
      "inputs": [
        {
          "indexed": true,
          "internalType": "address",
          "name": "from",
          "type": "address"
        },
        {
          "indexed": true,
          "internalType": "address",
          "name": "to",
          "type": "address"
        },
        {
          "indexed": true,
          "internalType": "uint256",
          "name": "tokenId",
          "type": "uint256"
        }
      ],
      "name": "Transfer",
      "type": "event"
    },
    {
      "inputs": [
        {
          "internalType": "uint256",
          "name": "tokenId",
          "type": "uint256"
        },
        {
          "internalType": "string",
          "name": "description",
          "type": "string"
        },
        {
          "internalType": "string",
          "name": "garageName",
          "type": "string"
        },
        {
          "internalType": "uint256",
          "name": "mileage",
          "type": "uint256"
        }
      ],
      "name": "addServiceRecord",
      "outputs": [],
      "stateMutability": "nonpayable",
      "type": "function"
    },
    {
      "inputs": [
        {
          "internalType": "address",
          "name": "to",
          "type": "address"
        },
        {
          "internalType": "uint256",
          "name": "tokenId",
          "type": "uint256"
        }
      ],
      "name": "approve",
      "outputs": [],
      "stateMutability": "nonpayable",
      "type": "function"
    },
    {
      "inputs": [
        {
          "internalType": "address",
          "name": "owner",
          "type": "address"
        }
      ],
      "name": "balanceOf",
      "outputs": [
        {
          "internalType": "uint256",
          "name": "",
          "type": "uint256"
        }
      ],
      "stateMutability": "view",
      "type": "function"
    },
    {
      "inputs": [
        {
          "internalType": "uint256",
          "name": "tokenId",
          "type": "uint256"
        }
      ],
      "name": "buyCar",
      "outputs": [],
      "stateMutability": "payable",
      "type": "function"
    },
    {
      "inputs": [],
      "name": "getAllCars",
      "outputs": [
        {
          "components": [
            {
              "internalType": "uint256",
              "name": "tokenId",
              "type": "uint256"
            },
            {
              "internalType": "string",
              "name": "tokenURI",
              "type": "string"
            },
            {
              "internalType": "uint256",
              "name": "price",
              "type": "uint256"
            }
          ],
          "internalType": "struct CarMarketplace.Car[]",
          "name": "",
          "type": "tuple[]"
        }
      ],
      "stateMutability": "view",
      "type": "function"
    },
    {
      "inputs": [
        {
          "internalType": "uint256",
          "name": "tokenId",
          "type": "uint256"
        }
      ],
      "name": "getApproved",
      "outputs": [
        {
          "internalType": "address",
          "name": "",
          "type": "address"
        }
      ],
      "stateMutability": "view",
      "type": "function"
    },
    {
      "inputs": [
        {
          "internalType": "uint256",
          "name": "tokenId",
          "type": "uint256"
        }
      ],
      "name": "getCarDetails",
      "outputs": [
        {
          "components": [
            {
              "internalType": "uint256",
              "name": "tokenId",
              "type": "uint256"
            },
            {
              "internalType": "string",
              "name": "tokenURI",
              "type": "string"
            },
            {
              "internalType": "uint256",
              "name": "price",
              "type": "uint256"
            }
          ],
          "internalType": "struct CarMarketplace.Car",
          "name": "",
          "type": "tuple"
        }
      ],
      "stateMutability": "view",
      "type": "function"
    },
    {
      "inputs": [
        {
          "internalType": "uint256",
          "name": "tokenId",
          "type": "uint256"
        }
      ],
      "name": "getServiceHistory",
      "outputs": [
        {
          "components": [
            {
              "internalType": "uint256",
              "name": "date",
              "type": "uint256"
            },
            {
              "internalType": "string",
              "name": "description",
              "type": "string"
            },
            {
              "internalType": "string",
              "name": "garageName",
              "type": "string"
            },
            {
              "internalType": "uint256",
              "name": "mileage",
              "type": "uint256"
            }
          ],
          "internalType": "struct CarMarketplace.ServiceRecord[]",
          "name": "",
          "type": "tuple[]"
        }
      ],
      "stateMutability": "view",
      "type": "function"
    },
    {
      "inputs": [
        {
          "internalType": "address",
          "name": "owner",
          "type": "address"
        },
        {
          "internalType": "address",
          "name": "operator",
          "type": "address"
        }
      ],
      "name": "isApprovedForAll",
      "outputs": [
        {
          "internalType": "bool",
          "name": "",
          "type": "bool"
        }
      ],
      "stateMutability": "view",
      "type": "function"
    },
    {
      "inputs": [
        {
          "internalType": "uint256",
          "name": "tokenId",
          "type": "uint256"
        },
        {
          "internalType": "uint256",
          "name": "price",
          "type": "uint256"
        }
      ],
      "name": "listCarForSale",
      "outputs": [],
      "stateMutability": "nonpayable",
      "type": "function"
    },
    {
      "inputs": [
        {
          "internalType": "address",
          "name": "to",
          "type": "address"
        },
        {
          "internalType": "string",
          "name": "vin",
          "type": "string"
        },
        {
          "internalType": "uint256",
          "name": "price",
          "type": "uint256"
        },
        {
          "internalType": "string",
          "name": "tokenURI",
          "type": "string"
        }
      ],
      "name": "mintCar",
      "outputs": [],
      "stateMutability": "nonpayable",
      "type": "function"
    },
    {
      "inputs": [],
      "name": "name",
      "outputs": [
        {
          "internalType": "string",
          "name": "",
          "type": "string"
        }
      ],
      "stateMutability": "view",
      "type": "function"
    },
    {
      "inputs": [],
      "name": "owner",
      "outputs": [
        {
          "internalType": "address",
          "name": "",
          "type": "address"
        }
      ],
      "stateMutability": "view",
      "type": "function"
    },
    {
      "inputs": [
        {
          "internalType": "uint256",
          "name": "tokenId",
          "type": "uint256"
        }
      ],
      "name": "ownerOf",
      "outputs": [
        {
          "internalType": "address",
          "name": "",
          "type": "address"
        }
      ],
      "stateMutability": "view",
      "type": "function"
    },
    {
      "inputs": [],
      "name": "renounceOwnership",
      "outputs": [],
      "stateMutability": "nonpayable",
      "type": "function"
    },
    {
      "inputs": [
        {
          "internalType": "address",
          "name": "from",
          "type": "address"
        },
        {
          "internalType": "address",
          "name": "to",
          "type": "address"
        },
        {
          "internalType": "uint256",
          "name": "tokenId",
          "type": "uint256"
        }
      ],
      "name": "safeTransferFrom",
      "outputs": [],
      "stateMutability": "nonpayable",
      "type": "function"
    },
    {
      "inputs": [
        {
          "internalType": "address",
          "name": "from",
          "type": "address"
        },
        {
          "internalType": "address",
          "name": "to",
          "type": "address"
        },
        {
          "internalType": "uint256",
          "name": "tokenId",
          "type": "uint256"
        },
        {
          "internalType": "bytes",
          "name": "data",
          "type": "bytes"
        }
      ],
      "name": "safeTransferFrom",
      "outputs": [],
      "stateMutability": "nonpayable",
      "type": "function"
    },
    {
      "inputs": [
        {
          "internalType": "address",
          "name": "operator",
          "type": "address"
        },
        {
          "internalType": "bool",
          "name": "approved",
          "type": "bool"
        }
      ],
      "name": "setApprovalForAll",
      "outputs": [],
      "stateMutability": "nonpayable",
      "type": "function"
    },
    {
      "inputs": [
        {
          "internalType": "bytes4",
          "name": "interfaceId",
          "type": "bytes4"
        }
      ],
      "name": "supportsInterface",
      "outputs": [
        {
          "internalType": "bool",
          "name": "",
          "type": "bool"
        }
      ],
      "stateMutability": "view",
      "type": "function"
    },
    {
      "inputs": [],
      "name": "symbol",
      "outputs": [
        {
          "internalType": "string",
          "name": "",
          "type": "string"
        }
      ],
      "stateMutability": "view",
      "type": "function"
    },
    {
      "inputs": [
        {
          "internalType": "uint256",
          "name": "tokenId",
          "type": "uint256"
        }
      ],
      "name": "tokenURI",
      "outputs": [
        {
          "internalType": "string",
          "name": "",
          "type": "string"
        }
      ],
      "stateMutability": "view",
      "type": "function"
    },
    {
      "inputs": [
        {
          "internalType": "address",
          "name": "from",
          "type": "address"
        },
        {
          "internalType": "address",
          "name": "to",
          "type": "address"
        },
        {
          "internalType": "uint256",
          "name": "tokenId",
          "type": "uint256"
        }
      ],
      "name": "transferFrom",
      "outputs": [],
      "stateMutability": "nonpayable",
      "type": "function"
    },
    {
      "inputs": [
        {
          "internalType": "address",
          "name": "newOwner",
          "type": "address"
        }
      ],
      "name": "transferOwnership",
      "outputs": [],
      "stateMutability": "nonpayable",
      "type": "function"
    }
  ],
  "bytecode": "0x608060405234801561001057600080fd5b50336040518060400160405280600781526020017f4175746f446578000000000000000000000000000000000000000000000000008152506040518060400160405280600381526020017f4144580000000000000000000000000000000000000000000000000000000000815250816000908161008d919061043d565b50806001908161009d919061043d565b505050600073ffffffffffffffffffffffffffffffffffffffff168173ffffffffffffffffffffffffffffffffffffffff16036101125760006040517f1e4fbdf70000000000000000000000000000000000000000000000000000000081526004016101099190610550565b60405180910390fd5b6101218161012760201b60201c565b5061056b565b6000600760009054906101000a900473ffffffffffffffffffffffffffffffffffffffff16905081600760006101000a81548173ffffffffffffffffffffffffffffffffffffffff021916908373ffffffffffffffffffffffffffffffffffffffff1602179055508173ffffffffffffffffffffffffffffffffffffffff168173ffffffffffffffffffffffffffffffffffffffff167f8be0079c531659141344cd1fd0a4f28419497f9722a3daafe3b4186f6b6457e060405160405180910390a35050565b600081519050919050565b7f4e487b7100000000000000000000000000000000000000000000000000000000600052604160045260246000fd5b7f4e487b7100000000000000000000000000000000000000000000000000000000600052602260045260246000fd5b6000600282049050600182168061026e57607f821691505b60208210810361028157610280610227565b5b50919050565b60008190508160005260206000209050919050565b60006020601f8301049050919050565b600082821b905092915050565b6000600883026102e97fffffffffffffffffffffffffffffffffffffffffffffffffffffffffffffffff826102ac565b6102f386836102ac565b95508019841693508086168417925050509392505050565b6000819050919050565b6000819050919050565b600061033a6103356103308461030b565b610315565b61030b565b9050919050565b6000819050919050565b6103548361031f565b61036861036082610341565b8484546102b9565b825550505050565b600090565b61037d610370565b61038881848461034b565b505050565b5b818110156103ac576103a1600082610375565b60018101905061038e565b5050565b601f8211156103f1576103c281610287565b6103cb8461029c565b810160208510156103da578190505b6103ee6103e68561029c565b83018261038d565b50505b505050565b600082821c905092915050565b6000610414600019846008026103f6565b1980831691505092915050565b600061042d8383610403565b9150826002028217905092915050565b610446826101ed565b67ffffffffffffffff81111561045f5761045e6101f8565b5b6104698254610256565b6104748282856103b0565b600060209050601f8311600181146104a75760008415610495578287015190505b61049f8582610421565b865550610507565b601f1984166104b586610287565b60005b828110156104dd578489015182556001820191506020850194506020810190506104b8565b868310156104fa57848901516104f6601f891682610403565b8355505b6001600288020188555050505b505050505050565b600073ffffffffffffffffffffffffffffffffffffffff82169050919050565b600061053a8261050f565b9050919050565b61054a8161052f565b82525050565b60006020820190506105656000830184610541565b92915050565b613e608061057a6000396000f3fe6080604052600436106101405760003560e01c8063715018a6116100b6578063bc93127a1161006f578063bc93127a1461045f578063c87b56dd14610488578063d2ec271e146104c5578063e985e9c5146104ee578063f2fde38b1461052b578063f68883841461055457610140565b8063715018a6146103755780638da5cb5b1461038c57806395d89b41146103b7578063a22cb465146103e2578063abfe5d571461040b578063b88d4fde1461043657610140565b806323b872dd1161010857806323b872dd1461025057806342842e0e14610279578063472ec454146102a25780636352211e146102df5780636c2310601461031c57806370a082311461033857610140565b806301ffc9a71461014557806306fdde0314610182578063081812fc146101ad578063095ea7b3146101ea5780631e7046b514610213575b600080fd5b34801561015157600080fd5b5061016c600480360381019061016791906128e1565b61057d565b6040516101799190612929565b60405180910390f35b34801561018e57600080fd5b506101976105de565b6040516101a491906129d4565b60405180910390f35b3480156101b957600080fd5b506101d460048036038101906101cf9190612a2c565b610670565b6040516101e19190612a9a565b60405180910390f35b3480156101f657600080fd5b50610211600480360381019061020c9190612ae1565b61068c565b005b34801561021f57600080fd5b5061023a60048036038101906102359190612a2c565b6106a2565b6040516102479190612ca6565b60405180910390f35b34801561025c57600080fd5b5061027760048036038101906102729190612cc8565b6108c3565b005b34801561028557600080fd5b506102a0600480360381019061029b9190612cc8565b6109c5565b005b3480156102ae57600080fd5b506102c960048036038101906102c49190612a2c565b6109e5565b6040516102d69190612d6b565b60405180910390f35b3480156102eb57600080fd5b5061030660048036038101906103019190612a2c565b610ac2565b6040516103139190612a9a565b60405180910390f35b61033660048036038101906103319190612a2c565b610ad4565b005b34801561034457600080fd5b5061035f600480360381019061035a9190612d8d565b610cae565b60405161036c9190612dc9565b60405180910390f35b34801561038157600080fd5b5061038a610d68565b005b34801561039857600080fd5b506103a1610d7c565b6040516103ae9190612a9a565b60405180910390f35b3480156103c357600080fd5b506103cc610da6565b6040516103d991906129d4565b60405180910390f35b3480156103ee57600080fd5b5061040960048036038101906104049190612e10565b610e38565b005b34801561041757600080fd5b50610420610e4e565b60405161042d9190612f62565b60405180910390f35b34801561044257600080fd5b5061045d600480360381019061045891906130b9565b610fae565b005b34801561046b57600080fd5b50610486600480360381019061048191906131dd565b610fd3565b005b34801561049457600080fd5b506104af60048036038101906104aa9190612a2c565b611173565b6040516104bc91906129d4565b60405180910390f35b3480156104d157600080fd5b506104ec60048036038101906104e7919061327c565b611286565b005b3480156104fa57600080fd5b506105156004803603810190610510919061331b565b61148d565b6040516105229190612929565b60405180910390f35b34801561053757600080fd5b50610552600480360381019061054d9190612d8d565b611521565b005b34801561056057600080fd5b5061057b6004803603810190610576919061335b565b6115a7565b005b6000634906490660e01b7bffffffffffffffffffffffffffffffffffffffffffffffffffffffff1916827bffffffffffffffffffffffffffffffffffffffffffffffffffffffff191614806105d757506105d6826116b8565b5b9050919050565b6060600080546105ed906133ca565b80601f0160208091040260200160405190810160405280929190818152602001828054610619906133ca565b80156106665780601f1061063b57610100808354040283529160200191610666565b820191906000526020600020905b81548152906001019060200180831161064957829003601f168201915b5050505050905090565b600061067b8261179a565b5061068582611822565b9050919050565b61069e828261069961185f565b611867565b5050565b6060600073ffffffffffffffffffffffffffffffffffffffff166106c583611879565b73ffffffffffffffffffffffffffffffffffffffff160361071b576040517f08c379a000000000000000000000000000000000000000000000000000000000815260040161071290613447565b60405180910390fd5b600b6000838152602001908152602001600020805480602002602001604051908101604052809291908181526020016000905b828210156108b857838290600052602060002090600402016040518060800160405290816000820154815260200160018201805461078b906133ca565b80601f01602080910402602001604051908101604052809291908181526020018280546107b7906133ca565b80156108045780601f106107d957610100808354040283529160200191610804565b820191906000526020600020905b8154815290600101906020018083116107e757829003601f168201915b5050505050815260200160028201805461081d906133ca565b80601f0160208091040260200160405190810160405280929190818152602001828054610849906133ca565b80156108965780601f1061086b57610100808354040283529160200191610896565b820191906000526020600020905b81548152906001019060200180831161087957829003601f168201915b505050505081526020016003820154815250508152602001906001019061074e565b505050509050919050565b600073ffffffffffffffffffffffffffffffffffffffff168273ffffffffffffffffffffffffffffffffffffffff16036109355760006040517f64a0ae9200000000000000000000000000000000000000000000000000000000815260040161092c9190612a9a565b60405180910390fd5b6000610949838361094461185f565b6118b6565b90508373ffffffffffffffffffffffffffffffffffffffff168173ffffffffffffffffffffffffffffffffffffffff16146109bf578382826040517f64283d7b0000000000000000000000000000000000000000000000000000000081526004016109b693929190613467565b60405180910390fd5b50505050565b6109e083838360405180602001604052806000815250610fae565b505050565b6109ed612854565b6109f68261179a565b506009600083815260200190815260200160002060405180606001604052908160008201548152602001600182018054610a2f906133ca565b80601f0160208091040260200160405190810160405280929190818152602001828054610a5b906133ca565b8015610aa85780601f10610a7d57610100808354040283529160200191610aa8565b820191906000526020600020905b815481529060010190602001808311610a8b57829003601f168201915b505050505081526020016002820154815250509050919050565b6000610acd8261179a565b9050919050565b6000610adf82610ac2565b90506000600960008481526020019081526020016000206002015411610b3a576040517f08c379a0000000000000000000000000000000000000000000000000000000008152600401610b31906134ea565b60405180910390fd5b6009600083815260200190815260200160002060020154341015610b93576040517f08c379a0000000000000000000000000000000000000000000000000000000008152600401610b8a90613556565b60405180910390fd5b3373ffffffffffffffffffffffffffffffffffffffff168173ffffffffffffffffffffffffffffffffffffffff1603610c01576040517f08c379a0000000000000000000000000000000000000000000000000000000008152600401610bf8906135c2565b60405180910390fd5b610c0c813384611ad0565b8073ffffffffffffffffffffffffffffffffffffffff166108fc349081150290604051600060405180830381858888f19350505050158015610c52573d6000803e3d6000fd5b50600060096000848152602001908152602001600020600201819055507f9d90e6b7483b210fb2eb1814d730195955d020389f316a5127d8f07d6fe61c8b823334604051610ca2939291906135e2565b60405180910390a15050565b60008073ffffffffffffffffffffffffffffffffffffffff168273ffffffffffffffffffffffffffffffffffffffff1603610d215760006040517f89c62b64000000000000000000000000000000000000000000000000000000008152600401610d189190612a9a565b60405180910390fd5b600360008373ffffffffffffffffffffffffffffffffffffffff1673ffffffffffffffffffffffffffffffffffffffff168152602001908152602001600020549050919050565b610d70611c3d565b610d7a6000611cc4565b565b6000600760009054906101000a900473ffffffffffffffffffffffffffffffffffffffff16905090565b606060018054610db5906133ca565b80601f0160208091040260200160405190810160405280929190818152602001828054610de1906133ca565b8015610e2e5780601f10610e0357610100808354040283529160200191610e2e565b820191906000526020600020905b815481529060010190602001808311610e1157829003601f168201915b5050505050905090565b610e4a610e4361185f565b8383611d8a565b5050565b6060600060085467ffffffffffffffff811115610e6e57610e6d612f8e565b5b604051908082528060200260200182016040528015610ea757816020015b610e94612854565b815260200190600190039081610e8c5790505b50905060005b600854811015610fa6576009600082815260200190815260200160002060405180606001604052908160008201548152602001600182018054610eef906133ca565b80601f0160208091040260200160405190810160405280929190818152602001828054610f1b906133ca565b8015610f685780601f10610f3d57610100808354040283529160200191610f68565b820191906000526020600020905b815481529060010190602001808311610f4b57829003601f168201915b50505050508152602001600282015481525050828281518110610f8e57610f8d613619565b5b60200260200101819052508080600101915050610ead565b508091505090565b610fb98484846108c3565b610fcd610fc461185f565b85858585611ef9565b50505050565b610fdb611c3d565b600083511161101f576040517f08c379a000000000000000000000000000000000000000000000000000000000815260040161101690613694565b60405180910390fd5b6000600a8460405161103191906136f0565b90815260200160405180910390205414611080576040517f08c379a000000000000000000000000000000000000000000000000000000000815260040161107790613753565b60405180910390fd5b6000600854905061109185826120aa565b61109b81836121a3565b604051806060016040528082815260200183815260200184815250600960008381526020019081526020016000206000820151816000015560208201518160010190816110e8919061391f565b506040820151816002015590505080600a8560405161110791906136f0565b9081526020016040518091039020819055506008600081548092919061112c90613a20565b91905055507fbd3303cf3cb581bf78ef3ac343c3e3d038afb8bc52183ae64109ebd7ee3a873d81868660405161116493929190613a68565b60405180910390a15050505050565b606061117e8261179a565b50600060066000848152602001908152602001600020805461119f906133ca565b80601f01602080910402602001604051908101604052809291908181526020018280546111cb906133ca565b80156112185780601f106111ed57610100808354040283529160200191611218565b820191906000526020600020905b8154815290600101906020018083116111fb57829003601f168201915b5050505050905060006112296121ff565b9050600081510361123e578192505050611281565b60008251111561127357808260405160200161125b929190613aa6565b60405160208183030381529060405292505050611281565b61127c84612216565b925050505b919050565b600073ffffffffffffffffffffffffffffffffffffffff166112a785610ac2565b73ffffffffffffffffffffffffffffffffffffffff16036112fd576040517f08c379a00000000000000000000000000000000000000000000000000000000081526004016112f490613b16565b60405180910390fd5b3373ffffffffffffffffffffffffffffffffffffffff1661131d85610ac2565b73ffffffffffffffffffffffffffffffffffffffff1614806113715750611342610d7c565b73ffffffffffffffffffffffffffffffffffffffff163373ffffffffffffffffffffffffffffffffffffffff16145b6113b0576040517f08c379a00000000000000000000000000000000000000000000000000000000081526004016113a790613ba8565b60405180910390fd5b600b6000858152602001908152602001600020604051806080016040528042815260200185815260200184815260200183815250908060018154018082558091505060019003906000526020600020906004020160009091909190915060008201518160000155602082015181600101908161142c919061391f565b506040820151816002019081611442919061391f565b50606082015181600301555050837fe04dd2501fa1ca1a2bf1b8b0f34ecc0fbe8ad77f3680583182c26f44a0f5f2448460405161147f91906129d4565b60405180910390a250505050565b6000600560008473ffffffffffffffffffffffffffffffffffffffff1673ffffffffffffffffffffffffffffffffffffffff16815260200190815260200160002060008373ffffffffffffffffffffffffffffffffffffffff1673ffffffffffffffffffffffffffffffffffffffff16815260200190815260200160002060009054906101000a900460ff16905092915050565b611529611c3d565b600073ffffffffffffffffffffffffffffffffffffffff168173ffffffffffffffffffffffffffffffffffffffff160361159b5760006040517f1e4fbdf70000000000000000000000000000000000000000000000000000000081526004016115929190612a9a565b60405180910390fd5b6115a481611cc4565b50565b3373ffffffffffffffffffffffffffffffffffffffff166115c783610ac2565b73ffffffffffffffffffffffffffffffffffffffff161461161d576040517f08c379a000000000000000000000000000000000000000000000000000000000815260040161161490613c3a565b60405180910390fd5b60008111611660576040517f08c379a000000000000000000000000000000000000000000000000000000000815260040161165790613ca6565b60405180910390fd5b8060096000848152602001908152602001600020600201819055507fd7eb5635a91daa6c8336a751c696002c8243f97bad99a81269931e463952470982826040516116ac929190613cc6565b60405180910390a15050565b60007f80ac58cd000000000000000000000000000000000000000000000000000000007bffffffffffffffffffffffffffffffffffffffffffffffffffffffff1916827bffffffffffffffffffffffffffffffffffffffffffffffffffffffff1916148061178357507f5b5e139f000000000000000000000000000000000000000000000000000000007bffffffffffffffffffffffffffffffffffffffffffffffffffffffff1916827bffffffffffffffffffffffffffffffffffffffffffffffffffffffff1916145b8061179357506117928261227f565b5b9050919050565b6000806117a683611879565b9050600073ffffffffffffffffffffffffffffffffffffffff168173ffffffffffffffffffffffffffffffffffffffff160361181957826040517f7e2732890000000000000000000000000000000000000000000000000000000081526004016118109190612dc9565b60405180910390fd5b80915050919050565b60006004600083815260200190815260200160002060009054906101000a900473ffffffffffffffffffffffffffffffffffffffff169050919050565b600033905090565b61187483838360016122e9565b505050565b60006002600083815260200190815260200160002060009054906101000a900473ffffffffffffffffffffffffffffffffffffffff169050919050565b6000806118c284611879565b9050600073ffffffffffffffffffffffffffffffffffffffff168373ffffffffffffffffffffffffffffffffffffffff1614611904576119038184866124ae565b5b600073ffffffffffffffffffffffffffffffffffffffff168173ffffffffffffffffffffffffffffffffffffffff1614611995576119466000856000806122e9565b6001600360008373ffffffffffffffffffffffffffffffffffffffff1673ffffffffffffffffffffffffffffffffffffffff168152602001908152602001600020600082825403925050819055505b600073ffffffffffffffffffffffffffffffffffffffff168573ffffffffffffffffffffffffffffffffffffffff1614611a18576001600360008773ffffffffffffffffffffffffffffffffffffffff1673ffffffffffffffffffffffffffffffffffffffff168152602001908152602001600020600082825401925050819055505b846002600086815260200190815260200160002060006101000a81548173ffffffffffffffffffffffffffffffffffffffff021916908373ffffffffffffffffffffffffffffffffffffffff160217905550838573ffffffffffffffffffffffffffffffffffffffff168273ffffffffffffffffffffffffffffffffffffffff167fddf252ad1be2c89b69c2b068fc378daa952ba7f163c4a11628f55a4df523b3ef60405160405180910390a4809150509392505050565b600073ffffffffffffffffffffffffffffffffffffffff168273ffffffffffffffffffffffffffffffffffffffff1603611b425760006040517f64a0ae92000000000000000000000000000000000000000000000000000000008152600401611b399190612a9a565b60405180910390fd5b6000611b50838360006118b6565b9050600073ffffffffffffffffffffffffffffffffffffffff168173ffffffffffffffffffffffffffffffffffffffff1603611bc357816040517f7e273289000000000000000000000000000000000000000000000000000000008152600401611bba9190612dc9565b60405180910390fd5b8373ffffffffffffffffffffffffffffffffffffffff168173ffffffffffffffffffffffffffffffffffffffff1614611c37578382826040517f64283d7b000000000000000000000000000000000000000000000000000000008152600401611c2e93929190613467565b60405180910390fd5b50505050565b611c4561185f565b73ffffffffffffffffffffffffffffffffffffffff16611c63610d7c565b73ffffffffffffffffffffffffffffffffffffffff1614611cc257611c8661185f565b6040517f118cdaa7000000000000000000000000000000000000000000000000000000008152600401611cb99190612a9a565b60405180910390fd5b565b6000600760009054906101000a900473ffffffffffffffffffffffffffffffffffffffff16905081600760006101000a81548173ffffffffffffffffffffffffffffffffffffffff021916908373ffffffffffffffffffffffffffffffffffffffff1602179055508173ffffffffffffffffffffffffffffffffffffffff168173ffffffffffffffffffffffffffffffffffffffff167f8be0079c531659141344cd1fd0a4f28419497f9722a3daafe3b4186f6b6457e060405160405180910390a35050565b600073ffffffffffffffffffffffffffffffffffffffff168273ffffffffffffffffffffffffffffffffffffffff1603611dfb57816040517f5b08ba18000000000000000000000000000000000000000000000000000000008152600401611df29190612a9a565b60405180910390fd5b80600560008573ffffffffffffffffffffffffffffffffffffffff1673ffffffffffffffffffffffffffffffffffffffff16815260200190815260200160002060008473ffffffffffffffffffffffffffffffffffffffff1673ffffffffffffffffffffffffffffffffffffffff16815260200190815260200160002060006101000a81548160ff0219169083151502179055508173ffffffffffffffffffffffffffffffffffffffff168373ffffffffffffffffffffffffffffffffffffffff167f17307eab39ab6107e8899845ad3d59bd9653f200f220920489ca2b5937696c3183604051611eec9190612929565b60405180910390a3505050565b60008373ffffffffffffffffffffffffffffffffffffffff163b11156120a3578273ffffffffffffffffffffffffffffffffffffffff1663150b7a02868685856040518563ffffffff1660e01b8152600401611f589493929190613d44565b6020604051808303816000875af1925050508015611f9457506040513d601f19601f82011682018060405250810190611f919190613da5565b60015b612018573d8060008114611fc4576040519150601f19603f3d011682016040523d82523d6000602084013e611fc9565b606091505b50600081510361201057836040517f64a0ae920000000000000000000000000000000000000000000000000000000081526004016120079190612a9a565b60405180910390fd5b805181602001fd5b63150b7a0260e01b7bffffffffffffffffffffffffffffffffffffffffffffffffffffffff1916817bffffffffffffffffffffffffffffffffffffffffffffffffffffffff1916146120a157836040517f64a0ae920000000000000000000000000000000000000000000000000000000081526004016120989190612a9a565b60405180910390fd5b505b5050505050565b600073ffffffffffffffffffffffffffffffffffffffff168273ffffffffffffffffffffffffffffffffffffffff160361211c5760006040517f64a0ae920000000000000000000000000000000000000000000000000000000081526004016121139190612a9a565b60405180910390fd5b600061212a838360006118b6565b9050600073ffffffffffffffffffffffffffffffffffffffff168173ffffffffffffffffffffffffffffffffffffffff161461219e5760006040517f73c6ac6e0000000000000000000000000000000000000000000000000000000081526004016121959190612a9a565b60405180910390fd5b505050565b806006600084815260200190815260200160002090816121c3919061391f565b507ff8e1a15aba9398e019f0b49df1a4fde98ee17ae345cb5f6b5e2c27f5033e8ce7826040516121f39190612dc9565b60405180910390a15050565b606060405180602001604052806000815250905090565b60606122218261179a565b50600061222c6121ff565b9050600081511161224c5760405180602001604052806000815250612277565b8061225684612572565b604051602001612267929190613aa6565b6040516020818303038152906040525b915050919050565b60007f01ffc9a7000000000000000000000000000000000000000000000000000000007bffffffffffffffffffffffffffffffffffffffffffffffffffffffff1916827bffffffffffffffffffffffffffffffffffffffffffffffffffffffff1916149050919050565b80806123225750600073ffffffffffffffffffffffffffffffffffffffff168273ffffffffffffffffffffffffffffffffffffffff1614155b156124565760006123328461179a565b9050600073ffffffffffffffffffffffffffffffffffffffff168373ffffffffffffffffffffffffffffffffffffffff161415801561239d57508273ffffffffffffffffffffffffffffffffffffffff168173ffffffffffffffffffffffffffffffffffffffff1614155b80156123b057506123ae818461148d565b155b156123f257826040517fa9fbf51f0000000000000000000000000000000000000000000000000000000081526004016123e99190612a9a565b60405180910390fd5b811561245457838573ffffffffffffffffffffffffffffffffffffffff168273ffffffffffffffffffffffffffffffffffffffff167f8c5be1e5ebec7d5bd14f71427d1e84f3dd0314c0f7b2291e5b200ac8c7c3b92560405160405180910390a45b505b836004600085815260200190815260200160002060006101000a81548173ffffffffffffffffffffffffffffffffffffffff021916908373ffffffffffffffffffffffffffffffffffffffff16021790555050505050565b6124b9838383612640565b61256d57600073ffffffffffffffffffffffffffffffffffffffff168373ffffffffffffffffffffffffffffffffffffffff160361252e57806040517f7e2732890000000000000000000000000000000000000000000000000000000081526004016125259190612dc9565b60405180910390fd5b81816040517f177e802f000000000000000000000000000000000000000000000000000000008152600401612564929190613dd2565b60405180910390fd5b505050565b60606000600161258184612701565b01905060008167ffffffffffffffff8111156125a05761259f612f8e565b5b6040519080825280601f01601f1916602001820160405280156125d25781602001600182028036833780820191505090505b509050600082602001820190505b600115612635578080600190039150507f3031323334353637383961626364656600000000000000000000000000000000600a86061a8153600a858161262957612628613dfb565b5b049450600085036125e0575b819350505050919050565b60008073ffffffffffffffffffffffffffffffffffffffff168373ffffffffffffffffffffffffffffffffffffffff16141580156126f857508273ffffffffffffffffffffffffffffffffffffffff168473ffffffffffffffffffffffffffffffffffffffff1614806126b957506126b8848461148d565b5b806126f757508273ffffffffffffffffffffffffffffffffffffffff166126df83611822565b73ffffffffffffffffffffffffffffffffffffffff16145b5b90509392505050565b600080600090507a184f03e93ff9f4daa797ed6e38ed64bf6a1f010000000000000000831061275f577a184f03e93ff9f4daa797ed6e38ed64bf6a1f010000000000000000838161275557612754613dfb565b5b0492506040810190505b6d04ee2d6d415b85acef8100000000831061279c576d04ee2d6d415b85acef8100000000838161279257612791613dfb565b5b0492506020810190505b662386f26fc1000083106127cb57662386f26fc1000083816127c1576127c0613dfb565b5b0492506010810190505b6305f5e10083106127f4576305f5e10083816127ea576127e9613dfb565b5b0492506008810190505b612710831061281957612710838161280f5761280e613dfb565b5b0492506004810190505b6064831061283c576064838161283257612831613dfb565b5b0492506002810190505b600a831061284b576001810190505b80915050919050565b60405180606001604052806000815260200160608152602001600081525090565b6000604051905090565b600080fd5b600080fd5b60007fffffffff0000000000000000000000000000000000000000000000000000000082169050919050565b6128be81612889565b81146128c957600080fd5b50565b6000813590506128db816128b5565b92915050565b6000602082840312156128f7576128f661287f565b5b6000612905848285016128cc565b91505092915050565b60008115159050919050565b6129238161290e565b82525050565b600060208201905061293e600083018461291a565b92915050565b600081519050919050565b600082825260208201905092915050565b60005b8381101561297e578082015181840152602081019050612963565b60008484015250505050565b6000601f19601f8301169050919050565b60006129a682612944565b6129b0818561294f565b93506129c0818560208601612960565b6129c98161298a565b840191505092915050565b600060208201905081810360008301526129ee818461299b565b905092915050565b6000819050919050565b612a09816129f6565b8114612a1457600080fd5b50565b600081359050612a2681612a00565b92915050565b600060208284031215612a4257612a4161287f565b5b6000612a5084828501612a17565b91505092915050565b600073ffffffffffffffffffffffffffffffffffffffff82169050919050565b6000612a8482612a59565b9050919050565b612a9481612a79565b82525050565b6000602082019050612aaf6000830184612a8b565b92915050565b612abe81612a79565b8114612ac957600080fd5b50565b600081359050612adb81612ab5565b92915050565b60008060408385031215612af857612af761287f565b5b6000612b0685828601612acc565b9250506020612b1785828601612a17565b9150509250929050565b600081519050919050565b600082825260208201905092915050565b6000819050602082019050919050565b612b56816129f6565b82525050565b600082825260208201905092915050565b6000612b7882612944565b612b828185612b5c565b9350612b92818560208601612960565b612b9b8161298a565b840191505092915050565b6000608083016000830151612bbe6000860182612b4d565b5060208301518482036020860152612bd68282612b6d565b91505060408301518482036040860152612bf08282612b6d565b9150506060830151612c056060860182612b4d565b508091505092915050565b6000612c1c8383612ba6565b905092915050565b6000602082019050919050565b6000612c3c82612b21565b612c468185612b2c565b935083602082028501612c5885612b3d565b8060005b85811015612c945784840389528151612c758582612c10565b9450612c8083612c24565b925060208a01995050600181019050612c5c565b50829750879550505050505092915050565b60006020820190508181036000830152612cc08184612c31565b905092915050565b600080600060608486031215612ce157612ce061287f565b5b6000612cef86828701612acc565b9350506020612d0086828701612acc565b9250506040612d1186828701612a17565b9150509250925092565b6000606083016000830151612d336000860182612b4d565b5060208301518482036020860152612d4b8282612b6d565b9150506040830151612d606040860182612b4d565b508091505092915050565b60006020820190508181036000830152612d858184612d1b565b905092915050565b600060208284031215612da357612da261287f565b5b6000612db184828501612acc565b91505092915050565b612dc3816129f6565b82525050565b6000602082019050612dde6000830184612dba565b92915050565b612ded8161290e565b8114612df857600080fd5b50565b600081359050612e0a81612de4565b92915050565b60008060408385031215612e2757612e2661287f565b5b6000612e3585828601612acc565b9250506020612e4685828601612dfb565b9150509250929050565b600081519050919050565b600082825260208201905092915050565b6000819050602082019050919050565b6000606083016000830151612e946000860182612b4d565b5060208301518482036020860152612eac8282612b6d565b9150506040830151612ec16040860182612b4d565b508091505092915050565b6000612ed88383612e7c565b905092915050565b6000602082019050919050565b6000612ef882612e50565b612f028185612e5b565b935083602082028501612f1485612e6c565b8060005b85811015612f505784840389528151612f318582612ecc565b9450612f3c83612ee0565b925060208a01995050600181019050612f18565b50829750879550505050505092915050565b60006020820190508181036000830152612f7c8184612eed565b905092915050565b600080fd5b600080fd5b7f4e487b7100000000000000000000000000000000000000000000000000000000600052604160045260246000fd5b612fc68261298a565b810181811067ffffffffffffffff82111715612fe557612fe4612f8e565b5b80604052505050565b6000612ff8612875565b90506130048282612fbd565b919050565b600067ffffffffffffffff82111561302457613023612f8e565b5b61302d8261298a565b9050602081019050919050565b82818337600083830152505050565b600061305c61305784613009565b612fee565b90508281526020810184848401111561307857613077612f89565b5b61308384828561303a565b509392505050565b600082601f8301126130a05761309f612f84565b5b81356130b0848260208601613049565b91505092915050565b600080600080608085870312156130d3576130d261287f565b5b60006130e187828801612acc565b94505060206130f287828801612acc565b935050604061310387828801612a17565b925050606085013567ffffffffffffffff81111561312457613123612884565b5b6131308782880161308b565b91505092959194509250565b600067ffffffffffffffff82111561315757613156612f8e565b5b6131608261298a565b9050602081019050919050565b600061318061317b8461313c565b612fee565b90508281526020810184848401111561319c5761319b612f89565b5b6131a784828561303a565b509392505050565b600082601f8301126131c4576131c3612f84565b5b81356131d484826020860161316d565b91505092915050565b600080600080608085870312156131f7576131f661287f565b5b600061320587828801612acc565b945050602085013567ffffffffffffffff81111561322657613225612884565b5b613232878288016131af565b935050604061324387828801612a17565b925050606085013567ffffffffffffffff81111561326457613263612884565b5b613270878288016131af565b91505092959194509250565b600080600080608085870312156132965761329561287f565b5b60006132a487828801612a17565b945050602085013567ffffffffffffffff8111156132c5576132c4612884565b5b6132d1878288016131af565b935050604085013567ffffffffffffffff8111156132f2576132f1612884565b5b6132fe878288016131af565b925050606061330f87828801612a17565b91505092959194509250565b600080604083850312156133325761333161287f565b5b600061334085828601612acc565b925050602061335185828601612acc565b9150509250929050565b600080604083850312156133725761337161287f565b5b600061338085828601612a17565b925050602061339185828601612a17565b9150509250929050565b7f4e487b7100000000000000000000000000000000000000000000000000000000600052602260045260246000fd5b600060028204905060018216806133e257607f821691505b6020821081036133f5576133f461339b565b5b50919050565b7f43617220646f6573206e6f742065786973740000000000000000000000000000600082015250565b600061343160128361294f565b915061343c826133fb565b602082019050919050565b6000602082019050818103600083015261346081613424565b9050919050565b600060608201905061347c6000830186612a8b565b6134896020830185612dba565b6134966040830184612a8b565b949350505050565b7f436172206973206e6f7420666f722073616c6500000000000000000000000000600082015250565b60006134d460138361294f565b91506134df8261349e565b602082019050919050565b60006020820190508181036000830152613503816134c7565b9050919050565b7f496e73756666696369656e74204554482073656e742e00000000000000000000600082015250565b600061354060168361294f565b915061354b8261350a565b602082019050919050565b6000602082019050818103600083015261356f81613533565b9050919050565b7f596f752063616e6e6f742062757920796f7572206f776e206361722e00000000600082015250565b60006135ac601c8361294f565b91506135b782613576565b602082019050919050565b600060208201905081810360008301526135db8161359f565b9050919050565b60006060820190506135f76000830186612dba565b6136046020830185612a8b565b6136116040830184612dba565b949350505050565b7f4e487b7100000000000000000000000000000000000000000000000000000000600052603260045260246000fd5b7f56494e206d7573742062652070726f7669646564000000000000000000000000600082015250565b600061367e60148361294f565b915061368982613648565b602082019050919050565b600060208201905081810360008301526136ad81613671565b9050919050565b600081905092915050565b60006136ca82612944565b6136d481856136b4565b93506136e4818560208601612960565b80840191505092915050565b60006136fc82846136bf565b915081905092915050565b7f56494e20616c7265616479207573656400000000000000000000000000000000600082015250565b600061373d60108361294f565b915061374882613707565b602082019050919050565b6000602082019050818103600083015261376c81613730565b9050919050565b60008190508160005260206000209050919050565b60006020601f8301049050919050565b600082821b905092915050565b6000600883026137d57fffffffffffffffffffffffffffffffffffffffffffffffffffffffffffffffff82613798565b6137df8683613798565b95508019841693508086168417925050509392505050565b6000819050919050565b600061381c613817613812846129f6565b6137f7565b6129f6565b9050919050565b6000819050919050565b61383683613801565b61384a61384282613823565b8484546137a5565b825550505050565b600090565b61385f613852565b61386a81848461382d565b505050565b5b8181101561388e57613883600082613857565b600181019050613870565b5050565b601f8211156138d3576138a481613773565b6138ad84613788565b810160208510156138bc578190505b6138d06138c885613788565b83018261386f565b50505b505050565b600082821c905092915050565b60006138f6600019846008026138d8565b1980831691505092915050565b600061390f83836138e5565b9150826002028217905092915050565b61392882612944565b67ffffffffffffffff81111561394157613940612f8e565b5b61394b82546133ca565b613956828285613892565b600060209050601f8311600181146139895760008415613977578287015190505b6139818582613903565b8655506139e9565b601f19841661399786613773565b60005b828110156139bf5784890151825560018201915060208501945060208101905061399a565b868310156139dc57848901516139d8601f8916826138e5565b8355505b6001600288020188555050505b505050505050565b7f4e487b7100000000000000000000000000000000000000000000000000000000600052601160045260246000fd5b6000613a2b826129f6565b91507fffffffffffffffffffffffffffffffffffffffffffffffffffffffffffffffff8203613a5d57613a5c6139f1565b5b600182019050919050565b6000606082019050613a7d6000830186612dba565b613a8a6020830185612a8b565b8181036040830152613a9c818461299b565b9050949350505050565b6000613ab282856136bf565b9150613abe82846136bf565b91508190509392505050565b7f546f6b656e20646f6573206e6f74206578697374000000000000000000000000600082015250565b6000613b0060148361294f565b9150613b0b82613aca565b602082019050919050565b60006020820190508181036000830152613b2f81613af3565b9050919050565b7f4f6e6c7920636172206f776e6572206f7220636f6e7472616374206f776e657260008201527f2063616e206164642073657276696365207265636f7264000000000000000000602082015250565b6000613b9260378361294f565b9150613b9d82613b36565b604082019050919050565b60006020820190508181036000830152613bc181613b85565b9050919050565b7f4f6e6c7920746865206f776e6572206f66207468652076656869636c6520636160008201527f6e206c69737420697420666f722073616c652e00000000000000000000000000602082015250565b6000613c2460338361294f565b9150613c2f82613bc8565b604082019050919050565b60006020820190508181036000830152613c5381613c17565b9050919050565b7f5072696365206d7573742062652067726561746572207468616e207a65726f2e600082015250565b6000613c9060208361294f565b9150613c9b82613c5a565b602082019050919050565b60006020820190508181036000830152613cbf81613c83565b9050919050565b6000604082019050613cdb6000830185612dba565b613ce86020830184612dba565b9392505050565b600081519050919050565b600082825260208201905092915050565b6000613d1682613cef565b613d208185613cfa565b9350613d30818560208601612960565b613d398161298a565b840191505092915050565b6000608082019050613d596000830187612a8b565b613d666020830186612a8b565b613d736040830185612dba565b8181036060830152613d858184613d0b565b905095945050505050565b600081519050613d9f816128b5565b92915050565b600060208284031215613dbb57613dba61287f565b5b6000613dc984828501613d90565b91505092915050565b6000604082019050613de76000830185612a8b565b613df46020830184612dba565b9392505050565b7f4e487b7100000000000000000000000000000000000000000000000000000000600052601260045260246000fdfea2646970667358221220e49feabec8a7e27075c7c2bc72c48edd3550300e3ac56ed440cafe61ab5842be64736f6c634300081c0033",
  "linkReferences": {},
  "deployedLinkReferences": {}
}