{
  "_format": "hh-sol-artifact-1",
  "contractName": "CarMarketplace",
  "sourceName": "contracts/CarMarketplace.sol",
  "abi": [
    {
      "inputs": [],
      "stateMutability": "nonpayable",
      "type": "constructor"
    },
    {
      "inputs": [
        {
          "internalType": "address",
          "name": "sender",
          "type": "address"
        },
        {
          "internalType": "uint256",
          "name": "tokenId",
          "type": "uint256"
        },
        {
          "internalType": "address",
          "name": "owner",
          "type": "address"
        }
      ],
      "name": "ERC721IncorrectOwner",
      "type": "error"
    },
    {
      "inputs": [
        {
          "internalType": "address",
          "name": "operator",
          "type": "address"
        },
        {
          "internalType": "uint256",
          "name": "tokenId",
          "type": "uint256"
        }
      ],
      "name": "ERC721InsufficientApproval",
      "type": "error"
    },
    {
      "inputs": [
        {
          "internalType": "address",
          "name": "approver",
          "type": "address"
        }
      ],
      "name": "ERC721InvalidApprover",
      "type": "error"
    },
    {
      "inputs": [
        {
          "internalType": "address",
          "name": "operator",
          "type": "address"
        }
      ],
      "name": "ERC721InvalidOperator",
      "type": "error"
    },
    {
      "inputs": [
        {
          "internalType": "address",
          "name": "owner",
          "type": "address"
        }
      ],
      "name": "ERC721InvalidOwner",
      "type": "error"
    },
    {
      "inputs": [
        {
          "internalType": "address",
          "name": "receiver",
          "type": "address"
        }
      ],
      "name": "ERC721InvalidReceiver",
      "type": "error"
    },
    {
      "inputs": [
        {
          "internalType": "address",
          "name": "sender",
          "type": "address"
        }
      ],
      "name": "ERC721InvalidSender",
      "type": "error"
    },
    {
      "inputs": [
        {
          "internalType": "uint256",
          "name": "tokenId",
          "type": "uint256"
        }
      ],
      "name": "ERC721NonexistentToken",
      "type": "error"
    },
    {
      "inputs": [
        {
          "internalType": "address",
          "name": "owner",
          "type": "address"
        }
      ],
      "name": "OwnableInvalidOwner",
      "type": "error"
    },
    {
      "inputs": [
        {
          "internalType": "address",
          "name": "account",
          "type": "address"
        }
      ],
      "name": "OwnableUnauthorizedAccount",
      "type": "error"
    },
    {
      "anonymous": false,
      "inputs": [
        {
          "indexed": true,
          "internalType": "address",
          "name": "owner",
          "type": "address"
        },
        {
          "indexed": true,
          "internalType": "address",
          "name": "approved",
          "type": "address"
        },
        {
          "indexed": true,
          "internalType": "uint256",
          "name": "tokenId",
          "type": "uint256"
        }
      ],
      "name": "Approval",
      "type": "event"
    },
    {
      "anonymous": false,
      "inputs": [
        {
          "indexed": true,
          "internalType": "address",
          "name": "owner",
          "type": "address"
        },
        {
          "indexed": true,
          "internalType": "address",
          "name": "operator",
          "type": "address"
        },
        {
          "indexed": false,
          "internalType": "bool",
          "name": "approved",
          "type": "bool"
        }
      ],
      "name": "ApprovalForAll",
      "type": "event"
    },
    {
      "anonymous": false,
      "inputs": [
        {
          "indexed": false,
          "internalType": "uint256",
          "name": "_fromTokenId",
          "type": "uint256"
        },
        {
          "indexed": false,
          "internalType": "uint256",
          "name": "_toTokenId",
          "type": "uint256"
        }
      ],
      "name": "BatchMetadataUpdate",
      "type": "event"
    },
    {
      "anonymous": false,
      "inputs": [
        {
          "indexed": false,
          "internalType": "uint256",
          "name": "tokenId",
          "type": "uint256"
        },
        {
          "indexed": false,
          "internalType": "uint256",
          "name": "price",
          "type": "uint256"
        }
      ],
      "name": "CarListedForSale",
      "type": "event"
    },
    {
      "anonymous": false,
      "inputs": [
        {
          "indexed": false,
          "internalType": "uint256",
          "name": "tokenId",
          "type": "uint256"
        },
        {
          "indexed": false,
          "internalType": "address",
          "name": "owner",
          "type": "address"
        },
        {
          "indexed": false,
          "internalType": "string",
          "name": "vin",
          "type": "string"
        }
      ],
      "name": "CarMinted",
      "type": "event"
    },
    {
      "anonymous": false,
      "inputs": [
        {
          "indexed": false,
          "internalType": "uint256",
          "name": "tokenId",
          "type": "uint256"
        },
        {
          "indexed": false,
          "internalType": "address",
          "name": "newOwner",
          "type": "address"
        },
        {
          "indexed": false,
          "internalType": "uint256",
          "name": "price",
          "type": "uint256"
        }
      ],
      "name": "CarSold",
      "type": "event"
    },
    {
      "anonymous": false,
      "inputs": [
        {
          "indexed": false,
          "internalType": "uint256",
          "name": "_tokenId",
          "type": "uint256"
        }
      ],
      "name": "MetadataUpdate",
      "type": "event"
    },
    {
      "anonymous": false,
      "inputs": [
        {
          "indexed": true,
          "internalType": "address",
          "name": "previousOwner",
          "type": "address"
        },
        {
          "indexed": true,
          "internalType": "address",
          "name": "newOwner",
          "type": "address"
        }
      ],
      "name": "OwnershipTransferred",
      "type": "event"
    },
    {
      "anonymous": false,
      "inputs": [
        {
          "indexed": true,
          "internalType": "uint256",
          "name": "tokenId",
          "type": "uint256"
        },
        {
          "indexed": false,
          "internalType": "string",
          "name": "description",
          "type": "string"
        }
      ],
      "name": "ServiceRecordAdded",
      "type": "event"
    },
    {
      "anonymous": false,
      "inputs": [
        {
          "indexed": true,
          "internalType": "address",
          "name": "from",
          "type": "address"
        },
        {
          "indexed": true,
          "internalType": "address",
          "name": "to",
          "type": "address"
        },
        {
          "indexed": true,
          "internalType": "uint256",
          "name": "tokenId",
          "type": "uint256"
        }
      ],
      "name": "Transfer",
      "type": "event"
    },
    {
      "inputs": [
        {
          "internalType": "uint256",
          "name": "tokenId",
          "type": "uint256"
        },
        {
          "internalType": "string",
          "name": "description",
          "type": "string"
        },
        {
          "internalType": "string",
          "name": "garageName",
          "type": "string"
        },
        {
          "internalType": "uint256",
          "name": "mileage",
          "type": "uint256"
        }
      ],
      "name": "addServiceRecord",
      "outputs": [],
      "stateMutability": "nonpayable",
      "type": "function"
    },
    {
      "inputs": [
        {
          "internalType": "address",
          "name": "to",
          "type": "address"
        },
        {
          "internalType": "uint256",
          "name": "tokenId",
          "type": "uint256"
        }
      ],
      "name": "approve",
      "outputs": [],
      "stateMutability": "nonpayable",
      "type": "function"
    },
    {
      "inputs": [
        {
          "internalType": "address",
          "name": "owner",
          "type": "address"
        }
      ],
      "name": "balanceOf",
      "outputs": [
        {
          "internalType": "uint256",
          "name": "",
          "type": "uint256"
        }
      ],
      "stateMutability": "view",
      "type": "function"
    },
    {
      "inputs": [
        {
          "internalType": "uint256",
          "name": "tokenId",
          "type": "uint256"
        }
      ],
      "name": "buyCar",
      "outputs": [],
      "stateMutability": "payable",
      "type": "function"
    },
    {
      "inputs": [],
      "name": "getAllCars",
      "outputs": [
        {
          "components": [
            {
              "internalType": "uint256",
              "name": "tokenId",
              "type": "uint256"
            },
            {
              "internalType": "string",
              "name": "tokenURI",
              "type": "string"
            },
            {
              "internalType": "uint256",
              "name": "price",
              "type": "uint256"
            },
            {
              "internalType": "address payable",
              "name": "owner",
              "type": "address"
            }
          ],
          "internalType": "struct CarMarketplace.Car[]",
          "name": "",
          "type": "tuple[]"
        }
      ],
      "stateMutability": "view",
      "type": "function"
    },
    {
      "inputs": [
        {
          "internalType": "uint256",
          "name": "tokenId",
          "type": "uint256"
        }
      ],
      "name": "getApproved",
      "outputs": [
        {
          "internalType": "address",
          "name": "",
          "type": "address"
        }
      ],
      "stateMutability": "view",
      "type": "function"
    },
    {
      "inputs": [
        {
          "internalType": "uint256",
          "name": "tokenId",
          "type": "uint256"
        }
      ],
      "name": "getCarDetails",
      "outputs": [
        {
          "components": [
            {
              "internalType": "uint256",
              "name": "tokenId",
              "type": "uint256"
            },
            {
              "internalType": "string",
              "name": "tokenURI",
              "type": "string"
            },
            {
              "internalType": "uint256",
              "name": "price",
              "type": "uint256"
            },
            {
              "internalType": "address payable",
              "name": "owner",
              "type": "address"
            }
          ],
          "internalType": "struct CarMarketplace.Car",
          "name": "",
          "type": "tuple"
        }
      ],
      "stateMutability": "view",
      "type": "function"
    },
    {
      "inputs": [
        {
          "internalType": "uint256",
          "name": "tokenId",
          "type": "uint256"
        }
      ],
      "name": "getServiceHistory",
      "outputs": [
        {
          "components": [
            {
              "internalType": "uint256",
              "name": "date",
              "type": "uint256"
            },
            {
              "internalType": "string",
              "name": "description",
              "type": "string"
            },
            {
              "internalType": "string",
              "name": "garageName",
              "type": "string"
            },
            {
              "internalType": "uint256",
              "name": "mileage",
              "type": "uint256"
            }
          ],
          "internalType": "struct CarMarketplace.ServiceRecord[]",
          "name": "",
          "type": "tuple[]"
        }
      ],
      "stateMutability": "view",
      "type": "function"
    },
    {
      "inputs": [
        {
          "internalType": "address",
          "name": "owner",
          "type": "address"
        },
        {
          "internalType": "address",
          "name": "operator",
          "type": "address"
        }
      ],
      "name": "isApprovedForAll",
      "outputs": [
        {
          "internalType": "bool",
          "name": "",
          "type": "bool"
        }
      ],
      "stateMutability": "view",
      "type": "function"
    },
    {
      "inputs": [
        {
          "internalType": "uint256",
          "name": "tokenId",
          "type": "uint256"
        },
        {
          "internalType": "uint256",
          "name": "price",
          "type": "uint256"
        }
      ],
      "name": "listCarForSale",
      "outputs": [],
      "stateMutability": "nonpayable",
      "type": "function"
    },
    {
      "inputs": [
        {
          "internalType": "address",
          "name": "to",
          "type": "address"
        },
        {
          "internalType": "string",
          "name": "vin",
          "type": "string"
        },
        {
          "internalType": "uint256",
          "name": "price",
          "type": "uint256"
        },
        {
          "internalType": "string",
          "name": "tokenURI",
          "type": "string"
        }
      ],
      "name": "mintCar",
      "outputs": [],
      "stateMutability": "nonpayable",
      "type": "function"
    },
    {
      "inputs": [],
      "name": "name",
      "outputs": [
        {
          "internalType": "string",
          "name": "",
          "type": "string"
        }
      ],
      "stateMutability": "view",
      "type": "function"
    },
    {
      "inputs": [],
      "name": "owner",
      "outputs": [
        {
          "internalType": "address",
          "name": "",
          "type": "address"
        }
      ],
      "stateMutability": "view",
      "type": "function"
    },
    {
      "inputs": [
        {
          "internalType": "uint256",
          "name": "tokenId",
          "type": "uint256"
        }
      ],
      "name": "ownerOf",
      "outputs": [
        {
          "internalType": "address",
          "name": "",
          "type": "address"
        }
      ],
      "stateMutability": "view",
      "type": "function"
    },
    {
      "inputs": [],
      "name": "renounceOwnership",
      "outputs": [],
      "stateMutability": "nonpayable",
      "type": "function"
    },
    {
      "inputs": [
        {
          "internalType": "address",
          "name": "from",
          "type": "address"
        },
        {
          "internalType": "address",
          "name": "to",
          "type": "address"
        },
        {
          "internalType": "uint256",
          "name": "tokenId",
          "type": "uint256"
        }
      ],
      "name": "safeTransferFrom",
      "outputs": [],
      "stateMutability": "nonpayable",
      "type": "function"
    },
    {
      "inputs": [
        {
          "internalType": "address",
          "name": "from",
          "type": "address"
        },
        {
          "internalType": "address",
          "name": "to",
          "type": "address"
        },
        {
          "internalType": "uint256",
          "name": "tokenId",
          "type": "uint256"
        },
        {
          "internalType": "bytes",
          "name": "data",
          "type": "bytes"
        }
      ],
      "name": "safeTransferFrom",
      "outputs": [],
      "stateMutability": "nonpayable",
      "type": "function"
    },
    {
      "inputs": [
        {
          "internalType": "address",
          "name": "operator",
          "type": "address"
        },
        {
          "internalType": "bool",
          "name": "approved",
          "type": "bool"
        }
      ],
      "name": "setApprovalForAll",
      "outputs": [],
      "stateMutability": "nonpayable",
      "type": "function"
    },
    {
      "inputs": [
        {
          "internalType": "bytes4",
          "name": "interfaceId",
          "type": "bytes4"
        }
      ],
      "name": "supportsInterface",
      "outputs": [
        {
          "internalType": "bool",
          "name": "",
          "type": "bool"
        }
      ],
      "stateMutability": "view",
      "type": "function"
    },
    {
      "inputs": [],
      "name": "symbol",
      "outputs": [
        {
          "internalType": "string",
          "name": "",
          "type": "string"
        }
      ],
      "stateMutability": "view",
      "type": "function"
    },
    {
      "inputs": [
        {
          "internalType": "uint256",
          "name": "tokenId",
          "type": "uint256"
        }
      ],
      "name": "tokenURI",
      "outputs": [
        {
          "internalType": "string",
          "name": "",
          "type": "string"
        }
      ],
      "stateMutability": "view",
      "type": "function"
    },
    {
      "inputs": [
        {
          "internalType": "address",
          "name": "from",
          "type": "address"
        },
        {
          "internalType": "address",
          "name": "to",
          "type": "address"
        },
        {
          "internalType": "uint256",
          "name": "tokenId",
          "type": "uint256"
        }
      ],
      "name": "transferFrom",
      "outputs": [],
      "stateMutability": "nonpayable",
      "type": "function"
    },
    {
      "inputs": [
        {
          "internalType": "address",
          "name": "newOwner",
          "type": "address"
        }
      ],
      "name": "transferOwnership",
      "outputs": [],
      "stateMutability": "nonpayable",
      "type": "function"
    }
  ],
  "bytecode": "0x608060405234801561001057600080fd5b50336040518060400160405280600781526020017f4175746f446578000000000000000000000000000000000000000000000000008152506040518060400160405280600381526020017f4144580000000000000000000000000000000000000000000000000000000000815250816000908161008d919061043d565b50806001908161009d919061043d565b505050600073ffffffffffffffffffffffffffffffffffffffff168173ffffffffffffffffffffffffffffffffffffffff16036101125760006040517f1e4fbdf70000000000000000000000000000000000000000000000000000000081526004016101099190610550565b60405180910390fd5b6101218161012760201b60201c565b5061056b565b6000600760009054906101000a900473ffffffffffffffffffffffffffffffffffffffff16905081600760006101000a81548173ffffffffffffffffffffffffffffffffffffffff021916908373ffffffffffffffffffffffffffffffffffffffff1602179055508173ffffffffffffffffffffffffffffffffffffffff168173ffffffffffffffffffffffffffffffffffffffff167f8be0079c531659141344cd1fd0a4f28419497f9722a3daafe3b4186f6b6457e060405160405180910390a35050565b600081519050919050565b7f4e487b7100000000000000000000000000000000000000000000000000000000600052604160045260246000fd5b7f4e487b7100000000000000000000000000000000000000000000000000000000600052602260045260246000fd5b6000600282049050600182168061026e57607f821691505b60208210810361028157610280610227565b5b50919050565b60008190508160005260206000209050919050565b60006020601f8301049050919050565b600082821b905092915050565b6000600883026102e97fffffffffffffffffffffffffffffffffffffffffffffffffffffffffffffffff826102ac565b6102f386836102ac565b95508019841693508086168417925050509392505050565b6000819050919050565b6000819050919050565b600061033a6103356103308461030b565b610315565b61030b565b9050919050565b6000819050919050565b6103548361031f565b61036861036082610341565b8484546102b9565b825550505050565b600090565b61037d610370565b61038881848461034b565b505050565b5b818110156103ac576103a1600082610375565b60018101905061038e565b5050565b601f8211156103f1576103c281610287565b6103cb8461029c565b810160208510156103da578190505b6103ee6103e68561029c565b83018261038d565b50505b505050565b600082821c905092915050565b6000610414600019846008026103f6565b1980831691505092915050565b600061042d8383610403565b9150826002028217905092915050565b610446826101ed565b67ffffffffffffffff81111561045f5761045e6101f8565b5b6104698254610256565b6104748282856103b0565b600060209050601f8311600181146104a75760008415610495578287015190505b61049f8582610421565b865550610507565b601f1984166104b586610287565b60005b828110156104dd578489015182556001820191506020850194506020810190506104b8565b868310156104fa57848901516104f6601f891682610403565b8355505b6001600288020188555050505b505050505050565b600073ffffffffffffffffffffffffffffffffffffffff82169050919050565b600061053a8261050f565b9050919050565b61054a8161052f565b82525050565b60006020820190506105656000830184610541565b92915050565b61404a8061057a6000396000f3fe6080604052600436106101405760003560e01c8063715018a6116100b6578063bc93127a1161006f578063bc93127a1461045f578063c87b56dd14610488578063d2ec271e146104c5578063e985e9c5146104ee578063f2fde38b1461052b578063f68883841461055457610140565b8063715018a6146103755780638da5cb5b1461038c57806395d89b41146103b7578063a22cb465146103e2578063abfe5d571461040b578063b88d4fde1461043657610140565b806323b872dd1161010857806323b872dd1461025057806342842e0e14610279578063472ec454146102a25780636352211e146102df5780636c2310601461031c57806370a082311461033857610140565b806301ffc9a71461014557806306fdde0314610182578063081812fc146101ad578063095ea7b3146101ea5780631e7046b514610213575b600080fd5b34801561015157600080fd5b5061016c60048036038101906101679190612a84565b61057d565b6040516101799190612acc565b60405180910390f35b34801561018e57600080fd5b506101976105de565b6040516101a49190612b77565b60405180910390f35b3480156101b957600080fd5b506101d460048036038101906101cf9190612bcf565b610670565b6040516101e19190612c3d565b60405180910390f35b3480156101f657600080fd5b50610211600480360381019061020c9190612c84565b61068c565b005b34801561021f57600080fd5b5061023a60048036038101906102359190612bcf565b6106a2565b6040516102479190612e49565b60405180910390f35b34801561025c57600080fd5b5061027760048036038101906102729190612e6b565b6108c3565b005b34801561028557600080fd5b506102a0600480360381019061029b9190612e6b565b6109c5565b005b3480156102ae57600080fd5b506102c960048036038101906102c49190612bcf565b6109e5565b6040516102d69190612f42565b60405180910390f35b3480156102eb57600080fd5b5061030660048036038101906103019190612bcf565b610b18565b6040516103139190612c3d565b60405180910390f35b61033660048036038101906103319190612bcf565b610b2a565b005b34801561034457600080fd5b5061035f600480360381019061035a9190612f64565b610d7b565b60405161036c9190612fa0565b60405180910390f35b34801561038157600080fd5b5061038a610e35565b005b34801561039857600080fd5b506103a1610e49565b6040516103ae9190612c3d565b60405180910390f35b3480156103c357600080fd5b506103cc610e73565b6040516103d99190612b77565b60405180910390f35b3480156103ee57600080fd5b5061040960048036038101906104049190612fe7565b610f05565b005b34801561041757600080fd5b50610420610f1b565b60405161042d919061314c565b60405180910390f35b34801561044257600080fd5b5061045d600480360381019061045891906132a3565b6110d1565b005b34801561046b57600080fd5b50610486600480360381019061048191906133c7565b6110f6565b005b34801561049457600080fd5b506104af60048036038101906104aa9190612bcf565b6112f9565b6040516104bc9190612b77565b60405180910390f35b3480156104d157600080fd5b506104ec60048036038101906104e79190613466565b61140c565b005b3480156104fa57600080fd5b5061051560048036038101906105109190613505565b611613565b6040516105229190612acc565b60405180910390f35b34801561053757600080fd5b50610552600480360381019061054d9190612f64565b6116a7565b005b34801561056057600080fd5b5061057b60048036038101906105769190613545565b61172d565b005b6000634906490660e01b7bffffffffffffffffffffffffffffffffffffffffffffffffffffffff1916827bffffffffffffffffffffffffffffffffffffffffffffffffffffffff191614806105d757506105d68261183e565b5b9050919050565b6060600080546105ed906135b4565b80601f0160208091040260200160405190810160405280929190818152602001828054610619906135b4565b80156106665780601f1061063b57610100808354040283529160200191610666565b820191906000526020600020905b81548152906001019060200180831161064957829003601f168201915b5050505050905090565b600061067b82611920565b50610685826119a8565b9050919050565b61069e82826106996119e5565b6119ed565b5050565b6060600073ffffffffffffffffffffffffffffffffffffffff166106c5836119ff565b73ffffffffffffffffffffffffffffffffffffffff160361071b576040517f08c379a000000000000000000000000000000000000000000000000000000000815260040161071290613631565b60405180910390fd5b600b6000838152602001908152602001600020805480602002602001604051908101604052809291908181526020016000905b828210156108b857838290600052602060002090600402016040518060800160405290816000820154815260200160018201805461078b906135b4565b80601f01602080910402602001604051908101604052809291908181526020018280546107b7906135b4565b80156108045780601f106107d957610100808354040283529160200191610804565b820191906000526020600020905b8154815290600101906020018083116107e757829003601f168201915b5050505050815260200160028201805461081d906135b4565b80601f0160208091040260200160405190810160405280929190818152602001828054610849906135b4565b80156108965780601f1061086b57610100808354040283529160200191610896565b820191906000526020600020905b81548152906001019060200180831161087957829003601f168201915b505050505081526020016003820154815250508152602001906001019061074e565b505050509050919050565b600073ffffffffffffffffffffffffffffffffffffffff168273ffffffffffffffffffffffffffffffffffffffff16036109355760006040517f64a0ae9200000000000000000000000000000000000000000000000000000000815260040161092c9190612c3d565b60405180910390fd5b600061094983836109446119e5565b611a3c565b90508373ffffffffffffffffffffffffffffffffffffffff168173ffffffffffffffffffffffffffffffffffffffff16146109bf578382826040517f64283d7b0000000000000000000000000000000000000000000000000000000081526004016109b693929190613651565b60405180910390fd5b50505050565b6109e0838383604051806020016040528060008152506110d1565b505050565b6109ed6129da565b6109f682611920565b506009600083815260200190815260200160002060405180608001604052908160008201548152602001600182018054610a2f906135b4565b80601f0160208091040260200160405190810160405280929190818152602001828054610a5b906135b4565b8015610aa85780601f10610a7d57610100808354040283529160200191610aa8565b820191906000526020600020905b815481529060010190602001808311610a8b57829003601f168201915b50505050508152602001600282015481526020016003820160009054906101000a900473ffffffffffffffffffffffffffffffffffffffff1673ffffffffffffffffffffffffffffffffffffffff1673ffffffffffffffffffffffffffffffffffffffff16815250509050919050565b6000610b2382611920565b9050919050565b600060096000838152602001908152602001600020905060008160030160009054906101000a900473ffffffffffffffffffffffffffffffffffffffff1690506000600960008581526020019081526020016000206002015411610bc3576040517f08c379a0000000000000000000000000000000000000000000000000000000008152600401610bba906136d4565b60405180910390fd5b6009600084815260200190815260200160002060020154341015610c1c576040517f08c379a0000000000000000000000000000000000000000000000000000000008152600401610c1390613740565b60405180910390fd5b3373ffffffffffffffffffffffffffffffffffffffff168173ffffffffffffffffffffffffffffffffffffffff1603610c8a576040517f08c379a0000000000000000000000000000000000000000000000000000000008152600401610c81906137ac565b60405180910390fd5b610c95813385611c56565b8073ffffffffffffffffffffffffffffffffffffffff166108fc349081150290604051600060405180830381858888f19350505050158015610cdb573d6000803e3d6000fd5b50338260030160006101000a81548173ffffffffffffffffffffffffffffffffffffffff021916908373ffffffffffffffffffffffffffffffffffffffff160217905550600060096000858152602001908152602001600020600201819055507f9d90e6b7483b210fb2eb1814d730195955d020389f316a5127d8f07d6fe61c8b833334604051610d6e939291906137cc565b60405180910390a1505050565b60008073ffffffffffffffffffffffffffffffffffffffff168273ffffffffffffffffffffffffffffffffffffffff1603610dee5760006040517f89c62b64000000000000000000000000000000000000000000000000000000008152600401610de59190612c3d565b60405180910390fd5b600360008373ffffffffffffffffffffffffffffffffffffffff1673ffffffffffffffffffffffffffffffffffffffff168152602001908152602001600020549050919050565b610e3d611dc3565b610e476000611e4a565b565b6000600760009054906101000a900473ffffffffffffffffffffffffffffffffffffffff16905090565b606060018054610e82906135b4565b80601f0160208091040260200160405190810160405280929190818152602001828054610eae906135b4565b8015610efb5780601f10610ed057610100808354040283529160200191610efb565b820191906000526020600020905b815481529060010190602001808311610ede57829003601f168201915b5050505050905090565b610f17610f106119e5565b8383611f10565b5050565b6060600060085467ffffffffffffffff811115610f3b57610f3a613178565b5b604051908082528060200260200182016040528015610f7457816020015b610f616129da565b815260200190600190039081610f595790505b50905060005b6008548110156110c9576009600082815260200190815260200160002060405180608001604052908160008201548152602001600182018054610fbc906135b4565b80601f0160208091040260200160405190810160405280929190818152602001828054610fe8906135b4565b80156110355780601f1061100a57610100808354040283529160200191611035565b820191906000526020600020905b81548152906001019060200180831161101857829003601f168201915b50505050508152602001600282015481526020016003820160009054906101000a900473ffffffffffffffffffffffffffffffffffffffff1673ffffffffffffffffffffffffffffffffffffffff1673ffffffffffffffffffffffffffffffffffffffff16815250508282815181106110b1576110b0613803565b5b60200260200101819052508080600101915050610f7a565b508091505090565b6110dc8484846108c3565b6110f06110e76119e5565b8585858561207f565b50505050565b6110fe611dc3565b6000835111611142576040517f08c379a00000000000000000000000000000000000000000000000000000000081526004016111399061387e565b60405180910390fd5b6000600a8460405161115491906138da565b908152602001604051809103902054146111a3576040517f08c379a000000000000000000000000000000000000000000000000000000000815260040161119a9061393d565b60405180910390fd5b600060085490506111b48582612230565b6111be8183612329565b60405180608001604052808281526020018381526020018481526020018673ffffffffffffffffffffffffffffffffffffffff16815250600960008381526020019081526020016000206000820151816000015560208201518160010190816112279190613b09565b506040820151816002015560608201518160030160006101000a81548173ffffffffffffffffffffffffffffffffffffffff021916908373ffffffffffffffffffffffffffffffffffffffff16021790555090505080600a8560405161128d91906138da565b908152602001604051809103902081905550600860008154809291906112b290613c0a565b91905055507fbd3303cf3cb581bf78ef3ac343c3e3d038afb8bc52183ae64109ebd7ee3a873d8186866040516112ea93929190613c52565b60405180910390a15050505050565b606061130482611920565b506000600660008481526020019081526020016000208054611325906135b4565b80601f0160208091040260200160405190810160405280929190818152602001828054611351906135b4565b801561139e5780601f106113735761010080835404028352916020019161139e565b820191906000526020600020905b81548152906001019060200180831161138157829003601f168201915b5050505050905060006113af612385565b905060008151036113c4578192505050611407565b6000825111156113f95780826040516020016113e1929190613c90565b60405160208183030381529060405292505050611407565b6114028461239c565b925050505b919050565b600073ffffffffffffffffffffffffffffffffffffffff1661142d85610b18565b73ffffffffffffffffffffffffffffffffffffffff1603611483576040517f08c379a000000000000000000000000000000000000000000000000000000000815260040161147a90613d00565b60405180910390fd5b3373ffffffffffffffffffffffffffffffffffffffff166114a385610b18565b73ffffffffffffffffffffffffffffffffffffffff1614806114f757506114c8610e49565b73ffffffffffffffffffffffffffffffffffffffff163373ffffffffffffffffffffffffffffffffffffffff16145b611536576040517f08c379a000000000000000000000000000000000000000000000000000000000815260040161152d90613d92565b60405180910390fd5b600b600085815260200190815260200160002060405180608001604052804281526020018581526020018481526020018381525090806001815401808255809150506001900390600052602060002090600402016000909190919091506000820151816000015560208201518160010190816115b29190613b09565b5060408201518160020190816115c89190613b09565b50606082015181600301555050837fe04dd2501fa1ca1a2bf1b8b0f34ecc0fbe8ad77f3680583182c26f44a0f5f244846040516116059190612b77565b60405180910390a250505050565b6000600560008473ffffffffffffffffffffffffffffffffffffffff1673ffffffffffffffffffffffffffffffffffffffff16815260200190815260200160002060008373ffffffffffffffffffffffffffffffffffffffff1673ffffffffffffffffffffffffffffffffffffffff16815260200190815260200160002060009054906101000a900460ff16905092915050565b6116af611dc3565b600073ffffffffffffffffffffffffffffffffffffffff168173ffffffffffffffffffffffffffffffffffffffff16036117215760006040517f1e4fbdf70000000000000000000000000000000000000000000000000000000081526004016117189190612c3d565b60405180910390fd5b61172a81611e4a565b50565b3373ffffffffffffffffffffffffffffffffffffffff1661174d83610b18565b73ffffffffffffffffffffffffffffffffffffffff16146117a3576040517f08c379a000000000000000000000000000000000000000000000000000000000815260040161179a90613e24565b60405180910390fd5b600081116117e6576040517f08c379a00000000000000000000000000000000000000000000000000000000081526004016117dd90613e90565b60405180910390fd5b8060096000848152602001908152602001600020600201819055507fd7eb5635a91daa6c8336a751c696002c8243f97bad99a81269931e46395247098282604051611832929190613eb0565b60405180910390a15050565b60007f80ac58cd000000000000000000000000000000000000000000000000000000007bffffffffffffffffffffffffffffffffffffffffffffffffffffffff1916827bffffffffffffffffffffffffffffffffffffffffffffffffffffffff1916148061190957507f5b5e139f000000000000000000000000000000000000000000000000000000007bffffffffffffffffffffffffffffffffffffffffffffffffffffffff1916827bffffffffffffffffffffffffffffffffffffffffffffffffffffffff1916145b80611919575061191882612405565b5b9050919050565b60008061192c836119ff565b9050600073ffffffffffffffffffffffffffffffffffffffff168173ffffffffffffffffffffffffffffffffffffffff160361199f57826040517f7e2732890000000000000000000000000000000000000000000000000000000081526004016119969190612fa0565b60405180910390fd5b80915050919050565b60006004600083815260200190815260200160002060009054906101000a900473ffffffffffffffffffffffffffffffffffffffff169050919050565b600033905090565b6119fa838383600161246f565b505050565b60006002600083815260200190815260200160002060009054906101000a900473ffffffffffffffffffffffffffffffffffffffff169050919050565b600080611a48846119ff565b9050600073ffffffffffffffffffffffffffffffffffffffff168373ffffffffffffffffffffffffffffffffffffffff1614611a8a57611a89818486612634565b5b600073ffffffffffffffffffffffffffffffffffffffff168173ffffffffffffffffffffffffffffffffffffffff1614611b1b57611acc60008560008061246f565b6001600360008373ffffffffffffffffffffffffffffffffffffffff1673ffffffffffffffffffffffffffffffffffffffff168152602001908152602001600020600082825403925050819055505b600073ffffffffffffffffffffffffffffffffffffffff168573ffffffffffffffffffffffffffffffffffffffff1614611b9e576001600360008773ffffffffffffffffffffffffffffffffffffffff1673ffffffffffffffffffffffffffffffffffffffff168152602001908152602001600020600082825401925050819055505b846002600086815260200190815260200160002060006101000a81548173ffffffffffffffffffffffffffffffffffffffff021916908373ffffffffffffffffffffffffffffffffffffffff160217905550838573ffffffffffffffffffffffffffffffffffffffff168273ffffffffffffffffffffffffffffffffffffffff167fddf252ad1be2c89b69c2b068fc378daa952ba7f163c4a11628f55a4df523b3ef60405160405180910390a4809150509392505050565b600073ffffffffffffffffffffffffffffffffffffffff168273ffffffffffffffffffffffffffffffffffffffff1603611cc85760006040517f64a0ae92000000000000000000000000000000000000000000000000000000008152600401611cbf9190612c3d565b60405180910390fd5b6000611cd683836000611a3c565b9050600073ffffffffffffffffffffffffffffffffffffffff168173ffffffffffffffffffffffffffffffffffffffff1603611d4957816040517f7e273289000000000000000000000000000000000000000000000000000000008152600401611d409190612fa0565b60405180910390fd5b8373ffffffffffffffffffffffffffffffffffffffff168173ffffffffffffffffffffffffffffffffffffffff1614611dbd578382826040517f64283d7b000000000000000000000000000000000000000000000000000000008152600401611db493929190613651565b60405180910390fd5b50505050565b611dcb6119e5565b73ffffffffffffffffffffffffffffffffffffffff16611de9610e49565b73ffffffffffffffffffffffffffffffffffffffff1614611e4857611e0c6119e5565b6040517f118cdaa7000000000000000000000000000000000000000000000000000000008152600401611e3f9190612c3d565b60405180910390fd5b565b6000600760009054906101000a900473ffffffffffffffffffffffffffffffffffffffff16905081600760006101000a81548173ffffffffffffffffffffffffffffffffffffffff021916908373ffffffffffffffffffffffffffffffffffffffff1602179055508173ffffffffffffffffffffffffffffffffffffffff168173ffffffffffffffffffffffffffffffffffffffff167f8be0079c531659141344cd1fd0a4f28419497f9722a3daafe3b4186f6b6457e060405160405180910390a35050565b600073ffffffffffffffffffffffffffffffffffffffff168273ffffffffffffffffffffffffffffffffffffffff1603611f8157816040517f5b08ba18000000000000000000000000000000000000000000000000000000008152600401611f789190612c3d565b60405180910390fd5b80600560008573ffffffffffffffffffffffffffffffffffffffff1673ffffffffffffffffffffffffffffffffffffffff16815260200190815260200160002060008473ffffffffffffffffffffffffffffffffffffffff1673ffffffffffffffffffffffffffffffffffffffff16815260200190815260200160002060006101000a81548160ff0219169083151502179055508173ffffffffffffffffffffffffffffffffffffffff168373ffffffffffffffffffffffffffffffffffffffff167f17307eab39ab6107e8899845ad3d59bd9653f200f220920489ca2b5937696c31836040516120729190612acc565b60405180910390a3505050565b60008373ffffffffffffffffffffffffffffffffffffffff163b1115612229578273ffffffffffffffffffffffffffffffffffffffff1663150b7a02868685856040518563ffffffff1660e01b81526004016120de9493929190613f2e565b6020604051808303816000875af192505050801561211a57506040513d601f19601f820116820180604052508101906121179190613f8f565b60015b61219e573d806000811461214a576040519150601f19603f3d011682016040523d82523d6000602084013e61214f565b606091505b50600081510361219657836040517f64a0ae9200000000000000000000000000000000000000000000000000000000815260040161218d9190612c3d565b60405180910390fd5b805181602001fd5b63150b7a0260e01b7bffffffffffffffffffffffffffffffffffffffffffffffffffffffff1916817bffffffffffffffffffffffffffffffffffffffffffffffffffffffff19161461222757836040517f64a0ae9200000000000000000000000000000000000000000000000000000000815260040161221e9190612c3d565b60405180910390fd5b505b5050505050565b600073ffffffffffffffffffffffffffffffffffffffff168273ffffffffffffffffffffffffffffffffffffffff16036122a25760006040517f64a0ae920000000000000000000000000000000000000000000000000000000081526004016122999190612c3d565b60405180910390fd5b60006122b083836000611a3c565b9050600073ffffffffffffffffffffffffffffffffffffffff168173ffffffffffffffffffffffffffffffffffffffff16146123245760006040517f73c6ac6e00000000000000000000000000000000000000000000000000000000815260040161231b9190612c3d565b60405180910390fd5b505050565b806006600084815260200190815260200160002090816123499190613b09565b507ff8e1a15aba9398e019f0b49df1a4fde98ee17ae345cb5f6b5e2c27f5033e8ce7826040516123799190612fa0565b60405180910390a15050565b606060405180602001604052806000815250905090565b60606123a782611920565b5060006123b2612385565b905060008151116123d257604051806020016040528060008152506123fd565b806123dc846126f8565b6040516020016123ed929190613c90565b6040516020818303038152906040525b915050919050565b60007f01ffc9a7000000000000000000000000000000000000000000000000000000007bffffffffffffffffffffffffffffffffffffffffffffffffffffffff1916827bffffffffffffffffffffffffffffffffffffffffffffffffffffffff1916149050919050565b80806124a85750600073ffffffffffffffffffffffffffffffffffffffff168273ffffffffffffffffffffffffffffffffffffffff1614155b156125dc5760006124b884611920565b9050600073ffffffffffffffffffffffffffffffffffffffff168373ffffffffffffffffffffffffffffffffffffffff161415801561252357508273ffffffffffffffffffffffffffffffffffffffff168173ffffffffffffffffffffffffffffffffffffffff1614155b801561253657506125348184611613565b155b1561257857826040517fa9fbf51f00000000000000000000000000000000000000000000000000000000815260040161256f9190612c3d565b60405180910390fd5b81156125da57838573ffffffffffffffffffffffffffffffffffffffff168273ffffffffffffffffffffffffffffffffffffffff167f8c5be1e5ebec7d5bd14f71427d1e84f3dd0314c0f7b2291e5b200ac8c7c3b92560405160405180910390a45b505b836004600085815260200190815260200160002060006101000a81548173ffffffffffffffffffffffffffffffffffffffff021916908373ffffffffffffffffffffffffffffffffffffffff16021790555050505050565b61263f8383836127c6565b6126f357600073ffffffffffffffffffffffffffffffffffffffff168373ffffffffffffffffffffffffffffffffffffffff16036126b457806040517f7e2732890000000000000000000000000000000000000000000000000000000081526004016126ab9190612fa0565b60405180910390fd5b81816040517f177e802f0000000000000000000000000000000000000000000000000000000081526004016126ea929190613fbc565b60405180910390fd5b505050565b60606000600161270784612887565b01905060008167ffffffffffffffff81111561272657612725613178565b5b6040519080825280601f01601f1916602001820160405280156127585781602001600182028036833780820191505090505b509050600082602001820190505b6001156127bb578080600190039150507f3031323334353637383961626364656600000000000000000000000000000000600a86061a8153600a85816127af576127ae613fe5565b5b04945060008503612766575b819350505050919050565b60008073ffffffffffffffffffffffffffffffffffffffff168373ffffffffffffffffffffffffffffffffffffffff161415801561287e57508273ffffffffffffffffffffffffffffffffffffffff168473ffffffffffffffffffffffffffffffffffffffff16148061283f575061283e8484611613565b5b8061287d57508273ffffffffffffffffffffffffffffffffffffffff16612865836119a8565b73ffffffffffffffffffffffffffffffffffffffff16145b5b90509392505050565b600080600090507a184f03e93ff9f4daa797ed6e38ed64bf6a1f01000000000000000083106128e5577a184f03e93ff9f4daa797ed6e38ed64bf6a1f01000000000000000083816128db576128da613fe5565b5b0492506040810190505b6d04ee2d6d415b85acef81000000008310612922576d04ee2d6d415b85acef8100000000838161291857612917613fe5565b5b0492506020810190505b662386f26fc10000831061295157662386f26fc10000838161294757612946613fe5565b5b0492506010810190505b6305f5e100831061297a576305f5e10083816129705761296f613fe5565b5b0492506008810190505b612710831061299f57612710838161299557612994613fe5565b5b0492506004810190505b606483106129c257606483816129b8576129b7613fe5565b5b0492506002810190505b600a83106129d1576001810190505b80915050919050565b6040518060800160405280600081526020016060815260200160008152602001600073ffffffffffffffffffffffffffffffffffffffff1681525090565b6000604051905090565b600080fd5b600080fd5b60007fffffffff0000000000000000000000000000000000000000000000000000000082169050919050565b612a6181612a2c565b8114612a6c57600080fd5b50565b600081359050612a7e81612a58565b92915050565b600060208284031215612a9a57612a99612a22565b5b6000612aa884828501612a6f565b91505092915050565b60008115159050919050565b612ac681612ab1565b82525050565b6000602082019050612ae16000830184612abd565b92915050565b600081519050919050565b600082825260208201905092915050565b60005b83811015612b21578082015181840152602081019050612b06565b60008484015250505050565b6000601f19601f8301169050919050565b6000612b4982612ae7565b612b538185612af2565b9350612b63818560208601612b03565b612b6c81612b2d565b840191505092915050565b60006020820190508181036000830152612b918184612b3e565b905092915050565b6000819050919050565b612bac81612b99565b8114612bb757600080fd5b50565b600081359050612bc981612ba3565b92915050565b600060208284031215612be557612be4612a22565b5b6000612bf384828501612bba565b91505092915050565b600073ffffffffffffffffffffffffffffffffffffffff82169050919050565b6000612c2782612bfc565b9050919050565b612c3781612c1c565b82525050565b6000602082019050612c526000830184612c2e565b92915050565b612c6181612c1c565b8114612c6c57600080fd5b50565b600081359050612c7e81612c58565b92915050565b60008060408385031215612c9b57612c9a612a22565b5b6000612ca985828601612c6f565b9250506020612cba85828601612bba565b9150509250929050565b600081519050919050565b600082825260208201905092915050565b6000819050602082019050919050565b612cf981612b99565b82525050565b600082825260208201905092915050565b6000612d1b82612ae7565b612d258185612cff565b9350612d35818560208601612b03565b612d3e81612b2d565b840191505092915050565b6000608083016000830151612d616000860182612cf0565b5060208301518482036020860152612d798282612d10565b91505060408301518482036040860152612d938282612d10565b9150506060830151612da86060860182612cf0565b508091505092915050565b6000612dbf8383612d49565b905092915050565b6000602082019050919050565b6000612ddf82612cc4565b612de98185612ccf565b935083602082028501612dfb85612ce0565b8060005b85811015612e375784840389528151612e188582612db3565b9450612e2383612dc7565b925060208a01995050600181019050612dff565b50829750879550505050505092915050565b60006020820190508181036000830152612e638184612dd4565b905092915050565b600080600060608486031215612e8457612e83612a22565b5b6000612e9286828701612c6f565b9350506020612ea386828701612c6f565b9250506040612eb486828701612bba565b9150509250925092565b6000612ec982612bfc565b9050919050565b612ed981612ebe565b82525050565b6000608083016000830151612ef76000860182612cf0565b5060208301518482036020860152612f0f8282612d10565b9150506040830151612f246040860182612cf0565b506060830151612f376060860182612ed0565b508091505092915050565b60006020820190508181036000830152612f5c8184612edf565b905092915050565b600060208284031215612f7a57612f79612a22565b5b6000612f8884828501612c6f565b91505092915050565b612f9a81612b99565b82525050565b6000602082019050612fb56000830184612f91565b92915050565b612fc481612ab1565b8114612fcf57600080fd5b50565b600081359050612fe181612fbb565b92915050565b60008060408385031215612ffe57612ffd612a22565b5b600061300c85828601612c6f565b925050602061301d85828601612fd2565b9150509250929050565b600081519050919050565b600082825260208201905092915050565b6000819050602082019050919050565b600060808301600083015161306b6000860182612cf0565b50602083015184820360208601526130838282612d10565b91505060408301516130986040860182612cf0565b5060608301516130ab6060860182612ed0565b508091505092915050565b60006130c28383613053565b905092915050565b6000602082019050919050565b60006130e282613027565b6130ec8185613032565b9350836020820285016130fe85613043565b8060005b8581101561313a578484038952815161311b85826130b6565b9450613126836130ca565b925060208a01995050600181019050613102565b50829750879550505050505092915050565b6000602082019050818103600083015261316681846130d7565b905092915050565b600080fd5b600080fd5b7f4e487b7100000000000000000000000000000000000000000000000000000000600052604160045260246000fd5b6131b082612b2d565b810181811067ffffffffffffffff821117156131cf576131ce613178565b5b80604052505050565b60006131e2612a18565b90506131ee82826131a7565b919050565b600067ffffffffffffffff82111561320e5761320d613178565b5b61321782612b2d565b9050602081019050919050565b82818337600083830152505050565b6000613246613241846131f3565b6131d8565b90508281526020810184848401111561326257613261613173565b5b61326d848285613224565b509392505050565b600082601f83011261328a5761328961316e565b5b813561329a848260208601613233565b91505092915050565b600080600080608085870312156132bd576132bc612a22565b5b60006132cb87828801612c6f565b94505060206132dc87828801612c6f565b93505060406132ed87828801612bba565b925050606085013567ffffffffffffffff81111561330e5761330d612a27565b5b61331a87828801613275565b91505092959194509250565b600067ffffffffffffffff82111561334157613340613178565b5b61334a82612b2d565b9050602081019050919050565b600061336a61336584613326565b6131d8565b90508281526020810184848401111561338657613385613173565b5b613391848285613224565b509392505050565b600082601f8301126133ae576133ad61316e565b5b81356133be848260208601613357565b91505092915050565b600080600080608085870312156133e1576133e0612a22565b5b60006133ef87828801612c6f565b945050602085013567ffffffffffffffff8111156134105761340f612a27565b5b61341c87828801613399565b935050604061342d87828801612bba565b925050606085013567ffffffffffffffff81111561344e5761344d612a27565b5b61345a87828801613399565b91505092959194509250565b600080600080608085870312156134805761347f612a22565b5b600061348e87828801612bba565b945050602085013567ffffffffffffffff8111156134af576134ae612a27565b5b6134bb87828801613399565b935050604085013567ffffffffffffffff8111156134dc576134db612a27565b5b6134e887828801613399565b92505060606134f987828801612bba565b91505092959194509250565b6000806040838503121561351c5761351b612a22565b5b600061352a85828601612c6f565b925050602061353b85828601612c6f565b9150509250929050565b6000806040838503121561355c5761355b612a22565b5b600061356a85828601612bba565b925050602061357b85828601612bba565b9150509250929050565b7f4e487b7100000000000000000000000000000000000000000000000000000000600052602260045260246000fd5b600060028204905060018216806135cc57607f821691505b6020821081036135df576135de613585565b5b50919050565b7f43617220646f6573206e6f742065786973740000000000000000000000000000600082015250565b600061361b601283612af2565b9150613626826135e5565b602082019050919050565b6000602082019050818103600083015261364a8161360e565b9050919050565b60006060820190506136666000830186612c2e565b6136736020830185612f91565b6136806040830184612c2e565b949350505050565b7f436172206973206e6f7420666f722073616c6500000000000000000000000000600082015250565b60006136be601383612af2565b91506136c982613688565b602082019050919050565b600060208201905081810360008301526136ed816136b1565b9050919050565b7f496e73756666696369656e74204554482073656e742e00000000000000000000600082015250565b600061372a601683612af2565b9150613735826136f4565b602082019050919050565b600060208201905081810360008301526137598161371d565b9050919050565b7f596f752063616e6e6f742062757920796f7572206f776e206361722e00000000600082015250565b6000613796601c83612af2565b91506137a182613760565b602082019050919050565b600060208201905081810360008301526137c581613789565b9050919050565b60006060820190506137e16000830186612f91565b6137ee6020830185612c2e565b6137fb6040830184612f91565b949350505050565b7f4e487b7100000000000000000000000000000000000000000000000000000000600052603260045260246000fd5b7f56494e206d7573742062652070726f7669646564000000000000000000000000600082015250565b6000613868601483612af2565b915061387382613832565b602082019050919050565b600060208201905081810360008301526138978161385b565b9050919050565b600081905092915050565b60006138b482612ae7565b6138be818561389e565b93506138ce818560208601612b03565b80840191505092915050565b60006138e682846138a9565b915081905092915050565b7f56494e20616c7265616479207573656400000000000000000000000000000000600082015250565b6000613927601083612af2565b9150613932826138f1565b602082019050919050565b600060208201905081810360008301526139568161391a565b9050919050565b60008190508160005260206000209050919050565b60006020601f8301049050919050565b600082821b905092915050565b6000600883026139bf7fffffffffffffffffffffffffffffffffffffffffffffffffffffffffffffffff82613982565b6139c98683613982565b95508019841693508086168417925050509392505050565b6000819050919050565b6000613a06613a016139fc84612b99565b6139e1565b612b99565b9050919050565b6000819050919050565b613a20836139eb565b613a34613a2c82613a0d565b84845461398f565b825550505050565b600090565b613a49613a3c565b613a54818484613a17565b505050565b5b81811015613a7857613a6d600082613a41565b600181019050613a5a565b5050565b601f821115613abd57613a8e8161395d565b613a9784613972565b81016020851015613aa6578190505b613aba613ab285613972565b830182613a59565b50505b505050565b600082821c905092915050565b6000613ae060001984600802613ac2565b1980831691505092915050565b6000613af98383613acf565b9150826002028217905092915050565b613b1282612ae7565b67ffffffffffffffff811115613b2b57613b2a613178565b5b613b3582546135b4565b613b40828285613a7c565b600060209050601f831160018114613b735760008415613b61578287015190505b613b6b8582613aed565b865550613bd3565b601f198416613b818661395d565b60005b82811015613ba957848901518255600182019150602085019450602081019050613b84565b86831015613bc65784890151613bc2601f891682613acf565b8355505b6001600288020188555050505b505050505050565b7f4e487b7100000000000000000000000000000000000000000000000000000000600052601160045260246000fd5b6000613c1582612b99565b91507fffffffffffffffffffffffffffffffffffffffffffffffffffffffffffffffff8203613c4757613c46613bdb565b5b600182019050919050565b6000606082019050613c676000830186612f91565b613c746020830185612c2e565b8181036040830152613c868184612b3e565b9050949350505050565b6000613c9c82856138a9565b9150613ca882846138a9565b91508190509392505050565b7f546f6b656e20646f6573206e6f74206578697374000000000000000000000000600082015250565b6000613cea601483612af2565b9150613cf582613cb4565b602082019050919050565b60006020820190508181036000830152613d1981613cdd565b9050919050565b7f4f6e6c7920636172206f776e6572206f7220636f6e7472616374206f776e657260008201527f2063616e206164642073657276696365207265636f7264000000000000000000602082015250565b6000613d7c603783612af2565b9150613d8782613d20565b604082019050919050565b60006020820190508181036000830152613dab81613d6f565b9050919050565b7f4f6e6c7920746865206f776e6572206f66207468652076656869636c6520636160008201527f6e206c69737420697420666f722073616c652e00000000000000000000000000602082015250565b6000613e0e603383612af2565b9150613e1982613db2565b604082019050919050565b60006020820190508181036000830152613e3d81613e01565b9050919050565b7f5072696365206d7573742062652067726561746572207468616e207a65726f2e600082015250565b6000613e7a602083612af2565b9150613e8582613e44565b602082019050919050565b60006020820190508181036000830152613ea981613e6d565b9050919050565b6000604082019050613ec56000830185612f91565b613ed26020830184612f91565b9392505050565b600081519050919050565b600082825260208201905092915050565b6000613f0082613ed9565b613f0a8185613ee4565b9350613f1a818560208601612b03565b613f2381612b2d565b840191505092915050565b6000608082019050613f436000830187612c2e565b613f506020830186612c2e565b613f5d6040830185612f91565b8181036060830152613f6f8184613ef5565b905095945050505050565b600081519050613f8981612a58565b92915050565b600060208284031215613fa557613fa4612a22565b5b6000613fb384828501613f7a565b91505092915050565b6000604082019050613fd16000830185612c2e565b613fde6020830184612f91565b9392505050565b7f4e487b7100000000000000000000000000000000000000000000000000000000600052601260045260246000fdfea2646970667358221220951bf001b4c58114e32f4ed68bf87fa60a420ae8a8a9cea1d1950a392870406464736f6c634300081c0033",
  "linkReferences": {},
  "deployedLinkReferences": {}
}