{
  "_format": "hh-sol-artifact-1",
  "contractName": "CarMarketplace",
  "sourceName": "contracts/CarMarketplace.sol",
  "abi": [
    {
      "inputs": [],
      "stateMutability": "nonpayable",
      "type": "constructor"
    },
    {
      "inputs": [
        {
          "internalType": "address",
          "name": "sender",
          "type": "address"
        },
        {
          "internalType": "uint256",
          "name": "tokenId",
          "type": "uint256"
        },
        {
          "internalType": "address",
          "name": "owner",
          "type": "address"
        }
      ],
      "name": "ERC721IncorrectOwner",
      "type": "error"
    },
    {
      "inputs": [
        {
          "internalType": "address",
          "name": "operator",
          "type": "address"
        },
        {
          "internalType": "uint256",
          "name": "tokenId",
          "type": "uint256"
        }
      ],
      "name": "ERC721InsufficientApproval",
      "type": "error"
    },
    {
      "inputs": [
        {
          "internalType": "address",
          "name": "approver",
          "type": "address"
        }
      ],
      "name": "ERC721InvalidApprover",
      "type": "error"
    },
    {
      "inputs": [
        {
          "internalType": "address",
          "name": "operator",
          "type": "address"
        }
      ],
      "name": "ERC721InvalidOperator",
      "type": "error"
    },
    {
      "inputs": [
        {
          "internalType": "address",
          "name": "owner",
          "type": "address"
        }
      ],
      "name": "ERC721InvalidOwner",
      "type": "error"
    },
    {
      "inputs": [
        {
          "internalType": "address",
          "name": "receiver",
          "type": "address"
        }
      ],
      "name": "ERC721InvalidReceiver",
      "type": "error"
    },
    {
      "inputs": [
        {
          "internalType": "address",
          "name": "sender",
          "type": "address"
        }
      ],
      "name": "ERC721InvalidSender",
      "type": "error"
    },
    {
      "inputs": [
        {
          "internalType": "uint256",
          "name": "tokenId",
          "type": "uint256"
        }
      ],
      "name": "ERC721NonexistentToken",
      "type": "error"
    },
    {
      "inputs": [
        {
          "internalType": "address",
          "name": "owner",
          "type": "address"
        }
      ],
      "name": "OwnableInvalidOwner",
      "type": "error"
    },
    {
      "inputs": [
        {
          "internalType": "address",
          "name": "account",
          "type": "address"
        }
      ],
      "name": "OwnableUnauthorizedAccount",
      "type": "error"
    },
    {
      "anonymous": false,
      "inputs": [
        {
          "indexed": true,
          "internalType": "address",
          "name": "owner",
          "type": "address"
        },
        {
          "indexed": true,
          "internalType": "address",
          "name": "approved",
          "type": "address"
        },
        {
          "indexed": true,
          "internalType": "uint256",
          "name": "tokenId",
          "type": "uint256"
        }
      ],
      "name": "Approval",
      "type": "event"
    },
    {
      "anonymous": false,
      "inputs": [
        {
          "indexed": true,
          "internalType": "address",
          "name": "owner",
          "type": "address"
        },
        {
          "indexed": true,
          "internalType": "address",
          "name": "operator",
          "type": "address"
        },
        {
          "indexed": false,
          "internalType": "bool",
          "name": "approved",
          "type": "bool"
        }
      ],
      "name": "ApprovalForAll",
      "type": "event"
    },
    {
      "anonymous": false,
      "inputs": [
        {
          "indexed": false,
          "internalType": "uint256",
          "name": "_fromTokenId",
          "type": "uint256"
        },
        {
          "indexed": false,
          "internalType": "uint256",
          "name": "_toTokenId",
          "type": "uint256"
        }
      ],
      "name": "BatchMetadataUpdate",
      "type": "event"
    },
    {
      "anonymous": false,
      "inputs": [
        {
          "indexed": false,
          "internalType": "uint256",
          "name": "tokenId",
          "type": "uint256"
        },
        {
          "indexed": false,
          "internalType": "uint256",
          "name": "price",
          "type": "uint256"
        }
      ],
      "name": "CarListedForSale",
      "type": "event"
    },
    {
      "anonymous": false,
      "inputs": [
        {
          "indexed": false,
          "internalType": "uint256",
          "name": "tokenId",
          "type": "uint256"
        },
        {
          "indexed": false,
          "internalType": "address",
          "name": "owner",
          "type": "address"
        },
        {
          "indexed": false,
          "internalType": "string",
          "name": "vin",
          "type": "string"
        }
      ],
      "name": "CarMinted",
      "type": "event"
    },
    {
      "anonymous": false,
      "inputs": [
        {
          "indexed": false,
          "internalType": "uint256",
          "name": "tokenId",
          "type": "uint256"
        },
        {
          "indexed": false,
          "internalType": "address",
          "name": "newOwner",
          "type": "address"
        },
        {
          "indexed": false,
          "internalType": "uint256",
          "name": "price",
          "type": "uint256"
        }
      ],
      "name": "CarSold",
      "type": "event"
    },
    {
      "anonymous": false,
      "inputs": [
        {
          "indexed": false,
          "internalType": "uint256",
          "name": "_tokenId",
          "type": "uint256"
        }
      ],
      "name": "MetadataUpdate",
      "type": "event"
    },
    {
      "anonymous": false,
      "inputs": [
        {
          "indexed": true,
          "internalType": "address",
          "name": "previousOwner",
          "type": "address"
        },
        {
          "indexed": true,
          "internalType": "address",
          "name": "newOwner",
          "type": "address"
        }
      ],
      "name": "OwnershipTransferred",
      "type": "event"
    },
    {
      "anonymous": false,
      "inputs": [
        {
          "indexed": true,
          "internalType": "address",
          "name": "from",
          "type": "address"
        },
        {
          "indexed": true,
          "internalType": "address",
          "name": "to",
          "type": "address"
        },
        {
          "indexed": true,
          "internalType": "uint256",
          "name": "tokenId",
          "type": "uint256"
        }
      ],
      "name": "Transfer",
      "type": "event"
    },
    {
      "inputs": [
        {
          "internalType": "address",
          "name": "to",
          "type": "address"
        },
        {
          "internalType": "uint256",
          "name": "tokenId",
          "type": "uint256"
        }
      ],
      "name": "approve",
      "outputs": [],
      "stateMutability": "nonpayable",
      "type": "function"
    },
    {
      "inputs": [
        {
          "internalType": "address",
          "name": "owner",
          "type": "address"
        }
      ],
      "name": "balanceOf",
      "outputs": [
        {
          "internalType": "uint256",
          "name": "",
          "type": "uint256"
        }
      ],
      "stateMutability": "view",
      "type": "function"
    },
    {
      "inputs": [
        {
          "internalType": "uint256",
          "name": "tokenId",
          "type": "uint256"
        }
      ],
      "name": "buyCar",
      "outputs": [],
      "stateMutability": "payable",
      "type": "function"
    },
    {
      "inputs": [
        {
          "internalType": "uint256",
          "name": "tokenId",
          "type": "uint256"
        }
      ],
      "name": "getApproved",
      "outputs": [
        {
          "internalType": "address",
          "name": "",
          "type": "address"
        }
      ],
      "stateMutability": "view",
      "type": "function"
    },
    {
      "inputs": [
        {
          "internalType": "uint256",
          "name": "tokenId",
          "type": "uint256"
        }
      ],
      "name": "getCarDetails",
      "outputs": [
        {
          "components": [
            {
              "internalType": "string",
              "name": "make",
              "type": "string"
            },
            {
              "internalType": "string",
              "name": "model",
              "type": "string"
            },
            {
              "internalType": "uint256",
              "name": "year",
              "type": "uint256"
            },
            {
              "internalType": "string",
              "name": "vin",
              "type": "string"
            },
            {
              "internalType": "uint256",
              "name": "mileage",
              "type": "uint256"
            },
            {
              "internalType": "bool",
              "name": "forSale",
              "type": "bool"
            },
            {
              "internalType": "uint256",
              "name": "price",
              "type": "uint256"
            }
          ],
          "internalType": "struct CarMarketplace.Car",
          "name": "",
          "type": "tuple"
        }
      ],
      "stateMutability": "view",
      "type": "function"
    },
    {
      "inputs": [
        {
          "internalType": "address",
          "name": "owner",
          "type": "address"
        },
        {
          "internalType": "address",
          "name": "operator",
          "type": "address"
        }
      ],
      "name": "isApprovedForAll",
      "outputs": [
        {
          "internalType": "bool",
          "name": "",
          "type": "bool"
        }
      ],
      "stateMutability": "view",
      "type": "function"
    },
    {
      "inputs": [
        {
          "internalType": "uint256",
          "name": "tokenId",
          "type": "uint256"
        },
        {
          "internalType": "uint256",
          "name": "price",
          "type": "uint256"
        }
      ],
      "name": "listCarForSale",
      "outputs": [],
      "stateMutability": "nonpayable",
      "type": "function"
    },
    {
      "inputs": [
        {
          "internalType": "address",
          "name": "to",
          "type": "address"
        },
        {
          "internalType": "string",
          "name": "make",
          "type": "string"
        },
        {
          "internalType": "string",
          "name": "model",
          "type": "string"
        },
        {
          "internalType": "uint256",
          "name": "year",
          "type": "uint256"
        },
        {
          "internalType": "string",
          "name": "vin",
          "type": "string"
        },
        {
          "internalType": "uint256",
          "name": "mileage",
          "type": "uint256"
        },
        {
          "internalType": "string",
          "name": "tokenURI",
          "type": "string"
        }
      ],
      "name": "mintCar",
      "outputs": [],
      "stateMutability": "nonpayable",
      "type": "function"
    },
    {
      "inputs": [],
      "name": "name",
      "outputs": [
        {
          "internalType": "string",
          "name": "",
          "type": "string"
        }
      ],
      "stateMutability": "view",
      "type": "function"
    },
    {
      "inputs": [],
      "name": "owner",
      "outputs": [
        {
          "internalType": "address",
          "name": "",
          "type": "address"
        }
      ],
      "stateMutability": "view",
      "type": "function"
    },
    {
      "inputs": [
        {
          "internalType": "uint256",
          "name": "tokenId",
          "type": "uint256"
        }
      ],
      "name": "ownerOf",
      "outputs": [
        {
          "internalType": "address",
          "name": "",
          "type": "address"
        }
      ],
      "stateMutability": "view",
      "type": "function"
    },
    {
      "inputs": [],
      "name": "renounceOwnership",
      "outputs": [],
      "stateMutability": "nonpayable",
      "type": "function"
    },
    {
      "inputs": [
        {
          "internalType": "address",
          "name": "from",
          "type": "address"
        },
        {
          "internalType": "address",
          "name": "to",
          "type": "address"
        },
        {
          "internalType": "uint256",
          "name": "tokenId",
          "type": "uint256"
        }
      ],
      "name": "safeTransferFrom",
      "outputs": [],
      "stateMutability": "nonpayable",
      "type": "function"
    },
    {
      "inputs": [
        {
          "internalType": "address",
          "name": "from",
          "type": "address"
        },
        {
          "internalType": "address",
          "name": "to",
          "type": "address"
        },
        {
          "internalType": "uint256",
          "name": "tokenId",
          "type": "uint256"
        },
        {
          "internalType": "bytes",
          "name": "data",
          "type": "bytes"
        }
      ],
      "name": "safeTransferFrom",
      "outputs": [],
      "stateMutability": "nonpayable",
      "type": "function"
    },
    {
      "inputs": [
        {
          "internalType": "address",
          "name": "operator",
          "type": "address"
        },
        {
          "internalType": "bool",
          "name": "approved",
          "type": "bool"
        }
      ],
      "name": "setApprovalForAll",
      "outputs": [],
      "stateMutability": "nonpayable",
      "type": "function"
    },
    {
      "inputs": [
        {
          "internalType": "bytes4",
          "name": "interfaceId",
          "type": "bytes4"
        }
      ],
      "name": "supportsInterface",
      "outputs": [
        {
          "internalType": "bool",
          "name": "",
          "type": "bool"
        }
      ],
      "stateMutability": "view",
      "type": "function"
    },
    {
      "inputs": [],
      "name": "symbol",
      "outputs": [
        {
          "internalType": "string",
          "name": "",
          "type": "string"
        }
      ],
      "stateMutability": "view",
      "type": "function"
    },
    {
      "inputs": [
        {
          "internalType": "uint256",
          "name": "tokenId",
          "type": "uint256"
        }
      ],
      "name": "tokenURI",
      "outputs": [
        {
          "internalType": "string",
          "name": "",
          "type": "string"
        }
      ],
      "stateMutability": "view",
      "type": "function"
    },
    {
      "inputs": [
        {
          "internalType": "address",
          "name": "from",
          "type": "address"
        },
        {
          "internalType": "address",
          "name": "to",
          "type": "address"
        },
        {
          "internalType": "uint256",
          "name": "tokenId",
          "type": "uint256"
        }
      ],
      "name": "transferFrom",
      "outputs": [],
      "stateMutability": "nonpayable",
      "type": "function"
    },
    {
      "inputs": [
        {
          "internalType": "address",
          "name": "newOwner",
          "type": "address"
        }
      ],
      "name": "transferOwnership",
      "outputs": [],
      "stateMutability": "nonpayable",
      "type": "function"
    }
  ],
  "bytecode": "0x608060405234801561001057600080fd5b50336040518060400160405280600781526020017f4175746f446578000000000000000000000000000000000000000000000000008152506040518060400160405280600381526020017f4144580000000000000000000000000000000000000000000000000000000000815250816000908161008d919061043d565b50806001908161009d919061043d565b505050600073ffffffffffffffffffffffffffffffffffffffff168173ffffffffffffffffffffffffffffffffffffffff16036101125760006040517f1e4fbdf70000000000000000000000000000000000000000000000000000000081526004016101099190610550565b60405180910390fd5b6101218161012760201b60201c565b5061056b565b6000600760009054906101000a900473ffffffffffffffffffffffffffffffffffffffff16905081600760006101000a81548173ffffffffffffffffffffffffffffffffffffffff021916908373ffffffffffffffffffffffffffffffffffffffff1602179055508173ffffffffffffffffffffffffffffffffffffffff168173ffffffffffffffffffffffffffffffffffffffff167f8be0079c531659141344cd1fd0a4f28419497f9722a3daafe3b4186f6b6457e060405160405180910390a35050565b600081519050919050565b7f4e487b7100000000000000000000000000000000000000000000000000000000600052604160045260246000fd5b7f4e487b7100000000000000000000000000000000000000000000000000000000600052602260045260246000fd5b6000600282049050600182168061026e57607f821691505b60208210810361028157610280610227565b5b50919050565b60008190508160005260206000209050919050565b60006020601f8301049050919050565b600082821b905092915050565b6000600883026102e97fffffffffffffffffffffffffffffffffffffffffffffffffffffffffffffffff826102ac565b6102f386836102ac565b95508019841693508086168417925050509392505050565b6000819050919050565b6000819050919050565b600061033a6103356103308461030b565b610315565b61030b565b9050919050565b6000819050919050565b6103548361031f565b61036861036082610341565b8484546102b9565b825550505050565b600090565b61037d610370565b61038881848461034b565b505050565b5b818110156103ac576103a1600082610375565b60018101905061038e565b5050565b601f8211156103f1576103c281610287565b6103cb8461029c565b810160208510156103da578190505b6103ee6103e68561029c565b83018261038d565b50505b505050565b600082821c905092915050565b6000610414600019846008026103f6565b1980831691505092915050565b600061042d8383610403565b9150826002028217905092915050565b610446826101ed565b67ffffffffffffffff81111561045f5761045e6101f8565b5b6104698254610256565b6104748282856103b0565b600060209050601f8311600181146104a75760008415610495578287015190505b61049f8582610421565b865550610507565b601f1984166104b586610287565b60005b828110156104dd578489015182556001820191506020850194506020810190506104b8565b868310156104fa57848901516104f6601f891682610403565b8355505b6001600288020188555050505b505050505050565b600073ffffffffffffffffffffffffffffffffffffffff82169050919050565b600061053a8261050f565b9050919050565b61054a8161052f565b82525050565b60006020820190506105656000830184610541565b92915050565b6138528061057a6000396000f3fe60806040526004361061011f5760003560e01c8063715018a6116100a0578063b88d4fde11610064578063b88d4fde146103d6578063c87b56dd146103ff578063e985e9c51461043c578063f2fde38b14610479578063f6888384146104a25761011f565b8063715018a6146103175780638da5cb5b1461032e57806395d89b41146103595780639cf587af14610384578063a22cb465146103ad5761011f565b806342842e0e116100e757806342842e0e1461021b578063472ec454146102445780636352211e146102815780636c231060146102be57806370a08231146102da5761011f565b806301ffc9a71461012457806306fdde0314610161578063081812fc1461018c578063095ea7b3146101c957806323b872dd146101f2575b600080fd5b34801561013057600080fd5b5061014b60048036038101906101469190612617565b6104cb565b604051610158919061265f565b60405180910390f35b34801561016d57600080fd5b5061017661052c565b604051610183919061270a565b60405180910390f35b34801561019857600080fd5b506101b360048036038101906101ae9190612762565b6105be565b6040516101c091906127d0565b60405180910390f35b3480156101d557600080fd5b506101f060048036038101906101eb9190612817565b6105da565b005b3480156101fe57600080fd5b5061021960048036038101906102149190612857565b6105f0565b005b34801561022757600080fd5b50610242600480360381019061023d9190612857565b6106f2565b005b34801561025057600080fd5b5061026b60048036038101906102669190612762565b610712565b60405161027891906129bc565b60405180910390f35b34801561028d57600080fd5b506102a860048036038101906102a39190612762565b610938565b6040516102b591906127d0565b60405180910390f35b6102d860048036038101906102d39190612762565b61094a565b005b3480156102e657600080fd5b5061030160048036038101906102fc91906129de565b610bda565b60405161030e9190612a1a565b60405180910390f35b34801561032357600080fd5b5061032c610c94565b005b34801561033a57600080fd5b50610343610ca8565b60405161035091906127d0565b60405180910390f35b34801561036557600080fd5b5061036e610cd2565b60405161037b919061270a565b60405180910390f35b34801561039057600080fd5b506103ab60048036038101906103a69190612b6a565b610d64565b005b3480156103b957600080fd5b506103d460048036038101906103cf9190612ca8565b611028565b005b3480156103e257600080fd5b506103fd60048036038101906103f89190612d89565b61103e565b005b34801561040b57600080fd5b5061042660048036038101906104219190612762565b611063565b604051610433919061270a565b60405180910390f35b34801561044857600080fd5b50610463600480360381019061045e9190612e0c565b611176565b604051610470919061265f565b60405180910390f35b34801561048557600080fd5b506104a0600480360381019061049b91906129de565b61120a565b005b3480156104ae57600080fd5b506104c960048036038101906104c49190612e4c565b611290565b005b6000634906490660e01b7bffffffffffffffffffffffffffffffffffffffffffffffffffffffff1916827bffffffffffffffffffffffffffffffffffffffffffffffffffffffff191614806105255750610524826113d0565b5b9050919050565b60606000805461053b90612ebb565b80601f016020809104026020016040519081016040528092919081815260200182805461056790612ebb565b80156105b45780601f10610589576101008083540402835291602001916105b4565b820191906000526020600020905b81548152906001019060200180831161059757829003601f168201915b5050505050905090565b60006105c9826114b2565b506105d38261153a565b9050919050565b6105ec82826105e7611577565b61157f565b5050565b600073ffffffffffffffffffffffffffffffffffffffff168273ffffffffffffffffffffffffffffffffffffffff16036106625760006040517f64a0ae9200000000000000000000000000000000000000000000000000000000815260040161065991906127d0565b60405180910390fd5b60006106768383610671611577565b611591565b90508373ffffffffffffffffffffffffffffffffffffffff168173ffffffffffffffffffffffffffffffffffffffff16146106ec578382826040517f64283d7b0000000000000000000000000000000000000000000000000000000081526004016106e393929190612eec565b60405180910390fd5b50505050565b61070d8383836040518060200160405280600081525061103e565b505050565b61071a61256c565b610723826114b2565b50600960008381526020019081526020016000206040518060e001604052908160008201805461075290612ebb565b80601f016020809104026020016040519081016040528092919081815260200182805461077e90612ebb565b80156107cb5780601f106107a0576101008083540402835291602001916107cb565b820191906000526020600020905b8154815290600101906020018083116107ae57829003601f168201915b505050505081526020016001820180546107e490612ebb565b80601f016020809104026020016040519081016040528092919081815260200182805461081090612ebb565b801561085d5780601f106108325761010080835404028352916020019161085d565b820191906000526020600020905b81548152906001019060200180831161084057829003601f168201915b505050505081526020016002820154815260200160038201805461088090612ebb565b80601f01602080910402602001604051908101604052809291908181526020018280546108ac90612ebb565b80156108f95780601f106108ce576101008083540402835291602001916108f9565b820191906000526020600020905b8154815290600101906020018083116108dc57829003601f168201915b50505050508152602001600482015481526020016005820160009054906101000a900460ff161515151581526020016006820154815250509050919050565b6000610943826114b2565b9050919050565b6009600082815260200190815260200160002060050160009054906101000a900460ff166109ad576040517f08c379a00000000000000000000000000000000000000000000000000000000081526004016109a490612f6f565b60405180910390fd5b6009600082815260200190815260200160002060060154341015610a06576040517f08c379a00000000000000000000000000000000000000000000000000000000081526004016109fd90612fdb565b60405180910390fd5b6000600a600083815260200190815260200160002060009054906101000a900473ffffffffffffffffffffffffffffffffffffffff1690503373ffffffffffffffffffffffffffffffffffffffff168173ffffffffffffffffffffffffffffffffffffffff1603610aac576040517f08c379a0000000000000000000000000000000000000000000000000000000008152600401610aa390613047565b60405180910390fd5b610ab78133846117ab565b8073ffffffffffffffffffffffffffffffffffffffff166108fc349081150290604051600060405180830381858888f19350505050158015610afd573d6000803e3d6000fd5b5033600a600084815260200190815260200160002060006101000a81548173ffffffffffffffffffffffffffffffffffffffff021916908373ffffffffffffffffffffffffffffffffffffffff16021790555060006009600084815260200190815260200160002060050160006101000a81548160ff021916908315150217905550600060096000848152602001908152602001600020600601819055507f9d90e6b7483b210fb2eb1814d730195955d020389f316a5127d8f07d6fe61c8b823334604051610bce93929190613067565b60405180910390a15050565b60008073ffffffffffffffffffffffffffffffffffffffff168273ffffffffffffffffffffffffffffffffffffffff1603610c4d5760006040517f89c62b64000000000000000000000000000000000000000000000000000000008152600401610c4491906127d0565b60405180910390fd5b600360008373ffffffffffffffffffffffffffffffffffffffff1673ffffffffffffffffffffffffffffffffffffffff168152602001908152602001600020549050919050565b610c9c611918565b610ca6600061199f565b565b6000600760009054906101000a900473ffffffffffffffffffffffffffffffffffffffff16905090565b606060018054610ce190612ebb565b80601f0160208091040260200160405190810160405280929190818152602001828054610d0d90612ebb565b8015610d5a5780601f10610d2f57610100808354040283529160200191610d5a565b820191906000526020600020905b815481529060010190602001808311610d3d57829003601f168201915b5050505050905090565b610d6c611918565b6000835111610db0576040517f08c379a0000000000000000000000000000000000000000000000000000000008152600401610da7906130ea565b60405180910390fd5b60005b600854811015610e6d5783604051602001610dce9190613146565b6040516020818303038152906040528051906020012060096000838152602001908152602001600020600301604051602001610e0a91906131f5565b6040516020818303038152906040528051906020012003610e60576040517f08c379a0000000000000000000000000000000000000000000000000000000008152600401610e5790613258565b60405180910390fd5b8080600101915050610db3565b50600060085490506040518060e001604052808881526020018781526020018681526020018581526020018481526020016000151581526020016000815250600960008381526020019081526020016000206000820151816000019081610ed4919061340f565b506020820151816001019081610eea919061340f565b50604082015181600201556060820151816003019081610f0a919061340f565b506080820151816004015560a08201518160050160006101000a81548160ff02191690831515021790555060c0820151816006015590505087600a600083815260200190815260200160002060006101000a81548173ffffffffffffffffffffffffffffffffffffffff021916908373ffffffffffffffffffffffffffffffffffffffff16021790555080600b85604051610fa59190613146565b908152602001604051809103902081905550610fc18882611a65565b610fcb8183611b5e565b60086000815480929190610fde90613510565b91905055507fbd3303cf3cb581bf78ef3ac343c3e3d038afb8bc52183ae64109ebd7ee3a873d81898660405161101693929190613558565b60405180910390a15050505050505050565b61103a611033611577565b8383611bba565b5050565b6110498484846105f0565b61105d611054611577565b85858585611d29565b50505050565b606061106e826114b2565b50600060066000848152602001908152602001600020805461108f90612ebb565b80601f01602080910402602001604051908101604052809291908181526020018280546110bb90612ebb565b80156111085780601f106110dd57610100808354040283529160200191611108565b820191906000526020600020905b8154815290600101906020018083116110eb57829003601f168201915b505050505090506000611119611eda565b9050600081510361112e578192505050611171565b60008251111561116357808260405160200161114b929190613596565b60405160208183030381529060405292505050611171565b61116c84611ef1565b925050505b919050565b6000600560008473ffffffffffffffffffffffffffffffffffffffff1673ffffffffffffffffffffffffffffffffffffffff16815260200190815260200160002060008373ffffffffffffffffffffffffffffffffffffffff1673ffffffffffffffffffffffffffffffffffffffff16815260200190815260200160002060009054906101000a900460ff16905092915050565b611212611918565b600073ffffffffffffffffffffffffffffffffffffffff168173ffffffffffffffffffffffffffffffffffffffff16036112845760006040517f1e4fbdf700000000000000000000000000000000000000000000000000000000815260040161127b91906127d0565b60405180910390fd5b61128d8161199f565b50565b3373ffffffffffffffffffffffffffffffffffffffff166112b083610938565b73ffffffffffffffffffffffffffffffffffffffff1614611306576040517f08c379a00000000000000000000000000000000000000000000000000000000081526004016112fd9061362c565b60405180910390fd5b60008111611349576040517f08c379a000000000000000000000000000000000000000000000000000000000815260040161134090613698565b60405180910390fd5b60016009600084815260200190815260200160002060050160006101000a81548160ff0219169083151502179055508060096000848152602001908152602001600020600601819055507fd7eb5635a91daa6c8336a751c696002c8243f97bad99a81269931e463952470982826040516113c49291906136b8565b60405180910390a15050565b60007f80ac58cd000000000000000000000000000000000000000000000000000000007bffffffffffffffffffffffffffffffffffffffffffffffffffffffff1916827bffffffffffffffffffffffffffffffffffffffffffffffffffffffff1916148061149b57507f5b5e139f000000000000000000000000000000000000000000000000000000007bffffffffffffffffffffffffffffffffffffffffffffffffffffffff1916827bffffffffffffffffffffffffffffffffffffffffffffffffffffffff1916145b806114ab57506114aa82611f5a565b5b9050919050565b6000806114be83611fc4565b9050600073ffffffffffffffffffffffffffffffffffffffff168173ffffffffffffffffffffffffffffffffffffffff160361153157826040517f7e2732890000000000000000000000000000000000000000000000000000000081526004016115289190612a1a565b60405180910390fd5b80915050919050565b60006004600083815260200190815260200160002060009054906101000a900473ffffffffffffffffffffffffffffffffffffffff169050919050565b600033905090565b61158c8383836001612001565b505050565b60008061159d84611fc4565b9050600073ffffffffffffffffffffffffffffffffffffffff168373ffffffffffffffffffffffffffffffffffffffff16146115df576115de8184866121c6565b5b600073ffffffffffffffffffffffffffffffffffffffff168173ffffffffffffffffffffffffffffffffffffffff161461167057611621600085600080612001565b6001600360008373ffffffffffffffffffffffffffffffffffffffff1673ffffffffffffffffffffffffffffffffffffffff168152602001908152602001600020600082825403925050819055505b600073ffffffffffffffffffffffffffffffffffffffff168573ffffffffffffffffffffffffffffffffffffffff16146116f3576001600360008773ffffffffffffffffffffffffffffffffffffffff1673ffffffffffffffffffffffffffffffffffffffff168152602001908152602001600020600082825401925050819055505b846002600086815260200190815260200160002060006101000a81548173ffffffffffffffffffffffffffffffffffffffff021916908373ffffffffffffffffffffffffffffffffffffffff160217905550838573ffffffffffffffffffffffffffffffffffffffff168273ffffffffffffffffffffffffffffffffffffffff167fddf252ad1be2c89b69c2b068fc378daa952ba7f163c4a11628f55a4df523b3ef60405160405180910390a4809150509392505050565b600073ffffffffffffffffffffffffffffffffffffffff168273ffffffffffffffffffffffffffffffffffffffff160361181d5760006040517f64a0ae9200000000000000000000000000000000000000000000000000000000815260040161181491906127d0565b60405180910390fd5b600061182b83836000611591565b9050600073ffffffffffffffffffffffffffffffffffffffff168173ffffffffffffffffffffffffffffffffffffffff160361189e57816040517f7e2732890000000000000000000000000000000000000000000000000000000081526004016118959190612a1a565b60405180910390fd5b8373ffffffffffffffffffffffffffffffffffffffff168173ffffffffffffffffffffffffffffffffffffffff1614611912578382826040517f64283d7b00000000000000000000000000000000000000000000000000000000815260040161190993929190612eec565b60405180910390fd5b50505050565b611920611577565b73ffffffffffffffffffffffffffffffffffffffff1661193e610ca8565b73ffffffffffffffffffffffffffffffffffffffff161461199d57611961611577565b6040517f118cdaa700000000000000000000000000000000000000000000000000000000815260040161199491906127d0565b60405180910390fd5b565b6000600760009054906101000a900473ffffffffffffffffffffffffffffffffffffffff16905081600760006101000a81548173ffffffffffffffffffffffffffffffffffffffff021916908373ffffffffffffffffffffffffffffffffffffffff1602179055508173ffffffffffffffffffffffffffffffffffffffff168173ffffffffffffffffffffffffffffffffffffffff167f8be0079c531659141344cd1fd0a4f28419497f9722a3daafe3b4186f6b6457e060405160405180910390a35050565b600073ffffffffffffffffffffffffffffffffffffffff168273ffffffffffffffffffffffffffffffffffffffff1603611ad75760006040517f64a0ae92000000000000000000000000000000000000000000000000000000008152600401611ace91906127d0565b60405180910390fd5b6000611ae583836000611591565b9050600073ffffffffffffffffffffffffffffffffffffffff168173ffffffffffffffffffffffffffffffffffffffff1614611b595760006040517f73c6ac6e000000000000000000000000000000000000000000000000000000008152600401611b5091906127d0565b60405180910390fd5b505050565b80600660008481526020019081526020016000209081611b7e919061340f565b507ff8e1a15aba9398e019f0b49df1a4fde98ee17ae345cb5f6b5e2c27f5033e8ce782604051611bae9190612a1a565b60405180910390a15050565b600073ffffffffffffffffffffffffffffffffffffffff168273ffffffffffffffffffffffffffffffffffffffff1603611c2b57816040517f5b08ba18000000000000000000000000000000000000000000000000000000008152600401611c2291906127d0565b60405180910390fd5b80600560008573ffffffffffffffffffffffffffffffffffffffff1673ffffffffffffffffffffffffffffffffffffffff16815260200190815260200160002060008473ffffffffffffffffffffffffffffffffffffffff1673ffffffffffffffffffffffffffffffffffffffff16815260200190815260200160002060006101000a81548160ff0219169083151502179055508173ffffffffffffffffffffffffffffffffffffffff168373ffffffffffffffffffffffffffffffffffffffff167f17307eab39ab6107e8899845ad3d59bd9653f200f220920489ca2b5937696c3183604051611d1c919061265f565b60405180910390a3505050565b60008373ffffffffffffffffffffffffffffffffffffffff163b1115611ed3578273ffffffffffffffffffffffffffffffffffffffff1663150b7a02868685856040518563ffffffff1660e01b8152600401611d889493929190613736565b6020604051808303816000875af1925050508015611dc457506040513d601f19601f82011682018060405250810190611dc19190613797565b60015b611e48573d8060008114611df4576040519150601f19603f3d011682016040523d82523d6000602084013e611df9565b606091505b506000815103611e4057836040517f64a0ae92000000000000000000000000000000000000000000000000000000008152600401611e3791906127d0565b60405180910390fd5b805181602001fd5b63150b7a0260e01b7bffffffffffffffffffffffffffffffffffffffffffffffffffffffff1916817bffffffffffffffffffffffffffffffffffffffffffffffffffffffff191614611ed157836040517f64a0ae92000000000000000000000000000000000000000000000000000000008152600401611ec891906127d0565b60405180910390fd5b505b5050505050565b606060405180602001604052806000815250905090565b6060611efc826114b2565b506000611f07611eda565b90506000815111611f275760405180602001604052806000815250611f52565b80611f318461228a565b604051602001611f42929190613596565b6040516020818303038152906040525b915050919050565b60007f01ffc9a7000000000000000000000000000000000000000000000000000000007bffffffffffffffffffffffffffffffffffffffffffffffffffffffff1916827bffffffffffffffffffffffffffffffffffffffffffffffffffffffff1916149050919050565b60006002600083815260200190815260200160002060009054906101000a900473ffffffffffffffffffffffffffffffffffffffff169050919050565b808061203a5750600073ffffffffffffffffffffffffffffffffffffffff168273ffffffffffffffffffffffffffffffffffffffff1614155b1561216e57600061204a846114b2565b9050600073ffffffffffffffffffffffffffffffffffffffff168373ffffffffffffffffffffffffffffffffffffffff16141580156120b557508273ffffffffffffffffffffffffffffffffffffffff168173ffffffffffffffffffffffffffffffffffffffff1614155b80156120c857506120c68184611176565b155b1561210a57826040517fa9fbf51f00000000000000000000000000000000000000000000000000000000815260040161210191906127d0565b60405180910390fd5b811561216c57838573ffffffffffffffffffffffffffffffffffffffff168273ffffffffffffffffffffffffffffffffffffffff167f8c5be1e5ebec7d5bd14f71427d1e84f3dd0314c0f7b2291e5b200ac8c7c3b92560405160405180910390a45b505b836004600085815260200190815260200160002060006101000a81548173ffffffffffffffffffffffffffffffffffffffff021916908373ffffffffffffffffffffffffffffffffffffffff16021790555050505050565b6121d1838383612358565b61228557600073ffffffffffffffffffffffffffffffffffffffff168373ffffffffffffffffffffffffffffffffffffffff160361224657806040517f7e27328900000000000000000000000000000000000000000000000000000000815260040161223d9190612a1a565b60405180910390fd5b81816040517f177e802f00000000000000000000000000000000000000000000000000000000815260040161227c9291906137c4565b60405180910390fd5b505050565b60606000600161229984612419565b01905060008167ffffffffffffffff8111156122b8576122b7612a3f565b5b6040519080825280601f01601f1916602001820160405280156122ea5781602001600182028036833780820191505090505b509050600082602001820190505b60011561234d578080600190039150507f3031323334353637383961626364656600000000000000000000000000000000600a86061a8153600a8581612341576123406137ed565b5b049450600085036122f8575b819350505050919050565b60008073ffffffffffffffffffffffffffffffffffffffff168373ffffffffffffffffffffffffffffffffffffffff161415801561241057508273ffffffffffffffffffffffffffffffffffffffff168473ffffffffffffffffffffffffffffffffffffffff1614806123d157506123d08484611176565b5b8061240f57508273ffffffffffffffffffffffffffffffffffffffff166123f78361153a565b73ffffffffffffffffffffffffffffffffffffffff16145b5b90509392505050565b600080600090507a184f03e93ff9f4daa797ed6e38ed64bf6a1f0100000000000000008310612477577a184f03e93ff9f4daa797ed6e38ed64bf6a1f010000000000000000838161246d5761246c6137ed565b5b0492506040810190505b6d04ee2d6d415b85acef810000000083106124b4576d04ee2d6d415b85acef810000000083816124aa576124a96137ed565b5b0492506020810190505b662386f26fc1000083106124e357662386f26fc1000083816124d9576124d86137ed565b5b0492506010810190505b6305f5e100831061250c576305f5e1008381612502576125016137ed565b5b0492506008810190505b6127108310612531576127108381612527576125266137ed565b5b0492506004810190505b60648310612554576064838161254a576125496137ed565b5b0492506002810190505b600a8310612563576001810190505b80915050919050565b6040518060e001604052806060815260200160608152602001600081526020016060815260200160008152602001600015158152602001600081525090565b6000604051905090565b600080fd5b600080fd5b60007fffffffff0000000000000000000000000000000000000000000000000000000082169050919050565b6125f4816125bf565b81146125ff57600080fd5b50565b600081359050612611816125eb565b92915050565b60006020828403121561262d5761262c6125b5565b5b600061263b84828501612602565b91505092915050565b60008115159050919050565b61265981612644565b82525050565b60006020820190506126746000830184612650565b92915050565b600081519050919050565b600082825260208201905092915050565b60005b838110156126b4578082015181840152602081019050612699565b60008484015250505050565b6000601f19601f8301169050919050565b60006126dc8261267a565b6126e68185612685565b93506126f6818560208601612696565b6126ff816126c0565b840191505092915050565b6000602082019050818103600083015261272481846126d1565b905092915050565b6000819050919050565b61273f8161272c565b811461274a57600080fd5b50565b60008135905061275c81612736565b92915050565b600060208284031215612778576127776125b5565b5b60006127868482850161274d565b91505092915050565b600073ffffffffffffffffffffffffffffffffffffffff82169050919050565b60006127ba8261278f565b9050919050565b6127ca816127af565b82525050565b60006020820190506127e560008301846127c1565b92915050565b6127f4816127af565b81146127ff57600080fd5b50565b600081359050612811816127eb565b92915050565b6000806040838503121561282e5761282d6125b5565b5b600061283c85828601612802565b925050602061284d8582860161274d565b9150509250929050565b6000806000606084860312156128705761286f6125b5565b5b600061287e86828701612802565b935050602061288f86828701612802565b92505060406128a08682870161274d565b9150509250925092565b600082825260208201905092915050565b60006128c68261267a565b6128d081856128aa565b93506128e0818560208601612696565b6128e9816126c0565b840191505092915050565b6128fd8161272c565b82525050565b61290c81612644565b82525050565b600060e083016000830151848203600086015261292f82826128bb565b9150506020830151848203602086015261294982826128bb565b915050604083015161295e60408601826128f4565b506060830151848203606086015261297682826128bb565b915050608083015161298b60808601826128f4565b5060a083015161299e60a0860182612903565b5060c08301516129b160c08601826128f4565b508091505092915050565b600060208201905081810360008301526129d68184612912565b905092915050565b6000602082840312156129f4576129f36125b5565b5b6000612a0284828501612802565b91505092915050565b612a148161272c565b82525050565b6000602082019050612a2f6000830184612a0b565b92915050565b600080fd5b600080fd5b7f4e487b7100000000000000000000000000000000000000000000000000000000600052604160045260246000fd5b612a77826126c0565b810181811067ffffffffffffffff82111715612a9657612a95612a3f565b5b80604052505050565b6000612aa96125ab565b9050612ab58282612a6e565b919050565b600067ffffffffffffffff821115612ad557612ad4612a3f565b5b612ade826126c0565b9050602081019050919050565b82818337600083830152505050565b6000612b0d612b0884612aba565b612a9f565b905082815260208101848484011115612b2957612b28612a3a565b5b612b34848285612aeb565b509392505050565b600082601f830112612b5157612b50612a35565b5b8135612b61848260208601612afa565b91505092915050565b600080600080600080600060e0888a031215612b8957612b886125b5565b5b6000612b978a828b01612802565b975050602088013567ffffffffffffffff811115612bb857612bb76125ba565b5b612bc48a828b01612b3c565b965050604088013567ffffffffffffffff811115612be557612be46125ba565b5b612bf18a828b01612b3c565b9550506060612c028a828b0161274d565b945050608088013567ffffffffffffffff811115612c2357612c226125ba565b5b612c2f8a828b01612b3c565b93505060a0612c408a828b0161274d565b92505060c088013567ffffffffffffffff811115612c6157612c606125ba565b5b612c6d8a828b01612b3c565b91505092959891949750929550565b612c8581612644565b8114612c9057600080fd5b50565b600081359050612ca281612c7c565b92915050565b60008060408385031215612cbf57612cbe6125b5565b5b6000612ccd85828601612802565b9250506020612cde85828601612c93565b9150509250929050565b600067ffffffffffffffff821115612d0357612d02612a3f565b5b612d0c826126c0565b9050602081019050919050565b6000612d2c612d2784612ce8565b612a9f565b905082815260208101848484011115612d4857612d47612a3a565b5b612d53848285612aeb565b509392505050565b600082601f830112612d7057612d6f612a35565b5b8135612d80848260208601612d19565b91505092915050565b60008060008060808587031215612da357612da26125b5565b5b6000612db187828801612802565b9450506020612dc287828801612802565b9350506040612dd38782880161274d565b925050606085013567ffffffffffffffff811115612df457612df36125ba565b5b612e0087828801612d5b565b91505092959194509250565b60008060408385031215612e2357612e226125b5565b5b6000612e3185828601612802565b9250506020612e4285828601612802565b9150509250929050565b60008060408385031215612e6357612e626125b5565b5b6000612e718582860161274d565b9250506020612e828582860161274d565b9150509250929050565b7f4e487b7100000000000000000000000000000000000000000000000000000000600052602260045260246000fd5b60006002820490506001821680612ed357607f821691505b602082108103612ee657612ee5612e8c565b5b50919050565b6000606082019050612f0160008301866127c1565b612f0e6020830185612a0b565b612f1b60408301846127c1565b949350505050565b7f436172206973206e6f7420666f722073616c6500000000000000000000000000600082015250565b6000612f59601383612685565b9150612f6482612f23565b602082019050919050565b60006020820190508181036000830152612f8881612f4c565b9050919050565b7f496e73756666696369656e74204554482073656e742e00000000000000000000600082015250565b6000612fc5601683612685565b9150612fd082612f8f565b602082019050919050565b60006020820190508181036000830152612ff481612fb8565b9050919050565b7f596f752063616e6e6f742062757920796f7572206f776e206361722e00000000600082015250565b6000613031601c83612685565b915061303c82612ffb565b602082019050919050565b6000602082019050818103600083015261306081613024565b9050919050565b600060608201905061307c6000830186612a0b565b61308960208301856127c1565b6130966040830184612a0b565b949350505050565b7f56494e206d7573742062652070726f7669646564000000000000000000000000600082015250565b60006130d4601483612685565b91506130df8261309e565b602082019050919050565b60006020820190508181036000830152613103816130c7565b9050919050565b600081905092915050565b60006131208261267a565b61312a818561310a565b935061313a818560208601612696565b80840191505092915050565b60006131528284613115565b915081905092915050565b60008190508160005260206000209050919050565b6000815461317f81612ebb565b613189818661310a565b945060018216600081146131a457600181146131b9576131ec565b60ff19831686528115158202860193506131ec565b6131c28561315d565b60005b838110156131e4578154818901526001820191506020810190506131c5565b838801955050505b50505092915050565b60006132018284613172565b915081905092915050565b7f56494e20616c7265616479206578697374730000000000000000000000000000600082015250565b6000613242601283612685565b915061324d8261320c565b602082019050919050565b6000602082019050818103600083015261327181613235565b9050919050565b60006020601f8301049050919050565b600082821b905092915050565b6000600883026132c57fffffffffffffffffffffffffffffffffffffffffffffffffffffffffffffffff82613288565b6132cf8683613288565b95508019841693508086168417925050509392505050565b6000819050919050565b600061330c6133076133028461272c565b6132e7565b61272c565b9050919050565b6000819050919050565b613326836132f1565b61333a61333282613313565b848454613295565b825550505050565b600090565b61334f613342565b61335a81848461331d565b505050565b5b8181101561337e57613373600082613347565b600181019050613360565b5050565b601f8211156133c3576133948161315d565b61339d84613278565b810160208510156133ac578190505b6133c06133b885613278565b83018261335f565b50505b505050565b600082821c905092915050565b60006133e6600019846008026133c8565b1980831691505092915050565b60006133ff83836133d5565b9150826002028217905092915050565b6134188261267a565b67ffffffffffffffff81111561343157613430612a3f565b5b61343b8254612ebb565b613446828285613382565b600060209050601f8311600181146134795760008415613467578287015190505b61347185826133f3565b8655506134d9565b601f1984166134878661315d565b60005b828110156134af5784890151825560018201915060208501945060208101905061348a565b868310156134cc57848901516134c8601f8916826133d5565b8355505b6001600288020188555050505b505050505050565b7f4e487b7100000000000000000000000000000000000000000000000000000000600052601160045260246000fd5b600061351b8261272c565b91507fffffffffffffffffffffffffffffffffffffffffffffffffffffffffffffffff820361354d5761354c6134e1565b5b600182019050919050565b600060608201905061356d6000830186612a0b565b61357a60208301856127c1565b818103604083015261358c81846126d1565b9050949350505050565b60006135a28285613115565b91506135ae8284613115565b91508190509392505050565b7f4f6e6c7920746865206f776e6572206f66207468652076656869636c6520636160008201527f6e206c69737420697420666f722073616c652e00000000000000000000000000602082015250565b6000613616603383612685565b9150613621826135ba565b604082019050919050565b6000602082019050818103600083015261364581613609565b9050919050565b7f5072696365206d7573742062652067726561746572207468616e207a65726f2e600082015250565b6000613682602083612685565b915061368d8261364c565b602082019050919050565b600060208201905081810360008301526136b181613675565b9050919050565b60006040820190506136cd6000830185612a0b565b6136da6020830184612a0b565b9392505050565b600081519050919050565b600082825260208201905092915050565b6000613708826136e1565b61371281856136ec565b9350613722818560208601612696565b61372b816126c0565b840191505092915050565b600060808201905061374b60008301876127c1565b61375860208301866127c1565b6137656040830185612a0b565b818103606083015261377781846136fd565b905095945050505050565b600081519050613791816125eb565b92915050565b6000602082840312156137ad576137ac6125b5565b5b60006137bb84828501613782565b91505092915050565b60006040820190506137d960008301856127c1565b6137e66020830184612a0b565b9392505050565b7f4e487b7100000000000000000000000000000000000000000000000000000000600052601260045260246000fdfea2646970667358221220e3789afde520d1851c65c08fcc132b00ebc0032c2169f30c1b475d49f045151264736f6c634300081c0033",
  "linkReferences": {},
  "deployedLinkReferences": {}
}