{
  "_format": "hh-sol-artifact-1",
  "contractName": "CarMarketplace",
  "sourceName": "contracts/CarMarketplace.sol",
  "abi": [
    {
      "inputs": [],
      "stateMutability": "nonpayable",
      "type": "constructor"
    },
    {
      "inputs": [
        {
          "internalType": "address",
          "name": "sender",
          "type": "address"
        },
        {
          "internalType": "uint256",
          "name": "tokenId",
          "type": "uint256"
        },
        {
          "internalType": "address",
          "name": "owner",
          "type": "address"
        }
      ],
      "name": "ERC721IncorrectOwner",
      "type": "error"
    },
    {
      "inputs": [
        {
          "internalType": "address",
          "name": "operator",
          "type": "address"
        },
        {
          "internalType": "uint256",
          "name": "tokenId",
          "type": "uint256"
        }
      ],
      "name": "ERC721InsufficientApproval",
      "type": "error"
    },
    {
      "inputs": [
        {
          "internalType": "address",
          "name": "approver",
          "type": "address"
        }
      ],
      "name": "ERC721InvalidApprover",
      "type": "error"
    },
    {
      "inputs": [
        {
          "internalType": "address",
          "name": "operator",
          "type": "address"
        }
      ],
      "name": "ERC721InvalidOperator",
      "type": "error"
    },
    {
      "inputs": [
        {
          "internalType": "address",
          "name": "owner",
          "type": "address"
        }
      ],
      "name": "ERC721InvalidOwner",
      "type": "error"
    },
    {
      "inputs": [
        {
          "internalType": "address",
          "name": "receiver",
          "type": "address"
        }
      ],
      "name": "ERC721InvalidReceiver",
      "type": "error"
    },
    {
      "inputs": [
        {
          "internalType": "address",
          "name": "sender",
          "type": "address"
        }
      ],
      "name": "ERC721InvalidSender",
      "type": "error"
    },
    {
      "inputs": [
        {
          "internalType": "uint256",
          "name": "tokenId",
          "type": "uint256"
        }
      ],
      "name": "ERC721NonexistentToken",
      "type": "error"
    },
    {
      "inputs": [
        {
          "internalType": "address",
          "name": "owner",
          "type": "address"
        }
      ],
      "name": "OwnableInvalidOwner",
      "type": "error"
    },
    {
      "inputs": [
        {
          "internalType": "address",
          "name": "account",
          "type": "address"
        }
      ],
      "name": "OwnableUnauthorizedAccount",
      "type": "error"
    },
    {
      "anonymous": false,
      "inputs": [
        {
          "indexed": true,
          "internalType": "address",
          "name": "owner",
          "type": "address"
        },
        {
          "indexed": true,
          "internalType": "address",
          "name": "approved",
          "type": "address"
        },
        {
          "indexed": true,
          "internalType": "uint256",
          "name": "tokenId",
          "type": "uint256"
        }
      ],
      "name": "Approval",
      "type": "event"
    },
    {
      "anonymous": false,
      "inputs": [
        {
          "indexed": true,
          "internalType": "address",
          "name": "owner",
          "type": "address"
        },
        {
          "indexed": true,
          "internalType": "address",
          "name": "operator",
          "type": "address"
        },
        {
          "indexed": false,
          "internalType": "bool",
          "name": "approved",
          "type": "bool"
        }
      ],
      "name": "ApprovalForAll",
      "type": "event"
    },
    {
      "anonymous": false,
      "inputs": [
        {
          "indexed": false,
          "internalType": "uint256",
          "name": "_fromTokenId",
          "type": "uint256"
        },
        {
          "indexed": false,
          "internalType": "uint256",
          "name": "_toTokenId",
          "type": "uint256"
        }
      ],
      "name": "BatchMetadataUpdate",
      "type": "event"
    },
    {
      "anonymous": false,
      "inputs": [
        {
          "indexed": false,
          "internalType": "uint256",
          "name": "tokenId",
          "type": "uint256"
        },
        {
          "indexed": false,
          "internalType": "uint256",
          "name": "price",
          "type": "uint256"
        }
      ],
      "name": "CarListedForSale",
      "type": "event"
    },
    {
      "anonymous": false,
      "inputs": [
        {
          "indexed": false,
          "internalType": "uint256",
          "name": "tokenId",
          "type": "uint256"
        },
        {
          "indexed": false,
          "internalType": "address",
          "name": "owner",
          "type": "address"
        },
        {
          "indexed": false,
          "internalType": "string",
          "name": "vin",
          "type": "string"
        }
      ],
      "name": "CarMinted",
      "type": "event"
    },
    {
      "anonymous": false,
      "inputs": [
        {
          "indexed": false,
          "internalType": "uint256",
          "name": "tokenId",
          "type": "uint256"
        },
        {
          "indexed": false,
          "internalType": "address",
          "name": "newOwner",
          "type": "address"
        },
        {
          "indexed": false,
          "internalType": "uint256",
          "name": "price",
          "type": "uint256"
        }
      ],
      "name": "CarSold",
      "type": "event"
    },
    {
      "anonymous": false,
      "inputs": [
        {
          "indexed": false,
          "internalType": "uint256",
          "name": "_tokenId",
          "type": "uint256"
        }
      ],
      "name": "MetadataUpdate",
      "type": "event"
    },
    {
      "anonymous": false,
      "inputs": [
        {
          "indexed": true,
          "internalType": "address",
          "name": "previousOwner",
          "type": "address"
        },
        {
          "indexed": true,
          "internalType": "address",
          "name": "newOwner",
          "type": "address"
        }
      ],
      "name": "OwnershipTransferred",
      "type": "event"
    },
    {
      "anonymous": false,
      "inputs": [
        {
          "indexed": true,
          "internalType": "address",
          "name": "provider",
          "type": "address"
        }
      ],
      "name": "ServiceProviderAdded",
      "type": "event"
    },
    {
      "anonymous": false,
      "inputs": [
        {
          "indexed": true,
          "internalType": "address",
          "name": "provider",
          "type": "address"
        }
      ],
      "name": "ServiceProviderRemoved",
      "type": "event"
    },
    {
      "anonymous": false,
      "inputs": [
        {
          "indexed": true,
          "internalType": "uint256",
          "name": "tokenId",
          "type": "uint256"
        },
        {
          "indexed": false,
          "internalType": "string",
          "name": "description",
          "type": "string"
        }
      ],
      "name": "ServiceRecordAdded",
      "type": "event"
    },
    {
      "anonymous": false,
      "inputs": [
        {
          "indexed": true,
          "internalType": "address",
          "name": "from",
          "type": "address"
        },
        {
          "indexed": true,
          "internalType": "address",
          "name": "to",
          "type": "address"
        },
        {
          "indexed": true,
          "internalType": "uint256",
          "name": "tokenId",
          "type": "uint256"
        }
      ],
      "name": "Transfer",
      "type": "event"
    },
    {
      "inputs": [
        {
          "internalType": "address",
          "name": "provider",
          "type": "address"
        }
      ],
      "name": "addServiceProvider",
      "outputs": [],
      "stateMutability": "nonpayable",
      "type": "function"
    },
    {
      "inputs": [
        {
          "internalType": "uint256",
          "name": "tokenId",
          "type": "uint256"
        },
        {
          "internalType": "string",
          "name": "description",
          "type": "string"
        },
        {
          "internalType": "string",
          "name": "garageName",
          "type": "string"
        },
        {
          "internalType": "uint256",
          "name": "mileage",
          "type": "uint256"
        }
      ],
      "name": "addServiceRecord",
      "outputs": [],
      "stateMutability": "nonpayable",
      "type": "function"
    },
    {
      "inputs": [
        {
          "internalType": "address",
          "name": "to",
          "type": "address"
        },
        {
          "internalType": "uint256",
          "name": "tokenId",
          "type": "uint256"
        }
      ],
      "name": "approve",
      "outputs": [],
      "stateMutability": "nonpayable",
      "type": "function"
    },
    {
      "inputs": [
        {
          "internalType": "address",
          "name": "owner",
          "type": "address"
        }
      ],
      "name": "balanceOf",
      "outputs": [
        {
          "internalType": "uint256",
          "name": "",
          "type": "uint256"
        }
      ],
      "stateMutability": "view",
      "type": "function"
    },
    {
      "inputs": [
        {
          "internalType": "uint256",
          "name": "tokenId",
          "type": "uint256"
        }
      ],
      "name": "buyCar",
      "outputs": [],
      "stateMutability": "payable",
      "type": "function"
    },
    {
      "inputs": [],
      "name": "getAllCars",
      "outputs": [
        {
          "components": [
            {
              "internalType": "uint256",
              "name": "tokenId",
              "type": "uint256"
            },
            {
              "internalType": "string",
              "name": "tokenURI",
              "type": "string"
            },
            {
              "internalType": "uint256",
              "name": "price",
              "type": "uint256"
            }
          ],
          "internalType": "struct CarMarketplace.Car[]",
          "name": "",
          "type": "tuple[]"
        }
      ],
      "stateMutability": "view",
      "type": "function"
    },
    {
      "inputs": [
        {
          "internalType": "uint256",
          "name": "tokenId",
          "type": "uint256"
        }
      ],
      "name": "getApproved",
      "outputs": [
        {
          "internalType": "address",
          "name": "",
          "type": "address"
        }
      ],
      "stateMutability": "view",
      "type": "function"
    },
    {
      "inputs": [
        {
          "internalType": "uint256",
          "name": "tokenId",
          "type": "uint256"
        }
      ],
      "name": "getCarDetails",
      "outputs": [
        {
          "components": [
            {
              "internalType": "uint256",
              "name": "tokenId",
              "type": "uint256"
            },
            {
              "internalType": "string",
              "name": "tokenURI",
              "type": "string"
            },
            {
              "internalType": "uint256",
              "name": "price",
              "type": "uint256"
            }
          ],
          "internalType": "struct CarMarketplace.Car",
          "name": "",
          "type": "tuple"
        }
      ],
      "stateMutability": "view",
      "type": "function"
    },
    {
      "inputs": [
        {
          "internalType": "address",
          "name": "provider",
          "type": "address"
        }
      ],
      "name": "getIsServiceProvider",
      "outputs": [
        {
          "internalType": "bool",
          "name": "",
          "type": "bool"
        }
      ],
      "stateMutability": "view",
      "type": "function"
    },
    {
      "inputs": [
        {
          "internalType": "uint256",
          "name": "tokenId",
          "type": "uint256"
        }
      ],
      "name": "getServiceHistory",
      "outputs": [
        {
          "components": [
            {
              "internalType": "uint256",
              "name": "date",
              "type": "uint256"
            },
            {
              "internalType": "string",
              "name": "description",
              "type": "string"
            },
            {
              "internalType": "string",
              "name": "garageName",
              "type": "string"
            },
            {
              "internalType": "uint256",
              "name": "mileage",
              "type": "uint256"
            }
          ],
          "internalType": "struct CarMarketplace.ServiceRecord[]",
          "name": "",
          "type": "tuple[]"
        }
      ],
      "stateMutability": "view",
      "type": "function"
    },
    {
      "inputs": [
        {
          "internalType": "address",
          "name": "owner",
          "type": "address"
        },
        {
          "internalType": "address",
          "name": "operator",
          "type": "address"
        }
      ],
      "name": "isApprovedForAll",
      "outputs": [
        {
          "internalType": "bool",
          "name": "",
          "type": "bool"
        }
      ],
      "stateMutability": "view",
      "type": "function"
    },
    {
      "inputs": [
        {
          "internalType": "address",
          "name": "",
          "type": "address"
        }
      ],
      "name": "isServiceProvider",
      "outputs": [
        {
          "internalType": "bool",
          "name": "",
          "type": "bool"
        }
      ],
      "stateMutability": "view",
      "type": "function"
    },
    {
      "inputs": [
        {
          "internalType": "uint256",
          "name": "tokenId",
          "type": "uint256"
        },
        {
          "internalType": "uint256",
          "name": "price",
          "type": "uint256"
        }
      ],
      "name": "listCarForSale",
      "outputs": [],
      "stateMutability": "nonpayable",
      "type": "function"
    },
    {
      "inputs": [
        {
          "internalType": "address",
          "name": "to",
          "type": "address"
        },
        {
          "internalType": "string",
          "name": "vin",
          "type": "string"
        },
        {
          "internalType": "uint256",
          "name": "price",
          "type": "uint256"
        },
        {
          "internalType": "string",
          "name": "tokenURI",
          "type": "string"
        }
      ],
      "name": "mintCar",
      "outputs": [],
      "stateMutability": "nonpayable",
      "type": "function"
    },
    {
      "inputs": [],
      "name": "name",
      "outputs": [
        {
          "internalType": "string",
          "name": "",
          "type": "string"
        }
      ],
      "stateMutability": "view",
      "type": "function"
    },
    {
      "inputs": [],
      "name": "owner",
      "outputs": [
        {
          "internalType": "address",
          "name": "",
          "type": "address"
        }
      ],
      "stateMutability": "view",
      "type": "function"
    },
    {
      "inputs": [
        {
          "internalType": "uint256",
          "name": "tokenId",
          "type": "uint256"
        }
      ],
      "name": "ownerOf",
      "outputs": [
        {
          "internalType": "address",
          "name": "",
          "type": "address"
        }
      ],
      "stateMutability": "view",
      "type": "function"
    },
    {
      "inputs": [
        {
          "internalType": "address",
          "name": "provider",
          "type": "address"
        }
      ],
      "name": "removeServiceProvider",
      "outputs": [],
      "stateMutability": "nonpayable",
      "type": "function"
    },
    {
      "inputs": [],
      "name": "renounceOwnership",
      "outputs": [],
      "stateMutability": "nonpayable",
      "type": "function"
    },
    {
      "inputs": [
        {
          "internalType": "address",
          "name": "from",
          "type": "address"
        },
        {
          "internalType": "address",
          "name": "to",
          "type": "address"
        },
        {
          "internalType": "uint256",
          "name": "tokenId",
          "type": "uint256"
        }
      ],
      "name": "safeTransferFrom",
      "outputs": [],
      "stateMutability": "nonpayable",
      "type": "function"
    },
    {
      "inputs": [
        {
          "internalType": "address",
          "name": "from",
          "type": "address"
        },
        {
          "internalType": "address",
          "name": "to",
          "type": "address"
        },
        {
          "internalType": "uint256",
          "name": "tokenId",
          "type": "uint256"
        },
        {
          "internalType": "bytes",
          "name": "data",
          "type": "bytes"
        }
      ],
      "name": "safeTransferFrom",
      "outputs": [],
      "stateMutability": "nonpayable",
      "type": "function"
    },
    {
      "inputs": [
        {
          "internalType": "address",
          "name": "operator",
          "type": "address"
        },
        {
          "internalType": "bool",
          "name": "approved",
          "type": "bool"
        }
      ],
      "name": "setApprovalForAll",
      "outputs": [],
      "stateMutability": "nonpayable",
      "type": "function"
    },
    {
      "inputs": [
        {
          "internalType": "bytes4",
          "name": "interfaceId",
          "type": "bytes4"
        }
      ],
      "name": "supportsInterface",
      "outputs": [
        {
          "internalType": "bool",
          "name": "",
          "type": "bool"
        }
      ],
      "stateMutability": "view",
      "type": "function"
    },
    {
      "inputs": [],
      "name": "symbol",
      "outputs": [
        {
          "internalType": "string",
          "name": "",
          "type": "string"
        }
      ],
      "stateMutability": "view",
      "type": "function"
    },
    {
      "inputs": [
        {
          "internalType": "uint256",
          "name": "tokenId",
          "type": "uint256"
        }
      ],
      "name": "tokenURI",
      "outputs": [
        {
          "internalType": "string",
          "name": "",
          "type": "string"
        }
      ],
      "stateMutability": "view",
      "type": "function"
    },
    {
      "inputs": [
        {
          "internalType": "address",
          "name": "from",
          "type": "address"
        },
        {
          "internalType": "address",
          "name": "to",
          "type": "address"
        },
        {
          "internalType": "uint256",
          "name": "tokenId",
          "type": "uint256"
        }
      ],
      "name": "transferFrom",
      "outputs": [],
      "stateMutability": "nonpayable",
      "type": "function"
    },
    {
      "inputs": [
        {
          "internalType": "address",
          "name": "newOwner",
          "type": "address"
        }
      ],
      "name": "transferOwnership",
      "outputs": [],
      "stateMutability": "nonpayable",
      "type": "function"
    }
  ],
  "bytecode": "0x608060405234801561001057600080fd5b50336040518060400160405280600781526020017f4175746f446578000000000000000000000000000000000000000000000000008152506040518060400160405280600381526020017f4144580000000000000000000000000000000000000000000000000000000000815250816000908161008d919061043d565b50806001908161009d919061043d565b505050600073ffffffffffffffffffffffffffffffffffffffff168173ffffffffffffffffffffffffffffffffffffffff16036101125760006040517f1e4fbdf70000000000000000000000000000000000000000000000000000000081526004016101099190610550565b60405180910390fd5b6101218161012760201b60201c565b5061056b565b6000600760009054906101000a900473ffffffffffffffffffffffffffffffffffffffff16905081600760006101000a81548173ffffffffffffffffffffffffffffffffffffffff021916908373ffffffffffffffffffffffffffffffffffffffff1602179055508173ffffffffffffffffffffffffffffffffffffffff168173ffffffffffffffffffffffffffffffffffffffff167f8be0079c531659141344cd1fd0a4f28419497f9722a3daafe3b4186f6b6457e060405160405180910390a35050565b600081519050919050565b7f4e487b7100000000000000000000000000000000000000000000000000000000600052604160045260246000fd5b7f4e487b7100000000000000000000000000000000000000000000000000000000600052602260045260246000fd5b6000600282049050600182168061026e57607f821691505b60208210810361028157610280610227565b5b50919050565b60008190508160005260206000209050919050565b60006020601f8301049050919050565b600082821b905092915050565b6000600883026102e97fffffffffffffffffffffffffffffffffffffffffffffffffffffffffffffffff826102ac565b6102f386836102ac565b95508019841693508086168417925050509392505050565b6000819050919050565b6000819050919050565b600061033a6103356103308461030b565b610315565b61030b565b9050919050565b6000819050919050565b6103548361031f565b61036861036082610341565b8484546102b9565b825550505050565b600090565b61037d610370565b61038881848461034b565b505050565b5b818110156103ac576103a1600082610375565b60018101905061038e565b5050565b601f8211156103f1576103c281610287565b6103cb8461029c565b810160208510156103da578190505b6103ee6103e68561029c565b83018261038d565b50505b505050565b600082821c905092915050565b6000610414600019846008026103f6565b1980831691505092915050565b600061042d8383610403565b9150826002028217905092915050565b610446826101ed565b67ffffffffffffffff81111561045f5761045e6101f8565b5b6104698254610256565b6104748282856103b0565b600060209050601f8311600181146104a75760008415610495578287015190505b61049f8582610421565b865550610507565b601f1984166104b586610287565b60005b828110156104dd578489015182556001820191506020850194506020810190506104b8565b868310156104fa57848901516104f6601f891682610403565b8355505b6001600288020188555050505b505050505050565b600073ffffffffffffffffffffffffffffffffffffffff82169050919050565b600061053a8261050f565b9050919050565b61054a8161052f565b82525050565b60006020820190506105656000830184610541565b92915050565b6146458061057a6000396000f3fe60806040526004361061019c5760003560e01c806370a08231116100ec578063b88d4fde1161008a578063d2ec271e11610064578063d2ec271e146105ed578063e985e9c514610616578063f2fde38b14610653578063f68883841461067c5761019c565b8063b88d4fde1461055e578063bc93127a14610587578063c87b56dd146105b05761019c565b806395d89b41116100c657806395d89b41146104a2578063a22cb465146104cd578063abfe5d57146104f6578063ae1e3ff4146105215761019c565b806370a0823114610423578063715018a6146104605780638da5cb5b146104775761019c565b80631e7046b511610159578063444d0df111610133578063444d0df114610364578063472ec4541461038d5780636352211e146103ca5780636c231060146104075761019c565b80631e7046b5146102d557806323b872dd1461031257806342842e0e1461033b5761019c565b806301ffc9a7146101a157806306fdde03146101de578063075d7a6f14610209578063081812fc14610232578063095ea7b31461026f5780631dee28f714610298575b600080fd5b3480156101ad57600080fd5b506101c860048036038101906101c39190612f5f565b6106a5565b6040516101d59190612fa7565b60405180910390f35b3480156101ea57600080fd5b506101f3610706565b6040516102009190613052565b60405180910390f35b34801561021557600080fd5b50610230600480360381019061022b91906130d2565b610798565b005b34801561023e57600080fd5b5061025960048036038101906102549190613135565b6108cb565b6040516102669190613171565b60405180910390f35b34801561027b57600080fd5b506102966004803603810190610291919061318c565b6108e7565b005b3480156102a457600080fd5b506102bf60048036038101906102ba91906130d2565b6108fd565b6040516102cc9190612fa7565b60405180910390f35b3480156102e157600080fd5b506102fc60048036038101906102f79190613135565b61091d565b6040516103099190613351565b60405180910390f35b34801561031e57600080fd5b5061033960048036038101906103349190613373565b610b3e565b005b34801561034757600080fd5b50610362600480360381019061035d9190613373565b610c40565b005b34801561037057600080fd5b5061038b600480360381019061038691906130d2565b610c60565b005b34801561039957600080fd5b506103b460048036038101906103af9190613135565b610d92565b6040516103c19190613416565b60405180910390f35b3480156103d657600080fd5b506103f160048036038101906103ec9190613135565b610e6f565b6040516103fe9190613171565b60405180910390f35b610421600480360381019061041c9190613135565b610e81565b005b34801561042f57600080fd5b5061044a600480360381019061044591906130d2565b611175565b6040516104579190613447565b60405180910390f35b34801561046c57600080fd5b5061047561122f565b005b34801561048357600080fd5b5061048c611243565b6040516104999190613171565b60405180910390f35b3480156104ae57600080fd5b506104b761126d565b6040516104c49190613052565b60405180910390f35b3480156104d957600080fd5b506104f460048036038101906104ef919061348e565b6112ff565b005b34801561050257600080fd5b5061050b611315565b60405161051891906135e0565b60405180910390f35b34801561052d57600080fd5b50610548600480360381019061054391906130d2565b611475565b6040516105559190612fa7565b60405180910390f35b34801561056a57600080fd5b5061058560048036038101906105809190613737565b6114cb565b005b34801561059357600080fd5b506105ae60048036038101906105a9919061385b565b6114f0565b005b3480156105bc57600080fd5b506105d760048036038101906105d29190613135565b611690565b6040516105e49190613052565b60405180910390f35b3480156105f957600080fd5b50610614600480360381019061060f91906138fa565b6117a3565b005b34801561062257600080fd5b5061063d60048036038101906106389190613999565b611983565b60405161064a9190612fa7565b60405180910390f35b34801561065f57600080fd5b5061067a600480360381019061067591906130d2565b611a17565b005b34801561068857600080fd5b506106a3600480360381019061069e91906139d9565b611a9d565b005b6000634906490660e01b7bffffffffffffffffffffffffffffffffffffffffffffffffffffffff1916827bffffffffffffffffffffffffffffffffffffffffffffffffffffffff191614806106ff57506106fe82611bae565b5b9050919050565b60606000805461071590613a48565b80601f016020809104026020016040519081016040528092919081815260200182805461074190613a48565b801561078e5780601f106107635761010080835404028352916020019161078e565b820191906000526020600020905b81548152906001019060200180831161077157829003601f168201915b5050505050905090565b6107a0611c90565b600c60008273ffffffffffffffffffffffffffffffffffffffff1673ffffffffffffffffffffffffffffffffffffffff16815260200190815260200160002060009054906101000a900460ff161561082d576040517f08c379a000000000000000000000000000000000000000000000000000000000815260040161082490613ac5565b60405180910390fd5b6001600c60008373ffffffffffffffffffffffffffffffffffffffff1673ffffffffffffffffffffffffffffffffffffffff16815260200190815260200160002060006101000a81548160ff0219169083151502179055508073ffffffffffffffffffffffffffffffffffffffff167fcd01559a6bb952358fd75732d1b0722f0b5a507abe65c390bc972be0150211c860405160405180910390a250565b60006108d682611d17565b506108e082611d9f565b9050919050565b6108f982826108f4611ddc565b611de4565b5050565b600c6020528060005260406000206000915054906101000a900460ff1681565b6060600073ffffffffffffffffffffffffffffffffffffffff1661094083611df6565b73ffffffffffffffffffffffffffffffffffffffff1603610996576040517f08c379a000000000000000000000000000000000000000000000000000000000815260040161098d90613b31565b60405180910390fd5b600b6000838152602001908152602001600020805480602002602001604051908101604052809291908181526020016000905b82821015610b33578382906000526020600020906004020160405180608001604052908160008201548152602001600182018054610a0690613a48565b80601f0160208091040260200160405190810160405280929190818152602001828054610a3290613a48565b8015610a7f5780601f10610a5457610100808354040283529160200191610a7f565b820191906000526020600020905b815481529060010190602001808311610a6257829003601f168201915b50505050508152602001600282018054610a9890613a48565b80601f0160208091040260200160405190810160405280929190818152602001828054610ac490613a48565b8015610b115780601f10610ae657610100808354040283529160200191610b11565b820191906000526020600020905b815481529060010190602001808311610af457829003601f168201915b50505050508152602001600382015481525050815260200190600101906109c9565b505050509050919050565b600073ffffffffffffffffffffffffffffffffffffffff168273ffffffffffffffffffffffffffffffffffffffff1603610bb05760006040517f64a0ae92000000000000000000000000000000000000000000000000000000008152600401610ba79190613171565b60405180910390fd5b6000610bc48383610bbf611ddc565b611e33565b90508373ffffffffffffffffffffffffffffffffffffffff168173ffffffffffffffffffffffffffffffffffffffff1614610c3a578382826040517f64283d7b000000000000000000000000000000000000000000000000000000008152600401610c3193929190613b51565b60405180910390fd5b50505050565b610c5b838383604051806020016040528060008152506114cb565b505050565b610c68611c90565b600c60008273ffffffffffffffffffffffffffffffffffffffff1673ffffffffffffffffffffffffffffffffffffffff16815260200190815260200160002060009054906101000a900460ff16610cf4576040517f08c379a0000000000000000000000000000000000000000000000000000000008152600401610ceb90613bd4565b60405180910390fd5b6000600c60008373ffffffffffffffffffffffffffffffffffffffff1673ffffffffffffffffffffffffffffffffffffffff16815260200190815260200160002060006101000a81548160ff0219169083151502179055508073ffffffffffffffffffffffffffffffffffffffff167f8c8907774e957df66385c0630b7abbfc436cd160107e11d6944214489d5f865d60405160405180910390a250565b610d9a612ec8565b610da382611d17565b506009600083815260200190815260200160002060405180606001604052908160008201548152602001600182018054610ddc90613a48565b80601f0160208091040260200160405190810160405280929190818152602001828054610e0890613a48565b8015610e555780601f10610e2a57610100808354040283529160200191610e55565b820191906000526020600020905b815481529060010190602001808311610e3857829003601f168201915b505050505081526020016002820154815250509050919050565b6000610e7a82611d17565b9050919050565b6000610e8c82610e6f565b90506000600960008481526020019081526020016000206002015411610ee7576040517f08c379a0000000000000000000000000000000000000000000000000000000008152600401610ede90613c40565b60405180910390fd5b6009600083815260200190815260200160002060020154341015610f40576040517f08c379a0000000000000000000000000000000000000000000000000000000008152600401610f3790613cac565b60405180910390fd5b3373ffffffffffffffffffffffffffffffffffffffff168173ffffffffffffffffffffffffffffffffffffffff1603610fae576040517f08c379a0000000000000000000000000000000000000000000000000000000008152600401610fa590613d18565b60405180910390fd5b610fed6040518060400160405280600b81526020017f6d73672e73656e6465723a0000000000000000000000000000000000000000008152503361204d565b6110346040518060400160405280601181526020017f6f776e65724f6628746f6b656e4964293a00000000000000000000000000000081525061102f84610e6f565b61204d565b6110736040518060400160405280600b81526020017f70726963652073656e743a000000000000000000000000000000000000000000815250346120e9565b6110c86040518060400160405280600f81526020017f70726963652065787065637465643a000000000000000000000000000000000081525060096000858152602001908152602001600020600201546120e9565b6110d3813384612185565b8073ffffffffffffffffffffffffffffffffffffffff166108fc349081150290604051600060405180830381858888f19350505050158015611119573d6000803e3d6000fd5b50600060096000848152602001908152602001600020600201819055507f9d90e6b7483b210fb2eb1814d730195955d020389f316a5127d8f07d6fe61c8b82333460405161116993929190613d38565b60405180910390a15050565b60008073ffffffffffffffffffffffffffffffffffffffff168273ffffffffffffffffffffffffffffffffffffffff16036111e85760006040517f89c62b640000000000000000000000000000000000000000000000000000000081526004016111df9190613171565b60405180910390fd5b600360008373ffffffffffffffffffffffffffffffffffffffff1673ffffffffffffffffffffffffffffffffffffffff168152602001908152602001600020549050919050565b611237611c90565b61124160006122f2565b565b6000600760009054906101000a900473ffffffffffffffffffffffffffffffffffffffff16905090565b60606001805461127c90613a48565b80601f01602080910402602001604051908101604052809291908181526020018280546112a890613a48565b80156112f55780601f106112ca576101008083540402835291602001916112f5565b820191906000526020600020905b8154815290600101906020018083116112d857829003601f168201915b5050505050905090565b61131161130a611ddc565b83836123b8565b5050565b6060600060085467ffffffffffffffff8111156113355761133461360c565b5b60405190808252806020026020018201604052801561136e57816020015b61135b612ec8565b8152602001906001900390816113535790505b50905060005b60085481101561146d5760096000828152602001908152602001600020604051806060016040529081600082015481526020016001820180546113b690613a48565b80601f01602080910402602001604051908101604052809291908181526020018280546113e290613a48565b801561142f5780601f106114045761010080835404028352916020019161142f565b820191906000526020600020905b81548152906001019060200180831161141257829003601f168201915b5050505050815260200160028201548152505082828151811061145557611454613d6f565b5b60200260200101819052508080600101915050611374565b508091505090565b6000600c60008373ffffffffffffffffffffffffffffffffffffffff1673ffffffffffffffffffffffffffffffffffffffff16815260200190815260200160002060009054906101000a900460ff169050919050565b6114d6848484610b3e565b6114ea6114e1611ddc565b85858585612527565b50505050565b6114f8611c90565b600083511161153c576040517f08c379a000000000000000000000000000000000000000000000000000000000815260040161153390613dea565b60405180910390fd5b6000600a8460405161154e9190613e46565b9081526020016040518091039020541461159d576040517f08c379a000000000000000000000000000000000000000000000000000000000815260040161159490613ea9565b60405180910390fd5b600060085490506115ae85826126d8565b6115b881836127d1565b604051806060016040528082815260200183815260200184815250600960008381526020019081526020016000206000820151816000015560208201518160010190816116059190614075565b506040820151816002015590505080600a856040516116249190613e46565b9081526020016040518091039020819055506008600081548092919061164990614176565b91905055507fbd3303cf3cb581bf78ef3ac343c3e3d038afb8bc52183ae64109ebd7ee3a873d818686604051611681939291906141be565b60405180910390a15050505050565b606061169b82611d17565b5060006006600084815260200190815260200160002080546116bc90613a48565b80601f01602080910402602001604051908101604052809291908181526020018280546116e890613a48565b80156117355780601f1061170a57610100808354040283529160200191611735565b820191906000526020600020905b81548152906001019060200180831161171857829003601f168201915b50505050509050600061174661282d565b9050600081510361175b57819250505061179e565b6000825111156117905780826040516020016117789291906141fc565b6040516020818303038152906040529250505061179e565b61179984612844565b925050505b919050565b600073ffffffffffffffffffffffffffffffffffffffff166117c485610e6f565b73ffffffffffffffffffffffffffffffffffffffff160361181a576040517f08c379a00000000000000000000000000000000000000000000000000000000081526004016118119061426c565b60405180910390fd5b600c60003373ffffffffffffffffffffffffffffffffffffffff1673ffffffffffffffffffffffffffffffffffffffff16815260200190815260200160002060009054906101000a900460ff166118a6576040517f08c379a000000000000000000000000000000000000000000000000000000000815260040161189d906142fe565b60405180910390fd5b600b600085815260200190815260200160002060405180608001604052804281526020018581526020018481526020018381525090806001815401808255809150506001900390600052602060002090600402016000909190919091506000820151816000015560208201518160010190816119229190614075565b5060408201518160020190816119389190614075565b50606082015181600301555050837fe04dd2501fa1ca1a2bf1b8b0f34ecc0fbe8ad77f3680583182c26f44a0f5f244846040516119759190613052565b60405180910390a250505050565b6000600560008473ffffffffffffffffffffffffffffffffffffffff1673ffffffffffffffffffffffffffffffffffffffff16815260200190815260200160002060008373ffffffffffffffffffffffffffffffffffffffff1673ffffffffffffffffffffffffffffffffffffffff16815260200190815260200160002060009054906101000a900460ff16905092915050565b611a1f611c90565b600073ffffffffffffffffffffffffffffffffffffffff168173ffffffffffffffffffffffffffffffffffffffff1603611a915760006040517f1e4fbdf7000000000000000000000000000000000000000000000000000000008152600401611a889190613171565b60405180910390fd5b611a9a816122f2565b50565b3373ffffffffffffffffffffffffffffffffffffffff16611abd83610e6f565b73ffffffffffffffffffffffffffffffffffffffff1614611b13576040517f08c379a0000000000000000000000000000000000000000000000000000000008152600401611b0a90614390565b60405180910390fd5b60008111611b56576040517f08c379a0000000000000000000000000000000000000000000000000000000008152600401611b4d906143fc565b60405180910390fd5b8060096000848152602001908152602001600020600201819055507fd7eb5635a91daa6c8336a751c696002c8243f97bad99a81269931e46395247098282604051611ba292919061441c565b60405180910390a15050565b60007f80ac58cd000000000000000000000000000000000000000000000000000000007bffffffffffffffffffffffffffffffffffffffffffffffffffffffff1916827bffffffffffffffffffffffffffffffffffffffffffffffffffffffff19161480611c7957507f5b5e139f000000000000000000000000000000000000000000000000000000007bffffffffffffffffffffffffffffffffffffffffffffffffffffffff1916827bffffffffffffffffffffffffffffffffffffffffffffffffffffffff1916145b80611c895750611c88826128ad565b5b9050919050565b611c98611ddc565b73ffffffffffffffffffffffffffffffffffffffff16611cb6611243565b73ffffffffffffffffffffffffffffffffffffffff1614611d1557611cd9611ddc565b6040517f118cdaa7000000000000000000000000000000000000000000000000000000008152600401611d0c9190613171565b60405180910390fd5b565b600080611d2383611df6565b9050600073ffffffffffffffffffffffffffffffffffffffff168173ffffffffffffffffffffffffffffffffffffffff1603611d9657826040517f7e273289000000000000000000000000000000000000000000000000000000008152600401611d8d9190613447565b60405180910390fd5b80915050919050565b60006004600083815260200190815260200160002060009054906101000a900473ffffffffffffffffffffffffffffffffffffffff169050919050565b600033905090565b611df18383836001612917565b505050565b60006002600083815260200190815260200160002060009054906101000a900473ffffffffffffffffffffffffffffffffffffffff169050919050565b600080611e3f84611df6565b9050600073ffffffffffffffffffffffffffffffffffffffff168373ffffffffffffffffffffffffffffffffffffffff1614611e8157611e80818486612adc565b5b600073ffffffffffffffffffffffffffffffffffffffff168173ffffffffffffffffffffffffffffffffffffffff1614611f1257611ec3600085600080612917565b6001600360008373ffffffffffffffffffffffffffffffffffffffff1673ffffffffffffffffffffffffffffffffffffffff168152602001908152602001600020600082825403925050819055505b600073ffffffffffffffffffffffffffffffffffffffff168573ffffffffffffffffffffffffffffffffffffffff1614611f95576001600360008773ffffffffffffffffffffffffffffffffffffffff1673ffffffffffffffffffffffffffffffffffffffff168152602001908152602001600020600082825401925050819055505b846002600086815260200190815260200160002060006101000a81548173ffffffffffffffffffffffffffffffffffffffff021916908373ffffffffffffffffffffffffffffffffffffffff160217905550838573ffffffffffffffffffffffffffffffffffffffff168273ffffffffffffffffffffffffffffffffffffffff167fddf252ad1be2c89b69c2b068fc378daa952ba7f163c4a11628f55a4df523b3ef60405160405180910390a4809150509392505050565b6120e58282604051602401612063929190614445565b6040516020818303038152906040527f319af333000000000000000000000000000000000000000000000000000000007bffffffffffffffffffffffffffffffffffffffffffffffffffffffff19166020820180517bffffffffffffffffffffffffffffffffffffffffffffffffffffffff8381831617835250505050612ba0565b5050565b61218182826040516024016120ff929190614475565b6040516020818303038152906040527fb60e72cc000000000000000000000000000000000000000000000000000000007bffffffffffffffffffffffffffffffffffffffffffffffffffffffff19166020820180517bffffffffffffffffffffffffffffffffffffffffffffffffffffffff8381831617835250505050612ba0565b5050565b600073ffffffffffffffffffffffffffffffffffffffff168273ffffffffffffffffffffffffffffffffffffffff16036121f75760006040517f64a0ae920000000000000000000000000000000000000000000000000000000081526004016121ee9190613171565b60405180910390fd5b600061220583836000611e33565b9050600073ffffffffffffffffffffffffffffffffffffffff168173ffffffffffffffffffffffffffffffffffffffff160361227857816040517f7e27328900000000000000000000000000000000000000000000000000000000815260040161226f9190613447565b60405180910390fd5b8373ffffffffffffffffffffffffffffffffffffffff168173ffffffffffffffffffffffffffffffffffffffff16146122ec578382826040517f64283d7b0000000000000000000000000000000000000000000000000000000081526004016122e393929190613b51565b60405180910390fd5b50505050565b6000600760009054906101000a900473ffffffffffffffffffffffffffffffffffffffff16905081600760006101000a81548173ffffffffffffffffffffffffffffffffffffffff021916908373ffffffffffffffffffffffffffffffffffffffff1602179055508173ffffffffffffffffffffffffffffffffffffffff168173ffffffffffffffffffffffffffffffffffffffff167f8be0079c531659141344cd1fd0a4f28419497f9722a3daafe3b4186f6b6457e060405160405180910390a35050565b600073ffffffffffffffffffffffffffffffffffffffff168273ffffffffffffffffffffffffffffffffffffffff160361242957816040517f5b08ba180000000000000000000000000000000000000000000000000000000081526004016124209190613171565b60405180910390fd5b80600560008573ffffffffffffffffffffffffffffffffffffffff1673ffffffffffffffffffffffffffffffffffffffff16815260200190815260200160002060008473ffffffffffffffffffffffffffffffffffffffff1673ffffffffffffffffffffffffffffffffffffffff16815260200190815260200160002060006101000a81548160ff0219169083151502179055508173ffffffffffffffffffffffffffffffffffffffff168373ffffffffffffffffffffffffffffffffffffffff167f17307eab39ab6107e8899845ad3d59bd9653f200f220920489ca2b5937696c318360405161251a9190612fa7565b60405180910390a3505050565b60008373ffffffffffffffffffffffffffffffffffffffff163b11156126d1578273ffffffffffffffffffffffffffffffffffffffff1663150b7a02868685856040518563ffffffff1660e01b815260040161258694939291906144fa565b6020604051808303816000875af19250505080156125c257506040513d601f19601f820116820180604052508101906125bf919061455b565b60015b612646573d80600081146125f2576040519150601f19603f3d011682016040523d82523d6000602084013e6125f7565b606091505b50600081510361263e57836040517f64a0ae920000000000000000000000000000000000000000000000000000000081526004016126359190613171565b60405180910390fd5b805181602001fd5b63150b7a0260e01b7bffffffffffffffffffffffffffffffffffffffffffffffffffffffff1916817bffffffffffffffffffffffffffffffffffffffffffffffffffffffff1916146126cf57836040517f64a0ae920000000000000000000000000000000000000000000000000000000081526004016126c69190613171565b60405180910390fd5b505b5050505050565b600073ffffffffffffffffffffffffffffffffffffffff168273ffffffffffffffffffffffffffffffffffffffff160361274a5760006040517f64a0ae920000000000000000000000000000000000000000000000000000000081526004016127419190613171565b60405180910390fd5b600061275883836000611e33565b9050600073ffffffffffffffffffffffffffffffffffffffff168173ffffffffffffffffffffffffffffffffffffffff16146127cc5760006040517f73c6ac6e0000000000000000000000000000000000000000000000000000000081526004016127c39190613171565b60405180910390fd5b505050565b806006600084815260200190815260200160002090816127f19190614075565b507ff8e1a15aba9398e019f0b49df1a4fde98ee17ae345cb5f6b5e2c27f5033e8ce7826040516128219190613447565b60405180910390a15050565b606060405180602001604052806000815250905090565b606061284f82611d17565b50600061285a61282d565b9050600081511161287a57604051806020016040528060008152506128a5565b8061288484612bba565b6040516020016128959291906141fc565b6040516020818303038152906040525b915050919050565b60007f01ffc9a7000000000000000000000000000000000000000000000000000000007bffffffffffffffffffffffffffffffffffffffffffffffffffffffff1916827bffffffffffffffffffffffffffffffffffffffffffffffffffffffff1916149050919050565b80806129505750600073ffffffffffffffffffffffffffffffffffffffff168273ffffffffffffffffffffffffffffffffffffffff1614155b15612a8457600061296084611d17565b9050600073ffffffffffffffffffffffffffffffffffffffff168373ffffffffffffffffffffffffffffffffffffffff16141580156129cb57508273ffffffffffffffffffffffffffffffffffffffff168173ffffffffffffffffffffffffffffffffffffffff1614155b80156129de57506129dc8184611983565b155b15612a2057826040517fa9fbf51f000000000000000000000000000000000000000000000000000000008152600401612a179190613171565b60405180910390fd5b8115612a8257838573ffffffffffffffffffffffffffffffffffffffff168273ffffffffffffffffffffffffffffffffffffffff167f8c5be1e5ebec7d5bd14f71427d1e84f3dd0314c0f7b2291e5b200ac8c7c3b92560405160405180910390a45b505b836004600085815260200190815260200160002060006101000a81548173ffffffffffffffffffffffffffffffffffffffff021916908373ffffffffffffffffffffffffffffffffffffffff16021790555050505050565b612ae7838383612c88565b612b9b57600073ffffffffffffffffffffffffffffffffffffffff168373ffffffffffffffffffffffffffffffffffffffff1603612b5c57806040517f7e273289000000000000000000000000000000000000000000000000000000008152600401612b539190613447565b60405180910390fd5b81816040517f177e802f000000000000000000000000000000000000000000000000000000008152600401612b92929190614588565b60405180910390fd5b505050565b612bb781612baf612d49612d6a565b63ffffffff16565b50565b606060006001612bc984612d75565b01905060008167ffffffffffffffff811115612be857612be761360c565b5b6040519080825280601f01601f191660200182016040528015612c1a5781602001600182028036833780820191505090505b509050600082602001820190505b600115612c7d578080600190039150507f3031323334353637383961626364656600000000000000000000000000000000600a86061a8153600a8581612c7157612c706145b1565b5b04945060008503612c28575b819350505050919050565b60008073ffffffffffffffffffffffffffffffffffffffff168373ffffffffffffffffffffffffffffffffffffffff1614158015612d4057508273ffffffffffffffffffffffffffffffffffffffff168473ffffffffffffffffffffffffffffffffffffffff161480612d015750612d008484611983565b5b80612d3f57508273ffffffffffffffffffffffffffffffffffffffff16612d2783611d9f565b73ffffffffffffffffffffffffffffffffffffffff16145b5b90509392505050565b60006a636f6e736f6c652e6c6f679050600080835160208501845afa505050565b612ee9819050919050565b600080600090507a184f03e93ff9f4daa797ed6e38ed64bf6a1f0100000000000000008310612dd3577a184f03e93ff9f4daa797ed6e38ed64bf6a1f0100000000000000008381612dc957612dc86145b1565b5b0492506040810190505b6d04ee2d6d415b85acef81000000008310612e10576d04ee2d6d415b85acef81000000008381612e0657612e056145b1565b5b0492506020810190505b662386f26fc100008310612e3f57662386f26fc100008381612e3557612e346145b1565b5b0492506010810190505b6305f5e1008310612e68576305f5e1008381612e5e57612e5d6145b1565b5b0492506008810190505b6127108310612e8d576127108381612e8357612e826145b1565b5b0492506004810190505b60648310612eb05760648381612ea657612ea56145b1565b5b0492506002810190505b600a8310612ebf576001810190505b80915050919050565b60405180606001604052806000815260200160608152602001600081525090565b612ef16145e0565b565b6000604051905090565b600080fd5b600080fd5b60007fffffffff0000000000000000000000000000000000000000000000000000000082169050919050565b612f3c81612f07565b8114612f4757600080fd5b50565b600081359050612f5981612f33565b92915050565b600060208284031215612f7557612f74612efd565b5b6000612f8384828501612f4a565b91505092915050565b60008115159050919050565b612fa181612f8c565b82525050565b6000602082019050612fbc6000830184612f98565b92915050565b600081519050919050565b600082825260208201905092915050565b60005b83811015612ffc578082015181840152602081019050612fe1565b60008484015250505050565b6000601f19601f8301169050919050565b600061302482612fc2565b61302e8185612fcd565b935061303e818560208601612fde565b61304781613008565b840191505092915050565b6000602082019050818103600083015261306c8184613019565b905092915050565b600073ffffffffffffffffffffffffffffffffffffffff82169050919050565b600061309f82613074565b9050919050565b6130af81613094565b81146130ba57600080fd5b50565b6000813590506130cc816130a6565b92915050565b6000602082840312156130e8576130e7612efd565b5b60006130f6848285016130bd565b91505092915050565b6000819050919050565b613112816130ff565b811461311d57600080fd5b50565b60008135905061312f81613109565b92915050565b60006020828403121561314b5761314a612efd565b5b600061315984828501613120565b91505092915050565b61316b81613094565b82525050565b60006020820190506131866000830184613162565b92915050565b600080604083850312156131a3576131a2612efd565b5b60006131b1858286016130bd565b92505060206131c285828601613120565b9150509250929050565b600081519050919050565b600082825260208201905092915050565b6000819050602082019050919050565b613201816130ff565b82525050565b600082825260208201905092915050565b600061322382612fc2565b61322d8185613207565b935061323d818560208601612fde565b61324681613008565b840191505092915050565b600060808301600083015161326960008601826131f8565b50602083015184820360208601526132818282613218565b9150506040830151848203604086015261329b8282613218565b91505060608301516132b060608601826131f8565b508091505092915050565b60006132c78383613251565b905092915050565b6000602082019050919050565b60006132e7826131cc565b6132f181856131d7565b935083602082028501613303856131e8565b8060005b8581101561333f578484038952815161332085826132bb565b945061332b836132cf565b925060208a01995050600181019050613307565b50829750879550505050505092915050565b6000602082019050818103600083015261336b81846132dc565b905092915050565b60008060006060848603121561338c5761338b612efd565b5b600061339a868287016130bd565b93505060206133ab868287016130bd565b92505060406133bc86828701613120565b9150509250925092565b60006060830160008301516133de60008601826131f8565b50602083015184820360208601526133f68282613218565b915050604083015161340b60408601826131f8565b508091505092915050565b6000602082019050818103600083015261343081846133c6565b905092915050565b613441816130ff565b82525050565b600060208201905061345c6000830184613438565b92915050565b61346b81612f8c565b811461347657600080fd5b50565b60008135905061348881613462565b92915050565b600080604083850312156134a5576134a4612efd565b5b60006134b3858286016130bd565b92505060206134c485828601613479565b9150509250929050565b600081519050919050565b600082825260208201905092915050565b6000819050602082019050919050565b600060608301600083015161351260008601826131f8565b506020830151848203602086015261352a8282613218565b915050604083015161353f60408601826131f8565b508091505092915050565b600061355683836134fa565b905092915050565b6000602082019050919050565b6000613576826134ce565b61358081856134d9565b935083602082028501613592856134ea565b8060005b858110156135ce57848403895281516135af858261354a565b94506135ba8361355e565b925060208a01995050600181019050613596565b50829750879550505050505092915050565b600060208201905081810360008301526135fa818461356b565b905092915050565b600080fd5b600080fd5b7f4e487b7100000000000000000000000000000000000000000000000000000000600052604160045260246000fd5b61364482613008565b810181811067ffffffffffffffff821117156136635761366261360c565b5b80604052505050565b6000613676612ef3565b9050613682828261363b565b919050565b600067ffffffffffffffff8211156136a2576136a161360c565b5b6136ab82613008565b9050602081019050919050565b82818337600083830152505050565b60006136da6136d584613687565b61366c565b9050828152602081018484840111156136f6576136f5613607565b5b6137018482856136b8565b509392505050565b600082601f83011261371e5761371d613602565b5b813561372e8482602086016136c7565b91505092915050565b6000806000806080858703121561375157613750612efd565b5b600061375f878288016130bd565b9450506020613770878288016130bd565b935050604061378187828801613120565b925050606085013567ffffffffffffffff8111156137a2576137a1612f02565b5b6137ae87828801613709565b91505092959194509250565b600067ffffffffffffffff8211156137d5576137d461360c565b5b6137de82613008565b9050602081019050919050565b60006137fe6137f9846137ba565b61366c565b90508281526020810184848401111561381a57613819613607565b5b6138258482856136b8565b509392505050565b600082601f83011261384257613841613602565b5b81356138528482602086016137eb565b91505092915050565b6000806000806080858703121561387557613874612efd565b5b6000613883878288016130bd565b945050602085013567ffffffffffffffff8111156138a4576138a3612f02565b5b6138b08782880161382d565b93505060406138c187828801613120565b925050606085013567ffffffffffffffff8111156138e2576138e1612f02565b5b6138ee8782880161382d565b91505092959194509250565b6000806000806080858703121561391457613913612efd565b5b600061392287828801613120565b945050602085013567ffffffffffffffff81111561394357613942612f02565b5b61394f8782880161382d565b935050604085013567ffffffffffffffff8111156139705761396f612f02565b5b61397c8782880161382d565b925050606061398d87828801613120565b91505092959194509250565b600080604083850312156139b0576139af612efd565b5b60006139be858286016130bd565b92505060206139cf858286016130bd565b9150509250929050565b600080604083850312156139f0576139ef612efd565b5b60006139fe85828601613120565b9250506020613a0f85828601613120565b9150509250929050565b7f4e487b7100000000000000000000000000000000000000000000000000000000600052602260045260246000fd5b60006002820490506001821680613a6057607f821691505b602082108103613a7357613a72613a19565b5b50919050565b7f416c726561647920617574686f72697a65640000000000000000000000000000600082015250565b6000613aaf601283612fcd565b9150613aba82613a79565b602082019050919050565b60006020820190508181036000830152613ade81613aa2565b9050919050565b7f43617220646f6573206e6f742065786973740000000000000000000000000000600082015250565b6000613b1b601283612fcd565b9150613b2682613ae5565b602082019050919050565b60006020820190508181036000830152613b4a81613b0e565b9050919050565b6000606082019050613b666000830186613162565b613b736020830185613438565b613b806040830184613162565b949350505050565b7f4e6f7420617574686f72697a6564000000000000000000000000000000000000600082015250565b6000613bbe600e83612fcd565b9150613bc982613b88565b602082019050919050565b60006020820190508181036000830152613bed81613bb1565b9050919050565b7f436172206973206e6f7420666f722073616c6500000000000000000000000000600082015250565b6000613c2a601383612fcd565b9150613c3582613bf4565b602082019050919050565b60006020820190508181036000830152613c5981613c1d565b9050919050565b7f496e73756666696369656e74204554482073656e742e00000000000000000000600082015250565b6000613c96601683612fcd565b9150613ca182613c60565b602082019050919050565b60006020820190508181036000830152613cc581613c89565b9050919050565b7f596f752063616e6e6f742062757920796f7572206f776e206361722e00000000600082015250565b6000613d02601c83612fcd565b9150613d0d82613ccc565b602082019050919050565b60006020820190508181036000830152613d3181613cf5565b9050919050565b6000606082019050613d4d6000830186613438565b613d5a6020830185613162565b613d676040830184613438565b949350505050565b7f4e487b7100000000000000000000000000000000000000000000000000000000600052603260045260246000fd5b7f56494e206d7573742062652070726f7669646564000000000000000000000000600082015250565b6000613dd4601483612fcd565b9150613ddf82613d9e565b602082019050919050565b60006020820190508181036000830152613e0381613dc7565b9050919050565b600081905092915050565b6000613e2082612fc2565b613e2a8185613e0a565b9350613e3a818560208601612fde565b80840191505092915050565b6000613e528284613e15565b915081905092915050565b7f56494e20616c7265616479207573656400000000000000000000000000000000600082015250565b6000613e93601083612fcd565b9150613e9e82613e5d565b602082019050919050565b60006020820190508181036000830152613ec281613e86565b9050919050565b60008190508160005260206000209050919050565b60006020601f8301049050919050565b600082821b905092915050565b600060088302613f2b7fffffffffffffffffffffffffffffffffffffffffffffffffffffffffffffffff82613eee565b613f358683613eee565b95508019841693508086168417925050509392505050565b6000819050919050565b6000613f72613f6d613f68846130ff565b613f4d565b6130ff565b9050919050565b6000819050919050565b613f8c83613f57565b613fa0613f9882613f79565b848454613efb565b825550505050565b600090565b613fb5613fa8565b613fc0818484613f83565b505050565b5b81811015613fe457613fd9600082613fad565b600181019050613fc6565b5050565b601f82111561402957613ffa81613ec9565b61400384613ede565b81016020851015614012578190505b61402661401e85613ede565b830182613fc5565b50505b505050565b600082821c905092915050565b600061404c6000198460080261402e565b1980831691505092915050565b6000614065838361403b565b9150826002028217905092915050565b61407e82612fc2565b67ffffffffffffffff8111156140975761409661360c565b5b6140a18254613a48565b6140ac828285613fe8565b600060209050601f8311600181146140df57600084156140cd578287015190505b6140d78582614059565b86555061413f565b601f1984166140ed86613ec9565b60005b82811015614115578489015182556001820191506020850194506020810190506140f0565b86831015614132578489015161412e601f89168261403b565b8355505b6001600288020188555050505b505050505050565b7f4e487b7100000000000000000000000000000000000000000000000000000000600052601160045260246000fd5b6000614181826130ff565b91507fffffffffffffffffffffffffffffffffffffffffffffffffffffffffffffffff82036141b3576141b2614147565b5b600182019050919050565b60006060820190506141d36000830186613438565b6141e06020830185613162565b81810360408301526141f28184613019565b9050949350505050565b60006142088285613e15565b91506142148284613e15565b91508190509392505050565b7f546f6b656e20646f6573206e6f74206578697374000000000000000000000000600082015250565b6000614256601483612fcd565b915061426182614220565b602082019050919050565b6000602082019050818103600083015261428581614249565b9050919050565b7f4e6f7420617574686f72697a656420746f20616464207365727669636520726560008201527f636f726400000000000000000000000000000000000000000000000000000000602082015250565b60006142e8602483612fcd565b91506142f38261428c565b604082019050919050565b60006020820190508181036000830152614317816142db565b9050919050565b7f4f6e6c7920746865206f776e6572206f66207468652076656869636c6520636160008201527f6e206c69737420697420666f722073616c652e00000000000000000000000000602082015250565b600061437a603383612fcd565b91506143858261431e565b604082019050919050565b600060208201905081810360008301526143a98161436d565b9050919050565b7f5072696365206d7573742062652067726561746572207468616e207a65726f2e600082015250565b60006143e6602083612fcd565b91506143f1826143b0565b602082019050919050565b60006020820190508181036000830152614415816143d9565b9050919050565b60006040820190506144316000830185613438565b61443e6020830184613438565b9392505050565b6000604082019050818103600083015261445f8185613019565b905061446e6020830184613162565b9392505050565b6000604082019050818103600083015261448f8185613019565b905061449e6020830184613438565b9392505050565b600081519050919050565b600082825260208201905092915050565b60006144cc826144a5565b6144d681856144b0565b93506144e6818560208601612fde565b6144ef81613008565b840191505092915050565b600060808201905061450f6000830187613162565b61451c6020830186613162565b6145296040830185613438565b818103606083015261453b81846144c1565b905095945050505050565b60008151905061455581612f33565b92915050565b60006020828403121561457157614570612efd565b5b600061457f84828501614546565b91505092915050565b600060408201905061459d6000830185613162565b6145aa6020830184613438565b9392505050565b7f4e487b7100000000000000000000000000000000000000000000000000000000600052601260045260246000fd5b7f4e487b7100000000000000000000000000000000000000000000000000000000600052605160045260246000fdfea2646970667358221220bf0431ca96aa222ff4affc6c703c13f670b9e4da404123b76136a1029303cbf364736f6c634300081c0033",
  "linkReferences": {},
  "deployedLinkReferences": {}
}