{
  "_format": "hh-sol-artifact-1",
  "contractName": "CarMarketplace",
  "sourceName": "contracts/CarMarketplace.sol",
  "abi": [
    {
      "inputs": [],
      "stateMutability": "nonpayable",
      "type": "constructor"
    },
    {
      "inputs": [
        {
          "internalType": "address",
          "name": "sender",
          "type": "address"
        },
        {
          "internalType": "uint256",
          "name": "tokenId",
          "type": "uint256"
        },
        {
          "internalType": "address",
          "name": "owner",
          "type": "address"
        }
      ],
      "name": "ERC721IncorrectOwner",
      "type": "error"
    },
    {
      "inputs": [
        {
          "internalType": "address",
          "name": "operator",
          "type": "address"
        },
        {
          "internalType": "uint256",
          "name": "tokenId",
          "type": "uint256"
        }
      ],
      "name": "ERC721InsufficientApproval",
      "type": "error"
    },
    {
      "inputs": [
        {
          "internalType": "address",
          "name": "approver",
          "type": "address"
        }
      ],
      "name": "ERC721InvalidApprover",
      "type": "error"
    },
    {
      "inputs": [
        {
          "internalType": "address",
          "name": "operator",
          "type": "address"
        }
      ],
      "name": "ERC721InvalidOperator",
      "type": "error"
    },
    {
      "inputs": [
        {
          "internalType": "address",
          "name": "owner",
          "type": "address"
        }
      ],
      "name": "ERC721InvalidOwner",
      "type": "error"
    },
    {
      "inputs": [
        {
          "internalType": "address",
          "name": "receiver",
          "type": "address"
        }
      ],
      "name": "ERC721InvalidReceiver",
      "type": "error"
    },
    {
      "inputs": [
        {
          "internalType": "address",
          "name": "sender",
          "type": "address"
        }
      ],
      "name": "ERC721InvalidSender",
      "type": "error"
    },
    {
      "inputs": [
        {
          "internalType": "uint256",
          "name": "tokenId",
          "type": "uint256"
        }
      ],
      "name": "ERC721NonexistentToken",
      "type": "error"
    },
    {
      "inputs": [
        {
          "internalType": "address",
          "name": "owner",
          "type": "address"
        }
      ],
      "name": "OwnableInvalidOwner",
      "type": "error"
    },
    {
      "inputs": [
        {
          "internalType": "address",
          "name": "account",
          "type": "address"
        }
      ],
      "name": "OwnableUnauthorizedAccount",
      "type": "error"
    },
    {
      "anonymous": false,
      "inputs": [
        {
          "indexed": true,
          "internalType": "address",
          "name": "owner",
          "type": "address"
        },
        {
          "indexed": true,
          "internalType": "address",
          "name": "approved",
          "type": "address"
        },
        {
          "indexed": true,
          "internalType": "uint256",
          "name": "tokenId",
          "type": "uint256"
        }
      ],
      "name": "Approval",
      "type": "event"
    },
    {
      "anonymous": false,
      "inputs": [
        {
          "indexed": true,
          "internalType": "address",
          "name": "owner",
          "type": "address"
        },
        {
          "indexed": true,
          "internalType": "address",
          "name": "operator",
          "type": "address"
        },
        {
          "indexed": false,
          "internalType": "bool",
          "name": "approved",
          "type": "bool"
        }
      ],
      "name": "ApprovalForAll",
      "type": "event"
    },
    {
      "anonymous": false,
      "inputs": [
        {
          "indexed": false,
          "internalType": "uint256",
          "name": "_fromTokenId",
          "type": "uint256"
        },
        {
          "indexed": false,
          "internalType": "uint256",
          "name": "_toTokenId",
          "type": "uint256"
        }
      ],
      "name": "BatchMetadataUpdate",
      "type": "event"
    },
    {
      "anonymous": false,
      "inputs": [
        {
          "indexed": false,
          "internalType": "uint256",
          "name": "tokenId",
          "type": "uint256"
        },
        {
          "indexed": false,
          "internalType": "uint256",
          "name": "price",
          "type": "uint256"
        }
      ],
      "name": "CarListedForSale",
      "type": "event"
    },
    {
      "anonymous": false,
      "inputs": [
        {
          "indexed": false,
          "internalType": "uint256",
          "name": "tokenId",
          "type": "uint256"
        },
        {
          "indexed": false,
          "internalType": "address",
          "name": "owner",
          "type": "address"
        },
        {
          "indexed": false,
          "internalType": "string",
          "name": "vin",
          "type": "string"
        }
      ],
      "name": "CarMinted",
      "type": "event"
    },
    {
      "anonymous": false,
      "inputs": [
        {
          "indexed": false,
          "internalType": "uint256",
          "name": "tokenId",
          "type": "uint256"
        },
        {
          "indexed": false,
          "internalType": "address",
          "name": "newOwner",
          "type": "address"
        },
        {
          "indexed": false,
          "internalType": "uint256",
          "name": "price",
          "type": "uint256"
        }
      ],
      "name": "CarSold",
      "type": "event"
    },
    {
      "anonymous": false,
      "inputs": [
        {
          "indexed": false,
          "internalType": "uint256",
          "name": "_tokenId",
          "type": "uint256"
        }
      ],
      "name": "MetadataUpdate",
      "type": "event"
    },
    {
      "anonymous": false,
      "inputs": [
        {
          "indexed": true,
          "internalType": "address",
          "name": "previousOwner",
          "type": "address"
        },
        {
          "indexed": true,
          "internalType": "address",
          "name": "newOwner",
          "type": "address"
        }
      ],
      "name": "OwnershipTransferred",
      "type": "event"
    },
    {
      "anonymous": false,
      "inputs": [
        {
          "indexed": true,
          "internalType": "address",
          "name": "from",
          "type": "address"
        },
        {
          "indexed": true,
          "internalType": "address",
          "name": "to",
          "type": "address"
        },
        {
          "indexed": true,
          "internalType": "uint256",
          "name": "tokenId",
          "type": "uint256"
        }
      ],
      "name": "Transfer",
      "type": "event"
    },
    {
      "inputs": [
        {
          "internalType": "address",
          "name": "to",
          "type": "address"
        },
        {
          "internalType": "uint256",
          "name": "tokenId",
          "type": "uint256"
        }
      ],
      "name": "approve",
      "outputs": [],
      "stateMutability": "nonpayable",
      "type": "function"
    },
    {
      "inputs": [
        {
          "internalType": "address",
          "name": "owner",
          "type": "address"
        }
      ],
      "name": "balanceOf",
      "outputs": [
        {
          "internalType": "uint256",
          "name": "",
          "type": "uint256"
        }
      ],
      "stateMutability": "view",
      "type": "function"
    },
    {
      "inputs": [
        {
          "internalType": "uint256",
          "name": "tokenId",
          "type": "uint256"
        }
      ],
      "name": "buyCar",
      "outputs": [],
      "stateMutability": "payable",
      "type": "function"
    },
    {
      "inputs": [],
      "name": "getAllCars",
      "outputs": [
        {
          "components": [
            {
              "internalType": "string",
              "name": "make",
              "type": "string"
            },
            {
              "internalType": "string",
              "name": "model",
              "type": "string"
            },
            {
              "internalType": "uint256",
              "name": "year",
              "type": "uint256"
            },
            {
              "internalType": "string",
              "name": "vin",
              "type": "string"
            },
            {
              "internalType": "uint256",
              "name": "mileage",
              "type": "uint256"
            },
            {
              "internalType": "bool",
              "name": "forSale",
              "type": "bool"
            },
            {
              "internalType": "uint256",
              "name": "price",
              "type": "uint256"
            },
            {
              "internalType": "string",
              "name": "tokenURI",
              "type": "string"
            }
          ],
          "internalType": "struct CarMarketplace.Car[]",
          "name": "",
          "type": "tuple[]"
        }
      ],
      "stateMutability": "view",
      "type": "function"
    },
    {
      "inputs": [
        {
          "internalType": "uint256",
          "name": "tokenId",
          "type": "uint256"
        }
      ],
      "name": "getApproved",
      "outputs": [
        {
          "internalType": "address",
          "name": "",
          "type": "address"
        }
      ],
      "stateMutability": "view",
      "type": "function"
    },
    {
      "inputs": [
        {
          "internalType": "uint256",
          "name": "tokenId",
          "type": "uint256"
        }
      ],
      "name": "getCarDetails",
      "outputs": [
        {
          "components": [
            {
              "internalType": "string",
              "name": "make",
              "type": "string"
            },
            {
              "internalType": "string",
              "name": "model",
              "type": "string"
            },
            {
              "internalType": "uint256",
              "name": "year",
              "type": "uint256"
            },
            {
              "internalType": "string",
              "name": "vin",
              "type": "string"
            },
            {
              "internalType": "uint256",
              "name": "mileage",
              "type": "uint256"
            },
            {
              "internalType": "bool",
              "name": "forSale",
              "type": "bool"
            },
            {
              "internalType": "uint256",
              "name": "price",
              "type": "uint256"
            },
            {
              "internalType": "string",
              "name": "tokenURI",
              "type": "string"
            }
          ],
          "internalType": "struct CarMarketplace.Car",
          "name": "",
          "type": "tuple"
        }
      ],
      "stateMutability": "view",
      "type": "function"
    },
    {
      "inputs": [
        {
          "internalType": "address",
          "name": "owner",
          "type": "address"
        },
        {
          "internalType": "address",
          "name": "operator",
          "type": "address"
        }
      ],
      "name": "isApprovedForAll",
      "outputs": [
        {
          "internalType": "bool",
          "name": "",
          "type": "bool"
        }
      ],
      "stateMutability": "view",
      "type": "function"
    },
    {
      "inputs": [
        {
          "internalType": "uint256",
          "name": "tokenId",
          "type": "uint256"
        },
        {
          "internalType": "uint256",
          "name": "price",
          "type": "uint256"
        }
      ],
      "name": "listCarForSale",
      "outputs": [],
      "stateMutability": "nonpayable",
      "type": "function"
    },
    {
      "inputs": [
        {
          "internalType": "address",
          "name": "to",
          "type": "address"
        },
        {
          "internalType": "string",
          "name": "make",
          "type": "string"
        },
        {
          "internalType": "string",
          "name": "model",
          "type": "string"
        },
        {
          "internalType": "uint256",
          "name": "year",
          "type": "uint256"
        },
        {
          "internalType": "string",
          "name": "vin",
          "type": "string"
        },
        {
          "internalType": "uint256",
          "name": "mileage",
          "type": "uint256"
        },
        {
          "internalType": "string",
          "name": "tokenURI",
          "type": "string"
        }
      ],
      "name": "mintCar",
      "outputs": [],
      "stateMutability": "nonpayable",
      "type": "function"
    },
    {
      "inputs": [],
      "name": "name",
      "outputs": [
        {
          "internalType": "string",
          "name": "",
          "type": "string"
        }
      ],
      "stateMutability": "view",
      "type": "function"
    },
    {
      "inputs": [],
      "name": "owner",
      "outputs": [
        {
          "internalType": "address",
          "name": "",
          "type": "address"
        }
      ],
      "stateMutability": "view",
      "type": "function"
    },
    {
      "inputs": [
        {
          "internalType": "uint256",
          "name": "tokenId",
          "type": "uint256"
        }
      ],
      "name": "ownerOf",
      "outputs": [
        {
          "internalType": "address",
          "name": "",
          "type": "address"
        }
      ],
      "stateMutability": "view",
      "type": "function"
    },
    {
      "inputs": [],
      "name": "renounceOwnership",
      "outputs": [],
      "stateMutability": "nonpayable",
      "type": "function"
    },
    {
      "inputs": [
        {
          "internalType": "address",
          "name": "from",
          "type": "address"
        },
        {
          "internalType": "address",
          "name": "to",
          "type": "address"
        },
        {
          "internalType": "uint256",
          "name": "tokenId",
          "type": "uint256"
        }
      ],
      "name": "safeTransferFrom",
      "outputs": [],
      "stateMutability": "nonpayable",
      "type": "function"
    },
    {
      "inputs": [
        {
          "internalType": "address",
          "name": "from",
          "type": "address"
        },
        {
          "internalType": "address",
          "name": "to",
          "type": "address"
        },
        {
          "internalType": "uint256",
          "name": "tokenId",
          "type": "uint256"
        },
        {
          "internalType": "bytes",
          "name": "data",
          "type": "bytes"
        }
      ],
      "name": "safeTransferFrom",
      "outputs": [],
      "stateMutability": "nonpayable",
      "type": "function"
    },
    {
      "inputs": [
        {
          "internalType": "address",
          "name": "operator",
          "type": "address"
        },
        {
          "internalType": "bool",
          "name": "approved",
          "type": "bool"
        }
      ],
      "name": "setApprovalForAll",
      "outputs": [],
      "stateMutability": "nonpayable",
      "type": "function"
    },
    {
      "inputs": [
        {
          "internalType": "bytes4",
          "name": "interfaceId",
          "type": "bytes4"
        }
      ],
      "name": "supportsInterface",
      "outputs": [
        {
          "internalType": "bool",
          "name": "",
          "type": "bool"
        }
      ],
      "stateMutability": "view",
      "type": "function"
    },
    {
      "inputs": [],
      "name": "symbol",
      "outputs": [
        {
          "internalType": "string",
          "name": "",
          "type": "string"
        }
      ],
      "stateMutability": "view",
      "type": "function"
    },
    {
      "inputs": [
        {
          "internalType": "uint256",
          "name": "tokenId",
          "type": "uint256"
        }
      ],
      "name": "tokenURI",
      "outputs": [
        {
          "internalType": "string",
          "name": "",
          "type": "string"
        }
      ],
      "stateMutability": "view",
      "type": "function"
    },
    {
      "inputs": [
        {
          "internalType": "address",
          "name": "from",
          "type": "address"
        },
        {
          "internalType": "address",
          "name": "to",
          "type": "address"
        },
        {
          "internalType": "uint256",
          "name": "tokenId",
          "type": "uint256"
        }
      ],
      "name": "transferFrom",
      "outputs": [],
      "stateMutability": "nonpayable",
      "type": "function"
    },
    {
      "inputs": [
        {
          "internalType": "address",
          "name": "newOwner",
          "type": "address"
        }
      ],
      "name": "transferOwnership",
      "outputs": [],
      "stateMutability": "nonpayable",
      "type": "function"
    }
  ],
  "bytecode": "0x608060405234801561001057600080fd5b50336040518060400160405280600781526020017f4175746f446578000000000000000000000000000000000000000000000000008152506040518060400160405280600381526020017f4144580000000000000000000000000000000000000000000000000000000000815250816000908161008d919061043d565b50806001908161009d919061043d565b505050600073ffffffffffffffffffffffffffffffffffffffff168173ffffffffffffffffffffffffffffffffffffffff16036101125760006040517f1e4fbdf70000000000000000000000000000000000000000000000000000000081526004016101099190610550565b60405180910390fd5b6101218161012760201b60201c565b5061056b565b6000600760009054906101000a900473ffffffffffffffffffffffffffffffffffffffff16905081600760006101000a81548173ffffffffffffffffffffffffffffffffffffffff021916908373ffffffffffffffffffffffffffffffffffffffff1602179055508173ffffffffffffffffffffffffffffffffffffffff168173ffffffffffffffffffffffffffffffffffffffff167f8be0079c531659141344cd1fd0a4f28419497f9722a3daafe3b4186f6b6457e060405160405180910390a35050565b600081519050919050565b7f4e487b7100000000000000000000000000000000000000000000000000000000600052604160045260246000fd5b7f4e487b7100000000000000000000000000000000000000000000000000000000600052602260045260246000fd5b6000600282049050600182168061026e57607f821691505b60208210810361028157610280610227565b5b50919050565b60008190508160005260206000209050919050565b60006020601f8301049050919050565b600082821b905092915050565b6000600883026102e97fffffffffffffffffffffffffffffffffffffffffffffffffffffffffffffffff826102ac565b6102f386836102ac565b95508019841693508086168417925050509392505050565b6000819050919050565b6000819050919050565b600061033a6103356103308461030b565b610315565b61030b565b9050919050565b6000819050919050565b6103548361031f565b61036861036082610341565b8484546102b9565b825550505050565b600090565b61037d610370565b61038881848461034b565b505050565b5b818110156103ac576103a1600082610375565b60018101905061038e565b5050565b601f8211156103f1576103c281610287565b6103cb8461029c565b810160208510156103da578190505b6103ee6103e68561029c565b83018261038d565b50505b505050565b600082821c905092915050565b6000610414600019846008026103f6565b1980831691505092915050565b600061042d8383610403565b9150826002028217905092915050565b610446826101ed565b67ffffffffffffffff81111561045f5761045e6101f8565b5b6104698254610256565b6104748282856103b0565b600060209050601f8311600181146104a75760008415610495578287015190505b61049f8582610421565b865550610507565b601f1984166104b586610287565b60005b828110156104dd578489015182556001820191506020850194506020810190506104b8565b868310156104fa57848901516104f6601f891682610403565b8355505b6001600288020188555050505b505050505050565b600073ffffffffffffffffffffffffffffffffffffffff82169050919050565b600061053a8261050f565b9050919050565b61054a8161052f565b82525050565b60006020820190506105656000830184610541565b92915050565b613e6f8061057a6000396000f3fe60806040526004361061012a5760003560e01c8063715018a6116100ab578063abfe5d571161006f578063abfe5d57146103e1578063b88d4fde1461040c578063c87b56dd14610435578063e985e9c514610472578063f2fde38b146104af578063f6888384146104d85761012a565b8063715018a6146103225780638da5cb5b1461033957806395d89b41146103645780639cf587af1461038f578063a22cb465146103b85761012a565b806342842e0e116100f257806342842e0e14610226578063472ec4541461024f5780636352211e1461028c5780636c231060146102c957806370a08231146102e55761012a565b806301ffc9a71461012f57806306fdde031461016c578063081812fc14610197578063095ea7b3146101d457806323b872dd146101fd575b600080fd5b34801561013b57600080fd5b5061015660048036038101906101519190612a41565b610501565b6040516101639190612a89565b60405180910390f35b34801561017857600080fd5b50610181610562565b60405161018e9190612b34565b60405180910390f35b3480156101a357600080fd5b506101be60048036038101906101b99190612b8c565b6105f4565b6040516101cb9190612bfa565b60405180910390f35b3480156101e057600080fd5b506101fb60048036038101906101f69190612c41565b610610565b005b34801561020957600080fd5b50610224600480360381019061021f9190612c81565b610626565b005b34801561023257600080fd5b5061024d60048036038101906102489190612c81565b610728565b005b34801561025b57600080fd5b5061027660048036038101906102719190612b8c565b610748565b6040516102839190612e01565b60405180910390f35b34801561029857600080fd5b506102b360048036038101906102ae9190612b8c565b610a01565b6040516102c09190612bfa565b60405180910390f35b6102e360048036038101906102de9190612b8c565b610a13565b005b3480156102f157600080fd5b5061030c60048036038101906103079190612e23565b610ca3565b6040516103199190612e5f565b60405180910390f35b34801561032e57600080fd5b50610337610d5d565b005b34801561034557600080fd5b5061034e610d71565b60405161035b9190612bfa565b60405180910390f35b34801561037057600080fd5b50610379610d9b565b6040516103869190612b34565b60405180910390f35b34801561039b57600080fd5b506103b660048036038101906103b19190612faf565b610e2d565b005b3480156103c457600080fd5b506103df60048036038101906103da91906130ed565b61110e565b005b3480156103ed57600080fd5b506103f6611124565b60405161040391906132b4565b60405180910390f35b34801561041857600080fd5b50610433600480360381019061042e9190613377565b611460565b005b34801561044157600080fd5b5061045c60048036038101906104579190612b8c565b611485565b6040516104699190612b34565b60405180910390f35b34801561047e57600080fd5b50610499600480360381019061049491906133fa565b611598565b6040516104a69190612a89565b60405180910390f35b3480156104bb57600080fd5b506104d660048036038101906104d19190612e23565b61162c565b005b3480156104e457600080fd5b506104ff60048036038101906104fa919061343a565b6116b2565b005b6000634906490660e01b7bffffffffffffffffffffffffffffffffffffffffffffffffffffffff1916827bffffffffffffffffffffffffffffffffffffffffffffffffffffffff1916148061055b575061055a826117f2565b5b9050919050565b606060008054610571906134a9565b80601f016020809104026020016040519081016040528092919081815260200182805461059d906134a9565b80156105ea5780601f106105bf576101008083540402835291602001916105ea565b820191906000526020600020905b8154815290600101906020018083116105cd57829003601f168201915b5050505050905090565b60006105ff826118d4565b506106098261195c565b9050919050565b610622828261061d611999565b6119a1565b5050565b600073ffffffffffffffffffffffffffffffffffffffff168273ffffffffffffffffffffffffffffffffffffffff16036106985760006040517f64a0ae9200000000000000000000000000000000000000000000000000000000815260040161068f9190612bfa565b60405180910390fd5b60006106ac83836106a7611999565b6119b3565b90508373ffffffffffffffffffffffffffffffffffffffff168173ffffffffffffffffffffffffffffffffffffffff1614610722578382826040517f64283d7b000000000000000000000000000000000000000000000000000000008152600401610719939291906134da565b60405180910390fd5b50505050565b61074383838360405180602001604052806000815250611460565b505050565b61075061298e565b610759826118d4565b506009600083815260200190815260200160002060405180610100016040529081600082018054610789906134a9565b80601f01602080910402602001604051908101604052809291908181526020018280546107b5906134a9565b80156108025780601f106107d757610100808354040283529160200191610802565b820191906000526020600020905b8154815290600101906020018083116107e557829003601f168201915b5050505050815260200160018201805461081b906134a9565b80601f0160208091040260200160405190810160405280929190818152602001828054610847906134a9565b80156108945780601f1061086957610100808354040283529160200191610894565b820191906000526020600020905b81548152906001019060200180831161087757829003601f168201915b50505050508152602001600282015481526020016003820180546108b7906134a9565b80601f01602080910402602001604051908101604052809291908181526020018280546108e3906134a9565b80156109305780601f1061090557610100808354040283529160200191610930565b820191906000526020600020905b81548152906001019060200180831161091357829003601f168201915b50505050508152602001600482015481526020016005820160009054906101000a900460ff1615151515815260200160068201548152602001600782018054610978906134a9565b80601f01602080910402602001604051908101604052809291908181526020018280546109a4906134a9565b80156109f15780601f106109c6576101008083540402835291602001916109f1565b820191906000526020600020905b8154815290600101906020018083116109d457829003601f168201915b5050505050815250509050919050565b6000610a0c826118d4565b9050919050565b6009600082815260200190815260200160002060050160009054906101000a900460ff16610a76576040517f08c379a0000000000000000000000000000000000000000000000000000000008152600401610a6d9061355d565b60405180910390fd5b6009600082815260200190815260200160002060060154341015610acf576040517f08c379a0000000000000000000000000000000000000000000000000000000008152600401610ac6906135c9565b60405180910390fd5b6000600a600083815260200190815260200160002060009054906101000a900473ffffffffffffffffffffffffffffffffffffffff1690503373ffffffffffffffffffffffffffffffffffffffff168173ffffffffffffffffffffffffffffffffffffffff1603610b75576040517f08c379a0000000000000000000000000000000000000000000000000000000008152600401610b6c90613635565b60405180910390fd5b610b80813384611bcd565b8073ffffffffffffffffffffffffffffffffffffffff166108fc349081150290604051600060405180830381858888f19350505050158015610bc6573d6000803e3d6000fd5b5033600a600084815260200190815260200160002060006101000a81548173ffffffffffffffffffffffffffffffffffffffff021916908373ffffffffffffffffffffffffffffffffffffffff16021790555060006009600084815260200190815260200160002060050160006101000a81548160ff021916908315150217905550600060096000848152602001908152602001600020600601819055507f9d90e6b7483b210fb2eb1814d730195955d020389f316a5127d8f07d6fe61c8b823334604051610c9793929190613655565b60405180910390a15050565b60008073ffffffffffffffffffffffffffffffffffffffff168273ffffffffffffffffffffffffffffffffffffffff1603610d165760006040517f89c62b64000000000000000000000000000000000000000000000000000000008152600401610d0d9190612bfa565b60405180910390fd5b600360008373ffffffffffffffffffffffffffffffffffffffff1673ffffffffffffffffffffffffffffffffffffffff168152602001908152602001600020549050919050565b610d65611d3a565b610d6f6000611dc1565b565b6000600760009054906101000a900473ffffffffffffffffffffffffffffffffffffffff16905090565b606060018054610daa906134a9565b80601f0160208091040260200160405190810160405280929190818152602001828054610dd6906134a9565b8015610e235780601f10610df857610100808354040283529160200191610e23565b820191906000526020600020905b815481529060010190602001808311610e0657829003601f168201915b5050505050905090565b610e35611d3a565b6000835111610e79576040517f08c379a0000000000000000000000000000000000000000000000000000000008152600401610e70906136d8565b60405180910390fd5b60005b600854811015610f365783604051602001610e979190613734565b6040516020818303038152906040528051906020012060096000838152602001908152602001600020600301604051602001610ed391906137e3565b6040516020818303038152906040528051906020012003610f29576040517f08c379a0000000000000000000000000000000000000000000000000000000008152600401610f2090613846565b60405180910390fd5b8080600101915050610e7c565b50600060085490506040518061010001604052808881526020018781526020018681526020018581526020018481526020016000151581526020016000815260200183815250600960008381526020019081526020016000206000820151816000019081610fa491906139fd565b506020820151816001019081610fba91906139fd565b50604082015181600201556060820151816003019081610fda91906139fd565b506080820151816004015560a08201518160050160006101000a81548160ff02191690831515021790555060c0820151816006015560e082015181600701908161102491906139fd565b5090505087600a600083815260200190815260200160002060006101000a81548173ffffffffffffffffffffffffffffffffffffffff021916908373ffffffffffffffffffffffffffffffffffffffff16021790555080600b8560405161108b9190613734565b9081526020016040518091039020819055506110a78882611e87565b6110b18183611f80565b600860008154809291906110c490613afe565b91905055507fbd3303cf3cb581bf78ef3ac343c3e3d038afb8bc52183ae64109ebd7ee3a873d8189866040516110fc93929190613b46565b60405180910390a15050505050505050565b611120611119611999565b8383611fdc565b5050565b6060600060085467ffffffffffffffff81111561114457611143612e84565b5b60405190808252806020026020018201604052801561117d57816020015b61116a61298e565b8152602001906001900390816111625790505b50905060005b6008548110156114585760096000828152602001908152602001600020604051806101000160405290816000820180546111bc906134a9565b80601f01602080910402602001604051908101604052809291908181526020018280546111e8906134a9565b80156112355780601f1061120a57610100808354040283529160200191611235565b820191906000526020600020905b81548152906001019060200180831161121857829003601f168201915b5050505050815260200160018201805461124e906134a9565b80601f016020809104026020016040519081016040528092919081815260200182805461127a906134a9565b80156112c75780601f1061129c576101008083540402835291602001916112c7565b820191906000526020600020905b8154815290600101906020018083116112aa57829003601f168201915b50505050508152602001600282015481526020016003820180546112ea906134a9565b80601f0160208091040260200160405190810160405280929190818152602001828054611316906134a9565b80156113635780601f1061133857610100808354040283529160200191611363565b820191906000526020600020905b81548152906001019060200180831161134657829003601f168201915b50505050508152602001600482015481526020016005820160009054906101000a900460ff16151515158152602001600682015481526020016007820180546113ab906134a9565b80601f01602080910402602001604051908101604052809291908181526020018280546113d7906134a9565b80156114245780601f106113f957610100808354040283529160200191611424565b820191906000526020600020905b81548152906001019060200180831161140757829003601f168201915b5050505050815250508282815181106114405761143f613b84565b5b60200260200101819052508080600101915050611183565b508091505090565b61146b848484610626565b61147f611476611999565b8585858561214b565b50505050565b6060611490826118d4565b5060006006600084815260200190815260200160002080546114b1906134a9565b80601f01602080910402602001604051908101604052809291908181526020018280546114dd906134a9565b801561152a5780601f106114ff5761010080835404028352916020019161152a565b820191906000526020600020905b81548152906001019060200180831161150d57829003601f168201915b50505050509050600061153b6122fc565b90506000815103611550578192505050611593565b60008251111561158557808260405160200161156d929190613bb3565b60405160208183030381529060405292505050611593565b61158e84612313565b925050505b919050565b6000600560008473ffffffffffffffffffffffffffffffffffffffff1673ffffffffffffffffffffffffffffffffffffffff16815260200190815260200160002060008373ffffffffffffffffffffffffffffffffffffffff1673ffffffffffffffffffffffffffffffffffffffff16815260200190815260200160002060009054906101000a900460ff16905092915050565b611634611d3a565b600073ffffffffffffffffffffffffffffffffffffffff168173ffffffffffffffffffffffffffffffffffffffff16036116a65760006040517f1e4fbdf700000000000000000000000000000000000000000000000000000000815260040161169d9190612bfa565b60405180910390fd5b6116af81611dc1565b50565b3373ffffffffffffffffffffffffffffffffffffffff166116d283610a01565b73ffffffffffffffffffffffffffffffffffffffff1614611728576040517f08c379a000000000000000000000000000000000000000000000000000000000815260040161171f90613c49565b60405180910390fd5b6000811161176b576040517f08c379a000000000000000000000000000000000000000000000000000000000815260040161176290613cb5565b60405180910390fd5b60016009600084815260200190815260200160002060050160006101000a81548160ff0219169083151502179055508060096000848152602001908152602001600020600601819055507fd7eb5635a91daa6c8336a751c696002c8243f97bad99a81269931e463952470982826040516117e6929190613cd5565b60405180910390a15050565b60007f80ac58cd000000000000000000000000000000000000000000000000000000007bffffffffffffffffffffffffffffffffffffffffffffffffffffffff1916827bffffffffffffffffffffffffffffffffffffffffffffffffffffffff191614806118bd57507f5b5e139f000000000000000000000000000000000000000000000000000000007bffffffffffffffffffffffffffffffffffffffffffffffffffffffff1916827bffffffffffffffffffffffffffffffffffffffffffffffffffffffff1916145b806118cd57506118cc8261237c565b5b9050919050565b6000806118e0836123e6565b9050600073ffffffffffffffffffffffffffffffffffffffff168173ffffffffffffffffffffffffffffffffffffffff160361195357826040517f7e27328900000000000000000000000000000000000000000000000000000000815260040161194a9190612e5f565b60405180910390fd5b80915050919050565b60006004600083815260200190815260200160002060009054906101000a900473ffffffffffffffffffffffffffffffffffffffff169050919050565b600033905090565b6119ae8383836001612423565b505050565b6000806119bf846123e6565b9050600073ffffffffffffffffffffffffffffffffffffffff168373ffffffffffffffffffffffffffffffffffffffff1614611a0157611a008184866125e8565b5b600073ffffffffffffffffffffffffffffffffffffffff168173ffffffffffffffffffffffffffffffffffffffff1614611a9257611a43600085600080612423565b6001600360008373ffffffffffffffffffffffffffffffffffffffff1673ffffffffffffffffffffffffffffffffffffffff168152602001908152602001600020600082825403925050819055505b600073ffffffffffffffffffffffffffffffffffffffff168573ffffffffffffffffffffffffffffffffffffffff1614611b15576001600360008773ffffffffffffffffffffffffffffffffffffffff1673ffffffffffffffffffffffffffffffffffffffff168152602001908152602001600020600082825401925050819055505b846002600086815260200190815260200160002060006101000a81548173ffffffffffffffffffffffffffffffffffffffff021916908373ffffffffffffffffffffffffffffffffffffffff160217905550838573ffffffffffffffffffffffffffffffffffffffff168273ffffffffffffffffffffffffffffffffffffffff167fddf252ad1be2c89b69c2b068fc378daa952ba7f163c4a11628f55a4df523b3ef60405160405180910390a4809150509392505050565b600073ffffffffffffffffffffffffffffffffffffffff168273ffffffffffffffffffffffffffffffffffffffff1603611c3f5760006040517f64a0ae92000000000000000000000000000000000000000000000000000000008152600401611c369190612bfa565b60405180910390fd5b6000611c4d838360006119b3565b9050600073ffffffffffffffffffffffffffffffffffffffff168173ffffffffffffffffffffffffffffffffffffffff1603611cc057816040517f7e273289000000000000000000000000000000000000000000000000000000008152600401611cb79190612e5f565b60405180910390fd5b8373ffffffffffffffffffffffffffffffffffffffff168173ffffffffffffffffffffffffffffffffffffffff1614611d34578382826040517f64283d7b000000000000000000000000000000000000000000000000000000008152600401611d2b939291906134da565b60405180910390fd5b50505050565b611d42611999565b73ffffffffffffffffffffffffffffffffffffffff16611d60610d71565b73ffffffffffffffffffffffffffffffffffffffff1614611dbf57611d83611999565b6040517f118cdaa7000000000000000000000000000000000000000000000000000000008152600401611db69190612bfa565b60405180910390fd5b565b6000600760009054906101000a900473ffffffffffffffffffffffffffffffffffffffff16905081600760006101000a81548173ffffffffffffffffffffffffffffffffffffffff021916908373ffffffffffffffffffffffffffffffffffffffff1602179055508173ffffffffffffffffffffffffffffffffffffffff168173ffffffffffffffffffffffffffffffffffffffff167f8be0079c531659141344cd1fd0a4f28419497f9722a3daafe3b4186f6b6457e060405160405180910390a35050565b600073ffffffffffffffffffffffffffffffffffffffff168273ffffffffffffffffffffffffffffffffffffffff1603611ef95760006040517f64a0ae92000000000000000000000000000000000000000000000000000000008152600401611ef09190612bfa565b60405180910390fd5b6000611f07838360006119b3565b9050600073ffffffffffffffffffffffffffffffffffffffff168173ffffffffffffffffffffffffffffffffffffffff1614611f7b5760006040517f73c6ac6e000000000000000000000000000000000000000000000000000000008152600401611f729190612bfa565b60405180910390fd5b505050565b80600660008481526020019081526020016000209081611fa091906139fd565b507ff8e1a15aba9398e019f0b49df1a4fde98ee17ae345cb5f6b5e2c27f5033e8ce782604051611fd09190612e5f565b60405180910390a15050565b600073ffffffffffffffffffffffffffffffffffffffff168273ffffffffffffffffffffffffffffffffffffffff160361204d57816040517f5b08ba180000000000000000000000000000000000000000000000000000000081526004016120449190612bfa565b60405180910390fd5b80600560008573ffffffffffffffffffffffffffffffffffffffff1673ffffffffffffffffffffffffffffffffffffffff16815260200190815260200160002060008473ffffffffffffffffffffffffffffffffffffffff1673ffffffffffffffffffffffffffffffffffffffff16815260200190815260200160002060006101000a81548160ff0219169083151502179055508173ffffffffffffffffffffffffffffffffffffffff168373ffffffffffffffffffffffffffffffffffffffff167f17307eab39ab6107e8899845ad3d59bd9653f200f220920489ca2b5937696c318360405161213e9190612a89565b60405180910390a3505050565b60008373ffffffffffffffffffffffffffffffffffffffff163b11156122f5578273ffffffffffffffffffffffffffffffffffffffff1663150b7a02868685856040518563ffffffff1660e01b81526004016121aa9493929190613d53565b6020604051808303816000875af19250505080156121e657506040513d601f19601f820116820180604052508101906121e39190613db4565b60015b61226a573d8060008114612216576040519150601f19603f3d011682016040523d82523d6000602084013e61221b565b606091505b50600081510361226257836040517f64a0ae920000000000000000000000000000000000000000000000000000000081526004016122599190612bfa565b60405180910390fd5b805181602001fd5b63150b7a0260e01b7bffffffffffffffffffffffffffffffffffffffffffffffffffffffff1916817bffffffffffffffffffffffffffffffffffffffffffffffffffffffff1916146122f357836040517f64a0ae920000000000000000000000000000000000000000000000000000000081526004016122ea9190612bfa565b60405180910390fd5b505b5050505050565b606060405180602001604052806000815250905090565b606061231e826118d4565b5060006123296122fc565b905060008151116123495760405180602001604052806000815250612374565b80612353846126ac565b604051602001612364929190613bb3565b6040516020818303038152906040525b915050919050565b60007f01ffc9a7000000000000000000000000000000000000000000000000000000007bffffffffffffffffffffffffffffffffffffffffffffffffffffffff1916827bffffffffffffffffffffffffffffffffffffffffffffffffffffffff1916149050919050565b60006002600083815260200190815260200160002060009054906101000a900473ffffffffffffffffffffffffffffffffffffffff169050919050565b808061245c5750600073ffffffffffffffffffffffffffffffffffffffff168273ffffffffffffffffffffffffffffffffffffffff1614155b1561259057600061246c846118d4565b9050600073ffffffffffffffffffffffffffffffffffffffff168373ffffffffffffffffffffffffffffffffffffffff16141580156124d757508273ffffffffffffffffffffffffffffffffffffffff168173ffffffffffffffffffffffffffffffffffffffff1614155b80156124ea57506124e88184611598565b155b1561252c57826040517fa9fbf51f0000000000000000000000000000000000000000000000000000000081526004016125239190612bfa565b60405180910390fd5b811561258e57838573ffffffffffffffffffffffffffffffffffffffff168273ffffffffffffffffffffffffffffffffffffffff167f8c5be1e5ebec7d5bd14f71427d1e84f3dd0314c0f7b2291e5b200ac8c7c3b92560405160405180910390a45b505b836004600085815260200190815260200160002060006101000a81548173ffffffffffffffffffffffffffffffffffffffff021916908373ffffffffffffffffffffffffffffffffffffffff16021790555050505050565b6125f383838361277a565b6126a757600073ffffffffffffffffffffffffffffffffffffffff168373ffffffffffffffffffffffffffffffffffffffff160361266857806040517f7e27328900000000000000000000000000000000000000000000000000000000815260040161265f9190612e5f565b60405180910390fd5b81816040517f177e802f00000000000000000000000000000000000000000000000000000000815260040161269e929190613de1565b60405180910390fd5b505050565b6060600060016126bb8461283b565b01905060008167ffffffffffffffff8111156126da576126d9612e84565b5b6040519080825280601f01601f19166020018201604052801561270c5781602001600182028036833780820191505090505b509050600082602001820190505b60011561276f578080600190039150507f3031323334353637383961626364656600000000000000000000000000000000600a86061a8153600a858161276357612762613e0a565b5b0494506000850361271a575b819350505050919050565b60008073ffffffffffffffffffffffffffffffffffffffff168373ffffffffffffffffffffffffffffffffffffffff161415801561283257508273ffffffffffffffffffffffffffffffffffffffff168473ffffffffffffffffffffffffffffffffffffffff1614806127f357506127f28484611598565b5b8061283157508273ffffffffffffffffffffffffffffffffffffffff166128198361195c565b73ffffffffffffffffffffffffffffffffffffffff16145b5b90509392505050565b600080600090507a184f03e93ff9f4daa797ed6e38ed64bf6a1f0100000000000000008310612899577a184f03e93ff9f4daa797ed6e38ed64bf6a1f010000000000000000838161288f5761288e613e0a565b5b0492506040810190505b6d04ee2d6d415b85acef810000000083106128d6576d04ee2d6d415b85acef810000000083816128cc576128cb613e0a565b5b0492506020810190505b662386f26fc10000831061290557662386f26fc1000083816128fb576128fa613e0a565b5b0492506010810190505b6305f5e100831061292e576305f5e100838161292457612923613e0a565b5b0492506008810190505b612710831061295357612710838161294957612948613e0a565b5b0492506004810190505b60648310612976576064838161296c5761296b613e0a565b5b0492506002810190505b600a8310612985576001810190505b80915050919050565b604051806101000160405280606081526020016060815260200160008152602001606081526020016000815260200160001515815260200160008152602001606081525090565b6000604051905090565b600080fd5b600080fd5b60007fffffffff0000000000000000000000000000000000000000000000000000000082169050919050565b612a1e816129e9565b8114612a2957600080fd5b50565b600081359050612a3b81612a15565b92915050565b600060208284031215612a5757612a566129df565b5b6000612a6584828501612a2c565b91505092915050565b60008115159050919050565b612a8381612a6e565b82525050565b6000602082019050612a9e6000830184612a7a565b92915050565b600081519050919050565b600082825260208201905092915050565b60005b83811015612ade578082015181840152602081019050612ac3565b60008484015250505050565b6000601f19601f8301169050919050565b6000612b0682612aa4565b612b108185612aaf565b9350612b20818560208601612ac0565b612b2981612aea565b840191505092915050565b60006020820190508181036000830152612b4e8184612afb565b905092915050565b6000819050919050565b612b6981612b56565b8114612b7457600080fd5b50565b600081359050612b8681612b60565b92915050565b600060208284031215612ba257612ba16129df565b5b6000612bb084828501612b77565b91505092915050565b600073ffffffffffffffffffffffffffffffffffffffff82169050919050565b6000612be482612bb9565b9050919050565b612bf481612bd9565b82525050565b6000602082019050612c0f6000830184612beb565b92915050565b612c1e81612bd9565b8114612c2957600080fd5b50565b600081359050612c3b81612c15565b92915050565b60008060408385031215612c5857612c576129df565b5b6000612c6685828601612c2c565b9250506020612c7785828601612b77565b9150509250929050565b600080600060608486031215612c9a57612c996129df565b5b6000612ca886828701612c2c565b9350506020612cb986828701612c2c565b9250506040612cca86828701612b77565b9150509250925092565b600082825260208201905092915050565b6000612cf082612aa4565b612cfa8185612cd4565b9350612d0a818560208601612ac0565b612d1381612aea565b840191505092915050565b612d2781612b56565b82525050565b612d3681612a6e565b82525050565b6000610100830160008301518482036000860152612d5a8282612ce5565b91505060208301518482036020860152612d748282612ce5565b9150506040830151612d896040860182612d1e565b5060608301518482036060860152612da18282612ce5565b9150506080830151612db66080860182612d1e565b5060a0830151612dc960a0860182612d2d565b5060c0830151612ddc60c0860182612d1e565b5060e083015184820360e0860152612df48282612ce5565b9150508091505092915050565b60006020820190508181036000830152612e1b8184612d3c565b905092915050565b600060208284031215612e3957612e386129df565b5b6000612e4784828501612c2c565b91505092915050565b612e5981612b56565b82525050565b6000602082019050612e746000830184612e50565b92915050565b600080fd5b600080fd5b7f4e487b7100000000000000000000000000000000000000000000000000000000600052604160045260246000fd5b612ebc82612aea565b810181811067ffffffffffffffff82111715612edb57612eda612e84565b5b80604052505050565b6000612eee6129d5565b9050612efa8282612eb3565b919050565b600067ffffffffffffffff821115612f1a57612f19612e84565b5b612f2382612aea565b9050602081019050919050565b82818337600083830152505050565b6000612f52612f4d84612eff565b612ee4565b905082815260208101848484011115612f6e57612f6d612e7f565b5b612f79848285612f30565b509392505050565b600082601f830112612f9657612f95612e7a565b5b8135612fa6848260208601612f3f565b91505092915050565b600080600080600080600060e0888a031215612fce57612fcd6129df565b5b6000612fdc8a828b01612c2c565b975050602088013567ffffffffffffffff811115612ffd57612ffc6129e4565b5b6130098a828b01612f81565b965050604088013567ffffffffffffffff81111561302a576130296129e4565b5b6130368a828b01612f81565b95505060606130478a828b01612b77565b945050608088013567ffffffffffffffff811115613068576130676129e4565b5b6130748a828b01612f81565b93505060a06130858a828b01612b77565b92505060c088013567ffffffffffffffff8111156130a6576130a56129e4565b5b6130b28a828b01612f81565b91505092959891949750929550565b6130ca81612a6e565b81146130d557600080fd5b50565b6000813590506130e7816130c1565b92915050565b60008060408385031215613104576131036129df565b5b600061311285828601612c2c565b9250506020613123858286016130d8565b9150509250929050565b600081519050919050565b600082825260208201905092915050565b6000819050602082019050919050565b60006101008301600083015184820360008601526131778282612ce5565b915050602083015184820360208601526131918282612ce5565b91505060408301516131a66040860182612d1e565b50606083015184820360608601526131be8282612ce5565b91505060808301516131d36080860182612d1e565b5060a08301516131e660a0860182612d2d565b5060c08301516131f960c0860182612d1e565b5060e083015184820360e08601526132118282612ce5565b9150508091505092915050565b600061322a8383613159565b905092915050565b6000602082019050919050565b600061324a8261312d565b6132548185613138565b93508360208202850161326685613149565b8060005b858110156132a25784840389528151613283858261321e565b945061328e83613232565b925060208a0199505060018101905061326a565b50829750879550505050505092915050565b600060208201905081810360008301526132ce818461323f565b905092915050565b600067ffffffffffffffff8211156132f1576132f0612e84565b5b6132fa82612aea565b9050602081019050919050565b600061331a613315846132d6565b612ee4565b90508281526020810184848401111561333657613335612e7f565b5b613341848285612f30565b509392505050565b600082601f83011261335e5761335d612e7a565b5b813561336e848260208601613307565b91505092915050565b60008060008060808587031215613391576133906129df565b5b600061339f87828801612c2c565b94505060206133b087828801612c2c565b93505060406133c187828801612b77565b925050606085013567ffffffffffffffff8111156133e2576133e16129e4565b5b6133ee87828801613349565b91505092959194509250565b60008060408385031215613411576134106129df565b5b600061341f85828601612c2c565b925050602061343085828601612c2c565b9150509250929050565b60008060408385031215613451576134506129df565b5b600061345f85828601612b77565b925050602061347085828601612b77565b9150509250929050565b7f4e487b7100000000000000000000000000000000000000000000000000000000600052602260045260246000fd5b600060028204905060018216806134c157607f821691505b6020821081036134d4576134d361347a565b5b50919050565b60006060820190506134ef6000830186612beb565b6134fc6020830185612e50565b6135096040830184612beb565b949350505050565b7f436172206973206e6f7420666f722073616c6500000000000000000000000000600082015250565b6000613547601383612aaf565b915061355282613511565b602082019050919050565b600060208201905081810360008301526135768161353a565b9050919050565b7f496e73756666696369656e74204554482073656e742e00000000000000000000600082015250565b60006135b3601683612aaf565b91506135be8261357d565b602082019050919050565b600060208201905081810360008301526135e2816135a6565b9050919050565b7f596f752063616e6e6f742062757920796f7572206f776e206361722e00000000600082015250565b600061361f601c83612aaf565b915061362a826135e9565b602082019050919050565b6000602082019050818103600083015261364e81613612565b9050919050565b600060608201905061366a6000830186612e50565b6136776020830185612beb565b6136846040830184612e50565b949350505050565b7f56494e206d7573742062652070726f7669646564000000000000000000000000600082015250565b60006136c2601483612aaf565b91506136cd8261368c565b602082019050919050565b600060208201905081810360008301526136f1816136b5565b9050919050565b600081905092915050565b600061370e82612aa4565b61371881856136f8565b9350613728818560208601612ac0565b80840191505092915050565b60006137408284613703565b915081905092915050565b60008190508160005260206000209050919050565b6000815461376d816134a9565b61377781866136f8565b9450600182166000811461379257600181146137a7576137da565b60ff19831686528115158202860193506137da565b6137b08561374b565b60005b838110156137d2578154818901526001820191506020810190506137b3565b838801955050505b50505092915050565b60006137ef8284613760565b915081905092915050565b7f56494e20616c7265616479206578697374730000000000000000000000000000600082015250565b6000613830601283612aaf565b915061383b826137fa565b602082019050919050565b6000602082019050818103600083015261385f81613823565b9050919050565b60006020601f8301049050919050565b600082821b905092915050565b6000600883026138b37fffffffffffffffffffffffffffffffffffffffffffffffffffffffffffffffff82613876565b6138bd8683613876565b95508019841693508086168417925050509392505050565b6000819050919050565b60006138fa6138f56138f084612b56565b6138d5565b612b56565b9050919050565b6000819050919050565b613914836138df565b61392861392082613901565b848454613883565b825550505050565b600090565b61393d613930565b61394881848461390b565b505050565b5b8181101561396c57613961600082613935565b60018101905061394e565b5050565b601f8211156139b1576139828161374b565b61398b84613866565b8101602085101561399a578190505b6139ae6139a685613866565b83018261394d565b50505b505050565b600082821c905092915050565b60006139d4600019846008026139b6565b1980831691505092915050565b60006139ed83836139c3565b9150826002028217905092915050565b613a0682612aa4565b67ffffffffffffffff811115613a1f57613a1e612e84565b5b613a2982546134a9565b613a34828285613970565b600060209050601f831160018114613a675760008415613a55578287015190505b613a5f85826139e1565b865550613ac7565b601f198416613a758661374b565b60005b82811015613a9d57848901518255600182019150602085019450602081019050613a78565b86831015613aba5784890151613ab6601f8916826139c3565b8355505b6001600288020188555050505b505050505050565b7f4e487b7100000000000000000000000000000000000000000000000000000000600052601160045260246000fd5b6000613b0982612b56565b91507fffffffffffffffffffffffffffffffffffffffffffffffffffffffffffffffff8203613b3b57613b3a613acf565b5b600182019050919050565b6000606082019050613b5b6000830186612e50565b613b686020830185612beb565b8181036040830152613b7a8184612afb565b9050949350505050565b7f4e487b7100000000000000000000000000000000000000000000000000000000600052603260045260246000fd5b6000613bbf8285613703565b9150613bcb8284613703565b91508190509392505050565b7f4f6e6c7920746865206f776e6572206f66207468652076656869636c6520636160008201527f6e206c69737420697420666f722073616c652e00000000000000000000000000602082015250565b6000613c33603383612aaf565b9150613c3e82613bd7565b604082019050919050565b60006020820190508181036000830152613c6281613c26565b9050919050565b7f5072696365206d7573742062652067726561746572207468616e207a65726f2e600082015250565b6000613c9f602083612aaf565b9150613caa82613c69565b602082019050919050565b60006020820190508181036000830152613cce81613c92565b9050919050565b6000604082019050613cea6000830185612e50565b613cf76020830184612e50565b9392505050565b600081519050919050565b600082825260208201905092915050565b6000613d2582613cfe565b613d2f8185613d09565b9350613d3f818560208601612ac0565b613d4881612aea565b840191505092915050565b6000608082019050613d686000830187612beb565b613d756020830186612beb565b613d826040830185612e50565b8181036060830152613d948184613d1a565b905095945050505050565b600081519050613dae81612a15565b92915050565b600060208284031215613dca57613dc96129df565b5b6000613dd884828501613d9f565b91505092915050565b6000604082019050613df66000830185612beb565b613e036020830184612e50565b9392505050565b7f4e487b7100000000000000000000000000000000000000000000000000000000600052601260045260246000fdfea2646970667358221220c08c467b9ad2054fa98eb2a3bb62b61be72d363de9c318e75f8225e5654f1ff164736f6c634300081c0033",
  "linkReferences": {},
  "deployedLinkReferences": {}
}