{
  "_format": "hh-sol-artifact-1",
  "contractName": "CarMarketplace",
  "sourceName": "contracts/CarMarketplace.sol",
  "abi": [
    {
      "inputs": [],
      "stateMutability": "nonpayable",
      "type": "constructor"
    },
    {
      "inputs": [
        {
          "internalType": "address",
          "name": "sender",
          "type": "address"
        },
        {
          "internalType": "uint256",
          "name": "tokenId",
          "type": "uint256"
        },
        {
          "internalType": "address",
          "name": "owner",
          "type": "address"
        }
      ],
      "name": "ERC721IncorrectOwner",
      "type": "error"
    },
    {
      "inputs": [
        {
          "internalType": "address",
          "name": "operator",
          "type": "address"
        },
        {
          "internalType": "uint256",
          "name": "tokenId",
          "type": "uint256"
        }
      ],
      "name": "ERC721InsufficientApproval",
      "type": "error"
    },
    {
      "inputs": [
        {
          "internalType": "address",
          "name": "approver",
          "type": "address"
        }
      ],
      "name": "ERC721InvalidApprover",
      "type": "error"
    },
    {
      "inputs": [
        {
          "internalType": "address",
          "name": "operator",
          "type": "address"
        }
      ],
      "name": "ERC721InvalidOperator",
      "type": "error"
    },
    {
      "inputs": [
        {
          "internalType": "address",
          "name": "owner",
          "type": "address"
        }
      ],
      "name": "ERC721InvalidOwner",
      "type": "error"
    },
    {
      "inputs": [
        {
          "internalType": "address",
          "name": "receiver",
          "type": "address"
        }
      ],
      "name": "ERC721InvalidReceiver",
      "type": "error"
    },
    {
      "inputs": [
        {
          "internalType": "address",
          "name": "sender",
          "type": "address"
        }
      ],
      "name": "ERC721InvalidSender",
      "type": "error"
    },
    {
      "inputs": [
        {
          "internalType": "uint256",
          "name": "tokenId",
          "type": "uint256"
        }
      ],
      "name": "ERC721NonexistentToken",
      "type": "error"
    },
    {
      "inputs": [
        {
          "internalType": "address",
          "name": "owner",
          "type": "address"
        }
      ],
      "name": "OwnableInvalidOwner",
      "type": "error"
    },
    {
      "inputs": [
        {
          "internalType": "address",
          "name": "account",
          "type": "address"
        }
      ],
      "name": "OwnableUnauthorizedAccount",
      "type": "error"
    },
    {
      "anonymous": false,
      "inputs": [
        {
          "indexed": true,
          "internalType": "address",
          "name": "owner",
          "type": "address"
        },
        {
          "indexed": true,
          "internalType": "address",
          "name": "approved",
          "type": "address"
        },
        {
          "indexed": true,
          "internalType": "uint256",
          "name": "tokenId",
          "type": "uint256"
        }
      ],
      "name": "Approval",
      "type": "event"
    },
    {
      "anonymous": false,
      "inputs": [
        {
          "indexed": true,
          "internalType": "address",
          "name": "owner",
          "type": "address"
        },
        {
          "indexed": true,
          "internalType": "address",
          "name": "operator",
          "type": "address"
        },
        {
          "indexed": false,
          "internalType": "bool",
          "name": "approved",
          "type": "bool"
        }
      ],
      "name": "ApprovalForAll",
      "type": "event"
    },
    {
      "anonymous": false,
      "inputs": [
        {
          "indexed": false,
          "internalType": "uint256",
          "name": "_fromTokenId",
          "type": "uint256"
        },
        {
          "indexed": false,
          "internalType": "uint256",
          "name": "_toTokenId",
          "type": "uint256"
        }
      ],
      "name": "BatchMetadataUpdate",
      "type": "event"
    },
    {
      "anonymous": false,
      "inputs": [
        {
          "indexed": false,
          "internalType": "uint256",
          "name": "tokenId",
          "type": "uint256"
        },
        {
          "indexed": false,
          "internalType": "uint256",
          "name": "price",
          "type": "uint256"
        }
      ],
      "name": "CarListedForSale",
      "type": "event"
    },
    {
      "anonymous": false,
      "inputs": [
        {
          "indexed": false,
          "internalType": "uint256",
          "name": "tokenId",
          "type": "uint256"
        },
        {
          "indexed": false,
          "internalType": "address",
          "name": "owner",
          "type": "address"
        },
        {
          "indexed": false,
          "internalType": "string",
          "name": "vin",
          "type": "string"
        }
      ],
      "name": "CarMinted",
      "type": "event"
    },
    {
      "anonymous": false,
      "inputs": [
        {
          "indexed": false,
          "internalType": "uint256",
          "name": "tokenId",
          "type": "uint256"
        },
        {
          "indexed": false,
          "internalType": "address",
          "name": "newOwner",
          "type": "address"
        },
        {
          "indexed": false,
          "internalType": "uint256",
          "name": "price",
          "type": "uint256"
        }
      ],
      "name": "CarSold",
      "type": "event"
    },
    {
      "anonymous": false,
      "inputs": [
        {
          "indexed": false,
          "internalType": "uint256",
          "name": "_tokenId",
          "type": "uint256"
        }
      ],
      "name": "MetadataUpdate",
      "type": "event"
    },
    {
      "anonymous": false,
      "inputs": [
        {
          "indexed": true,
          "internalType": "address",
          "name": "previousOwner",
          "type": "address"
        },
        {
          "indexed": true,
          "internalType": "address",
          "name": "newOwner",
          "type": "address"
        }
      ],
      "name": "OwnershipTransferred",
      "type": "event"
    },
    {
      "anonymous": false,
      "inputs": [
        {
          "indexed": true,
          "internalType": "address",
          "name": "from",
          "type": "address"
        },
        {
          "indexed": true,
          "internalType": "address",
          "name": "to",
          "type": "address"
        },
        {
          "indexed": true,
          "internalType": "uint256",
          "name": "tokenId",
          "type": "uint256"
        }
      ],
      "name": "Transfer",
      "type": "event"
    },
    {
      "inputs": [
        {
          "internalType": "address",
          "name": "to",
          "type": "address"
        },
        {
          "internalType": "uint256",
          "name": "tokenId",
          "type": "uint256"
        }
      ],
      "name": "approve",
      "outputs": [],
      "stateMutability": "nonpayable",
      "type": "function"
    },
    {
      "inputs": [
        {
          "internalType": "address",
          "name": "owner",
          "type": "address"
        }
      ],
      "name": "balanceOf",
      "outputs": [
        {
          "internalType": "uint256",
          "name": "",
          "type": "uint256"
        }
      ],
      "stateMutability": "view",
      "type": "function"
    },
    {
      "inputs": [
        {
          "internalType": "uint256",
          "name": "tokenId",
          "type": "uint256"
        }
      ],
      "name": "buyCar",
      "outputs": [],
      "stateMutability": "payable",
      "type": "function"
    },
    {
      "inputs": [],
      "name": "getAllCars",
      "outputs": [
        {
          "components": [
            {
              "internalType": "string",
              "name": "make",
              "type": "string"
            },
            {
              "internalType": "string",
              "name": "model",
              "type": "string"
            },
            {
              "internalType": "uint256",
              "name": "year",
              "type": "uint256"
            },
            {
              "internalType": "string",
              "name": "vin",
              "type": "string"
            },
            {
              "internalType": "uint256",
              "name": "mileage",
              "type": "uint256"
            },
            {
              "internalType": "bool",
              "name": "forSale",
              "type": "bool"
            },
            {
              "internalType": "uint256",
              "name": "price",
              "type": "uint256"
            }
          ],
          "internalType": "struct CarMarketplace.Car[]",
          "name": "",
          "type": "tuple[]"
        }
      ],
      "stateMutability": "view",
      "type": "function"
    },
    {
      "inputs": [
        {
          "internalType": "uint256",
          "name": "tokenId",
          "type": "uint256"
        }
      ],
      "name": "getApproved",
      "outputs": [
        {
          "internalType": "address",
          "name": "",
          "type": "address"
        }
      ],
      "stateMutability": "view",
      "type": "function"
    },
    {
      "inputs": [
        {
          "internalType": "uint256",
          "name": "tokenId",
          "type": "uint256"
        }
      ],
      "name": "getCarDetails",
      "outputs": [
        {
          "components": [
            {
              "internalType": "string",
              "name": "make",
              "type": "string"
            },
            {
              "internalType": "string",
              "name": "model",
              "type": "string"
            },
            {
              "internalType": "uint256",
              "name": "year",
              "type": "uint256"
            },
            {
              "internalType": "string",
              "name": "vin",
              "type": "string"
            },
            {
              "internalType": "uint256",
              "name": "mileage",
              "type": "uint256"
            },
            {
              "internalType": "bool",
              "name": "forSale",
              "type": "bool"
            },
            {
              "internalType": "uint256",
              "name": "price",
              "type": "uint256"
            }
          ],
          "internalType": "struct CarMarketplace.Car",
          "name": "",
          "type": "tuple"
        }
      ],
      "stateMutability": "view",
      "type": "function"
    },
    {
      "inputs": [
        {
          "internalType": "address",
          "name": "owner",
          "type": "address"
        },
        {
          "internalType": "address",
          "name": "operator",
          "type": "address"
        }
      ],
      "name": "isApprovedForAll",
      "outputs": [
        {
          "internalType": "bool",
          "name": "",
          "type": "bool"
        }
      ],
      "stateMutability": "view",
      "type": "function"
    },
    {
      "inputs": [
        {
          "internalType": "uint256",
          "name": "tokenId",
          "type": "uint256"
        },
        {
          "internalType": "uint256",
          "name": "price",
          "type": "uint256"
        }
      ],
      "name": "listCarForSale",
      "outputs": [],
      "stateMutability": "nonpayable",
      "type": "function"
    },
    {
      "inputs": [
        {
          "internalType": "address",
          "name": "to",
          "type": "address"
        },
        {
          "internalType": "string",
          "name": "make",
          "type": "string"
        },
        {
          "internalType": "string",
          "name": "model",
          "type": "string"
        },
        {
          "internalType": "uint256",
          "name": "year",
          "type": "uint256"
        },
        {
          "internalType": "string",
          "name": "vin",
          "type": "string"
        },
        {
          "internalType": "uint256",
          "name": "mileage",
          "type": "uint256"
        },
        {
          "internalType": "string",
          "name": "tokenURI",
          "type": "string"
        }
      ],
      "name": "mintCar",
      "outputs": [],
      "stateMutability": "nonpayable",
      "type": "function"
    },
    {
      "inputs": [],
      "name": "name",
      "outputs": [
        {
          "internalType": "string",
          "name": "",
          "type": "string"
        }
      ],
      "stateMutability": "view",
      "type": "function"
    },
    {
      "inputs": [],
      "name": "owner",
      "outputs": [
        {
          "internalType": "address",
          "name": "",
          "type": "address"
        }
      ],
      "stateMutability": "view",
      "type": "function"
    },
    {
      "inputs": [
        {
          "internalType": "uint256",
          "name": "tokenId",
          "type": "uint256"
        }
      ],
      "name": "ownerOf",
      "outputs": [
        {
          "internalType": "address",
          "name": "",
          "type": "address"
        }
      ],
      "stateMutability": "view",
      "type": "function"
    },
    {
      "inputs": [],
      "name": "renounceOwnership",
      "outputs": [],
      "stateMutability": "nonpayable",
      "type": "function"
    },
    {
      "inputs": [
        {
          "internalType": "address",
          "name": "from",
          "type": "address"
        },
        {
          "internalType": "address",
          "name": "to",
          "type": "address"
        },
        {
          "internalType": "uint256",
          "name": "tokenId",
          "type": "uint256"
        }
      ],
      "name": "safeTransferFrom",
      "outputs": [],
      "stateMutability": "nonpayable",
      "type": "function"
    },
    {
      "inputs": [
        {
          "internalType": "address",
          "name": "from",
          "type": "address"
        },
        {
          "internalType": "address",
          "name": "to",
          "type": "address"
        },
        {
          "internalType": "uint256",
          "name": "tokenId",
          "type": "uint256"
        },
        {
          "internalType": "bytes",
          "name": "data",
          "type": "bytes"
        }
      ],
      "name": "safeTransferFrom",
      "outputs": [],
      "stateMutability": "nonpayable",
      "type": "function"
    },
    {
      "inputs": [
        {
          "internalType": "address",
          "name": "operator",
          "type": "address"
        },
        {
          "internalType": "bool",
          "name": "approved",
          "type": "bool"
        }
      ],
      "name": "setApprovalForAll",
      "outputs": [],
      "stateMutability": "nonpayable",
      "type": "function"
    },
    {
      "inputs": [
        {
          "internalType": "bytes4",
          "name": "interfaceId",
          "type": "bytes4"
        }
      ],
      "name": "supportsInterface",
      "outputs": [
        {
          "internalType": "bool",
          "name": "",
          "type": "bool"
        }
      ],
      "stateMutability": "view",
      "type": "function"
    },
    {
      "inputs": [],
      "name": "symbol",
      "outputs": [
        {
          "internalType": "string",
          "name": "",
          "type": "string"
        }
      ],
      "stateMutability": "view",
      "type": "function"
    },
    {
      "inputs": [
        {
          "internalType": "uint256",
          "name": "tokenId",
          "type": "uint256"
        }
      ],
      "name": "tokenURI",
      "outputs": [
        {
          "internalType": "string",
          "name": "",
          "type": "string"
        }
      ],
      "stateMutability": "view",
      "type": "function"
    },
    {
      "inputs": [
        {
          "internalType": "address",
          "name": "from",
          "type": "address"
        },
        {
          "internalType": "address",
          "name": "to",
          "type": "address"
        },
        {
          "internalType": "uint256",
          "name": "tokenId",
          "type": "uint256"
        }
      ],
      "name": "transferFrom",
      "outputs": [],
      "stateMutability": "nonpayable",
      "type": "function"
    },
    {
      "inputs": [
        {
          "internalType": "address",
          "name": "newOwner",
          "type": "address"
        }
      ],
      "name": "transferOwnership",
      "outputs": [],
      "stateMutability": "nonpayable",
      "type": "function"
    }
  ],
  "bytecode": "0x608060405234801561001057600080fd5b50336040518060400160405280600781526020017f4175746f446578000000000000000000000000000000000000000000000000008152506040518060400160405280600381526020017f4144580000000000000000000000000000000000000000000000000000000000815250816000908161008d919061043d565b50806001908161009d919061043d565b505050600073ffffffffffffffffffffffffffffffffffffffff168173ffffffffffffffffffffffffffffffffffffffff16036101125760006040517f1e4fbdf70000000000000000000000000000000000000000000000000000000081526004016101099190610550565b60405180910390fd5b6101218161012760201b60201c565b5061056b565b6000600760009054906101000a900473ffffffffffffffffffffffffffffffffffffffff16905081600760006101000a81548173ffffffffffffffffffffffffffffffffffffffff021916908373ffffffffffffffffffffffffffffffffffffffff1602179055508173ffffffffffffffffffffffffffffffffffffffff168173ffffffffffffffffffffffffffffffffffffffff167f8be0079c531659141344cd1fd0a4f28419497f9722a3daafe3b4186f6b6457e060405160405180910390a35050565b600081519050919050565b7f4e487b7100000000000000000000000000000000000000000000000000000000600052604160045260246000fd5b7f4e487b7100000000000000000000000000000000000000000000000000000000600052602260045260246000fd5b6000600282049050600182168061026e57607f821691505b60208210810361028157610280610227565b5b50919050565b60008190508160005260206000209050919050565b60006020601f8301049050919050565b600082821b905092915050565b6000600883026102e97fffffffffffffffffffffffffffffffffffffffffffffffffffffffffffffffff826102ac565b6102f386836102ac565b95508019841693508086168417925050509392505050565b6000819050919050565b6000819050919050565b600061033a6103356103308461030b565b610315565b61030b565b9050919050565b6000819050919050565b6103548361031f565b61036861036082610341565b8484546102b9565b825550505050565b600090565b61037d610370565b61038881848461034b565b505050565b5b818110156103ac576103a1600082610375565b60018101905061038e565b5050565b601f8211156103f1576103c281610287565b6103cb8461029c565b810160208510156103da578190505b6103ee6103e68561029c565b83018261038d565b50505b505050565b600082821c905092915050565b6000610414600019846008026103f6565b1980831691505092915050565b600061042d8383610403565b9150826002028217905092915050565b610446826101ed565b67ffffffffffffffff81111561045f5761045e6101f8565b5b6104698254610256565b6104748282856103b0565b600060209050601f8311600181146104a75760008415610495578287015190505b61049f8582610421565b865550610507565b601f1984166104b586610287565b60005b828110156104dd578489015182556001820191506020850194506020810190506104b8565b868310156104fa57848901516104f6601f891682610403565b8355505b6001600288020188555050505b505050505050565b600073ffffffffffffffffffffffffffffffffffffffff82169050919050565b600061053a8261050f565b9050919050565b61054a8161052f565b82525050565b60006020820190506105656000830184610541565b92915050565b613cee8061057a6000396000f3fe60806040526004361061012a5760003560e01c8063715018a6116100ab578063abfe5d571161006f578063abfe5d57146103e1578063b88d4fde1461040c578063c87b56dd14610435578063e985e9c514610472578063f2fde38b146104af578063f6888384146104d85761012a565b8063715018a6146103225780638da5cb5b1461033957806395d89b41146103645780639cf587af1461038f578063a22cb465146103b85761012a565b806342842e0e116100f257806342842e0e14610226578063472ec4541461024f5780636352211e1461028c5780636c231060146102c957806370a08231146102e55761012a565b806301ffc9a71461012f57806306fdde031461016c578063081812fc14610197578063095ea7b3146101d457806323b872dd146101fd575b600080fd5b34801561013b57600080fd5b50610156600480360381019061015191906128f6565b610501565b604051610163919061293e565b60405180910390f35b34801561017857600080fd5b50610181610562565b60405161018e91906129e9565b60405180910390f35b3480156101a357600080fd5b506101be60048036038101906101b99190612a41565b6105f4565b6040516101cb9190612aaf565b60405180910390f35b3480156101e057600080fd5b506101fb60048036038101906101f69190612af6565b610610565b005b34801561020957600080fd5b50610224600480360381019061021f9190612b36565b610626565b005b34801561023257600080fd5b5061024d60048036038101906102489190612b36565b610728565b005b34801561025b57600080fd5b5061027660048036038101906102719190612a41565b610748565b6040516102839190612c9b565b60405180910390f35b34801561029857600080fd5b506102b360048036038101906102ae9190612a41565b61096e565b6040516102c09190612aaf565b60405180910390f35b6102e360048036038101906102de9190612a41565b610980565b005b3480156102f157600080fd5b5061030c60048036038101906103079190612cbd565b610c10565b6040516103199190612cf9565b60405180910390f35b34801561032e57600080fd5b50610337610cca565b005b34801561034557600080fd5b5061034e610cde565b60405161035b9190612aaf565b60405180910390f35b34801561037057600080fd5b50610379610d08565b60405161038691906129e9565b60405180910390f35b34801561039b57600080fd5b506103b660048036038101906103b19190612e49565b610d9a565b005b3480156103c457600080fd5b506103df60048036038101906103da9190612f87565b61105e565b005b3480156103ed57600080fd5b506103f6611074565b6040516104039190613133565b60405180910390f35b34801561041857600080fd5b50610433600480360381019061042e91906131f6565b61131d565b005b34801561044157600080fd5b5061045c60048036038101906104579190612a41565b611342565b60405161046991906129e9565b60405180910390f35b34801561047e57600080fd5b5061049960048036038101906104949190613279565b611455565b6040516104a6919061293e565b60405180910390f35b3480156104bb57600080fd5b506104d660048036038101906104d19190612cbd565b6114e9565b005b3480156104e457600080fd5b506104ff60048036038101906104fa91906132b9565b61156f565b005b6000634906490660e01b7bffffffffffffffffffffffffffffffffffffffffffffffffffffffff1916827bffffffffffffffffffffffffffffffffffffffffffffffffffffffff1916148061055b575061055a826116af565b5b9050919050565b60606000805461057190613328565b80601f016020809104026020016040519081016040528092919081815260200182805461059d90613328565b80156105ea5780601f106105bf576101008083540402835291602001916105ea565b820191906000526020600020905b8154815290600101906020018083116105cd57829003601f168201915b5050505050905090565b60006105ff82611791565b5061060982611819565b9050919050565b610622828261061d611856565b61185e565b5050565b600073ffffffffffffffffffffffffffffffffffffffff168273ffffffffffffffffffffffffffffffffffffffff16036106985760006040517f64a0ae9200000000000000000000000000000000000000000000000000000000815260040161068f9190612aaf565b60405180910390fd5b60006106ac83836106a7611856565b611870565b90508373ffffffffffffffffffffffffffffffffffffffff168173ffffffffffffffffffffffffffffffffffffffff1614610722578382826040517f64283d7b00000000000000000000000000000000000000000000000000000000815260040161071993929190613359565b60405180910390fd5b50505050565b6107438383836040518060200160405280600081525061131d565b505050565b61075061284b565b61075982611791565b50600960008381526020019081526020016000206040518060e001604052908160008201805461078890613328565b80601f01602080910402602001604051908101604052809291908181526020018280546107b490613328565b80156108015780601f106107d657610100808354040283529160200191610801565b820191906000526020600020905b8154815290600101906020018083116107e457829003601f168201915b5050505050815260200160018201805461081a90613328565b80601f016020809104026020016040519081016040528092919081815260200182805461084690613328565b80156108935780601f1061086857610100808354040283529160200191610893565b820191906000526020600020905b81548152906001019060200180831161087657829003601f168201915b50505050508152602001600282015481526020016003820180546108b690613328565b80601f01602080910402602001604051908101604052809291908181526020018280546108e290613328565b801561092f5780601f106109045761010080835404028352916020019161092f565b820191906000526020600020905b81548152906001019060200180831161091257829003601f168201915b50505050508152602001600482015481526020016005820160009054906101000a900460ff161515151581526020016006820154815250509050919050565b600061097982611791565b9050919050565b6009600082815260200190815260200160002060050160009054906101000a900460ff166109e3576040517f08c379a00000000000000000000000000000000000000000000000000000000081526004016109da906133dc565b60405180910390fd5b6009600082815260200190815260200160002060060154341015610a3c576040517f08c379a0000000000000000000000000000000000000000000000000000000008152600401610a3390613448565b60405180910390fd5b6000600a600083815260200190815260200160002060009054906101000a900473ffffffffffffffffffffffffffffffffffffffff1690503373ffffffffffffffffffffffffffffffffffffffff168173ffffffffffffffffffffffffffffffffffffffff1603610ae2576040517f08c379a0000000000000000000000000000000000000000000000000000000008152600401610ad9906134b4565b60405180910390fd5b610aed813384611a8a565b8073ffffffffffffffffffffffffffffffffffffffff166108fc349081150290604051600060405180830381858888f19350505050158015610b33573d6000803e3d6000fd5b5033600a600084815260200190815260200160002060006101000a81548173ffffffffffffffffffffffffffffffffffffffff021916908373ffffffffffffffffffffffffffffffffffffffff16021790555060006009600084815260200190815260200160002060050160006101000a81548160ff021916908315150217905550600060096000848152602001908152602001600020600601819055507f9d90e6b7483b210fb2eb1814d730195955d020389f316a5127d8f07d6fe61c8b823334604051610c04939291906134d4565b60405180910390a15050565b60008073ffffffffffffffffffffffffffffffffffffffff168273ffffffffffffffffffffffffffffffffffffffff1603610c835760006040517f89c62b64000000000000000000000000000000000000000000000000000000008152600401610c7a9190612aaf565b60405180910390fd5b600360008373ffffffffffffffffffffffffffffffffffffffff1673ffffffffffffffffffffffffffffffffffffffff168152602001908152602001600020549050919050565b610cd2611bf7565b610cdc6000611c7e565b565b6000600760009054906101000a900473ffffffffffffffffffffffffffffffffffffffff16905090565b606060018054610d1790613328565b80601f0160208091040260200160405190810160405280929190818152602001828054610d4390613328565b8015610d905780601f10610d6557610100808354040283529160200191610d90565b820191906000526020600020905b815481529060010190602001808311610d7357829003601f168201915b5050505050905090565b610da2611bf7565b6000835111610de6576040517f08c379a0000000000000000000000000000000000000000000000000000000008152600401610ddd90613557565b60405180910390fd5b60005b600854811015610ea35783604051602001610e0491906135b3565b6040516020818303038152906040528051906020012060096000838152602001908152602001600020600301604051602001610e409190613662565b6040516020818303038152906040528051906020012003610e96576040517f08c379a0000000000000000000000000000000000000000000000000000000008152600401610e8d906136c5565b60405180910390fd5b8080600101915050610de9565b50600060085490506040518060e001604052808881526020018781526020018681526020018581526020018481526020016000151581526020016000815250600960008381526020019081526020016000206000820151816000019081610f0a919061387c565b506020820151816001019081610f20919061387c565b50604082015181600201556060820151816003019081610f40919061387c565b506080820151816004015560a08201518160050160006101000a81548160ff02191690831515021790555060c0820151816006015590505087600a600083815260200190815260200160002060006101000a81548173ffffffffffffffffffffffffffffffffffffffff021916908373ffffffffffffffffffffffffffffffffffffffff16021790555080600b85604051610fdb91906135b3565b908152602001604051809103902081905550610ff78882611d44565b6110018183611e3d565b600860008154809291906110149061397d565b91905055507fbd3303cf3cb581bf78ef3ac343c3e3d038afb8bc52183ae64109ebd7ee3a873d81898660405161104c939291906139c5565b60405180910390a15050505050505050565b611070611069611856565b8383611e99565b5050565b6060600060085467ffffffffffffffff81111561109457611093612d1e565b5b6040519080825280602002602001820160405280156110cd57816020015b6110ba61284b565b8152602001906001900390816110b25790505b50905060005b60085481101561131557600960008281526020019081526020016000206040518060e001604052908160008201805461110b90613328565b80601f016020809104026020016040519081016040528092919081815260200182805461113790613328565b80156111845780601f1061115957610100808354040283529160200191611184565b820191906000526020600020905b81548152906001019060200180831161116757829003601f168201915b5050505050815260200160018201805461119d90613328565b80601f01602080910402602001604051908101604052809291908181526020018280546111c990613328565b80156112165780601f106111eb57610100808354040283529160200191611216565b820191906000526020600020905b8154815290600101906020018083116111f957829003601f168201915b505050505081526020016002820154815260200160038201805461123990613328565b80601f016020809104026020016040519081016040528092919081815260200182805461126590613328565b80156112b25780601f10611287576101008083540402835291602001916112b2565b820191906000526020600020905b81548152906001019060200180831161129557829003601f168201915b50505050508152602001600482015481526020016005820160009054906101000a900460ff161515151581526020016006820154815250508282815181106112fd576112fc613a03565b5b602002602001018190525080806001019150506110d3565b508091505090565b611328848484610626565b61133c611333611856565b85858585612008565b50505050565b606061134d82611791565b50600060066000848152602001908152602001600020805461136e90613328565b80601f016020809104026020016040519081016040528092919081815260200182805461139a90613328565b80156113e75780601f106113bc576101008083540402835291602001916113e7565b820191906000526020600020905b8154815290600101906020018083116113ca57829003601f168201915b5050505050905060006113f86121b9565b9050600081510361140d578192505050611450565b60008251111561144257808260405160200161142a929190613a32565b60405160208183030381529060405292505050611450565b61144b846121d0565b925050505b919050565b6000600560008473ffffffffffffffffffffffffffffffffffffffff1673ffffffffffffffffffffffffffffffffffffffff16815260200190815260200160002060008373ffffffffffffffffffffffffffffffffffffffff1673ffffffffffffffffffffffffffffffffffffffff16815260200190815260200160002060009054906101000a900460ff16905092915050565b6114f1611bf7565b600073ffffffffffffffffffffffffffffffffffffffff168173ffffffffffffffffffffffffffffffffffffffff16036115635760006040517f1e4fbdf700000000000000000000000000000000000000000000000000000000815260040161155a9190612aaf565b60405180910390fd5b61156c81611c7e565b50565b3373ffffffffffffffffffffffffffffffffffffffff1661158f8361096e565b73ffffffffffffffffffffffffffffffffffffffff16146115e5576040517f08c379a00000000000000000000000000000000000000000000000000000000081526004016115dc90613ac8565b60405180910390fd5b60008111611628576040517f08c379a000000000000000000000000000000000000000000000000000000000815260040161161f90613b34565b60405180910390fd5b60016009600084815260200190815260200160002060050160006101000a81548160ff0219169083151502179055508060096000848152602001908152602001600020600601819055507fd7eb5635a91daa6c8336a751c696002c8243f97bad99a81269931e463952470982826040516116a3929190613b54565b60405180910390a15050565b60007f80ac58cd000000000000000000000000000000000000000000000000000000007bffffffffffffffffffffffffffffffffffffffffffffffffffffffff1916827bffffffffffffffffffffffffffffffffffffffffffffffffffffffff1916148061177a57507f5b5e139f000000000000000000000000000000000000000000000000000000007bffffffffffffffffffffffffffffffffffffffffffffffffffffffff1916827bffffffffffffffffffffffffffffffffffffffffffffffffffffffff1916145b8061178a575061178982612239565b5b9050919050565b60008061179d836122a3565b9050600073ffffffffffffffffffffffffffffffffffffffff168173ffffffffffffffffffffffffffffffffffffffff160361181057826040517f7e2732890000000000000000000000000000000000000000000000000000000081526004016118079190612cf9565b60405180910390fd5b80915050919050565b60006004600083815260200190815260200160002060009054906101000a900473ffffffffffffffffffffffffffffffffffffffff169050919050565b600033905090565b61186b83838360016122e0565b505050565b60008061187c846122a3565b9050600073ffffffffffffffffffffffffffffffffffffffff168373ffffffffffffffffffffffffffffffffffffffff16146118be576118bd8184866124a5565b5b600073ffffffffffffffffffffffffffffffffffffffff168173ffffffffffffffffffffffffffffffffffffffff161461194f576119006000856000806122e0565b6001600360008373ffffffffffffffffffffffffffffffffffffffff1673ffffffffffffffffffffffffffffffffffffffff168152602001908152602001600020600082825403925050819055505b600073ffffffffffffffffffffffffffffffffffffffff168573ffffffffffffffffffffffffffffffffffffffff16146119d2576001600360008773ffffffffffffffffffffffffffffffffffffffff1673ffffffffffffffffffffffffffffffffffffffff168152602001908152602001600020600082825401925050819055505b846002600086815260200190815260200160002060006101000a81548173ffffffffffffffffffffffffffffffffffffffff021916908373ffffffffffffffffffffffffffffffffffffffff160217905550838573ffffffffffffffffffffffffffffffffffffffff168273ffffffffffffffffffffffffffffffffffffffff167fddf252ad1be2c89b69c2b068fc378daa952ba7f163c4a11628f55a4df523b3ef60405160405180910390a4809150509392505050565b600073ffffffffffffffffffffffffffffffffffffffff168273ffffffffffffffffffffffffffffffffffffffff1603611afc5760006040517f64a0ae92000000000000000000000000000000000000000000000000000000008152600401611af39190612aaf565b60405180910390fd5b6000611b0a83836000611870565b9050600073ffffffffffffffffffffffffffffffffffffffff168173ffffffffffffffffffffffffffffffffffffffff1603611b7d57816040517f7e273289000000000000000000000000000000000000000000000000000000008152600401611b749190612cf9565b60405180910390fd5b8373ffffffffffffffffffffffffffffffffffffffff168173ffffffffffffffffffffffffffffffffffffffff1614611bf1578382826040517f64283d7b000000000000000000000000000000000000000000000000000000008152600401611be893929190613359565b60405180910390fd5b50505050565b611bff611856565b73ffffffffffffffffffffffffffffffffffffffff16611c1d610cde565b73ffffffffffffffffffffffffffffffffffffffff1614611c7c57611c40611856565b6040517f118cdaa7000000000000000000000000000000000000000000000000000000008152600401611c739190612aaf565b60405180910390fd5b565b6000600760009054906101000a900473ffffffffffffffffffffffffffffffffffffffff16905081600760006101000a81548173ffffffffffffffffffffffffffffffffffffffff021916908373ffffffffffffffffffffffffffffffffffffffff1602179055508173ffffffffffffffffffffffffffffffffffffffff168173ffffffffffffffffffffffffffffffffffffffff167f8be0079c531659141344cd1fd0a4f28419497f9722a3daafe3b4186f6b6457e060405160405180910390a35050565b600073ffffffffffffffffffffffffffffffffffffffff168273ffffffffffffffffffffffffffffffffffffffff1603611db65760006040517f64a0ae92000000000000000000000000000000000000000000000000000000008152600401611dad9190612aaf565b60405180910390fd5b6000611dc483836000611870565b9050600073ffffffffffffffffffffffffffffffffffffffff168173ffffffffffffffffffffffffffffffffffffffff1614611e385760006040517f73c6ac6e000000000000000000000000000000000000000000000000000000008152600401611e2f9190612aaf565b60405180910390fd5b505050565b80600660008481526020019081526020016000209081611e5d919061387c565b507ff8e1a15aba9398e019f0b49df1a4fde98ee17ae345cb5f6b5e2c27f5033e8ce782604051611e8d9190612cf9565b60405180910390a15050565b600073ffffffffffffffffffffffffffffffffffffffff168273ffffffffffffffffffffffffffffffffffffffff1603611f0a57816040517f5b08ba18000000000000000000000000000000000000000000000000000000008152600401611f019190612aaf565b60405180910390fd5b80600560008573ffffffffffffffffffffffffffffffffffffffff1673ffffffffffffffffffffffffffffffffffffffff16815260200190815260200160002060008473ffffffffffffffffffffffffffffffffffffffff1673ffffffffffffffffffffffffffffffffffffffff16815260200190815260200160002060006101000a81548160ff0219169083151502179055508173ffffffffffffffffffffffffffffffffffffffff168373ffffffffffffffffffffffffffffffffffffffff167f17307eab39ab6107e8899845ad3d59bd9653f200f220920489ca2b5937696c3183604051611ffb919061293e565b60405180910390a3505050565b60008373ffffffffffffffffffffffffffffffffffffffff163b11156121b2578273ffffffffffffffffffffffffffffffffffffffff1663150b7a02868685856040518563ffffffff1660e01b81526004016120679493929190613bd2565b6020604051808303816000875af19250505080156120a357506040513d601f19601f820116820180604052508101906120a09190613c33565b60015b612127573d80600081146120d3576040519150601f19603f3d011682016040523d82523d6000602084013e6120d8565b606091505b50600081510361211f57836040517f64a0ae920000000000000000000000000000000000000000000000000000000081526004016121169190612aaf565b60405180910390fd5b805181602001fd5b63150b7a0260e01b7bffffffffffffffffffffffffffffffffffffffffffffffffffffffff1916817bffffffffffffffffffffffffffffffffffffffffffffffffffffffff1916146121b057836040517f64a0ae920000000000000000000000000000000000000000000000000000000081526004016121a79190612aaf565b60405180910390fd5b505b5050505050565b606060405180602001604052806000815250905090565b60606121db82611791565b5060006121e66121b9565b905060008151116122065760405180602001604052806000815250612231565b8061221084612569565b604051602001612221929190613a32565b6040516020818303038152906040525b915050919050565b60007f01ffc9a7000000000000000000000000000000000000000000000000000000007bffffffffffffffffffffffffffffffffffffffffffffffffffffffff1916827bffffffffffffffffffffffffffffffffffffffffffffffffffffffff1916149050919050565b60006002600083815260200190815260200160002060009054906101000a900473ffffffffffffffffffffffffffffffffffffffff169050919050565b80806123195750600073ffffffffffffffffffffffffffffffffffffffff168273ffffffffffffffffffffffffffffffffffffffff1614155b1561244d57600061232984611791565b9050600073ffffffffffffffffffffffffffffffffffffffff168373ffffffffffffffffffffffffffffffffffffffff161415801561239457508273ffffffffffffffffffffffffffffffffffffffff168173ffffffffffffffffffffffffffffffffffffffff1614155b80156123a757506123a58184611455565b155b156123e957826040517fa9fbf51f0000000000000000000000000000000000000000000000000000000081526004016123e09190612aaf565b60405180910390fd5b811561244b57838573ffffffffffffffffffffffffffffffffffffffff168273ffffffffffffffffffffffffffffffffffffffff167f8c5be1e5ebec7d5bd14f71427d1e84f3dd0314c0f7b2291e5b200ac8c7c3b92560405160405180910390a45b505b836004600085815260200190815260200160002060006101000a81548173ffffffffffffffffffffffffffffffffffffffff021916908373ffffffffffffffffffffffffffffffffffffffff16021790555050505050565b6124b0838383612637565b61256457600073ffffffffffffffffffffffffffffffffffffffff168373ffffffffffffffffffffffffffffffffffffffff160361252557806040517f7e27328900000000000000000000000000000000000000000000000000000000815260040161251c9190612cf9565b60405180910390fd5b81816040517f177e802f00000000000000000000000000000000000000000000000000000000815260040161255b929190613c60565b60405180910390fd5b505050565b606060006001612578846126f8565b01905060008167ffffffffffffffff81111561259757612596612d1e565b5b6040519080825280601f01601f1916602001820160405280156125c95781602001600182028036833780820191505090505b509050600082602001820190505b60011561262c578080600190039150507f3031323334353637383961626364656600000000000000000000000000000000600a86061a8153600a85816126205761261f613c89565b5b049450600085036125d7575b819350505050919050565b60008073ffffffffffffffffffffffffffffffffffffffff168373ffffffffffffffffffffffffffffffffffffffff16141580156126ef57508273ffffffffffffffffffffffffffffffffffffffff168473ffffffffffffffffffffffffffffffffffffffff1614806126b057506126af8484611455565b5b806126ee57508273ffffffffffffffffffffffffffffffffffffffff166126d683611819565b73ffffffffffffffffffffffffffffffffffffffff16145b5b90509392505050565b600080600090507a184f03e93ff9f4daa797ed6e38ed64bf6a1f0100000000000000008310612756577a184f03e93ff9f4daa797ed6e38ed64bf6a1f010000000000000000838161274c5761274b613c89565b5b0492506040810190505b6d04ee2d6d415b85acef81000000008310612793576d04ee2d6d415b85acef8100000000838161278957612788613c89565b5b0492506020810190505b662386f26fc1000083106127c257662386f26fc1000083816127b8576127b7613c89565b5b0492506010810190505b6305f5e10083106127eb576305f5e10083816127e1576127e0613c89565b5b0492506008810190505b612710831061281057612710838161280657612805613c89565b5b0492506004810190505b60648310612833576064838161282957612828613c89565b5b0492506002810190505b600a8310612842576001810190505b80915050919050565b6040518060e001604052806060815260200160608152602001600081526020016060815260200160008152602001600015158152602001600081525090565b6000604051905090565b600080fd5b600080fd5b60007fffffffff0000000000000000000000000000000000000000000000000000000082169050919050565b6128d38161289e565b81146128de57600080fd5b50565b6000813590506128f0816128ca565b92915050565b60006020828403121561290c5761290b612894565b5b600061291a848285016128e1565b91505092915050565b60008115159050919050565b61293881612923565b82525050565b6000602082019050612953600083018461292f565b92915050565b600081519050919050565b600082825260208201905092915050565b60005b83811015612993578082015181840152602081019050612978565b60008484015250505050565b6000601f19601f8301169050919050565b60006129bb82612959565b6129c58185612964565b93506129d5818560208601612975565b6129de8161299f565b840191505092915050565b60006020820190508181036000830152612a0381846129b0565b905092915050565b6000819050919050565b612a1e81612a0b565b8114612a2957600080fd5b50565b600081359050612a3b81612a15565b92915050565b600060208284031215612a5757612a56612894565b5b6000612a6584828501612a2c565b91505092915050565b600073ffffffffffffffffffffffffffffffffffffffff82169050919050565b6000612a9982612a6e565b9050919050565b612aa981612a8e565b82525050565b6000602082019050612ac46000830184612aa0565b92915050565b612ad381612a8e565b8114612ade57600080fd5b50565b600081359050612af081612aca565b92915050565b60008060408385031215612b0d57612b0c612894565b5b6000612b1b85828601612ae1565b9250506020612b2c85828601612a2c565b9150509250929050565b600080600060608486031215612b4f57612b4e612894565b5b6000612b5d86828701612ae1565b9350506020612b6e86828701612ae1565b9250506040612b7f86828701612a2c565b9150509250925092565b600082825260208201905092915050565b6000612ba582612959565b612baf8185612b89565b9350612bbf818560208601612975565b612bc88161299f565b840191505092915050565b612bdc81612a0b565b82525050565b612beb81612923565b82525050565b600060e0830160008301518482036000860152612c0e8282612b9a565b91505060208301518482036020860152612c288282612b9a565b9150506040830151612c3d6040860182612bd3565b5060608301518482036060860152612c558282612b9a565b9150506080830151612c6a6080860182612bd3565b5060a0830151612c7d60a0860182612be2565b5060c0830151612c9060c0860182612bd3565b508091505092915050565b60006020820190508181036000830152612cb58184612bf1565b905092915050565b600060208284031215612cd357612cd2612894565b5b6000612ce184828501612ae1565b91505092915050565b612cf381612a0b565b82525050565b6000602082019050612d0e6000830184612cea565b92915050565b600080fd5b600080fd5b7f4e487b7100000000000000000000000000000000000000000000000000000000600052604160045260246000fd5b612d568261299f565b810181811067ffffffffffffffff82111715612d7557612d74612d1e565b5b80604052505050565b6000612d8861288a565b9050612d948282612d4d565b919050565b600067ffffffffffffffff821115612db457612db3612d1e565b5b612dbd8261299f565b9050602081019050919050565b82818337600083830152505050565b6000612dec612de784612d99565b612d7e565b905082815260208101848484011115612e0857612e07612d19565b5b612e13848285612dca565b509392505050565b600082601f830112612e3057612e2f612d14565b5b8135612e40848260208601612dd9565b91505092915050565b600080600080600080600060e0888a031215612e6857612e67612894565b5b6000612e768a828b01612ae1565b975050602088013567ffffffffffffffff811115612e9757612e96612899565b5b612ea38a828b01612e1b565b965050604088013567ffffffffffffffff811115612ec457612ec3612899565b5b612ed08a828b01612e1b565b9550506060612ee18a828b01612a2c565b945050608088013567ffffffffffffffff811115612f0257612f01612899565b5b612f0e8a828b01612e1b565b93505060a0612f1f8a828b01612a2c565b92505060c088013567ffffffffffffffff811115612f4057612f3f612899565b5b612f4c8a828b01612e1b565b91505092959891949750929550565b612f6481612923565b8114612f6f57600080fd5b50565b600081359050612f8181612f5b565b92915050565b60008060408385031215612f9e57612f9d612894565b5b6000612fac85828601612ae1565b9250506020612fbd85828601612f72565b9150509250929050565b600081519050919050565b600082825260208201905092915050565b6000819050602082019050919050565b600060e08301600083015184820360008601526130108282612b9a565b9150506020830151848203602086015261302a8282612b9a565b915050604083015161303f6040860182612bd3565b50606083015184820360608601526130578282612b9a565b915050608083015161306c6080860182612bd3565b5060a083015161307f60a0860182612be2565b5060c083015161309260c0860182612bd3565b508091505092915050565b60006130a98383612ff3565b905092915050565b6000602082019050919050565b60006130c982612fc7565b6130d38185612fd2565b9350836020820285016130e585612fe3565b8060005b858110156131215784840389528151613102858261309d565b945061310d836130b1565b925060208a019950506001810190506130e9565b50829750879550505050505092915050565b6000602082019050818103600083015261314d81846130be565b905092915050565b600067ffffffffffffffff8211156131705761316f612d1e565b5b6131798261299f565b9050602081019050919050565b600061319961319484613155565b612d7e565b9050828152602081018484840111156131b5576131b4612d19565b5b6131c0848285612dca565b509392505050565b600082601f8301126131dd576131dc612d14565b5b81356131ed848260208601613186565b91505092915050565b600080600080608085870312156132105761320f612894565b5b600061321e87828801612ae1565b945050602061322f87828801612ae1565b935050604061324087828801612a2c565b925050606085013567ffffffffffffffff81111561326157613260612899565b5b61326d878288016131c8565b91505092959194509250565b600080604083850312156132905761328f612894565b5b600061329e85828601612ae1565b92505060206132af85828601612ae1565b9150509250929050565b600080604083850312156132d0576132cf612894565b5b60006132de85828601612a2c565b92505060206132ef85828601612a2c565b9150509250929050565b7f4e487b7100000000000000000000000000000000000000000000000000000000600052602260045260246000fd5b6000600282049050600182168061334057607f821691505b602082108103613353576133526132f9565b5b50919050565b600060608201905061336e6000830186612aa0565b61337b6020830185612cea565b6133886040830184612aa0565b949350505050565b7f436172206973206e6f7420666f722073616c6500000000000000000000000000600082015250565b60006133c6601383612964565b91506133d182613390565b602082019050919050565b600060208201905081810360008301526133f5816133b9565b9050919050565b7f496e73756666696369656e74204554482073656e742e00000000000000000000600082015250565b6000613432601683612964565b915061343d826133fc565b602082019050919050565b6000602082019050818103600083015261346181613425565b9050919050565b7f596f752063616e6e6f742062757920796f7572206f776e206361722e00000000600082015250565b600061349e601c83612964565b91506134a982613468565b602082019050919050565b600060208201905081810360008301526134cd81613491565b9050919050565b60006060820190506134e96000830186612cea565b6134f66020830185612aa0565b6135036040830184612cea565b949350505050565b7f56494e206d7573742062652070726f7669646564000000000000000000000000600082015250565b6000613541601483612964565b915061354c8261350b565b602082019050919050565b6000602082019050818103600083015261357081613534565b9050919050565b600081905092915050565b600061358d82612959565b6135978185613577565b93506135a7818560208601612975565b80840191505092915050565b60006135bf8284613582565b915081905092915050565b60008190508160005260206000209050919050565b600081546135ec81613328565b6135f68186613577565b94506001821660008114613611576001811461362657613659565b60ff1983168652811515820286019350613659565b61362f856135ca565b60005b8381101561365157815481890152600182019150602081019050613632565b838801955050505b50505092915050565b600061366e82846135df565b915081905092915050565b7f56494e20616c7265616479206578697374730000000000000000000000000000600082015250565b60006136af601283612964565b91506136ba82613679565b602082019050919050565b600060208201905081810360008301526136de816136a2565b9050919050565b60006020601f8301049050919050565b600082821b905092915050565b6000600883026137327fffffffffffffffffffffffffffffffffffffffffffffffffffffffffffffffff826136f5565b61373c86836136f5565b95508019841693508086168417925050509392505050565b6000819050919050565b600061377961377461376f84612a0b565b613754565b612a0b565b9050919050565b6000819050919050565b6137938361375e565b6137a761379f82613780565b848454613702565b825550505050565b600090565b6137bc6137af565b6137c781848461378a565b505050565b5b818110156137eb576137e06000826137b4565b6001810190506137cd565b5050565b601f82111561383057613801816135ca565b61380a846136e5565b81016020851015613819578190505b61382d613825856136e5565b8301826137cc565b50505b505050565b600082821c905092915050565b600061385360001984600802613835565b1980831691505092915050565b600061386c8383613842565b9150826002028217905092915050565b61388582612959565b67ffffffffffffffff81111561389e5761389d612d1e565b5b6138a88254613328565b6138b38282856137ef565b600060209050601f8311600181146138e657600084156138d4578287015190505b6138de8582613860565b865550613946565b601f1984166138f4866135ca565b60005b8281101561391c578489015182556001820191506020850194506020810190506138f7565b868310156139395784890151613935601f891682613842565b8355505b6001600288020188555050505b505050505050565b7f4e487b7100000000000000000000000000000000000000000000000000000000600052601160045260246000fd5b600061398882612a0b565b91507fffffffffffffffffffffffffffffffffffffffffffffffffffffffffffffffff82036139ba576139b961394e565b5b600182019050919050565b60006060820190506139da6000830186612cea565b6139e76020830185612aa0565b81810360408301526139f981846129b0565b9050949350505050565b7f4e487b7100000000000000000000000000000000000000000000000000000000600052603260045260246000fd5b6000613a3e8285613582565b9150613a4a8284613582565b91508190509392505050565b7f4f6e6c7920746865206f776e6572206f66207468652076656869636c6520636160008201527f6e206c69737420697420666f722073616c652e00000000000000000000000000602082015250565b6000613ab2603383612964565b9150613abd82613a56565b604082019050919050565b60006020820190508181036000830152613ae181613aa5565b9050919050565b7f5072696365206d7573742062652067726561746572207468616e207a65726f2e600082015250565b6000613b1e602083612964565b9150613b2982613ae8565b602082019050919050565b60006020820190508181036000830152613b4d81613b11565b9050919050565b6000604082019050613b696000830185612cea565b613b766020830184612cea565b9392505050565b600081519050919050565b600082825260208201905092915050565b6000613ba482613b7d565b613bae8185613b88565b9350613bbe818560208601612975565b613bc78161299f565b840191505092915050565b6000608082019050613be76000830187612aa0565b613bf46020830186612aa0565b613c016040830185612cea565b8181036060830152613c138184613b99565b905095945050505050565b600081519050613c2d816128ca565b92915050565b600060208284031215613c4957613c48612894565b5b6000613c5784828501613c1e565b91505092915050565b6000604082019050613c756000830185612aa0565b613c826020830184612cea565b9392505050565b7f4e487b7100000000000000000000000000000000000000000000000000000000600052601260045260246000fdfea2646970667358221220ada1dd2c8a51af322be3e320df56e4da38e4f44f13c372af1901ff5209f77a3064736f6c634300081c0033",
  "linkReferences": {},
  "deployedLinkReferences": {}
}