{
  "_format": "hh-sol-artifact-1",
  "contractName": "CarMarketplace",
  "sourceName": "contracts/CarMarketplace.sol",
  "abi": [
    {
      "inputs": [],
      "stateMutability": "nonpayable",
      "type": "constructor"
    },
    {
      "inputs": [
        {
          "internalType": "address",
          "name": "sender",
          "type": "address"
        },
        {
          "internalType": "uint256",
          "name": "tokenId",
          "type": "uint256"
        },
        {
          "internalType": "address",
          "name": "owner",
          "type": "address"
        }
      ],
      "name": "ERC721IncorrectOwner",
      "type": "error"
    },
    {
      "inputs": [
        {
          "internalType": "address",
          "name": "operator",
          "type": "address"
        },
        {
          "internalType": "uint256",
          "name": "tokenId",
          "type": "uint256"
        }
      ],
      "name": "ERC721InsufficientApproval",
      "type": "error"
    },
    {
      "inputs": [
        {
          "internalType": "address",
          "name": "approver",
          "type": "address"
        }
      ],
      "name": "ERC721InvalidApprover",
      "type": "error"
    },
    {
      "inputs": [
        {
          "internalType": "address",
          "name": "operator",
          "type": "address"
        }
      ],
      "name": "ERC721InvalidOperator",
      "type": "error"
    },
    {
      "inputs": [
        {
          "internalType": "address",
          "name": "owner",
          "type": "address"
        }
      ],
      "name": "ERC721InvalidOwner",
      "type": "error"
    },
    {
      "inputs": [
        {
          "internalType": "address",
          "name": "receiver",
          "type": "address"
        }
      ],
      "name": "ERC721InvalidReceiver",
      "type": "error"
    },
    {
      "inputs": [
        {
          "internalType": "address",
          "name": "sender",
          "type": "address"
        }
      ],
      "name": "ERC721InvalidSender",
      "type": "error"
    },
    {
      "inputs": [
        {
          "internalType": "uint256",
          "name": "tokenId",
          "type": "uint256"
        }
      ],
      "name": "ERC721NonexistentToken",
      "type": "error"
    },
    {
      "inputs": [
        {
          "internalType": "address",
          "name": "owner",
          "type": "address"
        }
      ],
      "name": "OwnableInvalidOwner",
      "type": "error"
    },
    {
      "inputs": [
        {
          "internalType": "address",
          "name": "account",
          "type": "address"
        }
      ],
      "name": "OwnableUnauthorizedAccount",
      "type": "error"
    },
    {
      "anonymous": false,
      "inputs": [
        {
          "indexed": true,
          "internalType": "address",
          "name": "owner",
          "type": "address"
        },
        {
          "indexed": true,
          "internalType": "address",
          "name": "approved",
          "type": "address"
        },
        {
          "indexed": true,
          "internalType": "uint256",
          "name": "tokenId",
          "type": "uint256"
        }
      ],
      "name": "Approval",
      "type": "event"
    },
    {
      "anonymous": false,
      "inputs": [
        {
          "indexed": true,
          "internalType": "address",
          "name": "owner",
          "type": "address"
        },
        {
          "indexed": true,
          "internalType": "address",
          "name": "operator",
          "type": "address"
        },
        {
          "indexed": false,
          "internalType": "bool",
          "name": "approved",
          "type": "bool"
        }
      ],
      "name": "ApprovalForAll",
      "type": "event"
    },
    {
      "anonymous": false,
      "inputs": [
        {
          "indexed": false,
          "internalType": "uint256",
          "name": "_fromTokenId",
          "type": "uint256"
        },
        {
          "indexed": false,
          "internalType": "uint256",
          "name": "_toTokenId",
          "type": "uint256"
        }
      ],
      "name": "BatchMetadataUpdate",
      "type": "event"
    },
    {
      "anonymous": false,
      "inputs": [
        {
          "indexed": false,
          "internalType": "uint256",
          "name": "tokenId",
          "type": "uint256"
        },
        {
          "indexed": false,
          "internalType": "uint256",
          "name": "price",
          "type": "uint256"
        }
      ],
      "name": "CarListedForSale",
      "type": "event"
    },
    {
      "anonymous": false,
      "inputs": [
        {
          "indexed": false,
          "internalType": "uint256",
          "name": "tokenId",
          "type": "uint256"
        },
        {
          "indexed": false,
          "internalType": "address",
          "name": "owner",
          "type": "address"
        },
        {
          "indexed": false,
          "internalType": "string",
          "name": "vin",
          "type": "string"
        }
      ],
      "name": "CarMinted",
      "type": "event"
    },
    {
      "anonymous": false,
      "inputs": [
        {
          "indexed": false,
          "internalType": "uint256",
          "name": "tokenId",
          "type": "uint256"
        },
        {
          "indexed": false,
          "internalType": "address",
          "name": "newOwner",
          "type": "address"
        },
        {
          "indexed": false,
          "internalType": "uint256",
          "name": "price",
          "type": "uint256"
        }
      ],
      "name": "CarSold",
      "type": "event"
    },
    {
      "anonymous": false,
      "inputs": [
        {
          "indexed": false,
          "internalType": "uint256",
          "name": "_tokenId",
          "type": "uint256"
        }
      ],
      "name": "MetadataUpdate",
      "type": "event"
    },
    {
      "anonymous": false,
      "inputs": [
        {
          "indexed": true,
          "internalType": "address",
          "name": "previousOwner",
          "type": "address"
        },
        {
          "indexed": true,
          "internalType": "address",
          "name": "newOwner",
          "type": "address"
        }
      ],
      "name": "OwnershipTransferred",
      "type": "event"
    },
    {
      "anonymous": false,
      "inputs": [
        {
          "indexed": true,
          "internalType": "address",
          "name": "provider",
          "type": "address"
        }
      ],
      "name": "ServiceProviderAdded",
      "type": "event"
    },
    {
      "anonymous": false,
      "inputs": [
        {
          "indexed": true,
          "internalType": "address",
          "name": "provider",
          "type": "address"
        }
      ],
      "name": "ServiceProviderRemoved",
      "type": "event"
    },
    {
      "anonymous": false,
      "inputs": [
        {
          "indexed": true,
          "internalType": "uint256",
          "name": "tokenId",
          "type": "uint256"
        },
        {
          "indexed": false,
          "internalType": "string",
          "name": "description",
          "type": "string"
        }
      ],
      "name": "ServiceRecordAdded",
      "type": "event"
    },
    {
      "anonymous": false,
      "inputs": [
        {
          "indexed": true,
          "internalType": "address",
          "name": "from",
          "type": "address"
        },
        {
          "indexed": true,
          "internalType": "address",
          "name": "to",
          "type": "address"
        },
        {
          "indexed": true,
          "internalType": "uint256",
          "name": "tokenId",
          "type": "uint256"
        }
      ],
      "name": "Transfer",
      "type": "event"
    },
    {
      "inputs": [
        {
          "internalType": "address",
          "name": "provider",
          "type": "address"
        }
      ],
      "name": "addServiceProvider",
      "outputs": [],
      "stateMutability": "nonpayable",
      "type": "function"
    },
    {
      "inputs": [
        {
          "internalType": "uint256",
          "name": "tokenId",
          "type": "uint256"
        },
        {
          "internalType": "string",
          "name": "description",
          "type": "string"
        },
        {
          "internalType": "string",
          "name": "garageName",
          "type": "string"
        },
        {
          "internalType": "uint256",
          "name": "mileage",
          "type": "uint256"
        }
      ],
      "name": "addServiceRecord",
      "outputs": [],
      "stateMutability": "nonpayable",
      "type": "function"
    },
    {
      "inputs": [
        {
          "internalType": "address",
          "name": "to",
          "type": "address"
        },
        {
          "internalType": "uint256",
          "name": "tokenId",
          "type": "uint256"
        }
      ],
      "name": "approve",
      "outputs": [],
      "stateMutability": "nonpayable",
      "type": "function"
    },
    {
      "inputs": [
        {
          "internalType": "address",
          "name": "owner",
          "type": "address"
        }
      ],
      "name": "balanceOf",
      "outputs": [
        {
          "internalType": "uint256",
          "name": "",
          "type": "uint256"
        }
      ],
      "stateMutability": "view",
      "type": "function"
    },
    {
      "inputs": [
        {
          "internalType": "uint256",
          "name": "tokenId",
          "type": "uint256"
        }
      ],
      "name": "buyCar",
      "outputs": [],
      "stateMutability": "payable",
      "type": "function"
    },
    {
      "inputs": [],
      "name": "getAllCars",
      "outputs": [
        {
          "components": [
            {
              "internalType": "uint256",
              "name": "tokenId",
              "type": "uint256"
            },
            {
              "internalType": "string",
              "name": "tokenURI",
              "type": "string"
            },
            {
              "internalType": "uint256",
              "name": "price",
              "type": "uint256"
            }
          ],
          "internalType": "struct CarMarketplace.Car[]",
          "name": "",
          "type": "tuple[]"
        }
      ],
      "stateMutability": "view",
      "type": "function"
    },
    {
      "inputs": [
        {
          "internalType": "uint256",
          "name": "tokenId",
          "type": "uint256"
        }
      ],
      "name": "getApproved",
      "outputs": [
        {
          "internalType": "address",
          "name": "",
          "type": "address"
        }
      ],
      "stateMutability": "view",
      "type": "function"
    },
    {
      "inputs": [
        {
          "internalType": "uint256",
          "name": "tokenId",
          "type": "uint256"
        }
      ],
      "name": "getCarDetails",
      "outputs": [
        {
          "components": [
            {
              "internalType": "uint256",
              "name": "tokenId",
              "type": "uint256"
            },
            {
              "internalType": "string",
              "name": "tokenURI",
              "type": "string"
            },
            {
              "internalType": "uint256",
              "name": "price",
              "type": "uint256"
            }
          ],
          "internalType": "struct CarMarketplace.Car",
          "name": "",
          "type": "tuple"
        }
      ],
      "stateMutability": "view",
      "type": "function"
    },
    {
      "inputs": [
        {
          "internalType": "address",
          "name": "provider",
          "type": "address"
        }
      ],
      "name": "getIsServiceProvider",
      "outputs": [
        {
          "internalType": "bool",
          "name": "",
          "type": "bool"
        }
      ],
      "stateMutability": "view",
      "type": "function"
    },
    {
      "inputs": [
        {
          "internalType": "uint256",
          "name": "tokenId",
          "type": "uint256"
        }
      ],
      "name": "getPrice",
      "outputs": [
        {
          "internalType": "uint256",
          "name": "",
          "type": "uint256"
        }
      ],
      "stateMutability": "view",
      "type": "function"
    },
    {
      "inputs": [
        {
          "internalType": "uint256",
          "name": "tokenId",
          "type": "uint256"
        }
      ],
      "name": "getServiceHistory",
      "outputs": [
        {
          "components": [
            {
              "internalType": "uint256",
              "name": "date",
              "type": "uint256"
            },
            {
              "internalType": "string",
              "name": "description",
              "type": "string"
            },
            {
              "internalType": "string",
              "name": "garageName",
              "type": "string"
            },
            {
              "internalType": "uint256",
              "name": "mileage",
              "type": "uint256"
            }
          ],
          "internalType": "struct CarMarketplace.ServiceRecord[]",
          "name": "",
          "type": "tuple[]"
        }
      ],
      "stateMutability": "view",
      "type": "function"
    },
    {
      "inputs": [
        {
          "internalType": "string",
          "name": "vin",
          "type": "string"
        }
      ],
      "name": "getTokenIdByVIN",
      "outputs": [
        {
          "internalType": "uint256",
          "name": "",
          "type": "uint256"
        }
      ],
      "stateMutability": "view",
      "type": "function"
    },
    {
      "inputs": [
        {
          "internalType": "address",
          "name": "owner",
          "type": "address"
        },
        {
          "internalType": "address",
          "name": "operator",
          "type": "address"
        }
      ],
      "name": "isApprovedForAll",
      "outputs": [
        {
          "internalType": "bool",
          "name": "",
          "type": "bool"
        }
      ],
      "stateMutability": "view",
      "type": "function"
    },
    {
      "inputs": [
        {
          "internalType": "address",
          "name": "",
          "type": "address"
        }
      ],
      "name": "isServiceProvider",
      "outputs": [
        {
          "internalType": "bool",
          "name": "",
          "type": "bool"
        }
      ],
      "stateMutability": "view",
      "type": "function"
    },
    {
      "inputs": [
        {
          "internalType": "uint256",
          "name": "tokenId",
          "type": "uint256"
        },
        {
          "internalType": "uint256",
          "name": "price",
          "type": "uint256"
        }
      ],
      "name": "listCarForSale",
      "outputs": [],
      "stateMutability": "nonpayable",
      "type": "function"
    },
    {
      "inputs": [
        {
          "internalType": "address",
          "name": "to",
          "type": "address"
        },
        {
          "internalType": "string",
          "name": "vin",
          "type": "string"
        },
        {
          "internalType": "uint256",
          "name": "price",
          "type": "uint256"
        },
        {
          "internalType": "string",
          "name": "tokenURI",
          "type": "string"
        }
      ],
      "name": "mintCar",
      "outputs": [],
      "stateMutability": "nonpayable",
      "type": "function"
    },
    {
      "inputs": [],
      "name": "name",
      "outputs": [
        {
          "internalType": "string",
          "name": "",
          "type": "string"
        }
      ],
      "stateMutability": "view",
      "type": "function"
    },
    {
      "inputs": [],
      "name": "owner",
      "outputs": [
        {
          "internalType": "address",
          "name": "",
          "type": "address"
        }
      ],
      "stateMutability": "view",
      "type": "function"
    },
    {
      "inputs": [
        {
          "internalType": "uint256",
          "name": "tokenId",
          "type": "uint256"
        }
      ],
      "name": "ownerOf",
      "outputs": [
        {
          "internalType": "address",
          "name": "",
          "type": "address"
        }
      ],
      "stateMutability": "view",
      "type": "function"
    },
    {
      "inputs": [
        {
          "internalType": "address",
          "name": "provider",
          "type": "address"
        }
      ],
      "name": "removeServiceProvider",
      "outputs": [],
      "stateMutability": "nonpayable",
      "type": "function"
    },
    {
      "inputs": [],
      "name": "renounceOwnership",
      "outputs": [],
      "stateMutability": "nonpayable",
      "type": "function"
    },
    {
      "inputs": [
        {
          "internalType": "address",
          "name": "from",
          "type": "address"
        },
        {
          "internalType": "address",
          "name": "to",
          "type": "address"
        },
        {
          "internalType": "uint256",
          "name": "tokenId",
          "type": "uint256"
        }
      ],
      "name": "safeTransferFrom",
      "outputs": [],
      "stateMutability": "nonpayable",
      "type": "function"
    },
    {
      "inputs": [
        {
          "internalType": "address",
          "name": "from",
          "type": "address"
        },
        {
          "internalType": "address",
          "name": "to",
          "type": "address"
        },
        {
          "internalType": "uint256",
          "name": "tokenId",
          "type": "uint256"
        },
        {
          "internalType": "bytes",
          "name": "data",
          "type": "bytes"
        }
      ],
      "name": "safeTransferFrom",
      "outputs": [],
      "stateMutability": "nonpayable",
      "type": "function"
    },
    {
      "inputs": [
        {
          "internalType": "address",
          "name": "operator",
          "type": "address"
        },
        {
          "internalType": "bool",
          "name": "approved",
          "type": "bool"
        }
      ],
      "name": "setApprovalForAll",
      "outputs": [],
      "stateMutability": "nonpayable",
      "type": "function"
    },
    {
      "inputs": [
        {
          "internalType": "bytes4",
          "name": "interfaceId",
          "type": "bytes4"
        }
      ],
      "name": "supportsInterface",
      "outputs": [
        {
          "internalType": "bool",
          "name": "",
          "type": "bool"
        }
      ],
      "stateMutability": "view",
      "type": "function"
    },
    {
      "inputs": [],
      "name": "symbol",
      "outputs": [
        {
          "internalType": "string",
          "name": "",
          "type": "string"
        }
      ],
      "stateMutability": "view",
      "type": "function"
    },
    {
      "inputs": [
        {
          "internalType": "uint256",
          "name": "tokenId",
          "type": "uint256"
        }
      ],
      "name": "tokenURI",
      "outputs": [
        {
          "internalType": "string",
          "name": "",
          "type": "string"
        }
      ],
      "stateMutability": "view",
      "type": "function"
    },
    {
      "inputs": [
        {
          "internalType": "address",
          "name": "from",
          "type": "address"
        },
        {
          "internalType": "address",
          "name": "to",
          "type": "address"
        },
        {
          "internalType": "uint256",
          "name": "tokenId",
          "type": "uint256"
        }
      ],
      "name": "transferFrom",
      "outputs": [],
      "stateMutability": "nonpayable",
      "type": "function"
    },
    {
      "inputs": [
        {
          "internalType": "address",
          "name": "newOwner",
          "type": "address"
        }
      ],
      "name": "transferOwnership",
      "outputs": [],
      "stateMutability": "nonpayable",
      "type": "function"
    }
  ],
  "bytecode": "0x608060405234801561001057600080fd5b50336040518060400160405280600781526020017f4175746f446578000000000000000000000000000000000000000000000000008152506040518060400160405280600381526020017f4144580000000000000000000000000000000000000000000000000000000000815250816000908161008d919061043d565b50806001908161009d919061043d565b505050600073ffffffffffffffffffffffffffffffffffffffff168173ffffffffffffffffffffffffffffffffffffffff16036101125760006040517f1e4fbdf70000000000000000000000000000000000000000000000000000000081526004016101099190610550565b60405180910390fd5b6101218161012760201b60201c565b5061056b565b6000600760009054906101000a900473ffffffffffffffffffffffffffffffffffffffff16905081600760006101000a81548173ffffffffffffffffffffffffffffffffffffffff021916908373ffffffffffffffffffffffffffffffffffffffff1602179055508173ffffffffffffffffffffffffffffffffffffffff168173ffffffffffffffffffffffffffffffffffffffff167f8be0079c531659141344cd1fd0a4f28419497f9722a3daafe3b4186f6b6457e060405160405180910390a35050565b600081519050919050565b7f4e487b7100000000000000000000000000000000000000000000000000000000600052604160045260246000fd5b7f4e487b7100000000000000000000000000000000000000000000000000000000600052602260045260246000fd5b6000600282049050600182168061026e57607f821691505b60208210810361028157610280610227565b5b50919050565b60008190508160005260206000209050919050565b60006020601f8301049050919050565b600082821b905092915050565b6000600883026102e97fffffffffffffffffffffffffffffffffffffffffffffffffffffffffffffffff826102ac565b6102f386836102ac565b95508019841693508086168417925050509392505050565b6000819050919050565b6000819050919050565b600061033a6103356103308461030b565b610315565b61030b565b9050919050565b6000819050919050565b6103548361031f565b61036861036082610341565b8484546102b9565b825550505050565b600090565b61037d610370565b61038881848461034b565b505050565b5b818110156103ac576103a1600082610375565b60018101905061038e565b5050565b601f8211156103f1576103c281610287565b6103cb8461029c565b810160208510156103da578190505b6103ee6103e68561029c565b83018261038d565b50505b505050565b600082821c905092915050565b6000610414600019846008026103f6565b1980831691505092915050565b600061042d8383610403565b9150826002028217905092915050565b610446826101ed565b67ffffffffffffffff81111561045f5761045e6101f8565b5b6104698254610256565b6104748282856103b0565b600060209050601f8311600181146104a75760008415610495578287015190505b61049f8582610421565b865550610507565b601f1984166104b586610287565b60005b828110156104dd578489015182556001820191506020850194506020810190506104b8565b868310156104fa57848901516104f6601f891682610403565b8355505b6001600288020188555050505b505050505050565b600073ffffffffffffffffffffffffffffffffffffffff82169050919050565b600061053a8261050f565b9050919050565b61054a8161052f565b82525050565b60006020820190506105656000830184610541565b92915050565b61485e8061057a6000396000f3fe6080604052600436106101c25760003560e01c806370a08231116100f7578063b88d4fde11610095578063e757223011610064578063e757223014610679578063e985e9c5146106b6578063f2fde38b146106f3578063f68883841461071c576101c2565b8063b88d4fde146105c1578063bc93127a146105ea578063c87b56dd14610613578063d2ec271e14610650576101c2565b806395d89b41116100d157806395d89b4114610505578063a22cb46514610530578063abfe5d5714610559578063ae1e3ff414610584576101c2565b806370a0823114610486578063715018a6146104c35780638da5cb5b146104da576101c2565b80631e7046b511610164578063444d0df11161013e578063444d0df1146103c7578063472ec454146103f05780636352211e1461042d5780636c2310601461046a576101c2565b80631e7046b51461033857806323b872dd1461037557806342842e0e1461039e576101c2565b8063081812fc116101a0578063081812fc14610258578063095ea7b3146102955780631cad40ce146102be5780631dee28f7146102fb576101c2565b806301ffc9a7146101c757806306fdde0314610204578063075d7a6f1461022f575b600080fd5b3480156101d357600080fd5b506101ee60048036038101906101e991906130c3565b610745565b6040516101fb919061310b565b60405180910390f35b34801561021057600080fd5b506102196107a6565b60405161022691906131b6565b60405180910390f35b34801561023b57600080fd5b5061025660048036038101906102519190613236565b610838565b005b34801561026457600080fd5b5061027f600480360381019061027a9190613299565b61096b565b60405161028c91906132d5565b60405180910390f35b3480156102a157600080fd5b506102bc60048036038101906102b791906132f0565b610987565b005b3480156102ca57600080fd5b506102e560048036038101906102e09190613465565b61099d565b6040516102f291906134bd565b60405180910390f35b34801561030757600080fd5b50610322600480360381019061031d9190613236565b610a41565b60405161032f919061310b565b60405180910390f35b34801561034457600080fd5b5061035f600480360381019061035a9190613299565b610a61565b60405161036c919061365d565b60405180910390f35b34801561038157600080fd5b5061039c6004803603810190610397919061367f565b610c82565b005b3480156103aa57600080fd5b506103c560048036038101906103c0919061367f565b610d84565b005b3480156103d357600080fd5b506103ee60048036038101906103e99190613236565b610da4565b005b3480156103fc57600080fd5b5061041760048036038101906104129190613299565b610ed6565b6040516104249190613722565b60405180910390f35b34801561043957600080fd5b50610454600480360381019061044f9190613299565b610fb3565b60405161046191906132d5565b60405180910390f35b610484600480360381019061047f9190613299565b610fc5565b005b34801561049257600080fd5b506104ad60048036038101906104a89190613236565b6112b9565b6040516104ba91906134bd565b60405180910390f35b3480156104cf57600080fd5b506104d8611373565b005b3480156104e657600080fd5b506104ef611387565b6040516104fc91906132d5565b60405180910390f35b34801561051157600080fd5b5061051a6113b1565b60405161052791906131b6565b60405180910390f35b34801561053c57600080fd5b5061055760048036038101906105529190613770565b611443565b005b34801561056557600080fd5b5061056e611459565b60405161057b91906138c2565b60405180910390f35b34801561059057600080fd5b506105ab60048036038101906105a69190613236565b6115b9565b6040516105b8919061310b565b60405180910390f35b3480156105cd57600080fd5b506105e860048036038101906105e39190613985565b61160f565b005b3480156105f657600080fd5b50610611600480360381019061060c9190613a08565b611634565b005b34801561061f57600080fd5b5061063a60048036038101906106359190613299565b6117d4565b60405161064791906131b6565b60405180910390f35b34801561065c57600080fd5b5061067760048036038101906106729190613aa7565b6118e7565b005b34801561068557600080fd5b506106a0600480360381019061069b9190613299565b611ac7565b6040516106ad91906134bd565b60405180910390f35b3480156106c257600080fd5b506106dd60048036038101906106d89190613b46565b611ae7565b6040516106ea919061310b565b60405180910390f35b3480156106ff57600080fd5b5061071a60048036038101906107159190613236565b611b7b565b005b34801561072857600080fd5b50610743600480360381019061073e9190613b86565b611c01565b005b6000634906490660e01b7bffffffffffffffffffffffffffffffffffffffffffffffffffffffff1916827bffffffffffffffffffffffffffffffffffffffffffffffffffffffff1916148061079f575061079e82611d12565b5b9050919050565b6060600080546107b590613bf5565b80601f01602080910402602001604051908101604052809291908181526020018280546107e190613bf5565b801561082e5780601f106108035761010080835404028352916020019161082e565b820191906000526020600020905b81548152906001019060200180831161081157829003601f168201915b5050505050905090565b610840611df4565b600c60008273ffffffffffffffffffffffffffffffffffffffff1673ffffffffffffffffffffffffffffffffffffffff16815260200190815260200160002060009054906101000a900460ff16156108cd576040517f08c379a00000000000000000000000000000000000000000000000000000000081526004016108c490613c72565b60405180910390fd5b6001600c60008373ffffffffffffffffffffffffffffffffffffffff1673ffffffffffffffffffffffffffffffffffffffff16815260200190815260200160002060006101000a81548160ff0219169083151502179055508073ffffffffffffffffffffffffffffffffffffffff167fcd01559a6bb952358fd75732d1b0722f0b5a507abe65c390bc972be0150211c860405160405180910390a250565b600061097682611e7b565b5061098082611f03565b9050919050565b6109998282610994611f40565b611f48565b5050565b600080600a836040516109b09190613cce565b9081526020016040518091039020549050600073ffffffffffffffffffffffffffffffffffffffff166109e282611f5a565b73ffffffffffffffffffffffffffffffffffffffff1603610a38576040517f08c379a0000000000000000000000000000000000000000000000000000000008152600401610a2f90613d31565b60405180910390fd5b80915050919050565b600c6020528060005260406000206000915054906101000a900460ff1681565b6060600073ffffffffffffffffffffffffffffffffffffffff16610a8483611f5a565b73ffffffffffffffffffffffffffffffffffffffff1603610ada576040517f08c379a0000000000000000000000000000000000000000000000000000000008152600401610ad190613d9d565b60405180910390fd5b600b6000838152602001908152602001600020805480602002602001604051908101604052809291908181526020016000905b82821015610c77578382906000526020600020906004020160405180608001604052908160008201548152602001600182018054610b4a90613bf5565b80601f0160208091040260200160405190810160405280929190818152602001828054610b7690613bf5565b8015610bc35780601f10610b9857610100808354040283529160200191610bc3565b820191906000526020600020905b815481529060010190602001808311610ba657829003601f168201915b50505050508152602001600282018054610bdc90613bf5565b80601f0160208091040260200160405190810160405280929190818152602001828054610c0890613bf5565b8015610c555780601f10610c2a57610100808354040283529160200191610c55565b820191906000526020600020905b815481529060010190602001808311610c3857829003601f168201915b5050505050815260200160038201548152505081526020019060010190610b0d565b505050509050919050565b600073ffffffffffffffffffffffffffffffffffffffff168273ffffffffffffffffffffffffffffffffffffffff1603610cf45760006040517f64a0ae92000000000000000000000000000000000000000000000000000000008152600401610ceb91906132d5565b60405180910390fd5b6000610d088383610d03611f40565b611f97565b90508373ffffffffffffffffffffffffffffffffffffffff168173ffffffffffffffffffffffffffffffffffffffff1614610d7e578382826040517f64283d7b000000000000000000000000000000000000000000000000000000008152600401610d7593929190613dbd565b60405180910390fd5b50505050565b610d9f8383836040518060200160405280600081525061160f565b505050565b610dac611df4565b600c60008273ffffffffffffffffffffffffffffffffffffffff1673ffffffffffffffffffffffffffffffffffffffff16815260200190815260200160002060009054906101000a900460ff16610e38576040517f08c379a0000000000000000000000000000000000000000000000000000000008152600401610e2f90613e40565b60405180910390fd5b6000600c60008373ffffffffffffffffffffffffffffffffffffffff1673ffffffffffffffffffffffffffffffffffffffff16815260200190815260200160002060006101000a81548160ff0219169083151502179055508073ffffffffffffffffffffffffffffffffffffffff167f8c8907774e957df66385c0630b7abbfc436cd160107e11d6944214489d5f865d60405160405180910390a250565b610ede61302c565b610ee782611e7b565b506009600083815260200190815260200160002060405180606001604052908160008201548152602001600182018054610f2090613bf5565b80601f0160208091040260200160405190810160405280929190818152602001828054610f4c90613bf5565b8015610f995780601f10610f6e57610100808354040283529160200191610f99565b820191906000526020600020905b815481529060010190602001808311610f7c57829003601f168201915b505050505081526020016002820154815250509050919050565b6000610fbe82611e7b565b9050919050565b6000610fd082610fb3565b9050600060096000848152602001908152602001600020600201541161102b576040517f08c379a000000000000000000000000000000000000000000000000000000000815260040161102290613eac565b60405180910390fd5b6009600083815260200190815260200160002060020154341015611084576040517f08c379a000000000000000000000000000000000000000000000000000000000815260040161107b90613f18565b60405180910390fd5b3373ffffffffffffffffffffffffffffffffffffffff168173ffffffffffffffffffffffffffffffffffffffff16036110f2576040517f08c379a00000000000000000000000000000000000000000000000000000000081526004016110e990613f84565b60405180910390fd5b6111316040518060400160405280600b81526020017f6d73672e73656e6465723a000000000000000000000000000000000000000000815250336121b1565b6111786040518060400160405280601181526020017f6f776e65724f6628746f6b656e4964293a00000000000000000000000000000081525061117384610fb3565b6121b1565b6111b76040518060400160405280600b81526020017f70726963652073656e743a0000000000000000000000000000000000000000008152503461224d565b61120c6040518060400160405280600f81526020017f70726963652065787065637465643a0000000000000000000000000000000000815250600960008581526020019081526020016000206002015461224d565b6112178133846122e9565b8073ffffffffffffffffffffffffffffffffffffffff166108fc349081150290604051600060405180830381858888f1935050505015801561125d573d6000803e3d6000fd5b50600060096000848152602001908152602001600020600201819055507f9d90e6b7483b210fb2eb1814d730195955d020389f316a5127d8f07d6fe61c8b8233346040516112ad93929190613fa4565b60405180910390a15050565b60008073ffffffffffffffffffffffffffffffffffffffff168273ffffffffffffffffffffffffffffffffffffffff160361132c5760006040517f89c62b6400000000000000000000000000000000000000000000000000000000815260040161132391906132d5565b60405180910390fd5b600360008373ffffffffffffffffffffffffffffffffffffffff1673ffffffffffffffffffffffffffffffffffffffff168152602001908152602001600020549050919050565b61137b611df4565b6113856000612456565b565b6000600760009054906101000a900473ffffffffffffffffffffffffffffffffffffffff16905090565b6060600180546113c090613bf5565b80601f01602080910402602001604051908101604052809291908181526020018280546113ec90613bf5565b80156114395780601f1061140e57610100808354040283529160200191611439565b820191906000526020600020905b81548152906001019060200180831161141c57829003601f168201915b5050505050905090565b61145561144e611f40565b838361251c565b5050565b6060600060085467ffffffffffffffff8111156114795761147861333a565b5b6040519080825280602002602001820160405280156114b257816020015b61149f61302c565b8152602001906001900390816114975790505b50905060005b6008548110156115b15760096000828152602001908152602001600020604051806060016040529081600082015481526020016001820180546114fa90613bf5565b80601f016020809104026020016040519081016040528092919081815260200182805461152690613bf5565b80156115735780601f1061154857610100808354040283529160200191611573565b820191906000526020600020905b81548152906001019060200180831161155657829003601f168201915b5050505050815260200160028201548152505082828151811061159957611598613fdb565b5b602002602001018190525080806001019150506114b8565b508091505090565b6000600c60008373ffffffffffffffffffffffffffffffffffffffff1673ffffffffffffffffffffffffffffffffffffffff16815260200190815260200160002060009054906101000a900460ff169050919050565b61161a848484610c82565b61162e611625611f40565b8585858561268b565b50505050565b61163c611df4565b6000835111611680576040517f08c379a000000000000000000000000000000000000000000000000000000000815260040161167790614056565b60405180910390fd5b6000600a846040516116929190613cce565b908152602001604051809103902054146116e1576040517f08c379a00000000000000000000000000000000000000000000000000000000081526004016116d8906140c2565b60405180910390fd5b600060085490506116f2858261283c565b6116fc8183612935565b60405180606001604052808281526020018381526020018481525060096000838152602001908152602001600020600082015181600001556020820151816001019081611749919061428e565b506040820151816002015590505080600a856040516117689190613cce565b9081526020016040518091039020819055506008600081548092919061178d9061438f565b91905055507fbd3303cf3cb581bf78ef3ac343c3e3d038afb8bc52183ae64109ebd7ee3a873d8186866040516117c5939291906143d7565b60405180910390a15050505050565b60606117df82611e7b565b50600060066000848152602001908152602001600020805461180090613bf5565b80601f016020809104026020016040519081016040528092919081815260200182805461182c90613bf5565b80156118795780601f1061184e57610100808354040283529160200191611879565b820191906000526020600020905b81548152906001019060200180831161185c57829003601f168201915b50505050509050600061188a612991565b9050600081510361189f5781925050506118e2565b6000825111156118d45780826040516020016118bc929190614415565b604051602081830303815290604052925050506118e2565b6118dd846129a8565b925050505b919050565b600073ffffffffffffffffffffffffffffffffffffffff1661190885610fb3565b73ffffffffffffffffffffffffffffffffffffffff160361195e576040517f08c379a000000000000000000000000000000000000000000000000000000000815260040161195590614485565b60405180910390fd5b600c60003373ffffffffffffffffffffffffffffffffffffffff1673ffffffffffffffffffffffffffffffffffffffff16815260200190815260200160002060009054906101000a900460ff166119ea576040517f08c379a00000000000000000000000000000000000000000000000000000000081526004016119e190614517565b60405180910390fd5b600b60008581526020019081526020016000206040518060800160405280428152602001858152602001848152602001838152509080600181540180825580915050600190039060005260206000209060040201600090919091909150600082015181600001556020820151816001019081611a66919061428e565b506040820151816002019081611a7c919061428e565b50606082015181600301555050837fe04dd2501fa1ca1a2bf1b8b0f34ecc0fbe8ad77f3680583182c26f44a0f5f24484604051611ab991906131b6565b60405180910390a250505050565b600060096000838152602001908152602001600020600201549050919050565b6000600560008473ffffffffffffffffffffffffffffffffffffffff1673ffffffffffffffffffffffffffffffffffffffff16815260200190815260200160002060008373ffffffffffffffffffffffffffffffffffffffff1673ffffffffffffffffffffffffffffffffffffffff16815260200190815260200160002060009054906101000a900460ff16905092915050565b611b83611df4565b600073ffffffffffffffffffffffffffffffffffffffff168173ffffffffffffffffffffffffffffffffffffffff1603611bf55760006040517f1e4fbdf7000000000000000000000000000000000000000000000000000000008152600401611bec91906132d5565b60405180910390fd5b611bfe81612456565b50565b3373ffffffffffffffffffffffffffffffffffffffff16611c2183610fb3565b73ffffffffffffffffffffffffffffffffffffffff1614611c77576040517f08c379a0000000000000000000000000000000000000000000000000000000008152600401611c6e906145a9565b60405180910390fd5b60008111611cba576040517f08c379a0000000000000000000000000000000000000000000000000000000008152600401611cb190614615565b60405180910390fd5b8060096000848152602001908152602001600020600201819055507fd7eb5635a91daa6c8336a751c696002c8243f97bad99a81269931e46395247098282604051611d06929190614635565b60405180910390a15050565b60007f80ac58cd000000000000000000000000000000000000000000000000000000007bffffffffffffffffffffffffffffffffffffffffffffffffffffffff1916827bffffffffffffffffffffffffffffffffffffffffffffffffffffffff19161480611ddd57507f5b5e139f000000000000000000000000000000000000000000000000000000007bffffffffffffffffffffffffffffffffffffffffffffffffffffffff1916827bffffffffffffffffffffffffffffffffffffffffffffffffffffffff1916145b80611ded5750611dec82612a11565b5b9050919050565b611dfc611f40565b73ffffffffffffffffffffffffffffffffffffffff16611e1a611387565b73ffffffffffffffffffffffffffffffffffffffff1614611e7957611e3d611f40565b6040517f118cdaa7000000000000000000000000000000000000000000000000000000008152600401611e7091906132d5565b60405180910390fd5b565b600080611e8783611f5a565b9050600073ffffffffffffffffffffffffffffffffffffffff168173ffffffffffffffffffffffffffffffffffffffff1603611efa57826040517f7e273289000000000000000000000000000000000000000000000000000000008152600401611ef191906134bd565b60405180910390fd5b80915050919050565b60006004600083815260200190815260200160002060009054906101000a900473ffffffffffffffffffffffffffffffffffffffff169050919050565b600033905090565b611f558383836001612a7b565b505050565b60006002600083815260200190815260200160002060009054906101000a900473ffffffffffffffffffffffffffffffffffffffff169050919050565b600080611fa384611f5a565b9050600073ffffffffffffffffffffffffffffffffffffffff168373ffffffffffffffffffffffffffffffffffffffff1614611fe557611fe4818486612c40565b5b600073ffffffffffffffffffffffffffffffffffffffff168173ffffffffffffffffffffffffffffffffffffffff161461207657612027600085600080612a7b565b6001600360008373ffffffffffffffffffffffffffffffffffffffff1673ffffffffffffffffffffffffffffffffffffffff168152602001908152602001600020600082825403925050819055505b600073ffffffffffffffffffffffffffffffffffffffff168573ffffffffffffffffffffffffffffffffffffffff16146120f9576001600360008773ffffffffffffffffffffffffffffffffffffffff1673ffffffffffffffffffffffffffffffffffffffff168152602001908152602001600020600082825401925050819055505b846002600086815260200190815260200160002060006101000a81548173ffffffffffffffffffffffffffffffffffffffff021916908373ffffffffffffffffffffffffffffffffffffffff160217905550838573ffffffffffffffffffffffffffffffffffffffff168273ffffffffffffffffffffffffffffffffffffffff167fddf252ad1be2c89b69c2b068fc378daa952ba7f163c4a11628f55a4df523b3ef60405160405180910390a4809150509392505050565b61224982826040516024016121c792919061465e565b6040516020818303038152906040527f319af333000000000000000000000000000000000000000000000000000000007bffffffffffffffffffffffffffffffffffffffffffffffffffffffff19166020820180517bffffffffffffffffffffffffffffffffffffffffffffffffffffffff8381831617835250505050612d04565b5050565b6122e5828260405160240161226392919061468e565b6040516020818303038152906040527fb60e72cc000000000000000000000000000000000000000000000000000000007bffffffffffffffffffffffffffffffffffffffffffffffffffffffff19166020820180517bffffffffffffffffffffffffffffffffffffffffffffffffffffffff8381831617835250505050612d04565b5050565b600073ffffffffffffffffffffffffffffffffffffffff168273ffffffffffffffffffffffffffffffffffffffff160361235b5760006040517f64a0ae9200000000000000000000000000000000000000000000000000000000815260040161235291906132d5565b60405180910390fd5b600061236983836000611f97565b9050600073ffffffffffffffffffffffffffffffffffffffff168173ffffffffffffffffffffffffffffffffffffffff16036123dc57816040517f7e2732890000000000000000000000000000000000000000000000000000000081526004016123d391906134bd565b60405180910390fd5b8373ffffffffffffffffffffffffffffffffffffffff168173ffffffffffffffffffffffffffffffffffffffff1614612450578382826040517f64283d7b00000000000000000000000000000000000000000000000000000000815260040161244793929190613dbd565b60405180910390fd5b50505050565b6000600760009054906101000a900473ffffffffffffffffffffffffffffffffffffffff16905081600760006101000a81548173ffffffffffffffffffffffffffffffffffffffff021916908373ffffffffffffffffffffffffffffffffffffffff1602179055508173ffffffffffffffffffffffffffffffffffffffff168173ffffffffffffffffffffffffffffffffffffffff167f8be0079c531659141344cd1fd0a4f28419497f9722a3daafe3b4186f6b6457e060405160405180910390a35050565b600073ffffffffffffffffffffffffffffffffffffffff168273ffffffffffffffffffffffffffffffffffffffff160361258d57816040517f5b08ba1800000000000000000000000000000000000000000000000000000000815260040161258491906132d5565b60405180910390fd5b80600560008573ffffffffffffffffffffffffffffffffffffffff1673ffffffffffffffffffffffffffffffffffffffff16815260200190815260200160002060008473ffffffffffffffffffffffffffffffffffffffff1673ffffffffffffffffffffffffffffffffffffffff16815260200190815260200160002060006101000a81548160ff0219169083151502179055508173ffffffffffffffffffffffffffffffffffffffff168373ffffffffffffffffffffffffffffffffffffffff167f17307eab39ab6107e8899845ad3d59bd9653f200f220920489ca2b5937696c318360405161267e919061310b565b60405180910390a3505050565b60008373ffffffffffffffffffffffffffffffffffffffff163b1115612835578273ffffffffffffffffffffffffffffffffffffffff1663150b7a02868685856040518563ffffffff1660e01b81526004016126ea9493929190614713565b6020604051808303816000875af192505050801561272657506040513d601f19601f820116820180604052508101906127239190614774565b60015b6127aa573d8060008114612756576040519150601f19603f3d011682016040523d82523d6000602084013e61275b565b606091505b5060008151036127a257836040517f64a0ae9200000000000000000000000000000000000000000000000000000000815260040161279991906132d5565b60405180910390fd5b805181602001fd5b63150b7a0260e01b7bffffffffffffffffffffffffffffffffffffffffffffffffffffffff1916817bffffffffffffffffffffffffffffffffffffffffffffffffffffffff19161461283357836040517f64a0ae9200000000000000000000000000000000000000000000000000000000815260040161282a91906132d5565b60405180910390fd5b505b5050505050565b600073ffffffffffffffffffffffffffffffffffffffff168273ffffffffffffffffffffffffffffffffffffffff16036128ae5760006040517f64a0ae920000000000000000000000000000000000000000000000000000000081526004016128a591906132d5565b60405180910390fd5b60006128bc83836000611f97565b9050600073ffffffffffffffffffffffffffffffffffffffff168173ffffffffffffffffffffffffffffffffffffffff16146129305760006040517f73c6ac6e00000000000000000000000000000000000000000000000000000000815260040161292791906132d5565b60405180910390fd5b505050565b80600660008481526020019081526020016000209081612955919061428e565b507ff8e1a15aba9398e019f0b49df1a4fde98ee17ae345cb5f6b5e2c27f5033e8ce78260405161298591906134bd565b60405180910390a15050565b606060405180602001604052806000815250905090565b60606129b382611e7b565b5060006129be612991565b905060008151116129de5760405180602001604052806000815250612a09565b806129e884612d1e565b6040516020016129f9929190614415565b6040516020818303038152906040525b915050919050565b60007f01ffc9a7000000000000000000000000000000000000000000000000000000007bffffffffffffffffffffffffffffffffffffffffffffffffffffffff1916827bffffffffffffffffffffffffffffffffffffffffffffffffffffffff1916149050919050565b8080612ab45750600073ffffffffffffffffffffffffffffffffffffffff168273ffffffffffffffffffffffffffffffffffffffff1614155b15612be8576000612ac484611e7b565b9050600073ffffffffffffffffffffffffffffffffffffffff168373ffffffffffffffffffffffffffffffffffffffff1614158015612b2f57508273ffffffffffffffffffffffffffffffffffffffff168173ffffffffffffffffffffffffffffffffffffffff1614155b8015612b425750612b408184611ae7565b155b15612b8457826040517fa9fbf51f000000000000000000000000000000000000000000000000000000008152600401612b7b91906132d5565b60405180910390fd5b8115612be657838573ffffffffffffffffffffffffffffffffffffffff168273ffffffffffffffffffffffffffffffffffffffff167f8c5be1e5ebec7d5bd14f71427d1e84f3dd0314c0f7b2291e5b200ac8c7c3b92560405160405180910390a45b505b836004600085815260200190815260200160002060006101000a81548173ffffffffffffffffffffffffffffffffffffffff021916908373ffffffffffffffffffffffffffffffffffffffff16021790555050505050565b612c4b838383612dec565b612cff57600073ffffffffffffffffffffffffffffffffffffffff168373ffffffffffffffffffffffffffffffffffffffff1603612cc057806040517f7e273289000000000000000000000000000000000000000000000000000000008152600401612cb791906134bd565b60405180910390fd5b81816040517f177e802f000000000000000000000000000000000000000000000000000000008152600401612cf69291906147a1565b60405180910390fd5b505050565b612d1b81612d13612ead612ece565b63ffffffff16565b50565b606060006001612d2d84612ed9565b01905060008167ffffffffffffffff811115612d4c57612d4b61333a565b5b6040519080825280601f01601f191660200182016040528015612d7e5781602001600182028036833780820191505090505b509050600082602001820190505b600115612de1578080600190039150507f3031323334353637383961626364656600000000000000000000000000000000600a86061a8153600a8581612dd557612dd46147ca565b5b04945060008503612d8c575b819350505050919050565b60008073ffffffffffffffffffffffffffffffffffffffff168373ffffffffffffffffffffffffffffffffffffffff1614158015612ea457508273ffffffffffffffffffffffffffffffffffffffff168473ffffffffffffffffffffffffffffffffffffffff161480612e655750612e648484611ae7565b5b80612ea357508273ffffffffffffffffffffffffffffffffffffffff16612e8b83611f03565b73ffffffffffffffffffffffffffffffffffffffff16145b5b90509392505050565b60006a636f6e736f6c652e6c6f679050600080835160208501845afa505050565b61304d819050919050565b600080600090507a184f03e93ff9f4daa797ed6e38ed64bf6a1f0100000000000000008310612f37577a184f03e93ff9f4daa797ed6e38ed64bf6a1f0100000000000000008381612f2d57612f2c6147ca565b5b0492506040810190505b6d04ee2d6d415b85acef81000000008310612f74576d04ee2d6d415b85acef81000000008381612f6a57612f696147ca565b5b0492506020810190505b662386f26fc100008310612fa357662386f26fc100008381612f9957612f986147ca565b5b0492506010810190505b6305f5e1008310612fcc576305f5e1008381612fc257612fc16147ca565b5b0492506008810190505b6127108310612ff1576127108381612fe757612fe66147ca565b5b0492506004810190505b60648310613014576064838161300a576130096147ca565b5b0492506002810190505b600a8310613023576001810190505b80915050919050565b60405180606001604052806000815260200160608152602001600081525090565b6130556147f9565b565b6000604051905090565b600080fd5b600080fd5b60007fffffffff0000000000000000000000000000000000000000000000000000000082169050919050565b6130a08161306b565b81146130ab57600080fd5b50565b6000813590506130bd81613097565b92915050565b6000602082840312156130d9576130d8613061565b5b60006130e7848285016130ae565b91505092915050565b60008115159050919050565b613105816130f0565b82525050565b600060208201905061312060008301846130fc565b92915050565b600081519050919050565b600082825260208201905092915050565b60005b83811015613160578082015181840152602081019050613145565b60008484015250505050565b6000601f19601f8301169050919050565b600061318882613126565b6131928185613131565b93506131a2818560208601613142565b6131ab8161316c565b840191505092915050565b600060208201905081810360008301526131d0818461317d565b905092915050565b600073ffffffffffffffffffffffffffffffffffffffff82169050919050565b6000613203826131d8565b9050919050565b613213816131f8565b811461321e57600080fd5b50565b6000813590506132308161320a565b92915050565b60006020828403121561324c5761324b613061565b5b600061325a84828501613221565b91505092915050565b6000819050919050565b61327681613263565b811461328157600080fd5b50565b6000813590506132938161326d565b92915050565b6000602082840312156132af576132ae613061565b5b60006132bd84828501613284565b91505092915050565b6132cf816131f8565b82525050565b60006020820190506132ea60008301846132c6565b92915050565b6000806040838503121561330757613306613061565b5b600061331585828601613221565b925050602061332685828601613284565b9150509250929050565b600080fd5b600080fd5b7f4e487b7100000000000000000000000000000000000000000000000000000000600052604160045260246000fd5b6133728261316c565b810181811067ffffffffffffffff821117156133915761339061333a565b5b80604052505050565b60006133a4613057565b90506133b08282613369565b919050565b600067ffffffffffffffff8211156133d0576133cf61333a565b5b6133d98261316c565b9050602081019050919050565b82818337600083830152505050565b6000613408613403846133b5565b61339a565b90508281526020810184848401111561342457613423613335565b5b61342f8482856133e6565b509392505050565b600082601f83011261344c5761344b613330565b5b813561345c8482602086016133f5565b91505092915050565b60006020828403121561347b5761347a613061565b5b600082013567ffffffffffffffff81111561349957613498613066565b5b6134a584828501613437565b91505092915050565b6134b781613263565b82525050565b60006020820190506134d260008301846134ae565b92915050565b600081519050919050565b600082825260208201905092915050565b6000819050602082019050919050565b61350d81613263565b82525050565b600082825260208201905092915050565b600061352f82613126565b6135398185613513565b9350613549818560208601613142565b6135528161316c565b840191505092915050565b60006080830160008301516135756000860182613504565b506020830151848203602086015261358d8282613524565b915050604083015184820360408601526135a78282613524565b91505060608301516135bc6060860182613504565b508091505092915050565b60006135d3838361355d565b905092915050565b6000602082019050919050565b60006135f3826134d8565b6135fd81856134e3565b93508360208202850161360f856134f4565b8060005b8581101561364b578484038952815161362c85826135c7565b9450613637836135db565b925060208a01995050600181019050613613565b50829750879550505050505092915050565b6000602082019050818103600083015261367781846135e8565b905092915050565b60008060006060848603121561369857613697613061565b5b60006136a686828701613221565b93505060206136b786828701613221565b92505060406136c886828701613284565b9150509250925092565b60006060830160008301516136ea6000860182613504565b50602083015184820360208601526137028282613524565b91505060408301516137176040860182613504565b508091505092915050565b6000602082019050818103600083015261373c81846136d2565b905092915050565b61374d816130f0565b811461375857600080fd5b50565b60008135905061376a81613744565b92915050565b6000806040838503121561378757613786613061565b5b600061379585828601613221565b92505060206137a68582860161375b565b9150509250929050565b600081519050919050565b600082825260208201905092915050565b6000819050602082019050919050565b60006060830160008301516137f46000860182613504565b506020830151848203602086015261380c8282613524565b91505060408301516138216040860182613504565b508091505092915050565b600061383883836137dc565b905092915050565b6000602082019050919050565b6000613858826137b0565b61386281856137bb565b935083602082028501613874856137cc565b8060005b858110156138b05784840389528151613891858261382c565b945061389c83613840565b925060208a01995050600181019050613878565b50829750879550505050505092915050565b600060208201905081810360008301526138dc818461384d565b905092915050565b600067ffffffffffffffff8211156138ff576138fe61333a565b5b6139088261316c565b9050602081019050919050565b6000613928613923846138e4565b61339a565b90508281526020810184848401111561394457613943613335565b5b61394f8482856133e6565b509392505050565b600082601f83011261396c5761396b613330565b5b813561397c848260208601613915565b91505092915050565b6000806000806080858703121561399f5761399e613061565b5b60006139ad87828801613221565b94505060206139be87828801613221565b93505060406139cf87828801613284565b925050606085013567ffffffffffffffff8111156139f0576139ef613066565b5b6139fc87828801613957565b91505092959194509250565b60008060008060808587031215613a2257613a21613061565b5b6000613a3087828801613221565b945050602085013567ffffffffffffffff811115613a5157613a50613066565b5b613a5d87828801613437565b9350506040613a6e87828801613284565b925050606085013567ffffffffffffffff811115613a8f57613a8e613066565b5b613a9b87828801613437565b91505092959194509250565b60008060008060808587031215613ac157613ac0613061565b5b6000613acf87828801613284565b945050602085013567ffffffffffffffff811115613af057613aef613066565b5b613afc87828801613437565b935050604085013567ffffffffffffffff811115613b1d57613b1c613066565b5b613b2987828801613437565b9250506060613b3a87828801613284565b91505092959194509250565b60008060408385031215613b5d57613b5c613061565b5b6000613b6b85828601613221565b9250506020613b7c85828601613221565b9150509250929050565b60008060408385031215613b9d57613b9c613061565b5b6000613bab85828601613284565b9250506020613bbc85828601613284565b9150509250929050565b7f4e487b7100000000000000000000000000000000000000000000000000000000600052602260045260246000fd5b60006002820490506001821680613c0d57607f821691505b602082108103613c2057613c1f613bc6565b5b50919050565b7f416c726561647920617574686f72697a65640000000000000000000000000000600082015250565b6000613c5c601283613131565b9150613c6782613c26565b602082019050919050565b60006020820190508181036000830152613c8b81613c4f565b9050919050565b600081905092915050565b6000613ca882613126565b613cb28185613c92565b9350613cc2818560208601613142565b80840191505092915050565b6000613cda8284613c9d565b915081905092915050565b7f56494e206e6f7420666f756e6400000000000000000000000000000000000000600082015250565b6000613d1b600d83613131565b9150613d2682613ce5565b602082019050919050565b60006020820190508181036000830152613d4a81613d0e565b9050919050565b7f43617220646f6573206e6f742065786973740000000000000000000000000000600082015250565b6000613d87601283613131565b9150613d9282613d51565b602082019050919050565b60006020820190508181036000830152613db681613d7a565b9050919050565b6000606082019050613dd260008301866132c6565b613ddf60208301856134ae565b613dec60408301846132c6565b949350505050565b7f4e6f7420617574686f72697a6564000000000000000000000000000000000000600082015250565b6000613e2a600e83613131565b9150613e3582613df4565b602082019050919050565b60006020820190508181036000830152613e5981613e1d565b9050919050565b7f436172206973206e6f7420666f722073616c6500000000000000000000000000600082015250565b6000613e96601383613131565b9150613ea182613e60565b602082019050919050565b60006020820190508181036000830152613ec581613e89565b9050919050565b7f496e73756666696369656e74204554482073656e742e00000000000000000000600082015250565b6000613f02601683613131565b9150613f0d82613ecc565b602082019050919050565b60006020820190508181036000830152613f3181613ef5565b9050919050565b7f596f752063616e6e6f742062757920796f7572206f776e206361722e00000000600082015250565b6000613f6e601c83613131565b9150613f7982613f38565b602082019050919050565b60006020820190508181036000830152613f9d81613f61565b9050919050565b6000606082019050613fb960008301866134ae565b613fc660208301856132c6565b613fd360408301846134ae565b949350505050565b7f4e487b7100000000000000000000000000000000000000000000000000000000600052603260045260246000fd5b7f56494e206d7573742062652070726f7669646564000000000000000000000000600082015250565b6000614040601483613131565b915061404b8261400a565b602082019050919050565b6000602082019050818103600083015261406f81614033565b9050919050565b7f56494e20616c7265616479207573656400000000000000000000000000000000600082015250565b60006140ac601083613131565b91506140b782614076565b602082019050919050565b600060208201905081810360008301526140db8161409f565b9050919050565b60008190508160005260206000209050919050565b60006020601f8301049050919050565b600082821b905092915050565b6000600883026141447fffffffffffffffffffffffffffffffffffffffffffffffffffffffffffffffff82614107565b61414e8683614107565b95508019841693508086168417925050509392505050565b6000819050919050565b600061418b61418661418184613263565b614166565b613263565b9050919050565b6000819050919050565b6141a583614170565b6141b96141b182614192565b848454614114565b825550505050565b600090565b6141ce6141c1565b6141d981848461419c565b505050565b5b818110156141fd576141f26000826141c6565b6001810190506141df565b5050565b601f82111561424257614213816140e2565b61421c846140f7565b8101602085101561422b578190505b61423f614237856140f7565b8301826141de565b50505b505050565b600082821c905092915050565b600061426560001984600802614247565b1980831691505092915050565b600061427e8383614254565b9150826002028217905092915050565b61429782613126565b67ffffffffffffffff8111156142b0576142af61333a565b5b6142ba8254613bf5565b6142c5828285614201565b600060209050601f8311600181146142f857600084156142e6578287015190505b6142f08582614272565b865550614358565b601f198416614306866140e2565b60005b8281101561432e57848901518255600182019150602085019450602081019050614309565b8683101561434b5784890151614347601f891682614254565b8355505b6001600288020188555050505b505050505050565b7f4e487b7100000000000000000000000000000000000000000000000000000000600052601160045260246000fd5b600061439a82613263565b91507fffffffffffffffffffffffffffffffffffffffffffffffffffffffffffffffff82036143cc576143cb614360565b5b600182019050919050565b60006060820190506143ec60008301866134ae565b6143f960208301856132c6565b818103604083015261440b818461317d565b9050949350505050565b60006144218285613c9d565b915061442d8284613c9d565b91508190509392505050565b7f546f6b656e20646f6573206e6f74206578697374000000000000000000000000600082015250565b600061446f601483613131565b915061447a82614439565b602082019050919050565b6000602082019050818103600083015261449e81614462565b9050919050565b7f4e6f7420617574686f72697a656420746f20616464207365727669636520726560008201527f636f726400000000000000000000000000000000000000000000000000000000602082015250565b6000614501602483613131565b915061450c826144a5565b604082019050919050565b60006020820190508181036000830152614530816144f4565b9050919050565b7f4f6e6c7920746865206f776e6572206f66207468652076656869636c6520636160008201527f6e206c69737420697420666f722073616c652e00000000000000000000000000602082015250565b6000614593603383613131565b915061459e82614537565b604082019050919050565b600060208201905081810360008301526145c281614586565b9050919050565b7f5072696365206d7573742062652067726561746572207468616e207a65726f2e600082015250565b60006145ff602083613131565b915061460a826145c9565b602082019050919050565b6000602082019050818103600083015261462e816145f2565b9050919050565b600060408201905061464a60008301856134ae565b61465760208301846134ae565b9392505050565b60006040820190508181036000830152614678818561317d565b905061468760208301846132c6565b9392505050565b600060408201905081810360008301526146a8818561317d565b90506146b760208301846134ae565b9392505050565b600081519050919050565b600082825260208201905092915050565b60006146e5826146be565b6146ef81856146c9565b93506146ff818560208601613142565b6147088161316c565b840191505092915050565b600060808201905061472860008301876132c6565b61473560208301866132c6565b61474260408301856134ae565b818103606083015261475481846146da565b905095945050505050565b60008151905061476e81613097565b92915050565b60006020828403121561478a57614789613061565b5b60006147988482850161475f565b91505092915050565b60006040820190506147b660008301856132c6565b6147c360208301846134ae565b9392505050565b7f4e487b7100000000000000000000000000000000000000000000000000000000600052601260045260246000fd5b7f4e487b7100000000000000000000000000000000000000000000000000000000600052605160045260246000fdfea26469706673582212201fe5fd7a5cf5eeb8b86016231cd198ba204243487568f66fe0da59fc24d28afe64736f6c634300081c0033",
  "linkReferences": {},
  "deployedLinkReferences": {}
}