{
  "_format": "hh-sol-artifact-1",
  "contractName": "CarMarketplace",
  "sourceName": "contracts/CarMarketplace.sol",
  "abi": [
    {
      "inputs": [],
      "stateMutability": "nonpayable",
      "type": "constructor"
    },
    {
      "inputs": [
        {
          "internalType": "address",
          "name": "sender",
          "type": "address"
        },
        {
          "internalType": "uint256",
          "name": "tokenId",
          "type": "uint256"
        },
        {
          "internalType": "address",
          "name": "owner",
          "type": "address"
        }
      ],
      "name": "ERC721IncorrectOwner",
      "type": "error"
    },
    {
      "inputs": [
        {
          "internalType": "address",
          "name": "operator",
          "type": "address"
        },
        {
          "internalType": "uint256",
          "name": "tokenId",
          "type": "uint256"
        }
      ],
      "name": "ERC721InsufficientApproval",
      "type": "error"
    },
    {
      "inputs": [
        {
          "internalType": "address",
          "name": "approver",
          "type": "address"
        }
      ],
      "name": "ERC721InvalidApprover",
      "type": "error"
    },
    {
      "inputs": [
        {
          "internalType": "address",
          "name": "operator",
          "type": "address"
        }
      ],
      "name": "ERC721InvalidOperator",
      "type": "error"
    },
    {
      "inputs": [
        {
          "internalType": "address",
          "name": "owner",
          "type": "address"
        }
      ],
      "name": "ERC721InvalidOwner",
      "type": "error"
    },
    {
      "inputs": [
        {
          "internalType": "address",
          "name": "receiver",
          "type": "address"
        }
      ],
      "name": "ERC721InvalidReceiver",
      "type": "error"
    },
    {
      "inputs": [
        {
          "internalType": "address",
          "name": "sender",
          "type": "address"
        }
      ],
      "name": "ERC721InvalidSender",
      "type": "error"
    },
    {
      "inputs": [
        {
          "internalType": "uint256",
          "name": "tokenId",
          "type": "uint256"
        }
      ],
      "name": "ERC721NonexistentToken",
      "type": "error"
    },
    {
      "inputs": [
        {
          "internalType": "address",
          "name": "owner",
          "type": "address"
        }
      ],
      "name": "OwnableInvalidOwner",
      "type": "error"
    },
    {
      "inputs": [
        {
          "internalType": "address",
          "name": "account",
          "type": "address"
        }
      ],
      "name": "OwnableUnauthorizedAccount",
      "type": "error"
    },
    {
      "anonymous": false,
      "inputs": [
        {
          "indexed": true,
          "internalType": "address",
          "name": "owner",
          "type": "address"
        },
        {
          "indexed": true,
          "internalType": "address",
          "name": "approved",
          "type": "address"
        },
        {
          "indexed": true,
          "internalType": "uint256",
          "name": "tokenId",
          "type": "uint256"
        }
      ],
      "name": "Approval",
      "type": "event"
    },
    {
      "anonymous": false,
      "inputs": [
        {
          "indexed": true,
          "internalType": "address",
          "name": "owner",
          "type": "address"
        },
        {
          "indexed": true,
          "internalType": "address",
          "name": "operator",
          "type": "address"
        },
        {
          "indexed": false,
          "internalType": "bool",
          "name": "approved",
          "type": "bool"
        }
      ],
      "name": "ApprovalForAll",
      "type": "event"
    },
    {
      "anonymous": false,
      "inputs": [
        {
          "indexed": false,
          "internalType": "uint256",
          "name": "_fromTokenId",
          "type": "uint256"
        },
        {
          "indexed": false,
          "internalType": "uint256",
          "name": "_toTokenId",
          "type": "uint256"
        }
      ],
      "name": "BatchMetadataUpdate",
      "type": "event"
    },
    {
      "anonymous": false,
      "inputs": [
        {
          "indexed": false,
          "internalType": "uint256",
          "name": "tokenId",
          "type": "uint256"
        },
        {
          "indexed": false,
          "internalType": "uint256",
          "name": "price",
          "type": "uint256"
        }
      ],
      "name": "CarListedForSale",
      "type": "event"
    },
    {
      "anonymous": false,
      "inputs": [
        {
          "indexed": false,
          "internalType": "uint256",
          "name": "tokenId",
          "type": "uint256"
        },
        {
          "indexed": false,
          "internalType": "address",
          "name": "owner",
          "type": "address"
        },
        {
          "indexed": false,
          "internalType": "string",
          "name": "vin",
          "type": "string"
        }
      ],
      "name": "CarMinted",
      "type": "event"
    },
    {
      "anonymous": false,
      "inputs": [
        {
          "indexed": false,
          "internalType": "uint256",
          "name": "tokenId",
          "type": "uint256"
        },
        {
          "indexed": false,
          "internalType": "address",
          "name": "newOwner",
          "type": "address"
        },
        {
          "indexed": false,
          "internalType": "uint256",
          "name": "price",
          "type": "uint256"
        }
      ],
      "name": "CarSold",
      "type": "event"
    },
    {
      "anonymous": false,
      "inputs": [
        {
          "indexed": false,
          "internalType": "uint256",
          "name": "_tokenId",
          "type": "uint256"
        }
      ],
      "name": "MetadataUpdate",
      "type": "event"
    },
    {
      "anonymous": false,
      "inputs": [
        {
          "indexed": true,
          "internalType": "address",
          "name": "previousOwner",
          "type": "address"
        },
        {
          "indexed": true,
          "internalType": "address",
          "name": "newOwner",
          "type": "address"
        }
      ],
      "name": "OwnershipTransferred",
      "type": "event"
    },
    {
      "anonymous": false,
      "inputs": [
        {
          "indexed": true,
          "internalType": "address",
          "name": "from",
          "type": "address"
        },
        {
          "indexed": true,
          "internalType": "address",
          "name": "to",
          "type": "address"
        },
        {
          "indexed": true,
          "internalType": "uint256",
          "name": "tokenId",
          "type": "uint256"
        }
      ],
      "name": "Transfer",
      "type": "event"
    },
    {
      "inputs": [
        {
          "internalType": "address",
          "name": "to",
          "type": "address"
        },
        {
          "internalType": "uint256",
          "name": "tokenId",
          "type": "uint256"
        }
      ],
      "name": "approve",
      "outputs": [],
      "stateMutability": "nonpayable",
      "type": "function"
    },
    {
      "inputs": [
        {
          "internalType": "address",
          "name": "owner",
          "type": "address"
        }
      ],
      "name": "balanceOf",
      "outputs": [
        {
          "internalType": "uint256",
          "name": "",
          "type": "uint256"
        }
      ],
      "stateMutability": "view",
      "type": "function"
    },
    {
      "inputs": [
        {
          "internalType": "uint256",
          "name": "tokenId",
          "type": "uint256"
        }
      ],
      "name": "buyCar",
      "outputs": [],
      "stateMutability": "payable",
      "type": "function"
    },
    {
      "inputs": [
        {
          "internalType": "uint256",
          "name": "tokenId",
          "type": "uint256"
        }
      ],
      "name": "getApproved",
      "outputs": [
        {
          "internalType": "address",
          "name": "",
          "type": "address"
        }
      ],
      "stateMutability": "view",
      "type": "function"
    },
    {
      "inputs": [
        {
          "internalType": "uint256",
          "name": "tokenId",
          "type": "uint256"
        }
      ],
      "name": "getCarDetails",
      "outputs": [
        {
          "components": [
            {
              "internalType": "string",
              "name": "make",
              "type": "string"
            },
            {
              "internalType": "string",
              "name": "model",
              "type": "string"
            },
            {
              "internalType": "uint256",
              "name": "year",
              "type": "uint256"
            },
            {
              "internalType": "string",
              "name": "vin",
              "type": "string"
            },
            {
              "internalType": "bool",
              "name": "forSale",
              "type": "bool"
            },
            {
              "internalType": "uint256",
              "name": "price",
              "type": "uint256"
            }
          ],
          "internalType": "struct CarMarketplace.Car",
          "name": "",
          "type": "tuple"
        }
      ],
      "stateMutability": "view",
      "type": "function"
    },
    {
      "inputs": [
        {
          "internalType": "address",
          "name": "owner",
          "type": "address"
        },
        {
          "internalType": "address",
          "name": "operator",
          "type": "address"
        }
      ],
      "name": "isApprovedForAll",
      "outputs": [
        {
          "internalType": "bool",
          "name": "",
          "type": "bool"
        }
      ],
      "stateMutability": "view",
      "type": "function"
    },
    {
      "inputs": [
        {
          "internalType": "uint256",
          "name": "tokenId",
          "type": "uint256"
        },
        {
          "internalType": "uint256",
          "name": "price",
          "type": "uint256"
        }
      ],
      "name": "listCarForSale",
      "outputs": [],
      "stateMutability": "nonpayable",
      "type": "function"
    },
    {
      "inputs": [
        {
          "internalType": "address",
          "name": "to",
          "type": "address"
        },
        {
          "internalType": "string",
          "name": "make",
          "type": "string"
        },
        {
          "internalType": "string",
          "name": "model",
          "type": "string"
        },
        {
          "internalType": "uint256",
          "name": "year",
          "type": "uint256"
        },
        {
          "internalType": "string",
          "name": "vin",
          "type": "string"
        },
        {
          "internalType": "string",
          "name": "tokenURI",
          "type": "string"
        }
      ],
      "name": "mintCar",
      "outputs": [],
      "stateMutability": "nonpayable",
      "type": "function"
    },
    {
      "inputs": [],
      "name": "name",
      "outputs": [
        {
          "internalType": "string",
          "name": "",
          "type": "string"
        }
      ],
      "stateMutability": "view",
      "type": "function"
    },
    {
      "inputs": [],
      "name": "owner",
      "outputs": [
        {
          "internalType": "address",
          "name": "",
          "type": "address"
        }
      ],
      "stateMutability": "view",
      "type": "function"
    },
    {
      "inputs": [
        {
          "internalType": "uint256",
          "name": "tokenId",
          "type": "uint256"
        }
      ],
      "name": "ownerOf",
      "outputs": [
        {
          "internalType": "address",
          "name": "",
          "type": "address"
        }
      ],
      "stateMutability": "view",
      "type": "function"
    },
    {
      "inputs": [],
      "name": "renounceOwnership",
      "outputs": [],
      "stateMutability": "nonpayable",
      "type": "function"
    },
    {
      "inputs": [
        {
          "internalType": "address",
          "name": "from",
          "type": "address"
        },
        {
          "internalType": "address",
          "name": "to",
          "type": "address"
        },
        {
          "internalType": "uint256",
          "name": "tokenId",
          "type": "uint256"
        }
      ],
      "name": "safeTransferFrom",
      "outputs": [],
      "stateMutability": "nonpayable",
      "type": "function"
    },
    {
      "inputs": [
        {
          "internalType": "address",
          "name": "from",
          "type": "address"
        },
        {
          "internalType": "address",
          "name": "to",
          "type": "address"
        },
        {
          "internalType": "uint256",
          "name": "tokenId",
          "type": "uint256"
        },
        {
          "internalType": "bytes",
          "name": "data",
          "type": "bytes"
        }
      ],
      "name": "safeTransferFrom",
      "outputs": [],
      "stateMutability": "nonpayable",
      "type": "function"
    },
    {
      "inputs": [
        {
          "internalType": "address",
          "name": "operator",
          "type": "address"
        },
        {
          "internalType": "bool",
          "name": "approved",
          "type": "bool"
        }
      ],
      "name": "setApprovalForAll",
      "outputs": [],
      "stateMutability": "nonpayable",
      "type": "function"
    },
    {
      "inputs": [
        {
          "internalType": "bytes4",
          "name": "interfaceId",
          "type": "bytes4"
        }
      ],
      "name": "supportsInterface",
      "outputs": [
        {
          "internalType": "bool",
          "name": "",
          "type": "bool"
        }
      ],
      "stateMutability": "view",
      "type": "function"
    },
    {
      "inputs": [],
      "name": "symbol",
      "outputs": [
        {
          "internalType": "string",
          "name": "",
          "type": "string"
        }
      ],
      "stateMutability": "view",
      "type": "function"
    },
    {
      "inputs": [
        {
          "internalType": "uint256",
          "name": "tokenId",
          "type": "uint256"
        }
      ],
      "name": "tokenURI",
      "outputs": [
        {
          "internalType": "string",
          "name": "",
          "type": "string"
        }
      ],
      "stateMutability": "view",
      "type": "function"
    },
    {
      "inputs": [
        {
          "internalType": "address",
          "name": "from",
          "type": "address"
        },
        {
          "internalType": "address",
          "name": "to",
          "type": "address"
        },
        {
          "internalType": "uint256",
          "name": "tokenId",
          "type": "uint256"
        }
      ],
      "name": "transferFrom",
      "outputs": [],
      "stateMutability": "nonpayable",
      "type": "function"
    },
    {
      "inputs": [
        {
          "internalType": "address",
          "name": "newOwner",
          "type": "address"
        }
      ],
      "name": "transferOwnership",
      "outputs": [],
      "stateMutability": "nonpayable",
      "type": "function"
    }
  ],
  "bytecode": "0x608060405234801561001057600080fd5b50336040518060400160405280600781526020017f4175746f446578000000000000000000000000000000000000000000000000008152506040518060400160405280600381526020017f4144580000000000000000000000000000000000000000000000000000000000815250816000908161008d919061043d565b50806001908161009d919061043d565b505050600073ffffffffffffffffffffffffffffffffffffffff168173ffffffffffffffffffffffffffffffffffffffff16036101125760006040517f1e4fbdf70000000000000000000000000000000000000000000000000000000081526004016101099190610550565b60405180910390fd5b6101218161012760201b60201c565b5061056b565b6000600760009054906101000a900473ffffffffffffffffffffffffffffffffffffffff16905081600760006101000a81548173ffffffffffffffffffffffffffffffffffffffff021916908373ffffffffffffffffffffffffffffffffffffffff1602179055508173ffffffffffffffffffffffffffffffffffffffff168173ffffffffffffffffffffffffffffffffffffffff167f8be0079c531659141344cd1fd0a4f28419497f9722a3daafe3b4186f6b6457e060405160405180910390a35050565b600081519050919050565b7f4e487b7100000000000000000000000000000000000000000000000000000000600052604160045260246000fd5b7f4e487b7100000000000000000000000000000000000000000000000000000000600052602260045260246000fd5b6000600282049050600182168061026e57607f821691505b60208210810361028157610280610227565b5b50919050565b60008190508160005260206000209050919050565b60006020601f8301049050919050565b600082821b905092915050565b6000600883026102e97fffffffffffffffffffffffffffffffffffffffffffffffffffffffffffffffff826102ac565b6102f386836102ac565b95508019841693508086168417925050509392505050565b6000819050919050565b6000819050919050565b600061033a6103356103308461030b565b610315565b61030b565b9050919050565b6000819050919050565b6103548361031f565b61036861036082610341565b8484546102b9565b825550505050565b600090565b61037d610370565b61038881848461034b565b505050565b5b818110156103ac576103a1600082610375565b60018101905061038e565b5050565b601f8211156103f1576103c281610287565b6103cb8461029c565b810160208510156103da578190505b6103ee6103e68561029c565b83018261038d565b50505b505050565b600082821c905092915050565b6000610414600019846008026103f6565b1980831691505092915050565b600061042d8383610403565b9150826002028217905092915050565b610446826101ed565b67ffffffffffffffff81111561045f5761045e6101f8565b5b6104698254610256565b6104748282856103b0565b600060209050601f8311600181146104a75760008415610495578287015190505b61049f8582610421565b865550610507565b601f1984166104b586610287565b60005b828110156104dd578489015182556001820191506020850194506020810190506104b8565b868310156104fa57848901516104f6601f891682610403565b8355505b6001600288020188555050505b505050505050565b600073ffffffffffffffffffffffffffffffffffffffff82169050919050565b600061053a8261050f565b9050919050565b61054a8161052f565b82525050565b60006020820190506105656000830184610541565b92915050565b6138088061057a6000396000f3fe60806040526004361061011f5760003560e01c806370a08231116100a0578063b88d4fde11610064578063b88d4fde146103d6578063c87b56dd146103ff578063e985e9c51461043c578063f2fde38b14610479578063f6888384146104a25761011f565b806370a0823114610303578063715018a6146103405780638da5cb5b1461035757806395d89b4114610382578063a22cb465146103ad5761011f565b806323b872dd116100e757806323b872dd1461021b57806342842e0e14610244578063472ec4541461026d5780636352211e146102aa5780636c231060146102e75761011f565b806301ffc9a71461012457806306fdde0314610161578063081812fc1461018c578063095ea7b3146101c9578063176e2447146101f2575b600080fd5b34801561013057600080fd5b5061014b600480360381019061014691906125f5565b6104cb565b604051610158919061263d565b60405180910390f35b34801561016d57600080fd5b5061017661052c565b60405161018391906126e8565b60405180910390f35b34801561019857600080fd5b506101b360048036038101906101ae9190612740565b6105be565b6040516101c091906127ae565b60405180910390f35b3480156101d557600080fd5b506101f060048036038101906101eb91906127f5565b6105da565b005b3480156101fe57600080fd5b506102196004803603810190610214919061296a565b6105f0565b005b34801561022757600080fd5b50610242600480360381019061023d9190612a67565b6108a3565b005b34801561025057600080fd5b5061026b60048036038101906102669190612a67565b6109a5565b005b34801561027957600080fd5b50610294600480360381019061028f9190612740565b6109c5565b6040516102a19190612bb9565b60405180910390f35b3480156102b657600080fd5b506102d160048036038101906102cc9190612740565b610be1565b6040516102de91906127ae565b60405180910390f35b61030160048036038101906102fc9190612740565b610bf3565b005b34801561030f57600080fd5b5061032a60048036038101906103259190612bdb565b610e83565b6040516103379190612c17565b60405180910390f35b34801561034c57600080fd5b50610355610f3d565b005b34801561036357600080fd5b5061036c610f51565b60405161037991906127ae565b60405180910390f35b34801561038e57600080fd5b50610397610f7b565b6040516103a491906126e8565b60405180910390f35b3480156103b957600080fd5b506103d460048036038101906103cf9190612c5e565b61100d565b005b3480156103e257600080fd5b506103fd60048036038101906103f89190612d3f565b611023565b005b34801561040b57600080fd5b5061042660048036038101906104219190612740565b611048565b60405161043391906126e8565b60405180910390f35b34801561044857600080fd5b50610463600480360381019061045e9190612dc2565b61115b565b604051610470919061263d565b60405180910390f35b34801561048557600080fd5b506104a0600480360381019061049b9190612bdb565b6111ef565b005b3480156104ae57600080fd5b506104c960048036038101906104c49190612e02565b611275565b005b6000634906490660e01b7bffffffffffffffffffffffffffffffffffffffffffffffffffffffff1916827bffffffffffffffffffffffffffffffffffffffffffffffffffffffff191614806105255750610524826113b5565b5b9050919050565b60606000805461053b90612e71565b80601f016020809104026020016040519081016040528092919081815260200182805461056790612e71565b80156105b45780601f10610589576101008083540402835291602001916105b4565b820191906000526020600020905b81548152906001019060200180831161059757829003601f168201915b5050505050905090565b60006105c982611497565b506105d38261151f565b9050919050565b6105ec82826105e761155c565b611564565b5050565b6105f8611576565b600082511161063c576040517f08c379a000000000000000000000000000000000000000000000000000000000815260040161063390612eee565b60405180910390fd5b60005b6008548110156106f9578260405160200161065a9190612f4a565b60405160208183030381529060405280519060200120600960008381526020019081526020016000206003016040516020016106969190612ff9565b60405160208183030381529060405280519060200120036106ec576040517f08c379a00000000000000000000000000000000000000000000000000000000081526004016106e39061305c565b60405180910390fd5b808060010191505061063f565b50600060085490506040518060c00160405280878152602001868152602001858152602001848152602001600015158152602001600081525060096000838152602001908152602001600020600082015181600001908161075a9190613213565b5060208201518160010190816107709190613213565b506040820151816002015560608201518160030190816107909190613213565b5060808201518160040160006101000a81548160ff02191690831515021790555060a0820151816005015590505086600a600083815260200190815260200160002060006101000a81548173ffffffffffffffffffffffffffffffffffffffff021916908373ffffffffffffffffffffffffffffffffffffffff16021790555080600b846040516108219190612f4a565b90815260200160405180910390208190555061083d87826115fd565b61084781836116f6565b6008600081548092919061085a90613314565b91905055507fbd3303cf3cb581bf78ef3ac343c3e3d038afb8bc52183ae64109ebd7ee3a873d8188856040516108929392919061335c565b60405180910390a150505050505050565b600073ffffffffffffffffffffffffffffffffffffffff168273ffffffffffffffffffffffffffffffffffffffff16036109155760006040517f64a0ae9200000000000000000000000000000000000000000000000000000000815260040161090c91906127ae565b60405180910390fd5b6000610929838361092461155c565b611752565b90508373ffffffffffffffffffffffffffffffffffffffff168173ffffffffffffffffffffffffffffffffffffffff161461099f578382826040517f64283d7b0000000000000000000000000000000000000000000000000000000081526004016109969392919061339a565b60405180910390fd5b50505050565b6109c083838360405180602001604052806000815250611023565b505050565b6109cd612551565b6109d682611497565b50600960008381526020019081526020016000206040518060c0016040529081600082018054610a0590612e71565b80601f0160208091040260200160405190810160405280929190818152602001828054610a3190612e71565b8015610a7e5780601f10610a5357610100808354040283529160200191610a7e565b820191906000526020600020905b815481529060010190602001808311610a6157829003601f168201915b50505050508152602001600182018054610a9790612e71565b80601f0160208091040260200160405190810160405280929190818152602001828054610ac390612e71565b8015610b105780601f10610ae557610100808354040283529160200191610b10565b820191906000526020600020905b815481529060010190602001808311610af357829003601f168201915b5050505050815260200160028201548152602001600382018054610b3390612e71565b80601f0160208091040260200160405190810160405280929190818152602001828054610b5f90612e71565b8015610bac5780601f10610b8157610100808354040283529160200191610bac565b820191906000526020600020905b815481529060010190602001808311610b8f57829003601f168201915b505050505081526020016004820160009054906101000a900460ff161515151581526020016005820154815250509050919050565b6000610bec82611497565b9050919050565b6009600082815260200190815260200160002060040160009054906101000a900460ff16610c56576040517f08c379a0000000000000000000000000000000000000000000000000000000008152600401610c4d9061341d565b60405180910390fd5b6009600082815260200190815260200160002060050154341015610caf576040517f08c379a0000000000000000000000000000000000000000000000000000000008152600401610ca690613489565b60405180910390fd5b6000600a600083815260200190815260200160002060009054906101000a900473ffffffffffffffffffffffffffffffffffffffff1690503373ffffffffffffffffffffffffffffffffffffffff168173ffffffffffffffffffffffffffffffffffffffff1603610d55576040517f08c379a0000000000000000000000000000000000000000000000000000000008152600401610d4c906134f5565b60405180910390fd5b610d6081338461196c565b8073ffffffffffffffffffffffffffffffffffffffff166108fc349081150290604051600060405180830381858888f19350505050158015610da6573d6000803e3d6000fd5b5033600a600084815260200190815260200160002060006101000a81548173ffffffffffffffffffffffffffffffffffffffff021916908373ffffffffffffffffffffffffffffffffffffffff16021790555060006009600084815260200190815260200160002060040160006101000a81548160ff021916908315150217905550600060096000848152602001908152602001600020600501819055507f9d90e6b7483b210fb2eb1814d730195955d020389f316a5127d8f07d6fe61c8b823334604051610e7793929190613515565b60405180910390a15050565b60008073ffffffffffffffffffffffffffffffffffffffff168273ffffffffffffffffffffffffffffffffffffffff1603610ef65760006040517f89c62b64000000000000000000000000000000000000000000000000000000008152600401610eed91906127ae565b60405180910390fd5b600360008373ffffffffffffffffffffffffffffffffffffffff1673ffffffffffffffffffffffffffffffffffffffff168152602001908152602001600020549050919050565b610f45611576565b610f4f6000611ad9565b565b6000600760009054906101000a900473ffffffffffffffffffffffffffffffffffffffff16905090565b606060018054610f8a90612e71565b80601f0160208091040260200160405190810160405280929190818152602001828054610fb690612e71565b80156110035780601f10610fd857610100808354040283529160200191611003565b820191906000526020600020905b815481529060010190602001808311610fe657829003601f168201915b5050505050905090565b61101f61101861155c565b8383611b9f565b5050565b61102e8484846108a3565b61104261103961155c565b85858585611d0e565b50505050565b606061105382611497565b50600060066000848152602001908152602001600020805461107490612e71565b80601f01602080910402602001604051908101604052809291908181526020018280546110a090612e71565b80156110ed5780601f106110c2576101008083540402835291602001916110ed565b820191906000526020600020905b8154815290600101906020018083116110d057829003601f168201915b5050505050905060006110fe611ebf565b90506000815103611113578192505050611156565b60008251111561114857808260405160200161113092919061354c565b60405160208183030381529060405292505050611156565b61115184611ed6565b925050505b919050565b6000600560008473ffffffffffffffffffffffffffffffffffffffff1673ffffffffffffffffffffffffffffffffffffffff16815260200190815260200160002060008373ffffffffffffffffffffffffffffffffffffffff1673ffffffffffffffffffffffffffffffffffffffff16815260200190815260200160002060009054906101000a900460ff16905092915050565b6111f7611576565b600073ffffffffffffffffffffffffffffffffffffffff168173ffffffffffffffffffffffffffffffffffffffff16036112695760006040517f1e4fbdf700000000000000000000000000000000000000000000000000000000815260040161126091906127ae565b60405180910390fd5b61127281611ad9565b50565b3373ffffffffffffffffffffffffffffffffffffffff1661129583610be1565b73ffffffffffffffffffffffffffffffffffffffff16146112eb576040517f08c379a00000000000000000000000000000000000000000000000000000000081526004016112e2906135e2565b60405180910390fd5b6000811161132e576040517f08c379a00000000000000000000000000000000000000000000000000000000081526004016113259061364e565b60405180910390fd5b60016009600084815260200190815260200160002060040160006101000a81548160ff0219169083151502179055508060096000848152602001908152602001600020600501819055507fd7eb5635a91daa6c8336a751c696002c8243f97bad99a81269931e463952470982826040516113a992919061366e565b60405180910390a15050565b60007f80ac58cd000000000000000000000000000000000000000000000000000000007bffffffffffffffffffffffffffffffffffffffffffffffffffffffff1916827bffffffffffffffffffffffffffffffffffffffffffffffffffffffff1916148061148057507f5b5e139f000000000000000000000000000000000000000000000000000000007bffffffffffffffffffffffffffffffffffffffffffffffffffffffff1916827bffffffffffffffffffffffffffffffffffffffffffffffffffffffff1916145b80611490575061148f82611f3f565b5b9050919050565b6000806114a383611fa9565b9050600073ffffffffffffffffffffffffffffffffffffffff168173ffffffffffffffffffffffffffffffffffffffff160361151657826040517f7e27328900000000000000000000000000000000000000000000000000000000815260040161150d9190612c17565b60405180910390fd5b80915050919050565b60006004600083815260200190815260200160002060009054906101000a900473ffffffffffffffffffffffffffffffffffffffff169050919050565b600033905090565b6115718383836001611fe6565b505050565b61157e61155c565b73ffffffffffffffffffffffffffffffffffffffff1661159c610f51565b73ffffffffffffffffffffffffffffffffffffffff16146115fb576115bf61155c565b6040517f118cdaa70000000000000000000000000000000000000000000000000000000081526004016115f291906127ae565b60405180910390fd5b565b600073ffffffffffffffffffffffffffffffffffffffff168273ffffffffffffffffffffffffffffffffffffffff160361166f5760006040517f64a0ae9200000000000000000000000000000000000000000000000000000000815260040161166691906127ae565b60405180910390fd5b600061167d83836000611752565b9050600073ffffffffffffffffffffffffffffffffffffffff168173ffffffffffffffffffffffffffffffffffffffff16146116f15760006040517f73c6ac6e0000000000000000000000000000000000000000000000000000000081526004016116e891906127ae565b60405180910390fd5b505050565b806006600084815260200190815260200160002090816117169190613213565b507ff8e1a15aba9398e019f0b49df1a4fde98ee17ae345cb5f6b5e2c27f5033e8ce7826040516117469190612c17565b60405180910390a15050565b60008061175e84611fa9565b9050600073ffffffffffffffffffffffffffffffffffffffff168373ffffffffffffffffffffffffffffffffffffffff16146117a05761179f8184866121ab565b5b600073ffffffffffffffffffffffffffffffffffffffff168173ffffffffffffffffffffffffffffffffffffffff1614611831576117e2600085600080611fe6565b6001600360008373ffffffffffffffffffffffffffffffffffffffff1673ffffffffffffffffffffffffffffffffffffffff168152602001908152602001600020600082825403925050819055505b600073ffffffffffffffffffffffffffffffffffffffff168573ffffffffffffffffffffffffffffffffffffffff16146118b4576001600360008773ffffffffffffffffffffffffffffffffffffffff1673ffffffffffffffffffffffffffffffffffffffff168152602001908152602001600020600082825401925050819055505b846002600086815260200190815260200160002060006101000a81548173ffffffffffffffffffffffffffffffffffffffff021916908373ffffffffffffffffffffffffffffffffffffffff160217905550838573ffffffffffffffffffffffffffffffffffffffff168273ffffffffffffffffffffffffffffffffffffffff167fddf252ad1be2c89b69c2b068fc378daa952ba7f163c4a11628f55a4df523b3ef60405160405180910390a4809150509392505050565b600073ffffffffffffffffffffffffffffffffffffffff168273ffffffffffffffffffffffffffffffffffffffff16036119de5760006040517f64a0ae920000000000000000000000000000000000000000000000000000000081526004016119d591906127ae565b60405180910390fd5b60006119ec83836000611752565b9050600073ffffffffffffffffffffffffffffffffffffffff168173ffffffffffffffffffffffffffffffffffffffff1603611a5f57816040517f7e273289000000000000000000000000000000000000000000000000000000008152600401611a569190612c17565b60405180910390fd5b8373ffffffffffffffffffffffffffffffffffffffff168173ffffffffffffffffffffffffffffffffffffffff1614611ad3578382826040517f64283d7b000000000000000000000000000000000000000000000000000000008152600401611aca9392919061339a565b60405180910390fd5b50505050565b6000600760009054906101000a900473ffffffffffffffffffffffffffffffffffffffff16905081600760006101000a81548173ffffffffffffffffffffffffffffffffffffffff021916908373ffffffffffffffffffffffffffffffffffffffff1602179055508173ffffffffffffffffffffffffffffffffffffffff168173ffffffffffffffffffffffffffffffffffffffff167f8be0079c531659141344cd1fd0a4f28419497f9722a3daafe3b4186f6b6457e060405160405180910390a35050565b600073ffffffffffffffffffffffffffffffffffffffff168273ffffffffffffffffffffffffffffffffffffffff1603611c1057816040517f5b08ba18000000000000000000000000000000000000000000000000000000008152600401611c0791906127ae565b60405180910390fd5b80600560008573ffffffffffffffffffffffffffffffffffffffff1673ffffffffffffffffffffffffffffffffffffffff16815260200190815260200160002060008473ffffffffffffffffffffffffffffffffffffffff1673ffffffffffffffffffffffffffffffffffffffff16815260200190815260200160002060006101000a81548160ff0219169083151502179055508173ffffffffffffffffffffffffffffffffffffffff168373ffffffffffffffffffffffffffffffffffffffff167f17307eab39ab6107e8899845ad3d59bd9653f200f220920489ca2b5937696c3183604051611d01919061263d565b60405180910390a3505050565b60008373ffffffffffffffffffffffffffffffffffffffff163b1115611eb8578273ffffffffffffffffffffffffffffffffffffffff1663150b7a02868685856040518563ffffffff1660e01b8152600401611d6d94939291906136ec565b6020604051808303816000875af1925050508015611da957506040513d601f19601f82011682018060405250810190611da6919061374d565b60015b611e2d573d8060008114611dd9576040519150601f19603f3d011682016040523d82523d6000602084013e611dde565b606091505b506000815103611e2557836040517f64a0ae92000000000000000000000000000000000000000000000000000000008152600401611e1c91906127ae565b60405180910390fd5b805181602001fd5b63150b7a0260e01b7bffffffffffffffffffffffffffffffffffffffffffffffffffffffff1916817bffffffffffffffffffffffffffffffffffffffffffffffffffffffff191614611eb657836040517f64a0ae92000000000000000000000000000000000000000000000000000000008152600401611ead91906127ae565b60405180910390fd5b505b5050505050565b606060405180602001604052806000815250905090565b6060611ee182611497565b506000611eec611ebf565b90506000815111611f0c5760405180602001604052806000815250611f37565b80611f168461226f565b604051602001611f2792919061354c565b6040516020818303038152906040525b915050919050565b60007f01ffc9a7000000000000000000000000000000000000000000000000000000007bffffffffffffffffffffffffffffffffffffffffffffffffffffffff1916827bffffffffffffffffffffffffffffffffffffffffffffffffffffffff1916149050919050565b60006002600083815260200190815260200160002060009054906101000a900473ffffffffffffffffffffffffffffffffffffffff169050919050565b808061201f5750600073ffffffffffffffffffffffffffffffffffffffff168273ffffffffffffffffffffffffffffffffffffffff1614155b1561215357600061202f84611497565b9050600073ffffffffffffffffffffffffffffffffffffffff168373ffffffffffffffffffffffffffffffffffffffff161415801561209a57508273ffffffffffffffffffffffffffffffffffffffff168173ffffffffffffffffffffffffffffffffffffffff1614155b80156120ad57506120ab818461115b565b155b156120ef57826040517fa9fbf51f0000000000000000000000000000000000000000000000000000000081526004016120e691906127ae565b60405180910390fd5b811561215157838573ffffffffffffffffffffffffffffffffffffffff168273ffffffffffffffffffffffffffffffffffffffff167f8c5be1e5ebec7d5bd14f71427d1e84f3dd0314c0f7b2291e5b200ac8c7c3b92560405160405180910390a45b505b836004600085815260200190815260200160002060006101000a81548173ffffffffffffffffffffffffffffffffffffffff021916908373ffffffffffffffffffffffffffffffffffffffff16021790555050505050565b6121b683838361233d565b61226a57600073ffffffffffffffffffffffffffffffffffffffff168373ffffffffffffffffffffffffffffffffffffffff160361222b57806040517f7e2732890000000000000000000000000000000000000000000000000000000081526004016122229190612c17565b60405180910390fd5b81816040517f177e802f00000000000000000000000000000000000000000000000000000000815260040161226192919061377a565b60405180910390fd5b505050565b60606000600161227e846123fe565b01905060008167ffffffffffffffff81111561229d5761229c61283f565b5b6040519080825280601f01601f1916602001820160405280156122cf5781602001600182028036833780820191505090505b509050600082602001820190505b600115612332578080600190039150507f3031323334353637383961626364656600000000000000000000000000000000600a86061a8153600a8581612326576123256137a3565b5b049450600085036122dd575b819350505050919050565b60008073ffffffffffffffffffffffffffffffffffffffff168373ffffffffffffffffffffffffffffffffffffffff16141580156123f557508273ffffffffffffffffffffffffffffffffffffffff168473ffffffffffffffffffffffffffffffffffffffff1614806123b657506123b5848461115b565b5b806123f457508273ffffffffffffffffffffffffffffffffffffffff166123dc8361151f565b73ffffffffffffffffffffffffffffffffffffffff16145b5b90509392505050565b600080600090507a184f03e93ff9f4daa797ed6e38ed64bf6a1f010000000000000000831061245c577a184f03e93ff9f4daa797ed6e38ed64bf6a1f0100000000000000008381612452576124516137a3565b5b0492506040810190505b6d04ee2d6d415b85acef81000000008310612499576d04ee2d6d415b85acef8100000000838161248f5761248e6137a3565b5b0492506020810190505b662386f26fc1000083106124c857662386f26fc1000083816124be576124bd6137a3565b5b0492506010810190505b6305f5e10083106124f1576305f5e10083816124e7576124e66137a3565b5b0492506008810190505b612710831061251657612710838161250c5761250b6137a3565b5b0492506004810190505b60648310612539576064838161252f5761252e6137a3565b5b0492506002810190505b600a8310612548576001810190505b80915050919050565b6040518060c0016040528060608152602001606081526020016000815260200160608152602001600015158152602001600081525090565b6000604051905090565b600080fd5b600080fd5b60007fffffffff0000000000000000000000000000000000000000000000000000000082169050919050565b6125d28161259d565b81146125dd57600080fd5b50565b6000813590506125ef816125c9565b92915050565b60006020828403121561260b5761260a612593565b5b6000612619848285016125e0565b91505092915050565b60008115159050919050565b61263781612622565b82525050565b6000602082019050612652600083018461262e565b92915050565b600081519050919050565b600082825260208201905092915050565b60005b83811015612692578082015181840152602081019050612677565b60008484015250505050565b6000601f19601f8301169050919050565b60006126ba82612658565b6126c48185612663565b93506126d4818560208601612674565b6126dd8161269e565b840191505092915050565b6000602082019050818103600083015261270281846126af565b905092915050565b6000819050919050565b61271d8161270a565b811461272857600080fd5b50565b60008135905061273a81612714565b92915050565b60006020828403121561275657612755612593565b5b60006127648482850161272b565b91505092915050565b600073ffffffffffffffffffffffffffffffffffffffff82169050919050565b60006127988261276d565b9050919050565b6127a88161278d565b82525050565b60006020820190506127c3600083018461279f565b92915050565b6127d28161278d565b81146127dd57600080fd5b50565b6000813590506127ef816127c9565b92915050565b6000806040838503121561280c5761280b612593565b5b600061281a858286016127e0565b925050602061282b8582860161272b565b9150509250929050565b600080fd5b600080fd5b7f4e487b7100000000000000000000000000000000000000000000000000000000600052604160045260246000fd5b6128778261269e565b810181811067ffffffffffffffff821117156128965761289561283f565b5b80604052505050565b60006128a9612589565b90506128b5828261286e565b919050565b600067ffffffffffffffff8211156128d5576128d461283f565b5b6128de8261269e565b9050602081019050919050565b82818337600083830152505050565b600061290d612908846128ba565b61289f565b9050828152602081018484840111156129295761292861283a565b5b6129348482856128eb565b509392505050565b600082601f83011261295157612950612835565b5b81356129618482602086016128fa565b91505092915050565b60008060008060008060c0878903121561298757612986612593565b5b600061299589828a016127e0565b965050602087013567ffffffffffffffff8111156129b6576129b5612598565b5b6129c289828a0161293c565b955050604087013567ffffffffffffffff8111156129e3576129e2612598565b5b6129ef89828a0161293c565b9450506060612a0089828a0161272b565b935050608087013567ffffffffffffffff811115612a2157612a20612598565b5b612a2d89828a0161293c565b92505060a087013567ffffffffffffffff811115612a4e57612a4d612598565b5b612a5a89828a0161293c565b9150509295509295509295565b600080600060608486031215612a8057612a7f612593565b5b6000612a8e868287016127e0565b9350506020612a9f868287016127e0565b9250506040612ab08682870161272b565b9150509250925092565b600082825260208201905092915050565b6000612ad682612658565b612ae08185612aba565b9350612af0818560208601612674565b612af98161269e565b840191505092915050565b612b0d8161270a565b82525050565b612b1c81612622565b82525050565b600060c0830160008301518482036000860152612b3f8282612acb565b91505060208301518482036020860152612b598282612acb565b9150506040830151612b6e6040860182612b04565b5060608301518482036060860152612b868282612acb565b9150506080830151612b9b6080860182612b13565b5060a0830151612bae60a0860182612b04565b508091505092915050565b60006020820190508181036000830152612bd38184612b22565b905092915050565b600060208284031215612bf157612bf0612593565b5b6000612bff848285016127e0565b91505092915050565b612c118161270a565b82525050565b6000602082019050612c2c6000830184612c08565b92915050565b612c3b81612622565b8114612c4657600080fd5b50565b600081359050612c5881612c32565b92915050565b60008060408385031215612c7557612c74612593565b5b6000612c83858286016127e0565b9250506020612c9485828601612c49565b9150509250929050565b600067ffffffffffffffff821115612cb957612cb861283f565b5b612cc28261269e565b9050602081019050919050565b6000612ce2612cdd84612c9e565b61289f565b905082815260208101848484011115612cfe57612cfd61283a565b5b612d098482856128eb565b509392505050565b600082601f830112612d2657612d25612835565b5b8135612d36848260208601612ccf565b91505092915050565b60008060008060808587031215612d5957612d58612593565b5b6000612d67878288016127e0565b9450506020612d78878288016127e0565b9350506040612d898782880161272b565b925050606085013567ffffffffffffffff811115612daa57612da9612598565b5b612db687828801612d11565b91505092959194509250565b60008060408385031215612dd957612dd8612593565b5b6000612de7858286016127e0565b9250506020612df8858286016127e0565b9150509250929050565b60008060408385031215612e1957612e18612593565b5b6000612e278582860161272b565b9250506020612e388582860161272b565b9150509250929050565b7f4e487b7100000000000000000000000000000000000000000000000000000000600052602260045260246000fd5b60006002820490506001821680612e8957607f821691505b602082108103612e9c57612e9b612e42565b5b50919050565b7f56494e206d7573742062652070726f7669646564000000000000000000000000600082015250565b6000612ed8601483612663565b9150612ee382612ea2565b602082019050919050565b60006020820190508181036000830152612f0781612ecb565b9050919050565b600081905092915050565b6000612f2482612658565b612f2e8185612f0e565b9350612f3e818560208601612674565b80840191505092915050565b6000612f568284612f19565b915081905092915050565b60008190508160005260206000209050919050565b60008154612f8381612e71565b612f8d8186612f0e565b94506001821660008114612fa85760018114612fbd57612ff0565b60ff1983168652811515820286019350612ff0565b612fc685612f61565b60005b83811015612fe857815481890152600182019150602081019050612fc9565b838801955050505b50505092915050565b60006130058284612f76565b915081905092915050565b7f56494e20616c7265616479206578697374730000000000000000000000000000600082015250565b6000613046601283612663565b915061305182613010565b602082019050919050565b6000602082019050818103600083015261307581613039565b9050919050565b60006020601f8301049050919050565b600082821b905092915050565b6000600883026130c97fffffffffffffffffffffffffffffffffffffffffffffffffffffffffffffffff8261308c565b6130d3868361308c565b95508019841693508086168417925050509392505050565b6000819050919050565b600061311061310b6131068461270a565b6130eb565b61270a565b9050919050565b6000819050919050565b61312a836130f5565b61313e61313682613117565b848454613099565b825550505050565b600090565b613153613146565b61315e818484613121565b505050565b5b818110156131825761317760008261314b565b600181019050613164565b5050565b601f8211156131c75761319881612f61565b6131a18461307c565b810160208510156131b0578190505b6131c46131bc8561307c565b830182613163565b50505b505050565b600082821c905092915050565b60006131ea600019846008026131cc565b1980831691505092915050565b600061320383836131d9565b9150826002028217905092915050565b61321c82612658565b67ffffffffffffffff8111156132355761323461283f565b5b61323f8254612e71565b61324a828285613186565b600060209050601f83116001811461327d576000841561326b578287015190505b61327585826131f7565b8655506132dd565b601f19841661328b86612f61565b60005b828110156132b35784890151825560018201915060208501945060208101905061328e565b868310156132d057848901516132cc601f8916826131d9565b8355505b6001600288020188555050505b505050505050565b7f4e487b7100000000000000000000000000000000000000000000000000000000600052601160045260246000fd5b600061331f8261270a565b91507fffffffffffffffffffffffffffffffffffffffffffffffffffffffffffffffff8203613351576133506132e5565b5b600182019050919050565b60006060820190506133716000830186612c08565b61337e602083018561279f565b818103604083015261339081846126af565b9050949350505050565b60006060820190506133af600083018661279f565b6133bc6020830185612c08565b6133c9604083018461279f565b949350505050565b7f436172206973206e6f7420666f722073616c6500000000000000000000000000600082015250565b6000613407601383612663565b9150613412826133d1565b602082019050919050565b60006020820190508181036000830152613436816133fa565b9050919050565b7f496e73756666696369656e74204554482073656e742e00000000000000000000600082015250565b6000613473601683612663565b915061347e8261343d565b602082019050919050565b600060208201905081810360008301526134a281613466565b9050919050565b7f596f752063616e6e6f742062757920796f7572206f776e206361722e00000000600082015250565b60006134df601c83612663565b91506134ea826134a9565b602082019050919050565b6000602082019050818103600083015261350e816134d2565b9050919050565b600060608201905061352a6000830186612c08565b613537602083018561279f565b6135446040830184612c08565b949350505050565b60006135588285612f19565b91506135648284612f19565b91508190509392505050565b7f4f6e6c7920746865206f776e6572206f66207468652076656869636c6520636160008201527f6e206c69737420697420666f722073616c652e00000000000000000000000000602082015250565b60006135cc603383612663565b91506135d782613570565b604082019050919050565b600060208201905081810360008301526135fb816135bf565b9050919050565b7f5072696365206d7573742062652067726561746572207468616e207a65726f2e600082015250565b6000613638602083612663565b915061364382613602565b602082019050919050565b600060208201905081810360008301526136678161362b565b9050919050565b60006040820190506136836000830185612c08565b6136906020830184612c08565b9392505050565b600081519050919050565b600082825260208201905092915050565b60006136be82613697565b6136c881856136a2565b93506136d8818560208601612674565b6136e18161269e565b840191505092915050565b6000608082019050613701600083018761279f565b61370e602083018661279f565b61371b6040830185612c08565b818103606083015261372d81846136b3565b905095945050505050565b600081519050613747816125c9565b92915050565b60006020828403121561376357613762612593565b5b600061377184828501613738565b91505092915050565b600060408201905061378f600083018561279f565b61379c6020830184612c08565b9392505050565b7f4e487b7100000000000000000000000000000000000000000000000000000000600052601260045260246000fdfea2646970667358221220536cc813afd3064e9a8906f047c418db4cda7ae5af7d50104ac9d6a1dd2bd97264736f6c634300081c0033",
  "linkReferences": {},
  "deployedLinkReferences": {}
}